{
  "contractName": "Distributor",
  "abi": [
    {
      "inputs": [
        {
          "internalType": "address",
          "name": "",
          "type": "address"
        },
        {
          "internalType": "uint256",
          "name": "",
          "type": "uint256"
        }
      ],
      "name": "ProductDtoC",
      "outputs": [
        {
          "internalType": "address",
          "name": "",
          "type": "address"
        }
      ],
      "stateMutability": "view",
      "type": "function"
    },
    {
      "inputs": [
        {
          "internalType": "address",
          "name": "",
          "type": "address"
        }
      ],
      "name": "ProductDtoCTxContract",
      "outputs": [
        {
          "internalType": "address",
          "name": "",
          "type": "address"
        }
      ],
      "stateMutability": "view",
      "type": "function"
    },
    {
      "inputs": [
        {
          "internalType": "address",
          "name": "",
          "type": "address"
        },
        {
          "internalType": "uint256",
          "name": "",
          "type": "uint256"
        }
      ],
      "name": "ProductsAtDistributor",
      "outputs": [
        {
          "internalType": "address",
          "name": "",
          "type": "address"
        }
      ],
      "stateMutability": "view",
      "type": "function"
    },
    {
      "inputs": [
        {
          "internalType": "address",
          "name": "_address",
          "type": "address"
        },
        {
          "internalType": "address",
          "name": "cid",
          "type": "address"
        }
      ],
      "name": "productRecievedAtDistributor",
      "outputs": [],
      "stateMutability": "nonpayable",
      "type": "function"
    },
    {
      "inputs": [
        {
          "internalType": "address",
          "name": "_address",
          "type": "address"
        },
        {
          "internalType": "address",
          "name": "transporter",
          "type": "address"
        },
        {
          "internalType": "address",
          "name": "receiver",
          "type": "address"
        }
      ],
      "name": "transferProductDtoC",
      "outputs": [],
      "stateMutability": "nonpayable",
      "type": "function"
    }
  ],
  "bytecode": "0x608060405234801561001057600080fd5b50610984806100206000396000f3fe608060405234801561001057600080fd5b50600436106100575760003560e01c8063110b30771461005c5780637f0018471461008b578063a232c1301461009e578063ab2910f4146100c7578063b427ee37146100dc575b600080fd5b61006f61006a3660046103a0565b6100ef565b6040516001600160a01b03909116815260200160405180910390f35b61006f6100993660046103a0565b610127565b61006f6100ac3660046103cc565b6002602052600090815260409020546001600160a01b031681565b6100da6100d53660046103f0565b610143565b005b6100da6100ea366004610429565b6102cb565b6001602052816000526040600020818154811061010b57600080fd5b6000918252602090912001546001600160a01b03169150829050565b6000602052816000526040600020818154811061010b57600080fd5b604051639296057b60e01b81523360048201526000906001600160a01b03841690639296057b906024016020604051808303816000875af115801561018c573d6000803e3d6000fd5b505050506040513d601f19601f820116820180604052508101906101b09190610474565b9050806002036102c65733600090815260208181526040808320805460018101825590845291832090910180546001600160a01b0319166001600160a01b03871690811790915581516355da145360e11b81529151909163abb428a69160048083019260609291908290030181865afa158015610231573d6000803e3d6000fd5b505050506040513d601f19601f82011682018060405250810190610255919061049d565b516001600160a01b0316146102c65760405163d7dcbe3b60e01b81526001600160a01b03848116600483015233602483015283169063d7dcbe3b90604401600060405180830381600087803b1580156102ad57600080fd5b505af11580156102c1573d6000803e3d6000fd5b505050505b505050565b6000833384846040516102dd9061037b565b6001600160a01b039485168152928416602084015290831660408301529091166060820152608001604051809103906000f080158015610321573d6000803e3d6000fd5b5033600090815260016020818152604080842080549384018155845281842090920180546001600160a01b039586166001600160a01b03199182168117909255989094168352600290529020805490951617909355505050565b61041e8061053183390190565b6001600160a01b038116811461039d57600080fd5b50565b600080604083850312156103b357600080fd5b82356103be81610388565b946020939093013593505050565b6000602082840312156103de57600080fd5b81356103e981610388565b9392505050565b6000806040838503121561040357600080fd5b823561040e81610388565b9150602083013561041e81610388565b809150509250929050565b60008060006060848603121561043e57600080fd5b833561044981610388565b9250602084013561045981610388565b9150604084013561046981610388565b809150509250925092565b60006020828403121561048657600080fd5b5051919050565b805161049881610388565b919050565b6000606082840312156104af57600080fd5b82601f8301126104be57600080fd5b6040516060810181811067ffffffffffffffff821117156104ef57634e487b7160e01b600052604160045260246000fd5b60405280606084018581111561050457600080fd5b845b81811015610525576105178161048d565b835260209283019201610506565b50919594505050505056fe608060405234801561001057600080fd5b5060405161041e38038061041e83398101604081905261002f916100b6565b600080546001600160a01b039485166001600160a01b0319918216811790925560018054968616968216969096179095556002805486169091179055600380549284169290941691909117909255600480546001600160a81b0319169290911691909117905561010a565b80516001600160a01b03811681146100b157600080fd5b919050565b600080600080608085870312156100cc57600080fd5b6100d58561009a565b93506100e36020860161009a565b92506100f16040860161009a565b91506100ff6060860161009a565b905092959194509250565b610305806101196000396000f3fe608060405234801561001057600080fd5b50600436106100415760003560e01c806353157b1a14610046578063c0114d061461005b578063f7addc3e14610075575b600080fd5b610059610054366004610286565b610088565b005b610063610186565b60405190815260200160405180910390f35b610059610083366004610286565b6101ac565b6003546001600160a01b038281169116146101065760405162461bcd60e51b815260206004820152603360248201527f4f6e6c79204173736f636961746564207472616e73706f727465722063616e2060448201527231b0b636103a3434b990333ab731ba34b7b71760691b60648201526084015b60405180910390fd5b60048054600160a01b60ff60a01b1982161782556002546040516305e3aeb160e31b81526001600160a01b039283169381019390935281166024830152831690632f1d7588906044015b600060405180830381600087803b15801561016a57600080fd5b505af115801561017e573d6000803e3d6000fd5b505050505050565b600454600090600160a01b900460ff1660028111156101a7576101a76102b9565b905090565b6004546001600160a01b038281169116146102225760405162461bcd60e51b815260206004820152603060248201527f4f6e6c79204173736f6369617465642072656365697665722063616e2063616c60448201526f36103a3434b990333ab731ba34b7b71760811b60648201526084016100fd565b600480546002919060ff60a01b1916600160a01b83021790555060405163c8f5f18960e01b81526001600160a01b03828116600483015283169063c8f5f18990602401610150565b80356001600160a01b038116811461028157600080fd5b919050565b6000806040838503121561029957600080fd5b6102a28361026a565b91506102b06020840161026a565b90509250929050565b634e487b7160e01b600052602160045260246000fdfea26469706673582212201996b20429dc0a21983315a91769f5dd295e9d971449ed14f9ad118d8acf9c2764736f6c63430008130033a26469706673582212201c4fac18a9afafc8520c89e062ed05f8ad2bb697751c4c3e8299401f258053e964736f6c63430008130033",
  "immutableReferences": {},
  "source": "// SPDX-License-Identifier: MIT\r\npragma solidity >=0.4.22 <0.9.0;\r\nimport './ProductW_D.sol';\r\nimport './Product.sol';\r\nimport './ProductD_C.sol';\r\n\r\ncontract Distributor {\r\n    \r\n    mapping(address => address[]) public ProductsAtDistributor;\r\n    mapping(address => address[]) public ProductDtoC;\r\n    mapping(address => address) public ProductDtoCTxContract;\r\n    \r\n    function productRecievedAtDistributor(\r\n        address _address, \r\n        address cid\r\n        ) public {\r\n            \r\n        uint rtype = Product(_address).receivedProduct(msg.sender);\r\n        if(rtype == 2){\r\n            ProductsAtDistributor[msg.sender].push(_address);\r\n            if(Product(_address).getWDC()[0] != address(0)){\r\n                ProductW_D(cid).receiveWD(_address, msg.sender);\r\n            }\r\n        }\r\n    }\r\n\r\n\r\n    function transferProductDtoC(\r\n        address _address,\r\n        address transporter,\r\n        address receiver\r\n    ) public {\r\n        ProductD_C dp = new ProductD_C(\r\n            _address,\r\n            msg.sender,\r\n            transporter,\r\n            receiver\r\n        );\r\n        ProductDtoC[msg.sender].push(address(dp));\r\n        ProductDtoCTxContract[_address] = address(dp);\r\n    }\r\n\r\n}",
  "sourcePath": "C:\\Users\\Naveen\\Desktop\\FT\\FarmTrust1\\contracts\\Distributor.sol",
  "compiler": {
    "name": "solc",
    "version": "0.8.19+commit.7dd6d404.Emscripten.clang"
  },
  "schemaVersion": "3.4.13",
  "updatedAt": "2023-03-24T08:02:41.583Z",
  "devdoc": {
    "kind": "dev",
    "methods": {},
    "version": 1
  },
  "userdoc": {
    "kind": "user",
    "methods": {},
    "version": 1
  }
}