{
  "contractName": "Product",
  "abi": [
    {
      "inputs": [
        {
          "internalType": "address",
          "name": "_processorAddr",
          "type": "address"
        },
        {
          "internalType": "bytes32",
          "name": "_description",
          "type": "bytes32"
        },
        {
          "internalType": "address[]",
          "name": "_cropsAddr",
          "type": "address[]"
        },
        {
          "internalType": "uint256",
          "name": "_quantity",
          "type": "uint256"
        },
        {
          "internalType": "address[]",
          "name": "_transporterAddr",
          "type": "address[]"
        },
        {
          "internalType": "address",
          "name": "_wholesaler",
          "type": "address"
        },
        {
          "internalType": "address",
          "name": "_distributor",
          "type": "address"
        }
      ],
      "stateMutability": "nonpayable",
      "type": "constructor"
    },
    {
      "anonymous": false,
      "inputs": [
        {
          "indexed": true,
          "internalType": "address",
          "name": "BatchID",
          "type": "address"
        },
        {
          "indexed": true,
          "internalType": "address",
          "name": "Shipper",
          "type": "address"
        },
        {
          "indexed": true,
          "internalType": "address",
          "name": "Receiver",
          "type": "address"
        },
        {
          "indexed": false,
          "internalType": "uint256",
          "name": "TransporterType",
          "type": "uint256"
        },
        {
          "indexed": false,
          "internalType": "uint256",
          "name": "Status",
          "type": "uint256"
        }
      ],
      "name": "ShippmentUpdate",
      "type": "event"
    },
    {
      "inputs": [],
      "name": "getProductInfo",
      "outputs": [
        {
          "internalType": "address",
          "name": "_processorAddr",
          "type": "address"
        },
        {
          "internalType": "bytes32",
          "name": "_description",
          "type": "bytes32"
        },
        {
          "internalType": "address[]",
          "name": "_cropsAddr",
          "type": "address[]"
        },
        {
          "internalType": "uint256",
          "name": "_quantity",
          "type": "uint256"
        },
        {
          "internalType": "address[]",
          "name": "_transporterAddr",
          "type": "address[]"
        },
        {
          "internalType": "address",
          "name": "_distributor",
          "type": "address"
        },
        {
          "internalType": "uint256",
          "name": "_status",
          "type": "uint256"
        },
        {
          "internalType": "address",
          "name": "_txnContract",
          "type": "address"
        },
        {
          "internalType": "address",
          "name": "_wholesaler",
          "type": "address"
        }
      ],
      "stateMutability": "view",
      "type": "function"
    },
    {
      "inputs": [],
      "name": "getWDC",
      "outputs": [
        {
          "internalType": "address[3]",
          "name": "WDP",
          "type": "address[3]"
        }
      ],
      "stateMutability": "view",
      "type": "function"
    },
    {
      "inputs": [],
      "name": "getBatchIDStatus",
      "outputs": [
        {
          "internalType": "uint256",
          "name": "",
          "type": "uint256"
        }
      ],
      "stateMutability": "view",
      "type": "function"
    },
    {
      "inputs": [
        {
          "internalType": "address",
          "name": "_transporterAddr",
          "type": "address"
        }
      ],
      "name": "pickProduct",
      "outputs": [],
      "stateMutability": "nonpayable",
      "type": "function"
    },
    {
      "inputs": [
        {
          "internalType": "address",
          "name": "_transporterAddr",
          "type": "address"
        }
      ],
      "name": "updateTransporterArray",
      "outputs": [],
      "stateMutability": "nonpayable",
      "type": "function"
    },
    {
      "inputs": [
        {
          "internalType": "address",
          "name": "addr",
          "type": "address"
        }
      ],
      "name": "updateWholesalerAddress",
      "outputs": [],
      "stateMutability": "nonpayable",
      "type": "function"
    },
    {
      "inputs": [
        {
          "internalType": "address",
          "name": "addr",
          "type": "address"
        }
      ],
      "name": "updateDistributorAddress",
      "outputs": [],
      "stateMutability": "nonpayable",
      "type": "function"
    },
    {
      "inputs": [
        {
          "internalType": "address",
          "name": "_receiverAddr",
          "type": "address"
        }
      ],
      "name": "receivedProduct",
      "outputs": [
        {
          "internalType": "uint256",
          "name": "",
          "type": "uint256"
        }
      ],
      "stateMutability": "nonpayable",
      "type": "function"
    },
    {
      "inputs": [
        {
          "internalType": "address",
          "name": "receiver",
          "type": "address"
        },
        {
          "internalType": "address",
          "name": "sender",
          "type": "address"
        }
      ],
      "name": "sendWtoD",
      "outputs": [],
      "stateMutability": "nonpayable",
      "type": "function"
    },
    {
      "inputs": [
        {
          "internalType": "address",
          "name": "receiver",
          "type": "address"
        }
      ],
      "name": "receivedWtoD",
      "outputs": [],
      "stateMutability": "nonpayable",
      "type": "function"
    },
    {
      "inputs": [
        {
          "internalType": "address",
          "name": "receiver",
          "type": "address"
        },
        {
          "internalType": "address",
          "name": "sender",
          "type": "address"
        }
      ],
      "name": "sendDtoC",
      "outputs": [],
      "stateMutability": "nonpayable",
      "type": "function"
    },
    {
      "inputs": [
        {
          "internalType": "address",
          "name": "receiver",
          "type": "address"
        }
      ],
      "name": "receivedDtoC",
      "outputs": [],
      "stateMutability": "nonpayable",
      "type": "function"
    }
  ],
  "bytecode": "0x60806040523480156200001157600080fd5b5060405162001aec38038062001aec8339810160408190526200003491620002aa565b600080546001600160a01b0389166001600160a01b0319918216811790925560048054909116909117905560018690558451620000799060029060208801906200013b565b5060088490558251620000949060039060208601906200013b565b50600580546001600160a01b038085166001600160a01b03199283161790925560068054928416929091169190911790556040516000908890620000d890620001a5565b6001600160a01b039091168152602001604051809103906000f08015801562000105573d6000803e3d6000fd5b50600980546001600160a01b0390921661010002610100600160a81b031990921691909117905550620003609650505050505050565b82805482825590600052602060002090810192821562000193579160200282015b828111156200019357825182546001600160a01b0319166001600160a01b039091161782556020909201916001909101906200015c565b50620001a1929150620001b3565b5090565b610cb28062000e3a83390190565b5b80821115620001a15760008155600101620001b4565b80516001600160a01b0381168114620001e257600080fd5b919050565b634e487b7160e01b600052604160045260246000fd5b600082601f8301126200020f57600080fd5b815160206001600160401b03808311156200022e576200022e620001e7565b8260051b604051601f19603f83011681018181108482111715620002565762000256620001e7565b6040529384528581018301938381019250878511156200027557600080fd5b83870191505b848210156200029f576200028f82620001ca565b835291830191908301906200027b565b979650505050505050565b600080600080600080600060e0888a031215620002c657600080fd5b620002d188620001ca565b602089015160408a015191985096506001600160401b0380821115620002f657600080fd5b620003048b838c01620001fd565b965060608a0151955060808a01519150808211156200032257600080fd5b50620003318a828b01620001fd565b9350506200034260a08901620001ca565b91506200035260c08901620001ca565b905092959891949750929550565b610aca80620003706000396000f3fe608060405234801561001057600080fd5b50600436106100b45760003560e01c8063abb428a611610071578063abb428a6146101aa578063c8f5f189146101bf578063d2f3fcc7146101d2578063e138d4ce146101da578063f5c0e3831461020a578063fc72a3851461021d57600080fd5b8063191733d6146100b95780632f1d7588146100ce5780639296057b146100e157806393a668b71461010757806396991e791461011a578063aab3a9d61461014a575b600080fd5b6100cc6100c73660046108b7565b61023a565b005b6100cc6100dc3660046108d9565b61039e565b6100f46100ef3660046108b7565b61040e565b6040519081526020015b60405180910390f35b6100cc6101153660046108b7565b6105a5565b6100cc6101283660046108b7565b600680546001600160a01b0319166001600160a01b0392909216919091179055565b6100cc6101583660046108b7565b600380546001810182556000919091527fc2575a0e9e593c00f959f8c92f12db2869c3395a3b0502d05e2516446f71f85b0180546001600160a01b0319166001600160a01b0392909216919091179055565b6101b26105f9565b6040516100fe919061090c565b6100cc6101cd3660046108b7565b610634565b6100f4610698565b6100cc6101e83660046108b7565b600580546001600160a01b0319166001600160a01b0392909216919091179055565b6100cc6102183660046108d9565b6106b7565b610225610741565b6040516100fe9998979695949392919061098a565b6003805461024a906001906109fe565b8154811061025a5761025a610a25565b6000918252602090912001546001600160a01b038281169116146102d55760405162461bcd60e51b815260206004820152602760248201527f4f6e6c79205472616e73706f727465722063616e2063616c6c207468697320666044820152663ab731ba34b7b760c91b60648201526084015b60405180910390fd5b600060095460ff1660068111156102ee576102ee610a3b565b1461033b5760405162461bcd60e51b815260206004820152601d60248201527f5061636b616765206d7573742062652061742070726f636573736f722e00000060448201526064016102cc565b600980546001919060ff19168280021790555060055460408051600180825260208201526001600160a01b039283169284169130917f7e89c4b1a4e2b51aae84eb1f90e8a34cb792ece5ac5cb63db4830c891220b28d910160405180910390a450565b6006546001600160a01b038281169116146103cb5760405162461bcd60e51b81526004016102cc90610a51565b600780546001600160a01b0319166001600160a01b03841617905560055b6009805460ff1916600183600681111561040557610405610a3b565b02179055505050565b6005546000906001600160a01b038381169116148061043a57506006546001600160a01b038381169116145b6104a45760405162461bcd60e51b815260206004820152603560248201527f4f6e6c792057686f6c6573616c6572206f72204469737472696275746f72206360448201527430b71031b0b636103a3434b990333ab731ba34b7b760591b60648201526084016102cc565b60095460019060ff1660068111156104be576104be610a3b565b10156105085760405162461bcd60e51b8152602060048201526019602482015278141c9bd91d58dd081b9bdd081c1a58dad959081d5c081e595d603a1b60448201526064016102cc565b6009805460ff1916600390811790915560055481546001600160a01b039091169190610536906001906109fe565b8154811061054657610546610a25565b6000918252602091829020015460408051600281526003938101939093526001600160a01b039091169130917f7e89c4b1a4e2b51aae84eb1f90e8a34cb792ece5ac5cb63db4830c891220b28d910160405180910390a4506001919050565b6006546001600160a01b038281169116146105d25760405162461bcd60e51b81526004016102cc90610a51565b60045b6009805460ff191660018360068111156105f1576105f1610a3b565b021790555050565b61060161087d565b50604080516060810182526005546001600160a01b03908116825260065481166020830152600754169181019190915290565b6007546001600160a01b038281169116146106915760405162461bcd60e51b815260206004820181905260248201527f5468697320437573746f6d6572206973206e6f74204173736f6369617465642e60448201526064016102cc565b60066105d5565b60095460009060ff1660068111156106b2576106b2610a3b565b905090565b6005546001600160a01b0382811691161461071f5760405162461bcd60e51b815260206004820152602260248201527f746869732057686f6c6573616c6572206973206e6f74204173736f6369617465604482015261321760f11b60648201526084016102cc565b600680546001600160a01b0319166001600160a01b03841617905560026103e9565b6004546001546008546006805460095460009586956060958795879587958695869586956001600160a01b03928316959194600294919360039391169160ff169081111561079157610791610a3b565b6009546005548654604080516020808402820181019092528281526101009094046001600160a01b03908116949316929189918301828280156107fd57602002820191906000526020600020905b81546001600160a01b031681526001909101906020018083116107df575b505050505096508480548060200260200160405190810160405280929190818152602001828054801561085957602002820191906000526020600020905b81546001600160a01b0316815260019091019060200180831161083b575b50505050509450985098509850985098509850985098509850909192939495969798565b60405180606001604052806003906020820280368337509192915050565b80356001600160a01b03811681146108b257600080fd5b919050565b6000602082840312156108c957600080fd5b6108d28261089b565b9392505050565b600080604083850312156108ec57600080fd5b6108f58361089b565b91506109036020840161089b565b90509250929050565b60608101818360005b600381101561093d5781516001600160a01b0316835260209283019290910190600101610915565b50505092915050565b600081518084526020808501945080840160005b8381101561097f5781516001600160a01b03168752958201959082019060010161095a565b509495945050505050565b6001600160a01b038a81168252602082018a9052610120604083018190526000916109b78483018c610946565b915089606085015283820360808501526109d1828a610946565b97811660a085015260c0840196909652505091831660e08301529091166101009091015295945050505050565b81810381811115610a1f57634e487b7160e01b600052601160045260246000fd5b92915050565b634e487b7160e01b600052603260045260246000fd5b634e487b7160e01b600052602160045260246000fd5b60208082526023908201527f54686973204469737472696275746f72206973206e6f74204173736f6369617460408201526232b21760e91b60608201526080019056fea2646970667358221220cc292a1b612117e8e240b9e6cb78b66605acf16748b5562cd50edfc0c9ae2a0264736f6c634300081300336080604052600060025534801561001557600080fd5b50604051610cb2380380610cb283398101604081905261003491610059565b600080546001600160a01b0319166001600160a01b0392909216919091179055610089565b60006020828403121561006b57600080fd5b81516001600160a01b038116811461008257600080fd5b9392505050565b610c1a806100986000396000f3fe608060405234801561001057600080fd5b506004361061004c5760003560e01c806327506f53146100515780633626a3681461006f57806378ce1365146100845780639ace38c21461009b575b600080fd5b6100596100c1565b6040516100669190610730565b60405180910390f35b61008261007d3660046108ba565b610310565b005b61008d60025481565b604051908152602001610066565b6100ae6100a9366004610951565b610590565b604051610066979695949392919061096a565b60025460609060008167ffffffffffffffff8111156100e2576100e2610817565b60405190808252806020026020018201604052801561014857816020015b6040805160e0810182526000808252602080830182905292820181905260608083018290526080830181905260a083015260c082015282526000199092019101816101005790505b50905060005b8281101561030957600081815260016020818152604092839020835160e08101855281548152928101546001600160a01b0390811692840192909252600281015490911692820192909252600382015460608201526004820180549192916080840191906101bb906109ca565b80601f01602080910402602001604051908101604052809291908181526020018280546101e7906109ca565b80156102345780601f1061020957610100808354040283529160200191610234565b820191906000526020600020905b81548152906001019060200180831161021757829003601f168201915b5050505050815260200160058201805461024d906109ca565b80601f0160208091040260200160405190810160405280929190818152602001828054610279906109ca565b80156102c65780601f1061029b576101008083540402835291602001916102c6565b820191906000526020600020905b8154815290600101906020018083116102a957829003601f168201915b505050505081526020016006820154815250508282815181106102eb576102eb610a04565b6020026020010181905250808061030190610a30565b91505061014e565b5092915050565b60025442906000036103ea576040805160e0810182528881526001600160a01b038089166020808401918252898316848601908152606085018a8152608086018a815260a087018a905260c087018990526002805460009081526001958690529890982087518155945193850180549487166001600160a01b03199586161790559151968401805497909516969092169590951790925590516003820155915190919060048201906103c29082610a98565b5060a082015160058201906103d79082610a98565b5060c0820151816006015590505061052b565b836001600060016002546103fe9190610b58565b815260200190815260200160002060000154146104615760405162461bcd60e51b815260206004820152601b60248201527f5472616e73616374696f6e206572726f72206f63637572726564210000000000604482015260640160405180910390fd5b6040805160e0810182528881526001600160a01b038089166020808401918252898316848601908152606085018a8152608086018a815260a087018a905260c087018990526002805460009081526001958690529890982087518155945193850180549487166001600160a01b03199586161790559151968401805497909516969092169590951790925590516003820155915190919060048201906105079082610a98565b5060a0820151600582019061051c9082610a98565b5060c082015181600601559050505b60016002600082825461053e9190610b71565b90915550506040517f30d01d358fb0899fe4d50947b2e9301c952d9eed09b14c7ecdcbeed4434557c49061057f90899089908990899087908a908a90610b84565b60405180910390a150505050505050565b6001602081905260009182526040909120805491810154600282015460038301546004840180546001600160a01b0394851695949093169391926105d3906109ca565b80601f01602080910402602001604051908101604052809291908181526020018280546105ff906109ca565b801561064c5780601f106106215761010080835404028352916020019161064c565b820191906000526020600020905b81548152906001019060200180831161062f57829003601f168201915b505050505090806005018054610661906109ca565b80601f016020809104026020016040519081016040528092919081815260200182805461068d906109ca565b80156106da5780601f106106af576101008083540402835291602001916106da565b820191906000526020600020905b8154815290600101906020018083116106bd57829003601f168201915b5050505050908060060154905087565b6000815180845260005b81811015610710576020818501810151868301820152016106f4565b506000602082860101526020601f19601f83011685010191505092915050565b60006020808301818452808551808352604092508286019150828160051b87010184880160005b838110156107ed57888303603f19018552815180518452878101516001600160a01b03908116898601528782015116878501526060808201519085015260808082015160e082870181905291906107b0838801826106ea565b9250505060a080830151868303828801526107cb83826106ea565b60c0948501519790940196909652505094870194925090860190600101610757565b509098975050505050505050565b80356001600160a01b038116811461081257600080fd5b919050565b634e487b7160e01b600052604160045260246000fd5b600082601f83011261083e57600080fd5b813567ffffffffffffffff8082111561085957610859610817565b604051601f8301601f19908116603f0116810190828211818310171561088157610881610817565b8160405283815286602085880101111561089a57600080fd5b836020870160208301376000602085830101528094505050505092915050565b60008060008060008060c087890312156108d357600080fd5b863595506108e3602088016107fb565b94506108f1604088016107fb565b935060608701359250608087013567ffffffffffffffff8082111561091557600080fd5b6109218a838b0161082d565b935060a089013591508082111561093757600080fd5b5061094489828a0161082d565b9150509295509295509295565b60006020828403121561096357600080fd5b5035919050565b8781526001600160a01b038781166020830152861660408201526060810185905260e0608082018190526000906109a3908301866106ea565b82810360a08401526109b581866106ea565b9150508260c083015298975050505050505050565b600181811c908216806109de57607f821691505b6020821081036109fe57634e487b7160e01b600052602260045260246000fd5b50919050565b634e487b7160e01b600052603260045260246000fd5b634e487b7160e01b600052601160045260246000fd5b600060018201610a4257610a42610a1a565b5060010190565b601f821115610a9357600081815260208120601f850160051c81016020861015610a705750805b601f850160051c820191505b81811015610a8f57828155600101610a7c565b5050505b505050565b815167ffffffffffffffff811115610ab257610ab2610817565b610ac681610ac084546109ca565b84610a49565b602080601f831160018114610afb5760008415610ae35750858301515b600019600386901b1c1916600185901b178555610a8f565b600085815260208120601f198616915b82811015610b2a57888601518255948401946001909101908401610b0b565b5085821015610b485787850151600019600388901b60f8161c191681555b5050505050600190811b01905550565b81810381811115610b6b57610b6b610a1a565b92915050565b80820180821115610b6b57610b6b610a1a565b8781526001600160a01b03878116602083015286166040820152606081018590526080810184905260e060a08201819052600090610bc4908301856106ea565b82810360c0840152610bd681856106ea565b9a995050505050505050505056fea2646970667358221220ad3e83d8579e9c39663418c580c249f59eddf57ba0bd58657d72b382bd72fdca64736f6c63430008130033",
  "immutableReferences": {},
  "source": "// SPDX-License-Identifier: MIT\r\npragma solidity >=0.4.22 <0.9.0;\r\n\r\nimport './Transactions.sol';\r\n\r\ncontract Product {\r\n\r\n    address Owner;\r\n\r\n    enum productStatus {\r\n        atProcessor,\r\n        pickedForW,\r\n        pickedForD,\r\n        deliveredAtW,\r\n        deliveredAtD,\r\n        pickedForC,\r\n        deliveredAtC\r\n    }\r\n\r\n    bytes32 description;\r\n    address[] crops;\r\n    address[] transporters;\r\n    address processor;\r\n    address wholesaler;\r\n    address distributor;\r\n    address customer;\r\n    uint quantity;\r\n    productStatus status;\r\n    address txnContractAddress;\r\n\r\n    event ShippmentUpdate(\r\n        address indexed BatchID,\r\n        address indexed Shipper,\r\n        address indexed Receiver,\r\n        uint TransporterType,\r\n        uint Status\r\n    );\r\n\r\n\r\n    constructor (\r\n        address _processorAddr,\r\n        bytes32 _description,\r\n        address[] memory _cropsAddr,\r\n        uint _quantity,\r\n        address[] memory _transporterAddr,\r\n        address _wholesaler,\r\n        address _distributor\r\n    ) public {\r\n        Owner = _processorAddr;\r\n        processor = _processorAddr;\r\n        description = _description;\r\n        crops = _cropsAddr;\r\n        quantity = _quantity;\r\n        transporters = _transporterAddr;\r\n        wholesaler = _wholesaler;\r\n        distributor = _distributor;\r\n        Transactions txnContract = new Transactions(_processorAddr);\r\n        txnContractAddress = address(txnContract);\r\n    }\r\n\r\n\r\n    function getProductInfo () public view returns(\r\n        address _processorAddr,\r\n        bytes32 _description,\r\n        address[] memory _cropsAddr,\r\n        uint _quantity,\r\n        address[] memory _transporterAddr,\r\n        address _distributor,\r\n        uint _status,\r\n        address _txnContract,\r\n        address _wholesaler\r\n    ) {\r\n        return(\r\n            processor,\r\n            description,\r\n            crops,\r\n            quantity,\r\n            transporters,\r\n            distributor,\r\n            uint(status),\r\n            txnContractAddress,\r\n            wholesaler\r\n        );\r\n    }\r\n\r\n    function getWDC() public view returns(\r\n        address[3] memory WDP\r\n    ) {\r\n        return (\r\n            [wholesaler, distributor, customer]\r\n        );\r\n    }\r\n\r\n    function getBatchIDStatus() public view returns(\r\n        uint\r\n    ) {\r\n        return uint(status);\r\n    }\r\n\r\n\r\n    function pickProduct(\r\n        address _transporterAddr\r\n    ) public {\r\n        require(\r\n            _transporterAddr == transporters[transporters.length - 1],\r\n            \"Only Transporter can call this function\"\r\n        );\r\n        require(\r\n            status == productStatus(0),\r\n            \"Package must be at processor.\"\r\n        );\r\n\r\n        // if(wholesaler != address(0x0)){\r\n        status = productStatus(1);\r\n        emit ShippmentUpdate(address(this), _transporterAddr, wholesaler, 1, 1);\r\n        // }else{\r\n        //     status = productStatus(2);\r\n        //     emit ShippmentUpdate(address(this), _transporterAddr, distributor, 1, 2);\r\n        // }\r\n    }\r\n    \r\n    function updateTransporterArray(address _transporterAddr) public {\r\n        transporters.push(_transporterAddr);\r\n    }\r\n\r\n    function updateWholesalerAddress(address addr) public {\r\n        wholesaler = addr;\r\n    }\r\n\r\n    function updateDistributorAddress(address addr) public {\r\n        distributor = addr;\r\n    }\r\n\r\n    function receivedProduct(\r\n        address _receiverAddr\r\n    ) public\r\n    returns(uint)\r\n    {\r\n\r\n        require(\r\n            _receiverAddr == wholesaler || _receiverAddr == distributor,\r\n            \"Only Wholesaler or Distributor can call this function\"\r\n        );\r\n\r\n        require(\r\n            uint(status) >= 1,\r\n            \"Product not picked up yet\"\r\n        );\r\n\r\n        // if(_receiverAddr == wholesaler && status == productStatus(1)){\r\n        status = productStatus(3);\r\n        emit ShippmentUpdate(address(this), transporters[transporters.length - 1], wholesaler, 2, 3);\r\n        return 1;\r\n        // } else if(_receiverAddr == distributor && status == productStatus(2)){\r\n        //     status = productStatus(4);\r\n        //     emit ShippmentUpdate(address(this), transporters[transporters.length - 1], distributor,3, 4);\r\n        //     return 2;\r\n        // }\r\n    }\r\n\r\n\r\n    function sendWtoD(\r\n        address receiver,\r\n        address sender\r\n    ) public {\r\n        require(\r\n            wholesaler == sender,\r\n            \"this Wholesaler is not Associated.\"\r\n        );\r\n        distributor = receiver;\r\n        status = productStatus(2);\r\n    }\r\n\r\n\r\n    function receivedWtoD(\r\n        address receiver\r\n    ) public {\r\n        require(\r\n            distributor == receiver,\r\n            \"This Distributor is not Associated.\"\r\n        );\r\n        status = productStatus(4);\r\n    }\r\n\r\n\r\n    function sendDtoC(\r\n        address receiver,\r\n        address sender\r\n    ) public {\r\n        require(\r\n            distributor == sender,\r\n            \"This Distributor is not Associated.\"\r\n        );\r\n        customer = receiver;\r\n        status = productStatus(5);\r\n    }\r\n\r\n\r\n    function receivedDtoC(\r\n        address receiver\r\n    ) public {\r\n        require(\r\n            customer == receiver,\r\n            \"This Customer is not Associated.\"\r\n        );\r\n        status = productStatus(6);\r\n    }\r\n}\r\n",
  "sourcePath": "D:\\Projects\\FarmTrust1\\contracts\\Product.sol",
  "compiler": {
    "name": "solc",
    "version": "0.8.19+commit.7dd6d404.Emscripten.clang"
  },
  "schemaVersion": "3.4.13",
  "updatedAt": "2023-05-25T03:04:58.752Z",
  "devdoc": {
    "kind": "dev",
    "methods": {},
    "version": 1
  },
  "userdoc": {
    "kind": "user",
    "methods": {},
    "version": 1
  }
}