{
  "contractName": "ProductD_C",
  "abi": [
    {
      "inputs": [
        {
          "internalType": "address",
          "name": "_address",
          "type": "address"
        },
        {
          "internalType": "address",
          "name": "Sender",
          "type": "address"
        },
        {
          "internalType": "address",
          "name": "Transporter",
          "type": "address"
        },
        {
          "internalType": "address",
          "name": "Receiver",
          "type": "address"
        }
      ],
      "stateMutability": "nonpayable",
      "type": "constructor"
    },
    {
      "inputs": [
        {
          "internalType": "address",
          "name": "addr",
          "type": "address"
        }
      ],
      "name": "updateTransporterAddress",
      "outputs": [],
      "stateMutability": "nonpayable",
      "type": "function"
    },
    {
      "inputs": [
        {
          "internalType": "address",
          "name": "_address",
          "type": "address"
        },
        {
          "internalType": "address",
          "name": "transporterAddr",
          "type": "address"
        }
      ],
      "name": "pickDC",
      "outputs": [],
      "stateMutability": "nonpayable",
      "type": "function"
    },
    {
      "inputs": [
        {
          "internalType": "address",
          "name": "_address",
          "type": "address"
        },
        {
          "internalType": "address",
          "name": "Receiver",
          "type": "address"
        }
      ],
      "name": "receiveDC",
      "outputs": [],
      "stateMutability": "nonpayable",
      "type": "function"
    },
    {
      "inputs": [],
      "name": "get_addressStatus",
      "outputs": [
        {
          "internalType": "uint256",
          "name": "",
          "type": "uint256"
        }
      ],
      "stateMutability": "view",
      "type": "function"
    }
  ],
  "bytecode": "0x608060405234801561001057600080fd5b5060405161047b38038061047b83398101604081905261002f916100b6565b600080546001600160a01b039485166001600160a01b0319918216811790925560018054968616968216969096179095556002805486169091179055600380549284169290941691909117909255600480546001600160a81b0319169290911691909117905561010a565b80516001600160a01b03811681146100b157600080fd5b919050565b600080600080608085870312156100cc57600080fd5b6100d58561009a565b93506100e36020860161009a565b92506100f16040860161009a565b91506100ff6060860161009a565b905092959194509250565b610362806101196000396000f3fe608060405234801561001057600080fd5b506004361061004c5760003560e01c806353157b1a14610051578063bfcf7f2f14610066578063c0114d0614610096578063f7addc3e146100b0575b600080fd5b61006461005f3660046102c1565b6100c3565b005b6100646100743660046102f4565b600380546001600160a01b0319166001600160a01b0392909216919091179055565b61009e6101c1565b60405190815260200160405180910390f35b6100646100be3660046102c1565b6101e7565b6003546001600160a01b038281169116146101415760405162461bcd60e51b815260206004820152603360248201527f4f6e6c79204173736f636961746564207472616e73706f727465722063616e2060448201527231b0b636103a3434b990333ab731ba34b7b71760691b60648201526084015b60405180910390fd5b60048054600160a01b60ff60a01b1982161782556002546040516305e3aeb160e31b81526001600160a01b039283169381019390935281166024830152831690632f1d7588906044015b600060405180830381600087803b1580156101a557600080fd5b505af11580156101b9573d6000803e3d6000fd5b505050505050565b600454600090600160a01b900460ff1660028111156101e2576101e2610316565b905090565b6004546001600160a01b0382811691161461025d5760405162461bcd60e51b815260206004820152603060248201527f4f6e6c79204173736f6369617465642072656365697665722063616e2063616c60448201526f36103a3434b990333ab731ba34b7b71760811b6064820152608401610138565b600480546002919060ff60a01b1916600160a01b83021790555060405163c8f5f18960e01b81526001600160a01b03828116600483015283169063c8f5f1899060240161018b565b80356001600160a01b03811681146102bc57600080fd5b919050565b600080604083850312156102d457600080fd5b6102dd836102a5565b91506102eb602084016102a5565b90509250929050565b60006020828403121561030657600080fd5b61030f826102a5565b9392505050565b634e487b7160e01b600052602160045260246000fdfea264697066735822122061e44c0494f3ac91cecb65da2415c048682ef6306712144265d1f3bf2a4f996864736f6c63430008130033",
  "immutableReferences": {},
  "source": "// SPDX-License-Identifier: MIT\r\npragma solidity >=0.4.22 <0.9.0;\r\n\r\nimport './Product.sol';\r\n\r\ncontract ProductD_C {\r\n\r\n    address Owner;\r\n\r\n    enum packageStatus { atcreator, picked, delivered }\r\n\r\n    address productAddr;\r\n    address sender;\r\n    address transporter;\r\n    address receiver;\r\n    packageStatus status;\r\n\r\n    constructor(\r\n        address _address,\r\n        address Sender,\r\n        address Transporter,\r\n        address Receiver\r\n    ) public {\r\n        Owner = Sender;\r\n        productAddr = _address;\r\n        sender = Sender;\r\n        transporter = Transporter;\r\n        receiver = Receiver;\r\n        status = packageStatus(0);\r\n    }\r\n\r\n    function updateTransporterAddress(address addr) public {\r\n        transporter = addr;\r\n    }\r\n\r\n\r\n    function pickDC(\r\n        address _address,\r\n        address transporterAddr\r\n    ) public {\r\n        require(\r\n            transporter == transporterAddr,\r\n            \"Only Associated transporter can call this function.\"\r\n        );\r\n        status = packageStatus(1);\r\n\r\n        Product(_address).sendDtoC(\r\n            receiver,\r\n            sender\r\n        );\r\n    }\r\n\r\n\r\n    function receiveDC(\r\n        address _address,\r\n        address Receiver\r\n    ) public {\r\n        require(\r\n            Receiver == receiver,\r\n            \"Only Associated receiver can call this function.\"\r\n        );\r\n        status = packageStatus(2);\r\n        Product(_address).receivedDtoC(\r\n            Receiver\r\n        );\r\n    }\r\n\r\n    function get_addressStatus() public view returns(\r\n        uint\r\n    ) {\r\n        return uint(status);\r\n    }\r\n\r\n}",
  "sourcePath": "D:\\Projects\\FarmTrust1\\contracts\\ProductD_C.sol",
  "compiler": {
    "name": "solc",
    "version": "0.8.19+commit.7dd6d404.Emscripten.clang"
  },
  "schemaVersion": "3.4.13",
  "updatedAt": "2023-05-25T03:04:58.761Z",
  "devdoc": {
    "kind": "dev",
    "methods": {},
    "version": 1
  },
  "userdoc": {
    "kind": "user",
    "methods": {},
    "version": 1
  }
}