{
  "contractName": "ProductW_D",
  "abi": [
    {
      "inputs": [
        {
          "internalType": "address",
          "name": "_address",
          "type": "address"
        },
        {
          "internalType": "address",
          "name": "Sender",
          "type": "address"
        },
        {
          "internalType": "address",
          "name": "Transporter",
          "type": "address"
        },
        {
          "internalType": "address",
          "name": "Receiver",
          "type": "address"
        }
      ],
      "stateMutability": "nonpayable",
      "type": "constructor"
    },
    {
      "inputs": [
        {
          "internalType": "address",
          "name": "_address",
          "type": "address"
        },
        {
          "internalType": "address",
          "name": "_transporter",
          "type": "address"
        }
      ],
      "name": "pickWD",
      "outputs": [],
      "stateMutability": "nonpayable",
      "type": "function"
    },
    {
      "inputs": [
        {
          "internalType": "address",
          "name": "_address",
          "type": "address"
        },
        {
          "internalType": "address",
          "name": "Receiver",
          "type": "address"
        }
      ],
      "name": "receiveWD",
      "outputs": [],
      "stateMutability": "nonpayable",
      "type": "function"
    },
    {
      "inputs": [],
      "name": "getBatchIDStatus",
      "outputs": [
        {
          "internalType": "uint256",
          "name": "",
          "type": "uint256"
        }
      ],
      "stateMutability": "view",
      "type": "function"
    }
  ],
  "bytecode": "0x608060405234801561001057600080fd5b5060405161041a38038061041a83398101604081905261002f916100b6565b600080546001600160a01b039485166001600160a01b0319918216811790925560018054968616968216969096179095556002805486169091179055600380549284169290941691909117909255600480546001600160a81b0319169290911691909117905561010a565b80516001600160a01b03811681146100b157600080fd5b919050565b600080600080608085870312156100cc57600080fd5b6100d58561009a565b93506100e36020860161009a565b92506100f16040860161009a565b91506100ff6060860161009a565b905092959194509250565b610301806101196000396000f3fe608060405234801561001057600080fd5b50600436106100415760003560e01c8063443c28d814610046578063d2f3fcc71461005b578063d7dcbe3b14610075575b600080fd5b610059610054366004610282565b610088565b005b610063610182565b60405190815260200160405180910390f35b610059610083366004610282565b6101a8565b6003546001600160a01b038281169116146101025760405162461bcd60e51b815260206004820152602f60248201527f4f6e6c79204173736f63696174656420736869707065722063616e2063616c6c60448201526e103a3434b990333ab731ba34b7b71760891b60648201526084015b60405180910390fd5b60048054600160a01b60ff60a01b19821617825560025460405163f5c0e38360e01b81526001600160a01b03928316938101939093528116602483015283169063f5c0e383906044015b600060405180830381600087803b15801561016657600080fd5b505af115801561017a573d6000803e3d6000fd5b505050505050565b600454600090600160a01b900460ff1660028111156101a3576101a36102b5565b905090565b6004546001600160a01b0382811691161461021e5760405162461bcd60e51b815260206004820152603060248201527f4f6e6c79204173736f6369617465642072656365697665722063616e2063616c60448201526f36103a3434b990333ab731ba34b7b71760811b60648201526084016100f9565b600480546002919060ff60a01b1916600160a01b8302179055506040516393a668b760e01b81526001600160a01b0382811660048301528316906393a668b79060240161014c565b80356001600160a01b038116811461027d57600080fd5b919050565b6000806040838503121561029557600080fd5b61029e83610266565b91506102ac60208401610266565b90509250929050565b634e487b7160e01b600052602160045260246000fdfea2646970667358221220dded0d20a6efe599cca298e00c387756010f4d7d09ea7038177eb2dc298163ed64736f6c63430008130033",
  "immutableReferences": {},
  "source": "// SPDX-License-Identifier: MIT\r\npragma solidity >=0.4.22 <0.9.0;\r\n\r\nimport './Product.sol';\r\n\r\ncontract ProductW_D {\r\n\r\n    address Owner;\r\n\r\n    enum packageStatus { atcreator, picked, delivered }\r\n\r\n    address productId;\r\n    address sender;\r\n    address transporter;\r\n    address receiver;\r\n    packageStatus status;\r\n\r\n    constructor(\r\n        address _address,\r\n        address Sender,\r\n        address Transporter,\r\n        address Receiver\r\n    ) public {\r\n        Owner = Sender;\r\n        productId = _address;\r\n        sender = Sender;\r\n        transporter = Transporter;\r\n        receiver = Receiver;\r\n        status = packageStatus(0);\r\n    }\r\n\r\n\r\n    function pickWD(\r\n        address _address,\r\n        address _transporter\r\n    ) public {\r\n        require(\r\n            transporter == _transporter,\r\n            \"Only Associated shipper can call this function.\"\r\n        );\r\n        status = packageStatus(1);\r\n\r\n        Product(_address).sendWtoD(\r\n            receiver,\r\n            sender\r\n        );\r\n    }\r\n\r\n    function receiveWD(\r\n        address _address,\r\n        address Receiver\r\n    ) public {\r\n        require(\r\n            Receiver == receiver,\r\n            \"Only Associated receiver can call this function.\"\r\n        );\r\n        status = packageStatus(2);\r\n\r\n        Product(_address).receivedWtoD(\r\n            Receiver\r\n        );\r\n    }\r\n\r\n    function getBatchIDStatus() public view returns(\r\n        uint\r\n    ) {\r\n        return uint(status);\r\n    }\r\n\r\n}",
  "sourcePath": "D:\\Projects\\Farmtrust1\\contracts\\ProductW_D.sol",
  "compiler": {
    "name": "solc",
    "version": "0.8.19+commit.7dd6d404.Emscripten.clang"
  },
  "schemaVersion": "3.4.13",
  "updatedAt": "2023-04-26T15:55:05.462Z",
  "devdoc": {
    "kind": "dev",
    "methods": {},
    "version": 1
  },
  "userdoc": {
    "kind": "user",
    "methods": {},
    "version": 1
  }
}