{
  "contractName": "SupplyChain",
  "abi": [
    {
      "inputs": [],
      "stateMutability": "nonpayable",
      "type": "constructor"
    },
    {
      "anonymous": false,
      "inputs": [
        {
          "indexed": true,
          "internalType": "address",
          "name": "_address",
          "type": "address"
        },
        {
          "indexed": false,
          "internalType": "bytes32",
          "name": "name",
          "type": "bytes32"
        }
      ],
      "name": "UserRegister",
      "type": "event"
    },
    {
      "anonymous": false,
      "inputs": [
        {
          "indexed": false,
          "internalType": "address",
          "name": "buyer",
          "type": "address"
        },
        {
          "indexed": true,
          "internalType": "address",
          "name": "seller",
          "type": "address"
        },
        {
          "indexed": false,
          "internalType": "address",
          "name": "packageAddr",
          "type": "address"
        },
        {
          "indexed": false,
          "internalType": "bytes",
          "name": "signature",
          "type": "bytes"
        },
        {
          "indexed": true,
          "internalType": "uint256",
          "name": "timestamp",
          "type": "uint256"
        }
      ],
      "name": "buyEvent",
      "type": "event"
    },
    {
      "anonymous": false,
      "inputs": [
        {
          "indexed": true,
          "internalType": "address",
          "name": "buyer",
          "type": "address"
        },
        {
          "indexed": false,
          "internalType": "address",
          "name": "seller",
          "type": "address"
        },
        {
          "indexed": false,
          "internalType": "address",
          "name": "packageAddr",
          "type": "address"
        },
        {
          "indexed": false,
          "internalType": "bytes",
          "name": "signature",
          "type": "bytes"
        },
        {
          "indexed": true,
          "internalType": "uint256",
          "name": "timestamp",
          "type": "uint256"
        }
      ],
      "name": "receivedEvent",
      "type": "event"
    },
    {
      "anonymous": false,
      "inputs": [
        {
          "indexed": true,
          "internalType": "address",
          "name": "buyer",
          "type": "address"
        },
        {
          "indexed": false,
          "internalType": "address",
          "name": "seller",
          "type": "address"
        },
        {
          "indexed": false,
          "internalType": "address",
          "name": "packageAddr",
          "type": "address"
        },
        {
          "indexed": false,
          "internalType": "bytes",
          "name": "signature",
          "type": "bytes"
        },
        {
          "indexed": true,
          "internalType": "uint256",
          "name": "timestamp",
          "type": "uint256"
        }
      ],
      "name": "respondEvent",
      "type": "event"
    },
    {
      "anonymous": false,
      "inputs": [
        {
          "indexed": false,
          "internalType": "address",
          "name": "seller",
          "type": "address"
        },
        {
          "indexed": false,
          "internalType": "address",
          "name": "buyer",
          "type": "address"
        },
        {
          "indexed": true,
          "internalType": "address",
          "name": "packageAddr",
          "type": "address"
        },
        {
          "indexed": false,
          "internalType": "bytes",
          "name": "signature",
          "type": "bytes"
        },
        {
          "indexed": true,
          "internalType": "uint256",
          "name": "timestamp",
          "type": "uint256"
        }
      ],
      "name": "sendEvent",
      "type": "event"
    },
    {
      "inputs": [],
      "name": "Owner",
      "outputs": [
        {
          "internalType": "address",
          "name": "",
          "type": "address"
        }
      ],
      "stateMutability": "view",
      "type": "function",
      "constant": true
    },
    {
      "inputs": [
        {
          "internalType": "bytes32",
          "name": "_description",
          "type": "bytes32"
        },
        {
          "internalType": "uint256",
          "name": "_quantity",
          "type": "uint256"
        },
        {
          "internalType": "address",
          "name": "_transporterAddr",
          "type": "address"
        },
        {
          "internalType": "address",
          "name": "_processorAddr",
          "type": "address"
        }
      ],
      "name": "createCropPackage",
      "outputs": [],
      "stateMutability": "nonpayable",
      "type": "function"
    },
    {
      "inputs": [
        {
          "internalType": "address",
          "name": "",
          "type": "address"
        },
        {
          "internalType": "uint256",
          "name": "",
          "type": "uint256"
        }
      ],
      "name": "farmerCrops",
      "outputs": [
        {
          "internalType": "address",
          "name": "",
          "type": "address"
        }
      ],
      "stateMutability": "view",
      "type": "function",
      "constant": true
    },
    {
      "inputs": [],
      "name": "getAllPackages",
      "outputs": [
        {
          "internalType": "address[]",
          "name": "",
          "type": "address[]"
        }
      ],
      "stateMutability": "view",
      "type": "function",
      "constant": true
    },
    {
      "inputs": [],
      "name": "getNoOfPackagesOfFarmer",
      "outputs": [
        {
          "internalType": "uint256",
          "name": "",
          "type": "uint256"
        }
      ],
      "stateMutability": "view",
      "type": "function",
      "constant": true
    },
    {
      "inputs": [
        {
          "internalType": "address",
          "name": "_addr",
          "type": "address"
        },
        {
          "internalType": "uint256",
          "name": "transportertype",
          "type": "uint256"
        },
        {
          "internalType": "address",
          "name": "cid",
          "type": "address"
        }
      ],
      "name": "handlePackage",
      "outputs": [],
      "stateMutability": "nonpayable",
      "type": "function"
    },
    {
      "inputs": [
        {
          "internalType": "address",
          "name": "_processorAddr",
          "type": "address"
        },
        {
          "internalType": "bytes32",
          "name": "_description",
          "type": "bytes32"
        },
        {
          "internalType": "address[]",
          "name": "_cropsAddr",
          "type": "address[]"
        },
        {
          "internalType": "uint256",
          "name": "_quantity",
          "type": "uint256"
        },
        {
          "internalType": "address[]",
          "name": "_transporterAddr",
          "type": "address[]"
        },
        {
          "internalType": "address",
          "name": "_recieverAddr",
          "type": "address"
        },
        {
          "internalType": "uint256",
          "name": "RcvrType",
          "type": "uint256"
        }
      ],
      "name": "processorCreatesProduct",
      "outputs": [],
      "stateMutability": "nonpayable",
      "type": "function"
    },
    {
      "inputs": [
        {
          "internalType": "address",
          "name": "",
          "type": "address"
        },
        {
          "internalType": "uint256",
          "name": "",
          "type": "uint256"
        }
      ],
      "name": "processorCrops",
      "outputs": [
        {
          "internalType": "address",
          "name": "",
          "type": "address"
        }
      ],
      "stateMutability": "view",
      "type": "function",
      "constant": true
    },
    {
      "inputs": [
        {
          "internalType": "address",
          "name": "",
          "type": "address"
        },
        {
          "internalType": "uint256",
          "name": "",
          "type": "uint256"
        }
      ],
      "name": "processorProducts",
      "outputs": [
        {
          "internalType": "address",
          "name": "",
          "type": "address"
        }
      ],
      "stateMutability": "view",
      "type": "function",
      "constant": true
    },
    {
      "inputs": [
        {
          "internalType": "address",
          "name": "_addr",
          "type": "address"
        },
        {
          "internalType": "address",
          "name": "_processorAddress",
          "type": "address"
        }
      ],
      "name": "processorReceivedPackage",
      "outputs": [],
      "stateMutability": "nonpayable",
      "type": "function"
    },
    {
      "inputs": [
        {
          "internalType": "address",
          "name": "",
          "type": "address"
        }
      ],
      "name": "userInfo",
      "outputs": [
        {
          "internalType": "bytes32",
          "name": "name",
          "type": "bytes32"
        },
        {
          "internalType": "enum roles",
          "name": "role",
          "type": "uint8"
        },
        {
          "internalType": "address",
          "name": "userAddr",
          "type": "address"
        }
      ],
      "stateMutability": "view",
      "type": "function",
      "constant": true
    },
    {
      "inputs": [
        {
          "internalType": "address",
          "name": "buyer",
          "type": "address"
        },
        {
          "internalType": "address",
          "name": "seller",
          "type": "address"
        },
        {
          "internalType": "address",
          "name": "packageAddr",
          "type": "address"
        },
        {
          "internalType": "bytes",
          "name": "signature",
          "type": "bytes"
        }
      ],
      "name": "requestProduct",
      "outputs": [],
      "stateMutability": "nonpayable",
      "type": "function"
    },
    {
      "inputs": [
        {
          "internalType": "address",
          "name": "buyer",
          "type": "address"
        },
        {
          "internalType": "address",
          "name": "seller",
          "type": "address"
        },
        {
          "internalType": "address",
          "name": "packageAddr",
          "type": "address"
        },
        {
          "internalType": "bytes",
          "name": "signature",
          "type": "bytes"
        }
      ],
      "name": "respondToEntity",
      "outputs": [],
      "stateMutability": "nonpayable",
      "type": "function"
    },
    {
      "inputs": [
        {
          "internalType": "address",
          "name": "buyer",
          "type": "address"
        },
        {
          "internalType": "address",
          "name": "seller",
          "type": "address"
        },
        {
          "internalType": "address",
          "name": "packageAddr",
          "type": "address"
        },
        {
          "internalType": "bytes",
          "name": "signature",
          "type": "bytes"
        }
      ],
      "name": "sendPackageToEntity",
      "outputs": [],
      "stateMutability": "nonpayable",
      "type": "function"
    },
    {
      "inputs": [
        {
          "internalType": "bytes32",
          "name": "name",
          "type": "bytes32"
        },
        {
          "internalType": "string[]",
          "name": "loc",
          "type": "string[]"
        },
        {
          "internalType": "uint256",
          "name": "role",
          "type": "uint256"
        },
        {
          "internalType": "address",
          "name": "_userAddr",
          "type": "address"
        }
      ],
      "name": "registerUser",
      "outputs": [],
      "stateMutability": "nonpayable",
      "type": "function"
    },
    {
      "inputs": [
        {
          "internalType": "uint256",
          "name": "_role",
          "type": "uint256"
        },
        {
          "internalType": "address",
          "name": "_addr",
          "type": "address"
        }
      ],
      "name": "changeUserRole",
      "outputs": [
        {
          "internalType": "string",
          "name": "",
          "type": "string"
        }
      ],
      "stateMutability": "nonpayable",
      "type": "function"
    },
    {
      "inputs": [
        {
          "internalType": "address",
          "name": "_address",
          "type": "address"
        }
      ],
      "name": "getUserInfo",
      "outputs": [
        {
          "components": [
            {
              "internalType": "bytes32",
              "name": "name",
              "type": "bytes32"
            },
            {
              "internalType": "string[]",
              "name": "userLoc",
              "type": "string[]"
            },
            {
              "internalType": "enum roles",
              "name": "role",
              "type": "uint8"
            },
            {
              "internalType": "address",
              "name": "userAddr",
              "type": "address"
            }
          ],
          "internalType": "struct UserData.userData",
          "name": "",
          "type": "tuple"
        }
      ],
      "stateMutability": "view",
      "type": "function",
      "constant": true
    },
    {
      "inputs": [
        {
          "internalType": "bytes32",
          "name": "_description",
          "type": "bytes32"
        },
        {
          "internalType": "uint256",
          "name": "_quantity",
          "type": "uint256"
        },
        {
          "internalType": "address",
          "name": "_transporterAddr",
          "type": "address"
        },
        {
          "internalType": "address",
          "name": "_processorAddr",
          "type": "address"
        }
      ],
      "name": "farmerCreatesCropPackage",
      "outputs": [],
      "stateMutability": "nonpayable",
      "type": "function"
    },
    {
      "inputs": [],
      "name": "farmerGetPackageCount",
      "outputs": [
        {
          "internalType": "uint256",
          "name": "",
          "type": "uint256"
        }
      ],
      "stateMutability": "view",
      "type": "function",
      "constant": true
    },
    {
      "inputs": [],
      "name": "farmerGetCropPackageAddresses",
      "outputs": [
        {
          "internalType": "address[]",
          "name": "",
          "type": "address[]"
        }
      ],
      "stateMutability": "view",
      "type": "function",
      "constant": true
    },
    {
      "inputs": [
        {
          "internalType": "address",
          "name": "_address",
          "type": "address"
        },
        {
          "internalType": "uint256",
          "name": "transporterType",
          "type": "uint256"
        },
        {
          "internalType": "address",
          "name": "cid",
          "type": "address"
        }
      ],
      "name": "transporterHandlePackage",
      "outputs": [],
      "stateMutability": "nonpayable",
      "type": "function"
    },
    {
      "inputs": [
        {
          "internalType": "address",
          "name": "_addr",
          "type": "address"
        }
      ],
      "name": "processorReceivedCrops",
      "outputs": [],
      "stateMutability": "nonpayable",
      "type": "function"
    },
    {
      "inputs": [
        {
          "internalType": "bytes32",
          "name": "_description",
          "type": "bytes32"
        },
        {
          "internalType": "address[]",
          "name": "_cropAddr",
          "type": "address[]"
        },
        {
          "internalType": "uint256",
          "name": "_quantity",
          "type": "uint256"
        },
        {
          "internalType": "address[]",
          "name": "_transporterAddr",
          "type": "address[]"
        },
        {
          "internalType": "address",
          "name": "_receiverAddr",
          "type": "address"
        },
        {
          "internalType": "uint256",
          "name": "RcvrType",
          "type": "uint256"
        }
      ],
      "name": "processorCreatesNewProduct",
      "outputs": [
        {
          "internalType": "string",
          "name": "",
          "type": "string"
        }
      ],
      "stateMutability": "nonpayable",
      "type": "function"
    }
  ],
  "bytecode": "0x608060405234801561001057600080fd5b50600480546001600160a01b031916331790556147b4806100326000396000f3fe60806040523480156200001157600080fd5b5060043610620001685760003560e01c80636f41507c11620000d3578063be7ef9c01162000086578063be7ef9c01462000359578063c81c0dfd1462000370578063d06f7b551462000387578063e0cf92fe146200039e578063ee0342cc14620003b5578063f9a386b114620003bf57600080fd5b80636f41507c14620002d25780639100978614620002e9578063aeb35f201462000300578063b4a99a4e1462000317578063b8b16ca3146200032b578063b91bd97c146200034257600080fd5b80631f90ddaf116200012c5780631f90ddaf1462000228578063493295b6146200024157806349e3fc4614620002585780634c3f3d73146200026f57806352caf8bf14620002955780636386c1c714620002ac57600080fd5b8062af37ff146200016d5780630a421f0f146200019157806312b7963614620001aa5780631959a00214620001d05780631a717f65146200021e575b600080fd5b336000908152602081905260409020545b6040519081526020015b60405180910390f35b6200019b620003d6565b60405162000188919062000ff3565b620001c1620001bb36600462001027565b620004c8565b60405162000188919062001054565b6200020d620001e136600462001068565b6003602052600090815260409020805460029091015460ff81169061010090046001600160a01b031683565b6040516200018893929190620010bf565b6200017e62000501565b6200023f62000239366004620011ba565b6200054e565b005b620001c16200025236600462001027565b62000657565b6200023f62000269366004620012b9565b62000674565b62000286620002803660046200136f565b620007ab565b6040516200018891906200145b565b6200023f620002a6366004620012b9565b62000835565b620002c3620002bd36600462001068565b62000880565b60405162000188919062001470565b6200023f620002e336600462001515565b62000a28565b62000286620002fa36600462001556565b62000b65565b6200023f6200031136600462001068565b62000bfd565b600454620001c1906001600160a01b031681565b6200023f6200033c36600462001585565b62000c43565b6200023f6200035336600462001612565b62000c91565b6200023f6200036a36600462001515565b62000d1e565b620001c16200038136600462001027565b62000d70565b6200023f6200039836600462001585565b62000d8d565b6200023f620003af36600462001585565b62000dcd565b6200019b62000e0d565b6200023f620003d0366004620016be565b62000e21565b33600090815260208190526040812054606091816001600160401b03811115620004045762000404620010ee565b6040519080825280602002602001820160405280156200042e578160200160208202803683370190505b50905060005b82811015620004c157336000908152602081905260409020805482908110620004615762000461620016ed565b9060005260206000200160009054906101000a90046001600160a01b0316828281518110620004945762000494620016ed565b6001600160a01b039092166020928302919091019091015280620004b88162001703565b91505062000434565b5092915050565b60006020528160005260406000208181548110620004e557600080fd5b6000918252602090912001546001600160a01b03169150829050565b600060013360009081526003602052604090206002015460ff1660068111156200052f576200052f62001086565b146200053a57600080fd5b503360009081526020819052604090205490565b6004546001600160a01b031633146200056657600080fd5b6001600160a01b038116600090815260036020908152604090912085815584516200059a9260019092019186019062000ec3565b50816006811115620005b057620005b062001086565b6001600160a01b0382166000908152600360205260409020600201805460ff19166001836006811115620005e857620005e862001086565b02179055506001600160a01b0381166000818152600360209081526040918290206002018054610100600160a81b031916610100850217905590518681527f33a7170f028b1e4f5ba321064a00ed820856a920c7f9c6636fbcf385427b1b0f910160405180910390a250505050565b60016020528160005260406000208181548110620004e557600080fd5b60405133606081901b6bffffffffffffffffffffffff1916602083015242603483015260009160029060540160408051601f1981840301815290829052620006bc916200172b565b602060405180830381855afa158015620006da573d6000803e3d6000fd5b5050506040513d601f19601f82011682018060405250810190620006ff919062001749565b60601c86868686604051620007149062000f20565b6001600160a01b0396871681529486166020860152604085019390935260608401919091528316608083015290911660a082015260c001604051809103906000f08015801562000768573d6000803e3d6000fd5b50336000908152602081815260408220805460018101825590835291200180546001600160a01b0319166001600160a01b03929092169190911790555050505050565b606060033360009081526003602052604090206002015460ff166006811115620007d957620007d962001086565b14620007e457600080fd5b81600003620007f257600080fd5b620008033388888888888862000c91565b5060408051808201909152601081526f50726f6475637420637265617465642160801b60208201529695505050505050565b60013360009081526003602052604090206002015460ff16600681111562000861576200086162001086565b146200086c57600080fd5b6200087a8484848462000674565b50505050565b620008ac6040805160808101825260008082526060602083015290918201908152600060209091015290565b6004546001600160a01b03163314620008c457600080fd5b6001600160a01b03821660009081526003602090815260408083208151608081018352815481526001820180548451818702810187019095528085529195929486810194939192919084015b82821015620009c6578382906000526020600020018054620009329062001763565b80601f0160208091040260200160405190810160405280929190818152602001828054620009609062001763565b8015620009b15780601f106200098557610100808354040283529160200191620009b1565b820191906000526020600020905b8154815290600101906020018083116200099357829003601f168201915b50505050508152602001906001019062000910565b50505090825250600282015460209091019060ff166006811115620009ef57620009ef62001086565b600681111562000a035762000a0362001086565b81526002919091015461010090046001600160a01b031660209091015290505b919050565b8160010362000a985760405163638e9a3d60e01b81526001600160a01b0384169063638e9a3d9062000a5f90339060040162001054565b600060405180830381600087803b15801562000a7a57600080fd5b505af115801562000a8f573d6000803e3d6000fd5b50505050505050565b8160020362000acf57604051630c8b99eb60e11b81526001600160a01b0384169063191733d69062000a5f90339060040162001054565b8160030362000b0d57604051630887851b60e31b81526001600160a01b03848116600483015233602483015282169063443c28d89060440162000a5f565b8160040362000b605760405163298abd8d60e11b81526001600160a01b0384811660048301523360248301528216906353157b1a90604401600060405180830381600087803b15801562000a7a57600080fd5b505050565b6004546060906001600160a01b0316331462000b8057600080fd5b82600681111562000b955762000b9562001086565b6001600160a01b0383166000908152600360205260409020600201805460ff1916600183600681111562000bcd5762000bcd62001086565b02179055505060408051808201909152600d81526c526f6c6520557064617465642160981b602082015292915050565b60033360009081526003602052604090206002015460ff16600681111562000c295762000c2962001086565b1462000c3457600080fd5b62000c40813362000e21565b50565b42836001600160a01b03167f22561ca0666e99052dd8231a6c5c337204ed5658c357aa6afcd53c207acfac6786858560405162000c83939291906200179f565b60405180910390a350505050565b60008787878787878760405162000ca89062000f2e565b62000cba9796959493929190620017d6565b604051809103906000f08015801562000cd7573d6000803e3d6000fd5b506001600160a01b0398891660009081526002602090815260408220805460018101825590835291200180546001600160a01b031916919099161790975550505050505050565b60023360009081526003602052604090206002015460ff16600681111562000d4a5762000d4a62001086565b1462000d5557600080fd5b6000821162000d6357600080fd5b62000b6083838362000a28565b60026020528160005260406000208181548110620004e557600080fd5b42826001600160a01b03167f31f87de04fd141167b8131be7a8ccb2bac63361a15671c96d90c39ddc9ef909d85878560405162000c83939291906200179f565b42846001600160a01b03167f9151271dfe612a18bf915ee1609e6f94f62fd775c704a0ae2ef091519f0c9b3985858560405162000c83939291906200179f565b6060600062000e1b620003d6565b92915050565b604051630a57332d60e31b81526001600160a01b038316906352b999689062000e4f90849060040162001054565b600060405180830381600087803b15801562000e6a57600080fd5b505af115801562000e7f573d6000803e3d6000fd5b505050506001600160a01b03908116600090815260016020818152604083208054928301815583529091200180546001600160a01b03191692909116919091179055565b82805482825590600052602060002090810192821562000f0e579160200282015b8281111562000f0e578251829062000efd908262001884565b509160200191906001019062000ee4565b5062000f1c92915062000f3c565b5090565b61127e806200195183390190565b611bb08062002bcf83390190565b8082111562000f1c57600062000f53828262000f5d565b5060010162000f3c565b50805462000f6b9062001763565b6000825580601f1062000f7c575050565b601f01602090049060005260206000209081019062000c4091905b8082111562000f1c576000815560010162000f97565b600081518084526020808501945080840160005b8381101562000fe85781516001600160a01b03168752958201959082019060010162000fc1565b509495945050505050565b60208152600062001008602083018462000fad565b9392505050565b80356001600160a01b038116811462000a2357600080fd5b600080604083850312156200103b57600080fd5b62001046836200100f565b946020939093013593505050565b6001600160a01b0391909116815260200190565b6000602082840312156200107b57600080fd5b62001008826200100f565b634e487b7160e01b600052602160045260246000fd5b60078110620010bb57634e487b7160e01b600052602160045260246000fd5b9052565b83815260608101620010d560208301856200109c565b6001600160a01b03929092166040919091015292915050565b634e487b7160e01b600052604160045260246000fd5b604051601f8201601f191681016001600160401b03811182821017156200112f576200112f620010ee565b604052919050565b60006001600160401b03821115620011535762001153620010ee565b5060051b60200190565b60006001600160401b03831115620011795762001179620010ee565b6200118e601f8401601f191660200162001104565b9050828152838383011115620011a357600080fd5b828260208301376000602084830101529392505050565b60008060008060808587031215620011d157600080fd5b843593506020808601356001600160401b0380821115620011f157600080fd5b818801915088601f8301126200120657600080fd5b81356200121d620012178262001137565b62001104565b81815260059190911b8301840190848101908b8311156200123d57600080fd5b8585015b8381101562001290578035858111156200125b5760008081fd5b8601603f81018e136200126e5760008081fd5b620012818e89830135604084016200115d565b84525091860191860162001241565b50975050505060408701359350620012ae915050606086016200100f565b905092959194509250565b60008060008060808587031215620012d057600080fd5b8435935060208501359250620012e9604086016200100f565b9150620012ae606086016200100f565b600082601f8301126200130b57600080fd5b813560206200131e620012178362001137565b82815260059290921b840181019181810190868411156200133e57600080fd5b8286015b84811015620013645762001356816200100f565b835291830191830162001342565b509695505050505050565b60008060008060008060c087890312156200138957600080fd5b8635955060208701356001600160401b0380821115620013a857600080fd5b620013b68a838b01620012f9565b9650604089013595506060890135915080821115620013d457600080fd5b50620013e389828a01620012f9565b935050620013f4608088016200100f565b915060a087013590509295509295509295565b60005b83811015620014245781810151838201526020016200140a565b50506000910152565b600081518084526200144781602086016020860162001407565b601f01601f19169290920160200192915050565b6020815260006200100860208301846200142d565b6000602080835260a08301845182850152818501516080604086015281815180845260c08701915060c08160051b8801019350848301925060005b81811015620014dd5760bf19888603018352620014ca8585516200142d565b94509285019291850191600101620014ab565b5050505060408501519150620014f760608501836200109c565b60608501516001600160a01b03811660808601529150949350505050565b6000806000606084860312156200152b57600080fd5b62001536846200100f565b9250602084013591506200154d604085016200100f565b90509250925092565b600080604083850312156200156a57600080fd5b823591506200157c602084016200100f565b90509250929050565b600080600080608085870312156200159c57600080fd5b620015a7856200100f565b9350620015b7602086016200100f565b9250620015c7604086016200100f565b915060608501356001600160401b03811115620015e357600080fd5b8501601f81018713620015f557600080fd5b62001606878235602084016200115d565b91505092959194509250565b600080600080600080600060e0888a0312156200162e57600080fd5b62001639886200100f565b96506020880135955060408801356001600160401b03808211156200165d57600080fd5b6200166b8b838c01620012f9565b965060608a0135955060808a01359150808211156200168957600080fd5b50620016988a828b01620012f9565b935050620016a960a089016200100f565b915060c0880135905092959891949750929550565b60008060408385031215620016d257600080fd5b620016dd836200100f565b91506200157c602084016200100f565b634e487b7160e01b600052603260045260246000fd5b6000600182016200172457634e487b7160e01b600052601160045260246000fd5b5060010190565b600082516200173f81846020870162001407565b9190910192915050565b6000602082840312156200175c57600080fd5b5051919050565b600181811c908216806200177857607f821691505b6020821081036200179957634e487b7160e01b600052602260045260246000fd5b50919050565b6001600160a01b03848116825283166020820152606060408201819052600090620017cd908301846200142d565b95945050505050565b600060018060a01b03808a16835288602084015260e060408401526200180060e084018962000fad565b87606085015283810360808501526200181a818862000fad565b9590911660a0840152505060c0015295945050505050565b601f82111562000b6057600081815260208120601f850160051c810160208610156200185b5750805b601f850160051c820191505b818110156200187c5782815560010162001867565b505050505050565b81516001600160401b03811115620018a057620018a0620010ee565b620018b881620018b1845462001763565b8462001832565b602080601f831160018114620018f05760008415620018d75750858301515b600019600386901b1c1916600185901b1785556200187c565b600085815260208120601f198616915b82811015620019215788860151825594840194600190910190840162001900565b5085821015620019405787850151600019600388901b60f8161c191681555b5050505050600190811b0190555056fe608060405234801561001057600080fd5b5060405161127e38038061127e83398101604081905261002f91610123565b600080546001600160a01b03199081166001600160a01b0389811691821784556001805484168a8316179055600288905560038790556004805484168783161790556005805490931690851617909155600680546001600160a81b031916909117905560405182906100a0906100fa565b6001600160a01b039091168152602001604051809103906000f0801580156100cc573d6000803e3d6000fd5b50600880546001600160a01b0319166001600160a01b03929092169190911790555061018995505050505050565b610cb2806105cc83390190565b80516001600160a01b038116811461011e57600080fd5b919050565b60008060008060008060c0878903121561013c57600080fd5b61014587610107565b955061015360208801610107565b9450604087015193506060870151925061016f60808801610107565b915061017d60a08801610107565b90509295509295509295565b610434806101986000396000f3fe608060405234801561001057600080fd5b506004361061004c5760003560e01c806324ce4bc81461005157806352b99968146100b1578063638e9a3d146100c657806368188a28146100d9575b600080fd5b600154600254600354600654600454600554600854604080516001600160a01b0398891681526020810197909752860194909452918516606085015284166080840152831660a08301529190911660c082015260e0015b60405180910390f35b6100c46100bf3660046103b8565b6100ef565b005b6100c46100d43660046103b8565b610247565b6100e1610392565b6040519081526020016100a8565b6005546001600160a01b038281169116146101705760405162461bcd60e51b815260206004820152603660248201527f4f6e6c792070726f636573736f72206f6620746865207061636b6167652063616044820152756e20726563656965766520746865207061636b61676560501b60648201526084015b60405180910390fd5b6001600654600160a01b900460ff166002811115610190576101906103e8565b146101d95760405162461bcd60e51b8152602060048201526019602482015278141c9bd91d58dd081b9bdd081c1a58dad959081d5c081e595d603a1b6044820152606401610167565b6006805460ff60a01b1916600160a11b1790556005546004546001805460408051928352600260208401526001600160a01b039485169493841693909116917f7e89c4b1a4e2b51aae84eb1f90e8a34cb792ece5ac5cb63db4830c891220b28d91015b60405180910390a450565b6004546001600160a01b038281169116146102bd5760405162461bcd60e51b815260206004820152603060248201527f4f6e6c79207472616e73706f72746572206f6620746865207061636b6167652060448201526f63616e207069636b207061636b61676560801b6064820152608401610167565b6000600654600160a01b900460ff1660028111156102dd576102dd6103e8565b1461032a5760405162461bcd60e51b815260206004820152601c60248201527f5061636b616765206d75737420626520617420537570706c6965722e000000006044820152606401610167565b6006805460ff60a01b1916600160a01b179055600554600454600180546040805183815260208101939093526001600160a01b039485169493841693909116917f7e89c4b1a4e2b51aae84eb1f90e8a34cb792ece5ac5cb63db4830c891220b28d910161023c565b600654600090600160a01b900460ff1660028111156103b3576103b36103e8565b905090565b6000602082840312156103ca57600080fd5b81356001600160a01b03811681146103e157600080fd5b9392505050565b634e487b7160e01b600052602160045260246000fdfea2646970667358221220ff739602138393c803bb8a8a60758686024d9af4aee0e1272ef2bf0417af17a864736f6c634300081300336080604052600060025534801561001557600080fd5b50604051610cb2380380610cb283398101604081905261003491610059565b600080546001600160a01b0319166001600160a01b0392909216919091179055610089565b60006020828403121561006b57600080fd5b81516001600160a01b038116811461008257600080fd5b9392505050565b610c1a806100986000396000f3fe608060405234801561001057600080fd5b506004361061004c5760003560e01c806327506f53146100515780633626a3681461006f57806378ce1365146100845780639ace38c21461009b575b600080fd5b6100596100c1565b6040516100669190610730565b60405180910390f35b61008261007d3660046108ba565b610310565b005b61008d60025481565b604051908152602001610066565b6100ae6100a9366004610951565b610590565b604051610066979695949392919061096a565b60025460609060008167ffffffffffffffff8111156100e2576100e2610817565b60405190808252806020026020018201604052801561014857816020015b6040805160e0810182526000808252602080830182905292820181905260608083018290526080830181905260a083015260c082015282526000199092019101816101005790505b50905060005b8281101561030957600081815260016020818152604092839020835160e08101855281548152928101546001600160a01b0390811692840192909252600281015490911692820192909252600382015460608201526004820180549192916080840191906101bb906109ca565b80601f01602080910402602001604051908101604052809291908181526020018280546101e7906109ca565b80156102345780601f1061020957610100808354040283529160200191610234565b820191906000526020600020905b81548152906001019060200180831161021757829003601f168201915b5050505050815260200160058201805461024d906109ca565b80601f0160208091040260200160405190810160405280929190818152602001828054610279906109ca565b80156102c65780601f1061029b576101008083540402835291602001916102c6565b820191906000526020600020905b8154815290600101906020018083116102a957829003601f168201915b505050505081526020016006820154815250508282815181106102eb576102eb610a04565b6020026020010181905250808061030190610a30565b91505061014e565b5092915050565b60025442906000036103ea576040805160e0810182528881526001600160a01b038089166020808401918252898316848601908152606085018a8152608086018a815260a087018a905260c087018990526002805460009081526001958690529890982087518155945193850180549487166001600160a01b03199586161790559151968401805497909516969092169590951790925590516003820155915190919060048201906103c29082610a98565b5060a082015160058201906103d79082610a98565b5060c0820151816006015590505061052b565b836001600060016002546103fe9190610b58565b815260200190815260200160002060000154146104615760405162461bcd60e51b815260206004820152601b60248201527f5472616e73616374696f6e206572726f72206f63637572726564210000000000604482015260640160405180910390fd5b6040805160e0810182528881526001600160a01b038089166020808401918252898316848601908152606085018a8152608086018a815260a087018a905260c087018990526002805460009081526001958690529890982087518155945193850180549487166001600160a01b03199586161790559151968401805497909516969092169590951790925590516003820155915190919060048201906105079082610a98565b5060a0820151600582019061051c9082610a98565b5060c082015181600601559050505b60016002600082825461053e9190610b71565b90915550506040517f30d01d358fb0899fe4d50947b2e9301c952d9eed09b14c7ecdcbeed4434557c49061057f90899089908990899087908a908a90610b84565b60405180910390a150505050505050565b6001602081905260009182526040909120805491810154600282015460038301546004840180546001600160a01b0394851695949093169391926105d3906109ca565b80601f01602080910402602001604051908101604052809291908181526020018280546105ff906109ca565b801561064c5780601f106106215761010080835404028352916020019161064c565b820191906000526020600020905b81548152906001019060200180831161062f57829003601f168201915b505050505090806005018054610661906109ca565b80601f016020809104026020016040519081016040528092919081815260200182805461068d906109ca565b80156106da5780601f106106af576101008083540402835291602001916106da565b820191906000526020600020905b8154815290600101906020018083116106bd57829003601f168201915b5050505050908060060154905087565b6000815180845260005b81811015610710576020818501810151868301820152016106f4565b506000602082860101526020601f19601f83011685010191505092915050565b60006020808301818452808551808352604092508286019150828160051b87010184880160005b838110156107ed57888303603f19018552815180518452878101516001600160a01b03908116898601528782015116878501526060808201519085015260808082015160e082870181905291906107b0838801826106ea565b9250505060a080830151868303828801526107cb83826106ea565b60c0948501519790940196909652505094870194925090860190600101610757565b509098975050505050505050565b80356001600160a01b038116811461081257600080fd5b919050565b634e487b7160e01b600052604160045260246000fd5b600082601f83011261083e57600080fd5b813567ffffffffffffffff8082111561085957610859610817565b604051601f8301601f19908116603f0116810190828211818310171561088157610881610817565b8160405283815286602085880101111561089a57600080fd5b836020870160208301376000602085830101528094505050505092915050565b60008060008060008060c087890312156108d357600080fd5b863595506108e3602088016107fb565b94506108f1604088016107fb565b935060608701359250608087013567ffffffffffffffff8082111561091557600080fd5b6109218a838b0161082d565b935060a089013591508082111561093757600080fd5b5061094489828a0161082d565b9150509295509295509295565b60006020828403121561096357600080fd5b5035919050565b8781526001600160a01b038781166020830152861660408201526060810185905260e0608082018190526000906109a3908301866106ea565b82810360a08401526109b581866106ea565b9150508260c083015298975050505050505050565b600181811c908216806109de57607f821691505b6020821081036109fe57634e487b7160e01b600052602260045260246000fd5b50919050565b634e487b7160e01b600052603260045260246000fd5b634e487b7160e01b600052601160045260246000fd5b600060018201610a4257610a42610a1a565b5060010190565b601f821115610a9357600081815260208120601f850160051c81016020861015610a705750805b601f850160051c820191505b81811015610a8f57828155600101610a7c565b5050505b505050565b815167ffffffffffffffff811115610ab257610ab2610817565b610ac681610ac084546109ca565b84610a49565b602080601f831160018114610afb5760008415610ae35750858301515b600019600386901b1c1916600185901b178555610a8f565b600085815260208120601f198616915b82811015610b2a57888601518255948401946001909101908401610b0b565b5085821015610b485787850151600019600388901b60f8161c191681555b5050505050600190811b01905550565b81810381811115610b6b57610b6b610a1a565b92915050565b80820180821115610b6b57610b6b610a1a565b8781526001600160a01b03878116602083015286166040820152606081018590526080810184905260e060a08201819052600090610bc4908301856106ea565b82810360c0840152610bd681856106ea565b9a995050505050505050505056fea2646970667358221220ad3e83d8579e9c39663418c580c249f59eddf57ba0bd58657d72b382bd72fdca64736f6c6343000813003360806040523480156200001157600080fd5b5060405162001bb038038062001bb08339810160408190526200003491620002c7565b600080546001600160a01b0389166001600160a01b03199182168117909255600480549091169091179055600186905584516200007990600290602088019062000158565b50600884905582516200009490600390602086019062000158565b5080600103620000bf57600580546001600160a01b0319166001600160a01b038416179055620000e4565b80600203620000e457600680546001600160a01b0319166001600160a01b0384161790555b600087604051620000f590620001c2565b6001600160a01b039091168152602001604051809103906000f08015801562000122573d6000803e3d6000fd5b50600980546001600160a01b0390921661010002610100600160a81b031990921691909117905550620003749650505050505050565b828054828255906000526020600020908101928215620001b0579160200282015b82811115620001b057825182546001600160a01b0319166001600160a01b0390911617825560209092019160019091019062000179565b50620001be929150620001d0565b5090565b610cb28062000efe83390190565b5b80821115620001be5760008155600101620001d1565b80516001600160a01b0381168114620001ff57600080fd5b919050565b634e487b7160e01b600052604160045260246000fd5b600082601f8301126200022c57600080fd5b815160206001600160401b03808311156200024b576200024b62000204565b8260051b604051601f19603f8301168101818110848211171562000273576200027362000204565b6040529384528581018301938381019250878511156200029257600080fd5b83870191505b84821015620002bc57620002ac82620001e7565b8352918301919083019062000298565b979650505050505050565b600080600080600080600060e0888a031215620002e357600080fd5b620002ee88620001e7565b602089015160408a015191985096506001600160401b03808211156200031357600080fd5b620003218b838c016200021a565b965060608a0151955060808a01519150808211156200033f57600080fd5b506200034e8a828b016200021a565b9350506200035f60a08901620001e7565b915060c0880151905092959891949750929550565b610b7a80620003846000396000f3fe608060405234801561001057600080fd5b506004361061009e5760003560e01c8063abb428a611610066578063abb428a614610164578063c8f5f18914610179578063d2f3fcc71461018c578063f5c0e38314610194578063fc72a385146101a757600080fd5b8063191733d6146100a35780632f1d7588146100b85780639296057b146100cb57806393a668b7146100f1578063aab3a9d614610104575b600080fd5b6100b66100b136600461095e565b6101c2565b005b6100b66100c6366004610980565b610373565b6100de6100d936600461095e565b6103e3565b6040519081526020015b60405180910390f35b6100b66100ff36600461095e565b610666565b6100b661011236600461095e565b600380546001810182556000919091527fc2575a0e9e593c00f959f8c92f12db2869c3395a3b0502d05e2516446f71f85b0180546001600160a01b0319166001600160a01b0392909216919091179055565b61016c6106ba565b6040516100e891906109b3565b6100b661018736600461095e565b6106f5565b6100de610759565b6100b66101a2366004610980565b610778565b6101af610802565b6040516100e89796959493929190610a31565b600380546101d290600190610a8e565b815481106101e2576101e2610ab5565b6000918252602090912001546001600160a01b0382811691161461025d5760405162461bcd60e51b815260206004820152602760248201527f4f6e6c79205472616e73706f727465722063616e2063616c6c207468697320666044820152663ab731ba34b7b760c91b60648201526084015b60405180910390fd5b600060095460ff16600681111561027657610276610acb565b146102c35760405162461bcd60e51b815260206004820152601d60248201527f5061636b616765206d7573742062652061742070726f636573736f722e0000006044820152606401610254565b6005546001600160a01b03161561032657600980546001919060ff19168280021790555060055460408051600180825260208201526001600160a01b03928316928416913091600080516020610b2583398151915291015b60405180910390a450565b600980546002919060ff191660018302179055506006546040805160018152600260208201526001600160a01b03928316928416913091600080516020610b25833981519152910161031b565b6006546001600160a01b038281169116146103a05760405162461bcd60e51b815260040161025490610ae1565b600780546001600160a01b0319166001600160a01b03841617905560055b6009805460ff191660018360068111156103da576103da610acb565b02179055505050565b6005546000906001600160a01b038381169116148061040f57506006546001600160a01b038381169116145b6104795760405162461bcd60e51b815260206004820152603560248201527f4f6e6c792057686f6c6573616c6572206f72204469737472696275746f72206360448201527430b71031b0b636103a3434b990333ab731ba34b7b760591b6064820152608401610254565b60095460019060ff16600681111561049357610493610acb565b10156104dd5760405162461bcd60e51b8152602060048201526019602482015278141c9bd91d58dd081b9bdd081c1a58dad959081d5c081e595d603a1b6044820152606401610254565b6005546001600160a01b0383811691161480156105105750600160095460ff16600681111561050e5761050e610acb565b145b156105a0576009805460ff1916600390811790915560055481546001600160a01b03909116919061054390600190610a8e565b8154811061055357610553610ab5565b6000918252602091829020015460408051600281526003938101939093526001600160a01b03909116913091600080516020610b25833981519152910160405180910390a4506001919050565b6006546001600160a01b0383811691161480156105d35750600260095460ff1660068111156105d1576105d1610acb565b145b15610661576009805460ff19166004179055600654600380546001600160a01b039092169161060490600190610a8e565b8154811061061457610614610ab5565b6000918252602091829020015460408051600381526004938101939093526001600160a01b03909116913091600080516020610b25833981519152910160405180910390a4506002919050565b919050565b6006546001600160a01b038281169116146106935760405162461bcd60e51b815260040161025490610ae1565b60045b6009805460ff191660018360068111156106b2576106b2610acb565b021790555050565b6106c2610929565b50604080516060810182526005546001600160a01b03908116825260065481166020830152600754169181019190915290565b6007546001600160a01b038281169116146107525760405162461bcd60e51b815260206004820181905260248201527f5468697320437573746f6d6572206973206e6f74204173736f6369617465642e6044820152606401610254565b6006610696565b60095460009060ff16600681111561077357610773610acb565b905090565b6005546001600160a01b038281169116146107e05760405162461bcd60e51b815260206004820152602260248201527f746869732057686f6c6573616c6572206973206e6f74204173736f6369617465604482015261321760f11b6064820152608401610254565b600680546001600160a01b0319166001600160a01b03841617905560026103be565b600080606060006060600080600460009054906101000a90046001600160a01b031660015460026008546003600660009054906101000a90046001600160a01b0316600760009054906101000a90046001600160a01b0316848054806020026020016040519081016040528092919081815260200182805480156108af57602002820191906000526020600020905b81546001600160a01b03168152600190910190602001808311610891575b505050505094508280548060200260200160405190810160405280929190818152602001828054801561090b57602002820191906000526020600020905b81546001600160a01b031681526001909101906020018083116108ed575b50505050509250965096509650965096509650965090919293949596565b60405180606001604052806003906020820280368337509192915050565b80356001600160a01b038116811461066157600080fd5b60006020828403121561097057600080fd5b61097982610947565b9392505050565b6000806040838503121561099357600080fd5b61099c83610947565b91506109aa60208401610947565b90509250929050565b60608101818360005b60038110156109e45781516001600160a01b03168352602092830192909101906001016109bc565b50505092915050565b600081518084526020808501945080840160005b83811015610a265781516001600160a01b031687529582019590820190600101610a01565b509495945050505050565b600060018060a01b03808a16835288602084015260e06040840152610a5960e08401896109ed565b8760608501528381036080850152610a7181886109ed565b95821660a0850152509290921660c0909101525095945050505050565b81810381811115610aaf57634e487b7160e01b600052601160045260246000fd5b92915050565b634e487b7160e01b600052603260045260246000fd5b634e487b7160e01b600052602160045260246000fd5b60208082526023908201527f54686973204469737472696275746f72206973206e6f74204173736f6369617460408201526232b21760e91b60608201526080019056fe7e89c4b1a4e2b51aae84eb1f90e8a34cb792ece5ac5cb63db4830c891220b28da26469706673582212201a2e6b0c1798b08d7105b93e39ca86c94fc129b221d560fe16bc00372ea7cc3b64736f6c634300081300336080604052600060025534801561001557600080fd5b50604051610cb2380380610cb283398101604081905261003491610059565b600080546001600160a01b0319166001600160a01b0392909216919091179055610089565b60006020828403121561006b57600080fd5b81516001600160a01b038116811461008257600080fd5b9392505050565b610c1a806100986000396000f3fe608060405234801561001057600080fd5b506004361061004c5760003560e01c806327506f53146100515780633626a3681461006f57806378ce1365146100845780639ace38c21461009b575b600080fd5b6100596100c1565b6040516100669190610730565b60405180910390f35b61008261007d3660046108ba565b610310565b005b61008d60025481565b604051908152602001610066565b6100ae6100a9366004610951565b610590565b604051610066979695949392919061096a565b60025460609060008167ffffffffffffffff8111156100e2576100e2610817565b60405190808252806020026020018201604052801561014857816020015b6040805160e0810182526000808252602080830182905292820181905260608083018290526080830181905260a083015260c082015282526000199092019101816101005790505b50905060005b8281101561030957600081815260016020818152604092839020835160e08101855281548152928101546001600160a01b0390811692840192909252600281015490911692820192909252600382015460608201526004820180549192916080840191906101bb906109ca565b80601f01602080910402602001604051908101604052809291908181526020018280546101e7906109ca565b80156102345780601f1061020957610100808354040283529160200191610234565b820191906000526020600020905b81548152906001019060200180831161021757829003601f168201915b5050505050815260200160058201805461024d906109ca565b80601f0160208091040260200160405190810160405280929190818152602001828054610279906109ca565b80156102c65780601f1061029b576101008083540402835291602001916102c6565b820191906000526020600020905b8154815290600101906020018083116102a957829003601f168201915b505050505081526020016006820154815250508282815181106102eb576102eb610a04565b6020026020010181905250808061030190610a30565b91505061014e565b5092915050565b60025442906000036103ea576040805160e0810182528881526001600160a01b038089166020808401918252898316848601908152606085018a8152608086018a815260a087018a905260c087018990526002805460009081526001958690529890982087518155945193850180549487166001600160a01b03199586161790559151968401805497909516969092169590951790925590516003820155915190919060048201906103c29082610a98565b5060a082015160058201906103d79082610a98565b5060c0820151816006015590505061052b565b836001600060016002546103fe9190610b58565b815260200190815260200160002060000154146104615760405162461bcd60e51b815260206004820152601b60248201527f5472616e73616374696f6e206572726f72206f63637572726564210000000000604482015260640160405180910390fd5b6040805160e0810182528881526001600160a01b038089166020808401918252898316848601908152606085018a8152608086018a815260a087018a905260c087018990526002805460009081526001958690529890982087518155945193850180549487166001600160a01b03199586161790559151968401805497909516969092169590951790925590516003820155915190919060048201906105079082610a98565b5060a0820151600582019061051c9082610a98565b5060c082015181600601559050505b60016002600082825461053e9190610b71565b90915550506040517f30d01d358fb0899fe4d50947b2e9301c952d9eed09b14c7ecdcbeed4434557c49061057f90899089908990899087908a908a90610b84565b60405180910390a150505050505050565b6001602081905260009182526040909120805491810154600282015460038301546004840180546001600160a01b0394851695949093169391926105d3906109ca565b80601f01602080910402602001604051908101604052809291908181526020018280546105ff906109ca565b801561064c5780601f106106215761010080835404028352916020019161064c565b820191906000526020600020905b81548152906001019060200180831161062f57829003601f168201915b505050505090806005018054610661906109ca565b80601f016020809104026020016040519081016040528092919081815260200182805461068d906109ca565b80156106da5780601f106106af576101008083540402835291602001916106da565b820191906000526020600020905b8154815290600101906020018083116106bd57829003601f168201915b5050505050908060060154905087565b6000815180845260005b81811015610710576020818501810151868301820152016106f4565b506000602082860101526020601f19601f83011685010191505092915050565b60006020808301818452808551808352604092508286019150828160051b87010184880160005b838110156107ed57888303603f19018552815180518452878101516001600160a01b03908116898601528782015116878501526060808201519085015260808082015160e082870181905291906107b0838801826106ea565b9250505060a080830151868303828801526107cb83826106ea565b60c0948501519790940196909652505094870194925090860190600101610757565b509098975050505050505050565b80356001600160a01b038116811461081257600080fd5b919050565b634e487b7160e01b600052604160045260246000fd5b600082601f83011261083e57600080fd5b813567ffffffffffffffff8082111561085957610859610817565b604051601f8301601f19908116603f0116810190828211818310171561088157610881610817565b8160405283815286602085880101111561089a57600080fd5b836020870160208301376000602085830101528094505050505092915050565b60008060008060008060c087890312156108d357600080fd5b863595506108e3602088016107fb565b94506108f1604088016107fb565b935060608701359250608087013567ffffffffffffffff8082111561091557600080fd5b6109218a838b0161082d565b935060a089013591508082111561093757600080fd5b5061094489828a0161082d565b9150509295509295509295565b60006020828403121561096357600080fd5b5035919050565b8781526001600160a01b038781166020830152861660408201526060810185905260e0608082018190526000906109a3908301866106ea565b82810360a08401526109b581866106ea565b9150508260c083015298975050505050505050565b600181811c908216806109de57607f821691505b6020821081036109fe57634e487b7160e01b600052602260045260246000fd5b50919050565b634e487b7160e01b600052603260045260246000fd5b634e487b7160e01b600052601160045260246000fd5b600060018201610a4257610a42610a1a565b5060010190565b601f821115610a9357600081815260208120601f850160051c81016020861015610a705750805b601f850160051c820191505b81811015610a8f57828155600101610a7c565b5050505b505050565b815167ffffffffffffffff811115610ab257610ab2610817565b610ac681610ac084546109ca565b84610a49565b602080601f831160018114610afb5760008415610ae35750858301515b600019600386901b1c1916600185901b178555610a8f565b600085815260208120601f198616915b82811015610b2a57888601518255948401946001909101908401610b0b565b5085821015610b485787850151600019600388901b60f8161c191681555b5050505050600190811b01905550565b81810381811115610b6b57610b6b610a1a565b92915050565b80820180821115610b6b57610b6b610a1a565b8781526001600160a01b03878116602083015286166040820152606081018590526080810184905260e060a08201819052600090610bc4908301856106ea565b82810360c0840152610bd681856106ea565b9a995050505050505050505056fea2646970667358221220ad3e83d8579e9c39663418c580c249f59eddf57ba0bd58657d72b382bd72fdca64736f6c63430008130033a2646970667358221220937b9886a3ad8ab063d03e5762b9505007f94c2ffc9ec30b90cec387d3bcf63f64736f6c63430008130033",
  "immutableReferences": {},
  "source": "// SPDX-License-Identifier: MIT\r\npragma solidity ^0.8.0;\r\n\r\npragma experimental ABIEncoderV2;\r\n\r\n\r\nimport \"./Crop.sol\";\r\nimport \"./Farmer.sol\";\r\nimport \"./Transporter.sol\";\r\nimport \"./Product.sol\";\r\nimport \"./Processor.sol\";\r\nimport \"./ProductW_D.sol\";\r\nimport \"./Wholesaler.sol\";\r\nimport \"./ProductD_C.sol\";\r\nimport \"./Distributor.sol\";\r\nimport \"./Customer.sol\";\r\nimport \"./UserData.sol\";\r\n\r\n\r\n//// New supply chain : farmer -> transporter -> processor -> transporter -> whole-saler -> transporter -> distributor -> transporter -> customer/hospital/pharmacy\r\n\r\ncontract SupplyChain is Farmer, Transporter, Processor, UserData {\r\n    address public Owner;\r\n\r\n\r\n    //create a variable for crops that are for sale\r\n\r\n    constructor() {\r\n        Owner = msg.sender;\r\n    }\r\n\r\n    modifier onlyOwner() {\r\n        require(Owner == msg.sender);\r\n        _;\r\n    }\r\n\r\n    modifier checkUser(address addr) {\r\n        require(addr == msg.sender);\r\n        _;\r\n    }\r\n\r\n    //enum roles {noRole, farmer, transporter, processor, wholesaler, distributor, customer}\r\n\r\n    //////////////// Events ////////////////////\r\n\r\n    event UserRegister(address indexed _address, bytes32 name);\r\n    event buyEvent(address buyer, address indexed seller, address packageAddr, bytes signature, uint indexed timestamp);\r\n    event respondEvent(address indexed buyer, address seller, address packageAddr, bytes signature, uint indexed timestamp);\r\n    event sendEvent(address seller, address buyer, address indexed packageAddr, bytes signature, uint indexed timestamp);\r\n    event receivedEvent(address indexed buyer, address seller, address packageAddr, bytes signature, uint indexed timestamp);\r\n\r\n//////////////// Event functions (All entities) ////////////////////\r\n\r\n    \r\n    function requestProduct(address buyer, address seller, address packageAddr, bytes memory signature) public {\r\n        emit buyEvent(buyer, seller, packageAddr, signature, block.timestamp);\r\n    }\r\n    \r\n    function respondToEntity(address buyer, address seller, address packageAddr, bytes memory signature) public {\r\n        emit respondEvent(buyer, seller, packageAddr, signature, block.timestamp);\r\n    }\r\n    \r\n    function sendPackageToEntity(address buyer, address seller, address packageAddr, bytes memory signature) public {\r\n        emit sendEvent(seller, buyer, packageAddr, signature, block.timestamp);\r\n    }\r\n\r\n    /////////////// Users (Only Owner Executable) //////////////////////\r\n\r\n    \r\n    function registerUser(bytes32 name,string[] memory loc,uint256 role,address _userAddr) external onlyOwner {\r\n        userInfo[_userAddr].name = name;\r\n        userInfo[_userAddr].userLoc = loc;\r\n        userInfo[_userAddr].role = roles(role);\r\n        userInfo[_userAddr].userAddr = _userAddr;\r\n\r\n        emit UserRegister(_userAddr, name);\r\n    }\r\n\r\n    function changeUserRole(uint256 _role, address _addr) external onlyOwner returns (string memory){\r\n        userInfo[_addr].role = roles(_role);\r\n        return \"Role Updated!\";\r\n    }\r\n\r\n    function getUserInfo(address _address) external view onlyOwner returns (userData memory) {\r\n        return userInfo[_address];\r\n    }\r\n\r\n    \r\n\r\n\r\n    /////////////// Farmer //////////////////////\r\n\r\n    //add a variable into this function called boolean sale\r\n    function farmerCreatesCropPackage(bytes32 _description, uint256 _quantity, address _transporterAddr,address _processorAddr) external {\r\n        require(userInfo[msg.sender].role == roles.farmer);\r\n        createCropPackage(_description,_quantity,_transporterAddr,_processorAddr);\r\n    }\r\n\r\n    function farmerGetPackageCount() external view returns (uint256) {\r\n        require(userInfo[msg.sender].role == roles.farmer);\r\n        return getNoOfPackagesOfFarmer();\r\n    }\r\n\r\n    function farmerGetCropPackageAddresses() external view returns (address[] memory) {\r\n        address[] memory ret = getAllPackages();\r\n        return ret;\r\n    }\r\n\r\n    ///////////////  Transporter ///////////////\r\n\r\n    function transporterHandlePackage(address _address,uint256 transporterType,address cid) external {\r\n        require(userInfo[msg.sender].role == roles.transporter);\r\n        require(transporterType > 0);\r\n        handlePackage(_address, transporterType, cid);\r\n    }\r\n\r\n    ///////////////  Processor ///////////////\r\n\r\n\r\n\r\n    function processorReceivedCrops(address _addr) external {\r\n        require(userInfo[msg.sender].role == roles.processor);\r\n        processorReceivedPackage(_addr, msg.sender);\r\n    }\r\n\r\n    function processorCreatesNewProduct(bytes32 _description,address[] memory _cropAddr,uint256 _quantity,address[] memory _transporterAddr,address _receiverAddr,uint256 RcvrType) external returns (string memory) {\r\n        require(userInfo[msg.sender].role == roles.processor);\r\n        require(RcvrType != 0);\r\n        processorCreatesProduct(msg.sender,_description,_cropAddr,_quantity,_transporterAddr,_receiverAddr,RcvrType);\r\n        return \"Product created!\";\r\n    }\r\n\r\n    //function getSaleCrops() external view returns ()\r\n\r\n\r\n}",
  "sourcePath": "D:\\Projects\\Farmtrust1\\contracts\\SupplyChain.sol",
  "compiler": {
    "name": "solc",
    "version": "0.8.19+commit.7dd6d404.Emscripten.clang"
  },
  "schemaVersion": "3.4.13",
  "updatedAt": "2023-04-26T15:55:16.337Z",
  "networkType": "ethereum",
  "devdoc": {
    "kind": "dev",
    "methods": {},
    "version": 1
  },
  "userdoc": {
    "kind": "user",
    "methods": {},
    "version": 1
  }
}