{
  "contractName": "SupplyChain",
  "abi": [
    {
      "inputs": [],
      "stateMutability": "nonpayable",
      "type": "constructor"
    },
    {
      "anonymous": false,
      "inputs": [
        {
          "indexed": true,
          "internalType": "address",
          "name": "_address",
          "type": "address"
        },
        {
          "indexed": false,
          "internalType": "bytes32",
          "name": "name",
          "type": "bytes32"
        }
      ],
      "name": "UserRegister",
      "type": "event"
    },
    {
      "anonymous": false,
      "inputs": [
        {
          "indexed": false,
          "internalType": "address",
          "name": "buyer",
          "type": "address"
        },
        {
          "indexed": true,
          "internalType": "address",
          "name": "seller",
          "type": "address"
        },
        {
          "indexed": false,
          "internalType": "address",
          "name": "packageAddr",
          "type": "address"
        },
        {
          "indexed": false,
          "internalType": "bytes",
          "name": "signature",
          "type": "bytes"
        },
        {
          "indexed": true,
          "internalType": "uint256",
          "name": "timestamp",
          "type": "uint256"
        }
      ],
      "name": "buyEvent",
      "type": "event"
    },
    {
      "anonymous": false,
      "inputs": [
        {
          "indexed": true,
          "internalType": "address",
          "name": "buyer",
          "type": "address"
        },
        {
          "indexed": false,
          "internalType": "address",
          "name": "seller",
          "type": "address"
        },
        {
          "indexed": false,
          "internalType": "address",
          "name": "packageAddr",
          "type": "address"
        },
        {
          "indexed": false,
          "internalType": "bytes",
          "name": "signature",
          "type": "bytes"
        },
        {
          "indexed": true,
          "internalType": "uint256",
          "name": "timestamp",
          "type": "uint256"
        }
      ],
      "name": "receivedEvent",
      "type": "event"
    },
    {
      "anonymous": false,
      "inputs": [
        {
          "indexed": true,
          "internalType": "address",
          "name": "buyer",
          "type": "address"
        },
        {
          "indexed": false,
          "internalType": "address",
          "name": "seller",
          "type": "address"
        },
        {
          "indexed": false,
          "internalType": "address",
          "name": "packageAddr",
          "type": "address"
        },
        {
          "indexed": false,
          "internalType": "bytes",
          "name": "signature",
          "type": "bytes"
        },
        {
          "indexed": true,
          "internalType": "uint256",
          "name": "timestamp",
          "type": "uint256"
        }
      ],
      "name": "respondEvent",
      "type": "event"
    },
    {
      "anonymous": false,
      "inputs": [
        {
          "indexed": false,
          "internalType": "address",
          "name": "seller",
          "type": "address"
        },
        {
          "indexed": false,
          "internalType": "address",
          "name": "buyer",
          "type": "address"
        },
        {
          "indexed": true,
          "internalType": "address",
          "name": "packageAddr",
          "type": "address"
        },
        {
          "indexed": false,
          "internalType": "bytes",
          "name": "signature",
          "type": "bytes"
        },
        {
          "indexed": true,
          "internalType": "uint256",
          "name": "timestamp",
          "type": "uint256"
        }
      ],
      "name": "sendEvent",
      "type": "event"
    },
    {
      "inputs": [],
      "name": "Owner",
      "outputs": [
        {
          "internalType": "address",
          "name": "",
          "type": "address"
        }
      ],
      "stateMutability": "view",
      "type": "function",
      "constant": true
    },
    {
      "inputs": [
        {
          "internalType": "bytes32",
          "name": "_description",
          "type": "bytes32"
        },
        {
          "internalType": "uint256",
          "name": "_quantity",
          "type": "uint256"
        },
        {
          "internalType": "address",
          "name": "_transporterAddr",
          "type": "address"
        },
        {
          "internalType": "address",
          "name": "_processorAddr",
          "type": "address"
        }
      ],
      "name": "createCropPackage",
      "outputs": [],
      "stateMutability": "nonpayable",
      "type": "function"
    },
    {
      "inputs": [
        {
          "internalType": "uint256",
          "name": "",
          "type": "uint256"
        }
      ],
      "name": "customers",
      "outputs": [
        {
          "internalType": "address",
          "name": "",
          "type": "address"
        }
      ],
      "stateMutability": "view",
      "type": "function",
      "constant": true
    },
    {
      "inputs": [
        {
          "internalType": "uint256",
          "name": "",
          "type": "uint256"
        }
      ],
      "name": "distributors",
      "outputs": [
        {
          "internalType": "address",
          "name": "",
          "type": "address"
        }
      ],
      "stateMutability": "view",
      "type": "function",
      "constant": true
    },
    {
      "inputs": [
        {
          "internalType": "address",
          "name": "",
          "type": "address"
        },
        {
          "internalType": "uint256",
          "name": "",
          "type": "uint256"
        }
      ],
      "name": "farmerCrops",
      "outputs": [
        {
          "internalType": "address",
          "name": "",
          "type": "address"
        }
      ],
      "stateMutability": "view",
      "type": "function",
      "constant": true
    },
    {
      "inputs": [
        {
          "internalType": "uint256",
          "name": "",
          "type": "uint256"
        }
      ],
      "name": "farmers",
      "outputs": [
        {
          "internalType": "address",
          "name": "",
          "type": "address"
        }
      ],
      "stateMutability": "view",
      "type": "function",
      "constant": true
    },
    {
      "inputs": [],
      "name": "getAllCreatedProducts",
      "outputs": [
        {
          "internalType": "address[]",
          "name": "",
          "type": "address[]"
        }
      ],
      "stateMutability": "view",
      "type": "function",
      "constant": true
    },
    {
      "inputs": [],
      "name": "getAllCrops",
      "outputs": [
        {
          "internalType": "address[]",
          "name": "",
          "type": "address[]"
        }
      ],
      "stateMutability": "view",
      "type": "function",
      "constant": true
    },
    {
      "inputs": [],
      "name": "getAllPackages",
      "outputs": [
        {
          "internalType": "address[]",
          "name": "",
          "type": "address[]"
        }
      ],
      "stateMutability": "view",
      "type": "function",
      "constant": true
    },
    {
      "inputs": [],
      "name": "getNoOfPackagesOfFarmer",
      "outputs": [
        {
          "internalType": "uint256",
          "name": "",
          "type": "uint256"
        }
      ],
      "stateMutability": "view",
      "type": "function",
      "constant": true
    },
    {
      "inputs": [
        {
          "internalType": "address",
          "name": "_addr",
          "type": "address"
        },
        {
          "internalType": "uint256",
          "name": "transportertype",
          "type": "uint256"
        },
        {
          "internalType": "address",
          "name": "cid",
          "type": "address"
        }
      ],
      "name": "handlePackage",
      "outputs": [],
      "stateMutability": "nonpayable",
      "type": "function"
    },
    {
      "inputs": [
        {
          "internalType": "address",
          "name": "_processorAddr",
          "type": "address"
        },
        {
          "internalType": "bytes32",
          "name": "_description",
          "type": "bytes32"
        },
        {
          "internalType": "address[]",
          "name": "_cropsAddr",
          "type": "address[]"
        },
        {
          "internalType": "uint256",
          "name": "_quantity",
          "type": "uint256"
        },
        {
          "internalType": "address[]",
          "name": "_transporterAddr",
          "type": "address[]"
        },
        {
          "internalType": "address",
          "name": "_recieverAddr",
          "type": "address"
        },
        {
          "internalType": "uint256",
          "name": "RcvrType",
          "type": "uint256"
        }
      ],
      "name": "processorCreatesProduct",
      "outputs": [],
      "stateMutability": "nonpayable",
      "type": "function"
    },
    {
      "inputs": [
        {
          "internalType": "address",
          "name": "",
          "type": "address"
        },
        {
          "internalType": "uint256",
          "name": "",
          "type": "uint256"
        }
      ],
      "name": "processorCrops",
      "outputs": [
        {
          "internalType": "address",
          "name": "",
          "type": "address"
        }
      ],
      "stateMutability": "view",
      "type": "function",
      "constant": true
    },
    {
      "inputs": [
        {
          "internalType": "address",
          "name": "",
          "type": "address"
        },
        {
          "internalType": "uint256",
          "name": "",
          "type": "uint256"
        }
      ],
      "name": "processorProducts",
      "outputs": [
        {
          "internalType": "address",
          "name": "",
          "type": "address"
        }
      ],
      "stateMutability": "view",
      "type": "function",
      "constant": true
    },
    {
      "inputs": [
        {
          "internalType": "address",
          "name": "_addr",
          "type": "address"
        },
        {
          "internalType": "address",
          "name": "_processorAddress",
          "type": "address"
        }
      ],
      "name": "processorReceivedPackage",
      "outputs": [],
      "stateMutability": "nonpayable",
      "type": "function"
    },
    {
      "inputs": [
        {
          "internalType": "uint256",
          "name": "",
          "type": "uint256"
        }
      ],
      "name": "processors",
      "outputs": [
        {
          "internalType": "address",
          "name": "",
          "type": "address"
        }
      ],
      "stateMutability": "view",
      "type": "function",
      "constant": true
    },
    {
      "inputs": [
        {
          "internalType": "uint256",
          "name": "",
          "type": "uint256"
        }
      ],
      "name": "transporters",
      "outputs": [
        {
          "internalType": "address",
          "name": "",
          "type": "address"
        }
      ],
      "stateMutability": "view",
      "type": "function",
      "constant": true
    },
    {
      "inputs": [
        {
          "internalType": "address",
          "name": "",
          "type": "address"
        }
      ],
      "name": "userInfo",
      "outputs": [
        {
          "internalType": "bytes32",
          "name": "name",
          "type": "bytes32"
        },
        {
          "internalType": "enum roles",
          "name": "role",
          "type": "uint8"
        },
        {
          "internalType": "address",
          "name": "userAddr",
          "type": "address"
        }
      ],
      "stateMutability": "view",
      "type": "function",
      "constant": true
    },
    {
      "inputs": [
        {
          "internalType": "uint256",
          "name": "",
          "type": "uint256"
        }
      ],
      "name": "wholesalers",
      "outputs": [
        {
          "internalType": "address",
          "name": "",
          "type": "address"
        }
      ],
      "stateMutability": "view",
      "type": "function",
      "constant": true
    },
    {
      "inputs": [
        {
          "internalType": "address",
          "name": "buyer",
          "type": "address"
        },
        {
          "internalType": "address",
          "name": "seller",
          "type": "address"
        },
        {
          "internalType": "address",
          "name": "packageAddr",
          "type": "address"
        },
        {
          "internalType": "bytes",
          "name": "signature",
          "type": "bytes"
        }
      ],
      "name": "requestProduct",
      "outputs": [],
      "stateMutability": "nonpayable",
      "type": "function"
    },
    {
      "inputs": [
        {
          "internalType": "address",
          "name": "buyer",
          "type": "address"
        },
        {
          "internalType": "address",
          "name": "seller",
          "type": "address"
        },
        {
          "internalType": "address",
          "name": "packageAddr",
          "type": "address"
        },
        {
          "internalType": "bytes",
          "name": "signature",
          "type": "bytes"
        }
      ],
      "name": "respondToEntity",
      "outputs": [],
      "stateMutability": "nonpayable",
      "type": "function"
    },
    {
      "inputs": [
        {
          "internalType": "address",
          "name": "buyer",
          "type": "address"
        },
        {
          "internalType": "address",
          "name": "seller",
          "type": "address"
        },
        {
          "internalType": "address",
          "name": "packageAddr",
          "type": "address"
        },
        {
          "internalType": "bytes",
          "name": "signature",
          "type": "bytes"
        }
      ],
      "name": "sendPackageToEntity",
      "outputs": [],
      "stateMutability": "nonpayable",
      "type": "function"
    },
    {
      "inputs": [
        {
          "internalType": "address",
          "name": "p",
          "type": "address"
        },
        {
          "internalType": "bytes32",
          "name": "hash",
          "type": "bytes32"
        },
        {
          "internalType": "uint8",
          "name": "v",
          "type": "uint8"
        },
        {
          "internalType": "bytes32",
          "name": "r",
          "type": "bytes32"
        },
        {
          "internalType": "bytes32",
          "name": "s",
          "type": "bytes32"
        }
      ],
      "name": "verify",
      "outputs": [
        {
          "internalType": "bool",
          "name": "",
          "type": "bool"
        }
      ],
      "stateMutability": "pure",
      "type": "function",
      "constant": true
    },
    {
      "inputs": [
        {
          "internalType": "bytes32",
          "name": "name",
          "type": "bytes32"
        },
        {
          "internalType": "string[]",
          "name": "loc",
          "type": "string[]"
        },
        {
          "internalType": "uint256",
          "name": "role",
          "type": "uint256"
        },
        {
          "internalType": "address",
          "name": "_userAddr",
          "type": "address"
        }
      ],
      "name": "registerUser",
      "outputs": [],
      "stateMutability": "nonpayable",
      "type": "function"
    },
    {
      "inputs": [
        {
          "internalType": "uint256",
          "name": "_role",
          "type": "uint256"
        },
        {
          "internalType": "address",
          "name": "_addr",
          "type": "address"
        }
      ],
      "name": "changeUserRole",
      "outputs": [
        {
          "internalType": "string",
          "name": "",
          "type": "string"
        }
      ],
      "stateMutability": "nonpayable",
      "type": "function"
    },
    {
      "inputs": [
        {
          "internalType": "address",
          "name": "_address",
          "type": "address"
        }
      ],
      "name": "getUserInfo",
      "outputs": [
        {
          "components": [
            {
              "internalType": "bytes32",
              "name": "name",
              "type": "bytes32"
            },
            {
              "internalType": "string[]",
              "name": "userLoc",
              "type": "string[]"
            },
            {
              "internalType": "enum roles",
              "name": "role",
              "type": "uint8"
            },
            {
              "internalType": "address",
              "name": "userAddr",
              "type": "address"
            }
          ],
          "internalType": "struct UserData.userData",
          "name": "",
          "type": "tuple"
        }
      ],
      "stateMutability": "view",
      "type": "function",
      "constant": true
    },
    {
      "inputs": [
        {
          "internalType": "bytes32",
          "name": "_description",
          "type": "bytes32"
        },
        {
          "internalType": "uint256",
          "name": "_quantity",
          "type": "uint256"
        },
        {
          "internalType": "address",
          "name": "_transporterAddr",
          "type": "address"
        },
        {
          "internalType": "address",
          "name": "_processorAddr",
          "type": "address"
        }
      ],
      "name": "farmerCreatesCropPackage",
      "outputs": [],
      "stateMutability": "nonpayable",
      "type": "function"
    },
    {
      "inputs": [],
      "name": "farmerGetPackageCount",
      "outputs": [
        {
          "internalType": "uint256",
          "name": "",
          "type": "uint256"
        }
      ],
      "stateMutability": "view",
      "type": "function",
      "constant": true
    },
    {
      "inputs": [],
      "name": "farmerGetCropPackageAddresses",
      "outputs": [
        {
          "internalType": "address[]",
          "name": "",
          "type": "address[]"
        }
      ],
      "stateMutability": "view",
      "type": "function",
      "constant": true
    },
    {
      "inputs": [
        {
          "internalType": "address",
          "name": "_address",
          "type": "address"
        },
        {
          "internalType": "uint256",
          "name": "transporterType",
          "type": "uint256"
        },
        {
          "internalType": "address",
          "name": "cid",
          "type": "address"
        }
      ],
      "name": "transporterHandlePackage",
      "outputs": [],
      "stateMutability": "nonpayable",
      "type": "function"
    },
    {
      "inputs": [
        {
          "internalType": "address",
          "name": "_addr",
          "type": "address"
        }
      ],
      "name": "processorReceivedCrops",
      "outputs": [],
      "stateMutability": "nonpayable",
      "type": "function"
    },
    {
      "inputs": [
        {
          "internalType": "bytes32",
          "name": "_description",
          "type": "bytes32"
        },
        {
          "internalType": "address[]",
          "name": "_cropAddr",
          "type": "address[]"
        },
        {
          "internalType": "uint256",
          "name": "_quantity",
          "type": "uint256"
        },
        {
          "internalType": "address[]",
          "name": "_transporterAddr",
          "type": "address[]"
        },
        {
          "internalType": "address",
          "name": "_receiverAddr",
          "type": "address"
        },
        {
          "internalType": "uint256",
          "name": "RcvrType",
          "type": "uint256"
        }
      ],
      "name": "processorCreatesNewProduct",
      "outputs": [
        {
          "internalType": "string",
          "name": "",
          "type": "string"
        }
      ],
      "stateMutability": "nonpayable",
      "type": "function"
    },
    {
      "inputs": [],
      "name": "processorGetAllCrops",
      "outputs": [
        {
          "internalType": "address[]",
          "name": "",
          "type": "address[]"
        }
      ],
      "stateMutability": "view",
      "type": "function",
      "constant": true
    },
    {
      "inputs": [],
      "name": "getAllFarmers",
      "outputs": [
        {
          "internalType": "address[]",
          "name": "",
          "type": "address[]"
        }
      ],
      "stateMutability": "view",
      "type": "function",
      "constant": true
    },
    {
      "inputs": [],
      "name": "processorGetAllCreatedProducts",
      "outputs": [
        {
          "internalType": "address[]",
          "name": "",
          "type": "address[]"
        }
      ],
      "stateMutability": "view",
      "type": "function",
      "constant": true
    }
  ],
  "bytecode": "0x608060405234801561001057600080fd5b50600a80546001600160a01b0319163317905561518c806100326000396000f3fe60806040523480156200001157600080fd5b5060043610620001f85760003560e01c806373156f75116200011b578063c81c0dfd11620000aa578063c81c0dfd14620004a2578063d06f7b5514620004b9578063db5d7f0e14620004d0578063e0cf92fe14620004da578063ea46806814620004f1578063ee0342cc14620004fb578063f9a386b11462000505578063fc23328c146200051c578063fe7c58e9146200053357600080fd5b806373156f7514620003e35780638afdd66914620003ed578063910097861462000404578063aeb35f20146200041b578063b4a99a4e1462000432578063b8b16ca31462000446578063b91bd97c146200045d578063be7ef9c01462000474578063c0abda2a146200048b57600080fd5b8063493295b61162000198578063493295b614620002f257806349e3fc4614620003095780634c3f3d731462000320578063506535f3146200034657806350b492ba146200036e57806352caf8bf1462000385578063536954e4146200039c5780636386c1c714620003a65780636f41507c14620003cc57600080fd5b8062af37ff14620001fd5780630a421f0f146200022157806312b79636146200023a5780631959a00214620002605780631a717f6514620002ae5780631d48dc9014620002b85780631f90ddaf14620002c257806329c2a87714620002db575b600080fd5b336000908152602081905260409020545b6040519081526020015b60405180910390f35b6200022b6200054a565b6040516200021891906200186b565b620002516200024b3660046200189f565b6200063c565b604051620002189190620018cc565b6200029d62000271366004620018e0565b6009602052600090815260409020805460029091015460ff81169061010090046001600160a01b031683565b604051620002189392919062001937565b6200020e62000675565b6200022b620006c2565b620002d9620002d336600462001a32565b620007ad565b005b62000251620002ec36600462001b31565b62000bf7565b62000251620003033660046200189f565b62000c22565b620002d96200031a36600462001b4b565b62000c3f565b620003376200033136600462001c01565b62000d76565b60405162000218919062001ced565b6200035d6200035736600462001d02565b62000e00565b604051901515815260200162000218565b620002516200037f36600462001b31565b62000e7f565b620002d96200039636600462001b4b565b62000e90565b6200022b62000edb565b620003bd620003b7366004620018e0565b62000f3f565b60405162000218919062001d5c565b620002d9620003dd36600462001e01565b620010e7565b6200022b62001224565b62000251620003fe36600462001b31565b6200126f565b620003376200041536600462001e42565b62001280565b620002d96200042c366004620018e0565b62001318565b600a5462000251906001600160a01b031681565b620002d96200045736600462001e71565b6200135e565b620002d96200046e36600462001efe565b620013ac565b620002d96200048536600462001e01565b62001439565b620002516200049c36600462001b31565b6200148b565b62000251620004b33660046200189f565b6200149c565b620002d9620004ca36600462001e71565b620014b9565b6200022b620014f9565b620002d9620004eb36600462001e71565b6200153e565b6200022b6200157e565b6200022b62001669565b620002d96200051636600462001faa565b62001677565b620002516200052d36600462001b31565b62001719565b620002516200054436600462001b31565b6200172a565b33600090815260208190526040812054606091816001600160401b0381111562000578576200057862001966565b604051908082528060200260200182016040528015620005a2578160200160208202803683370190505b50905060005b828110156200063557336000908152602081905260409020805482908110620005d557620005d562001fd9565b9060005260206000200160009054906101000a90046001600160a01b031682828151811062000608576200060862001fd9565b6001600160a01b0390921660209283029190910190910152806200062c8162001fef565b915050620005a8565b5092915050565b600060205281600052604060002081815481106200065957600080fd5b6000918252602090912001546001600160a01b03169150829050565b600060013360009081526009602052604090206002015460ff166006811115620006a357620006a3620018fe565b14620006ae57600080fd5b503360009081526020819052604090205490565b33600090815260016020526040812054606091816001600160401b03811115620006f057620006f062001966565b6040519080825280602002602001820160405280156200071a578160200160208202803683370190505b50905060005b8281101562000635573360009081526001602052604090208054829081106200074d576200074d62001fd9565b9060005260206000200160009054906101000a90046001600160a01b031682828151811062000780576200078062001fd9565b6001600160a01b039092166020928302919091019091015280620007a48162001fef565b91505062000720565b600a546001600160a01b03163314620007c557600080fd5b6001600160a01b03811660009081526009602090815260409091208581558451620007f9926001909201918601906200173b565b508160068111156200080f576200080f620018fe565b6001600160a01b0382166000908152600960205260409020600201805460ff19166001836006811115620008475762000847620018fe565b02179055506001600160a01b03811660008181526009602052604090206002018054610100909202610100600160a81b03198316811790915560019160ff91821691161760068111156200089f576200089f620018fe565b03620008f657600380546001810182556000919091527fc2575a0e9e593c00f959f8c92f12db2869c3395a3b0502d05e2516446f71f85b0180546001600160a01b0319166001600160a01b03831617905562000bad565b60026001600160a01b03821660009081526009602052604090206002015460ff1660068111156200092b576200092b620018fe565b036200098257600480546001810182556000919091527f8a35acfbc15ff81a39ae7d344fd709f28e8600b4aa8c65c6b64bfe7fe36bd19b0180546001600160a01b0319166001600160a01b03831617905562000bad565b60036001600160a01b03821660009081526009602052604090206002015460ff166006811115620009b757620009b7620018fe565b0362000a0e57600580546001810182556000919091527f036b6384b5eca791c62761152d0c79bb0604c104a5fb6f4eb0703f3154bb3db00180546001600160a01b0319166001600160a01b03831617905562000bad565b60046001600160a01b03821660009081526009602052604090206002015460ff16600681111562000a435762000a43620018fe565b0362000a9a57600680546001810182556000919091527ff652222313e28459528d920b65115c16c04f3efc82aaedc97be59f3f377c0d3f0180546001600160a01b0319166001600160a01b03831617905562000bad565b60056001600160a01b03821660009081526009602052604090206002015460ff16600681111562000acf5762000acf620018fe565b0362000b2657600780546001810182556000919091527fa66cc928b5edb82af9bd49922954155ab7b0942694bea4ce44661d9a8736c6880180546001600160a01b0319166001600160a01b03831617905562000bad565b60066001600160a01b03821660009081526009602052604090206002015460ff16600681111562000b5b5762000b5b620018fe565b0362000bad57600880546001810182556000919091527ff3f7a9fe364faab93b216da50a3214154f22a0a2b415b23a84c8169e8b636ee30180546001600160a01b0319166001600160a01b0383161790555b806001600160a01b03167f33a7170f028b1e4f5ba321064a00ed820856a920c7f9c6636fbcf385427b1b0f8560405162000be991815260200190565b60405180910390a250505050565b6004818154811062000c0857600080fd5b6000918252602090912001546001600160a01b0316905081565b600160205281600052604060002081815481106200065957600080fd5b60405133606081901b6bffffffffffffffffffffffff1916602083015242603483015260009160029060540160408051601f198184030181529082905262000c879162002017565b602060405180830381855afa15801562000ca5573d6000803e3d6000fd5b5050506040513d601f19601f8201168201806040525081019062000cca919062002035565b60601c8686868660405162000cdf9062001798565b6001600160a01b0396871681529486166020860152604085019390935260608401919091528316608083015290911660a082015260c001604051809103906000f08015801562000d33573d6000803e3d6000fd5b50336000908152602081815260408220805460018101825590835291200180546001600160a01b0319166001600160a01b03929092169190911790555050505050565b606060033360009081526009602052604090206002015460ff16600681111562000da45762000da4620018fe565b1462000daf57600080fd5b8160000362000dbd57600080fd5b62000dce33888888888888620013ac565b5060408051808201909152601081526f50726f6475637420637265617465642160801b60208201529695505050505050565b6040805160008082526020820180845287905260ff86169282019290925260608101849052608081018390526001600160a01b0387169060019060a0016020604051602081039080840390855afa15801562000e60573d6000803e3d6000fd5b505050602060405103516001600160a01b031614905095945050505050565b6007818154811062000c0857600080fd5b60013360009081526009602052604090206002015460ff16600681111562000ebc5762000ebc620018fe565b1462000ec757600080fd5b62000ed58484848462000c3f565b50505050565b6060600380548060200260200160405190810160405280929190818152602001828054801562000f3557602002820191906000526020600020905b81546001600160a01b0316815260019091019060200180831162000f16575b5050505050905090565b62000f6b6040805160808101825260008082526060602083015290918201908152600060209091015290565b600a546001600160a01b0316331462000f8357600080fd5b6001600160a01b03821660009081526009602090815260408083208151608081018352815481526001820180548451818702810187019095528085529195929486810194939192919084015b828210156200108557838290600052602060002001805462000ff1906200204f565b80601f01602080910402602001604051908101604052809291908181526020018280546200101f906200204f565b8015620010705780601f10620010445761010080835404028352916020019162001070565b820191906000526020600020905b8154815290600101906020018083116200105257829003601f168201915b50505050508152602001906001019062000fcf565b50505090825250600282015460209091019060ff166006811115620010ae57620010ae620018fe565b6006811115620010c257620010c2620018fe565b81526002919091015461010090046001600160a01b031660209091015290505b919050565b81600103620011575760405163638e9a3d60e01b81526001600160a01b0384169063638e9a3d906200111e903390600401620018cc565b600060405180830381600087803b1580156200113957600080fd5b505af11580156200114e573d6000803e3d6000fd5b50505050505050565b816002036200118e57604051630c8b99eb60e11b81526001600160a01b0384169063191733d6906200111e903390600401620018cc565b81600303620011cc57604051630887851b60e31b81526001600160a01b03848116600483015233602483015282169063443c28d8906044016200111e565b816004036200121f5760405163298abd8d60e11b81526001600160a01b0384811660048301523360248301528216906353157b1a90604401600060405180830381600087803b1580156200113957600080fd5b505050565b606060033360009081526009602052604090206002015460ff166006811115620012525762001252620018fe565b146200125d57600080fd5b600062001269620006c2565b92915050565b6003818154811062000c0857600080fd5b600a546060906001600160a01b031633146200129b57600080fd5b826006811115620012b057620012b0620018fe565b6001600160a01b0383166000908152600960205260409020600201805460ff19166001836006811115620012e857620012e8620018fe565b02179055505060408051808201909152600d81526c526f6c6520557064617465642160981b602082015292915050565b60033360009081526009602052604090206002015460ff166006811115620013445762001344620018fe565b146200134f57600080fd5b6200135b813362001677565b50565b42836001600160a01b03167f22561ca0666e99052dd8231a6c5c337204ed5658c357aa6afcd53c207acfac678685856040516200139e939291906200208b565b60405180910390a350505050565b600087878787878787604051620013c390620017a6565b620013d59796959493929190620020c2565b604051809103906000f080158015620013f2573d6000803e3d6000fd5b506001600160a01b0398891660009081526002602090815260408220805460018101825590835291200180546001600160a01b031916919099161790975550505050505050565b60023360009081526009602052604090206002015460ff166006811115620014655762001465620018fe565b146200147057600080fd5b600082116200147e57600080fd5b6200121f838383620010e7565b6008818154811062000c0857600080fd5b600260205281600052604060002081815481106200065957600080fd5b42826001600160a01b03167f31f87de04fd141167b8131be7a8ccb2bac63361a15671c96d90c39ddc9ef909d8587856040516200139e939291906200208b565b606060033360009081526009602052604090206002015460ff166006811115620015275762001527620018fe565b146200153257600080fd5b6000620012696200157e565b42846001600160a01b03167f9151271dfe612a18bf915ee1609e6f94f62fd775c704a0ae2ef091519f0c9b398585856040516200139e939291906200208b565b33600090815260026020526040812054606091816001600160401b03811115620015ac57620015ac62001966565b604051908082528060200260200182016040528015620015d6578160200160208202803683370190505b50905060005b82811015620006355733600090815260026020526040902080548290811062001609576200160962001fd9565b9060005260206000200160009054906101000a90046001600160a01b03168282815181106200163c576200163c62001fd9565b6001600160a01b039092166020928302919091019091015280620016608162001fef565b915050620015dc565b60606000620012696200054a565b604051630a57332d60e31b81526001600160a01b038316906352b9996890620016a5908490600401620018cc565b600060405180830381600087803b158015620016c057600080fd5b505af1158015620016d5573d6000803e3d6000fd5b505050506001600160a01b03908116600090815260016020818152604083208054928301815583529091200180546001600160a01b03191692909116919091179055565b6006818154811062000c0857600080fd5b6005818154811062000c0857600080fd5b82805482825590600052602060002090810192821562001786579160200282015b8281111562001786578251829062001775908262002170565b50916020019190600101906200175c565b5062001794929150620017b4565b5090565b6112f4806200223d83390190565b611c26806200353183390190565b8082111562001794576000620017cb8282620017d5565b50600101620017b4565b508054620017e3906200204f565b6000825580601f10620017f4575050565b601f0160209004906000526020600020908101906200135b91905b808211156200179457600081556001016200180f565b600081518084526020808501945080840160005b83811015620018605781516001600160a01b03168752958201959082019060010162001839565b509495945050505050565b60208152600062001880602083018462001825565b9392505050565b80356001600160a01b0381168114620010e257600080fd5b60008060408385031215620018b357600080fd5b620018be8362001887565b946020939093013593505050565b6001600160a01b0391909116815260200190565b600060208284031215620018f357600080fd5b620018808262001887565b634e487b7160e01b600052602160045260246000fd5b600781106200193357634e487b7160e01b600052602160045260246000fd5b9052565b838152606081016200194d602083018562001914565b6001600160a01b03929092166040919091015292915050565b634e487b7160e01b600052604160045260246000fd5b604051601f8201601f191681016001600160401b0381118282101715620019a757620019a762001966565b604052919050565b60006001600160401b03821115620019cb57620019cb62001966565b5060051b60200190565b60006001600160401b03831115620019f157620019f162001966565b62001a06601f8401601f19166020016200197c565b905082815283838301111562001a1b57600080fd5b828260208301376000602084830101529392505050565b6000806000806080858703121562001a4957600080fd5b843593506020808601356001600160401b038082111562001a6957600080fd5b818801915088601f83011262001a7e57600080fd5b813562001a9562001a8f82620019af565b6200197c565b81815260059190911b8301840190848101908b83111562001ab557600080fd5b8585015b8381101562001b085780358581111562001ad35760008081fd5b8601603f81018e1362001ae65760008081fd5b62001af98e8983013560408401620019d5565b84525091860191860162001ab9565b5097505050506040870135935062001b269150506060860162001887565b905092959194509250565b60006020828403121562001b4457600080fd5b5035919050565b6000806000806080858703121562001b6257600080fd5b843593506020850135925062001b7b6040860162001887565b915062001b266060860162001887565b600082601f83011262001b9d57600080fd5b8135602062001bb062001a8f83620019af565b82815260059290921b8401810191818101908684111562001bd057600080fd5b8286015b8481101562001bf65762001be88162001887565b835291830191830162001bd4565b509695505050505050565b60008060008060008060c0878903121562001c1b57600080fd5b8635955060208701356001600160401b038082111562001c3a57600080fd5b62001c488a838b0162001b8b565b965060408901359550606089013591508082111562001c6657600080fd5b5062001c7589828a0162001b8b565b93505062001c866080880162001887565b915060a087013590509295509295509295565b60005b8381101562001cb657818101518382015260200162001c9c565b50506000910152565b6000815180845262001cd981602086016020860162001c99565b601f01601f19169290920160200192915050565b60208152600062001880602083018462001cbf565b600080600080600060a0868803121562001d1b57600080fd5b62001d268662001887565b945060208601359350604086013560ff8116811462001d4457600080fd5b94979396509394606081013594506080013592915050565b6000602080835260a08301845182850152818501516080604086015281815180845260c08701915060c08160051b8801019350848301925060005b8181101562001dc95760bf1988860301835262001db685855162001cbf565b9450928501929185019160010162001d97565b505050506040850151915062001de3606085018362001914565b60608501516001600160a01b03811660808601529150949350505050565b60008060006060848603121562001e1757600080fd5b62001e228462001887565b92506020840135915062001e396040850162001887565b90509250925092565b6000806040838503121562001e5657600080fd5b8235915062001e686020840162001887565b90509250929050565b6000806000806080858703121562001e8857600080fd5b62001e938562001887565b935062001ea36020860162001887565b925062001eb36040860162001887565b915060608501356001600160401b0381111562001ecf57600080fd5b8501601f8101871362001ee157600080fd5b62001ef287823560208401620019d5565b91505092959194509250565b600080600080600080600060e0888a03121562001f1a57600080fd5b62001f258862001887565b96506020880135955060408801356001600160401b038082111562001f4957600080fd5b62001f578b838c0162001b8b565b965060608a0135955060808a013591508082111562001f7557600080fd5b5062001f848a828b0162001b8b565b93505062001f9560a0890162001887565b915060c0880135905092959891949750929550565b6000806040838503121562001fbe57600080fd5b62001fc98362001887565b915062001e686020840162001887565b634e487b7160e01b600052603260045260246000fd5b6000600182016200201057634e487b7160e01b600052601160045260246000fd5b5060010190565b600082516200202b81846020870162001c99565b9190910192915050565b6000602082840312156200204857600080fd5b5051919050565b600181811c908216806200206457607f821691505b6020821081036200208557634e487b7160e01b600052602260045260246000fd5b50919050565b6001600160a01b03848116825283166020820152606060408201819052600090620020b99083018462001cbf565b95945050505050565b600060018060a01b03808a16835288602084015260e06040840152620020ec60e084018962001825565b876060850152838103608085015262002106818862001825565b9590911660a0840152505060c0015295945050505050565b601f8211156200121f57600081815260208120601f850160051c81016020861015620021475750805b601f850160051c820191505b81811015620021685782815560010162002153565b505050505050565b81516001600160401b038111156200218c576200218c62001966565b620021a4816200219d84546200204f565b846200211e565b602080601f831160018114620021dc5760008415620021c35750858301515b600019600386901b1c1916600185901b17855562002168565b600085815260208120601f198616915b828110156200220d57888601518255948401946001909101908401620021ec565b50858210156200222c5787850151600019600388901b60f8161c191681555b5050505050600190811b0190555056fe608060405234801561001057600080fd5b506040516112f43803806112f483398101604081905261002f91610123565b600080546001600160a01b03199081166001600160a01b0389811691821784556001805484168a8316179055600288905560038790556004805484168783161790556005805490931690851617909155600680546001600160a81b031916909117905560405182906100a0906100fa565b6001600160a01b039091168152602001604051809103906000f0801580156100cc573d6000803e3d6000fd5b50600880546001600160a01b0319166001600160a01b03929092169190911790555061018995505050505050565b610cb28061064283390190565b80516001600160a01b038116811461011e57600080fd5b919050565b60008060008060008060c0878903121561013c57600080fd5b61014587610107565b955061015360208801610107565b9450604087015193506060870151925061016f60808801610107565b915061017d60a08801610107565b90509295509295509295565b6104aa806101986000396000f3fe608060405234801561001057600080fd5b50600436106100625760003560e01c806324ce4bc81461006757806352b99968146100c7578063638e9a3d146100dc57806368188a28146100ef578063bfcf7f2f14610105578063e83fc4ac14610135575b600080fd5b600154600254600354600654600454600554600854604080516001600160a01b0398891681526020810197909752860194909452918516606085015284166080840152831660a08301529190911660c082015260e0015b60405180910390f35b6100da6100d536600461042e565b610165565b005b6100da6100ea36600461042e565b6102bd565b6100f7610408565b6040519081526020016100be565b6100da61011336600461042e565b600480546001600160a01b0319166001600160a01b0392909216919091179055565b6100da61014336600461042e565b600580546001600160a01b0319166001600160a01b0392909216919091179055565b6005546001600160a01b038281169116146101e65760405162461bcd60e51b815260206004820152603660248201527f4f6e6c792070726f636573736f72206f6620746865207061636b6167652063616044820152756e20726563656965766520746865207061636b61676560501b60648201526084015b60405180910390fd5b6001600654600160a01b900460ff1660028111156102065761020661045e565b1461024f5760405162461bcd60e51b8152602060048201526019602482015278141c9bd91d58dd081b9bdd081c1a58dad959081d5c081e595d603a1b60448201526064016101dd565b6006805460ff60a01b1916600160a11b1790556005546004546001805460408051928352600260208401526001600160a01b039485169493841693909116917f7e89c4b1a4e2b51aae84eb1f90e8a34cb792ece5ac5cb63db4830c891220b28d91015b60405180910390a450565b6004546001600160a01b038281169116146103335760405162461bcd60e51b815260206004820152603060248201527f4f6e6c79207472616e73706f72746572206f6620746865207061636b6167652060448201526f63616e207069636b207061636b61676560801b60648201526084016101dd565b6000600654600160a01b900460ff1660028111156103535761035361045e565b146103a05760405162461bcd60e51b815260206004820152601c60248201527f5061636b616765206d75737420626520617420537570706c6965722e0000000060448201526064016101dd565b6006805460ff60a01b1916600160a01b179055600554600454600180546040805183815260208101939093526001600160a01b039485169493841693909116917f7e89c4b1a4e2b51aae84eb1f90e8a34cb792ece5ac5cb63db4830c891220b28d91016102b2565b600654600090600160a01b900460ff1660028111156104295761042961045e565b905090565b60006020828403121561044057600080fd5b81356001600160a01b038116811461045757600080fd5b9392505050565b634e487b7160e01b600052602160045260246000fdfea2646970667358221220e7ab3a0b9e1f6d4d987ccb19235609da21e5e54031d9d436a4c10dae868caf3f64736f6c634300081300336080604052600060025534801561001557600080fd5b50604051610cb2380380610cb283398101604081905261003491610059565b600080546001600160a01b0319166001600160a01b0392909216919091179055610089565b60006020828403121561006b57600080fd5b81516001600160a01b038116811461008257600080fd5b9392505050565b610c1a806100986000396000f3fe608060405234801561001057600080fd5b506004361061004c5760003560e01c806327506f53146100515780633626a3681461006f57806378ce1365146100845780639ace38c21461009b575b600080fd5b6100596100c1565b6040516100669190610730565b60405180910390f35b61008261007d3660046108ba565b610310565b005b61008d60025481565b604051908152602001610066565b6100ae6100a9366004610951565b610590565b604051610066979695949392919061096a565b60025460609060008167ffffffffffffffff8111156100e2576100e2610817565b60405190808252806020026020018201604052801561014857816020015b6040805160e0810182526000808252602080830182905292820181905260608083018290526080830181905260a083015260c082015282526000199092019101816101005790505b50905060005b8281101561030957600081815260016020818152604092839020835160e08101855281548152928101546001600160a01b0390811692840192909252600281015490911692820192909252600382015460608201526004820180549192916080840191906101bb906109ca565b80601f01602080910402602001604051908101604052809291908181526020018280546101e7906109ca565b80156102345780601f1061020957610100808354040283529160200191610234565b820191906000526020600020905b81548152906001019060200180831161021757829003601f168201915b5050505050815260200160058201805461024d906109ca565b80601f0160208091040260200160405190810160405280929190818152602001828054610279906109ca565b80156102c65780601f1061029b576101008083540402835291602001916102c6565b820191906000526020600020905b8154815290600101906020018083116102a957829003601f168201915b505050505081526020016006820154815250508282815181106102eb576102eb610a04565b6020026020010181905250808061030190610a30565b91505061014e565b5092915050565b60025442906000036103ea576040805160e0810182528881526001600160a01b038089166020808401918252898316848601908152606085018a8152608086018a815260a087018a905260c087018990526002805460009081526001958690529890982087518155945193850180549487166001600160a01b03199586161790559151968401805497909516969092169590951790925590516003820155915190919060048201906103c29082610a98565b5060a082015160058201906103d79082610a98565b5060c0820151816006015590505061052b565b836001600060016002546103fe9190610b58565b815260200190815260200160002060000154146104615760405162461bcd60e51b815260206004820152601b60248201527f5472616e73616374696f6e206572726f72206f63637572726564210000000000604482015260640160405180910390fd5b6040805160e0810182528881526001600160a01b038089166020808401918252898316848601908152606085018a8152608086018a815260a087018a905260c087018990526002805460009081526001958690529890982087518155945193850180549487166001600160a01b03199586161790559151968401805497909516969092169590951790925590516003820155915190919060048201906105079082610a98565b5060a0820151600582019061051c9082610a98565b5060c082015181600601559050505b60016002600082825461053e9190610b71565b90915550506040517f30d01d358fb0899fe4d50947b2e9301c952d9eed09b14c7ecdcbeed4434557c49061057f90899089908990899087908a908a90610b84565b60405180910390a150505050505050565b6001602081905260009182526040909120805491810154600282015460038301546004840180546001600160a01b0394851695949093169391926105d3906109ca565b80601f01602080910402602001604051908101604052809291908181526020018280546105ff906109ca565b801561064c5780601f106106215761010080835404028352916020019161064c565b820191906000526020600020905b81548152906001019060200180831161062f57829003601f168201915b505050505090806005018054610661906109ca565b80601f016020809104026020016040519081016040528092919081815260200182805461068d906109ca565b80156106da5780601f106106af576101008083540402835291602001916106da565b820191906000526020600020905b8154815290600101906020018083116106bd57829003601f168201915b5050505050908060060154905087565b6000815180845260005b81811015610710576020818501810151868301820152016106f4565b506000602082860101526020601f19601f83011685010191505092915050565b60006020808301818452808551808352604092508286019150828160051b87010184880160005b838110156107ed57888303603f19018552815180518452878101516001600160a01b03908116898601528782015116878501526060808201519085015260808082015160e082870181905291906107b0838801826106ea565b9250505060a080830151868303828801526107cb83826106ea565b60c0948501519790940196909652505094870194925090860190600101610757565b509098975050505050505050565b80356001600160a01b038116811461081257600080fd5b919050565b634e487b7160e01b600052604160045260246000fd5b600082601f83011261083e57600080fd5b813567ffffffffffffffff8082111561085957610859610817565b604051601f8301601f19908116603f0116810190828211818310171561088157610881610817565b8160405283815286602085880101111561089a57600080fd5b836020870160208301376000602085830101528094505050505092915050565b60008060008060008060c087890312156108d357600080fd5b863595506108e3602088016107fb565b94506108f1604088016107fb565b935060608701359250608087013567ffffffffffffffff8082111561091557600080fd5b6109218a838b0161082d565b935060a089013591508082111561093757600080fd5b5061094489828a0161082d565b9150509295509295509295565b60006020828403121561096357600080fd5b5035919050565b8781526001600160a01b038781166020830152861660408201526060810185905260e0608082018190526000906109a3908301866106ea565b82810360a08401526109b581866106ea565b9150508260c083015298975050505050505050565b600181811c908216806109de57607f821691505b6020821081036109fe57634e487b7160e01b600052602260045260246000fd5b50919050565b634e487b7160e01b600052603260045260246000fd5b634e487b7160e01b600052601160045260246000fd5b600060018201610a4257610a42610a1a565b5060010190565b601f821115610a9357600081815260208120601f850160051c81016020861015610a705750805b601f850160051c820191505b81811015610a8f57828155600101610a7c565b5050505b505050565b815167ffffffffffffffff811115610ab257610ab2610817565b610ac681610ac084546109ca565b84610a49565b602080601f831160018114610afb5760008415610ae35750858301515b600019600386901b1c1916600185901b178555610a8f565b600085815260208120601f198616915b82811015610b2a57888601518255948401946001909101908401610b0b565b5085821015610b485787850151600019600388901b60f8161c191681555b5050505050600190811b01905550565b81810381811115610b6b57610b6b610a1a565b92915050565b80820180821115610b6b57610b6b610a1a565b8781526001600160a01b03878116602083015286166040820152606081018590526080810184905260e060a08201819052600090610bc4908301856106ea565b82810360c0840152610bd681856106ea565b9a995050505050505050505056fea2646970667358221220ad3e83d8579e9c39663418c580c249f59eddf57ba0bd58657d72b382bd72fdca64736f6c6343000813003360806040523480156200001157600080fd5b5060405162001c2638038062001c268339810160408190526200003491620002c7565b600080546001600160a01b0389166001600160a01b03199182168117909255600480549091169091179055600186905584516200007990600290602088019062000158565b50600884905582516200009490600390602086019062000158565b5080600103620000bf57600580546001600160a01b0319166001600160a01b038416179055620000e4565b80600203620000e457600680546001600160a01b0319166001600160a01b0384161790555b600087604051620000f590620001c2565b6001600160a01b039091168152602001604051809103906000f08015801562000122573d6000803e3d6000fd5b50600980546001600160a01b0390921661010002610100600160a81b031990921691909117905550620003749650505050505050565b828054828255906000526020600020908101928215620001b0579160200282015b82811115620001b057825182546001600160a01b0319166001600160a01b0390911617825560209092019160019091019062000179565b50620001be929150620001d0565b5090565b610cb28062000f7483390190565b5b80821115620001be5760008155600101620001d1565b80516001600160a01b0381168114620001ff57600080fd5b919050565b634e487b7160e01b600052604160045260246000fd5b600082601f8301126200022c57600080fd5b815160206001600160401b03808311156200024b576200024b62000204565b8260051b604051601f19603f8301168101818110848211171562000273576200027362000204565b6040529384528581018301938381019250878511156200029257600080fd5b83870191505b84821015620002bc57620002ac82620001e7565b8352918301919083019062000298565b979650505050505050565b600080600080600080600060e0888a031215620002e357600080fd5b620002ee88620001e7565b602089015160408a015191985096506001600160401b03808211156200031357600080fd5b620003218b838c016200021a565b965060608a0151955060808a01519150808211156200033f57600080fd5b506200034e8a828b016200021a565b9350506200035f60a08901620001e7565b915060c0880151905092959891949750929550565b610bf080620003846000396000f3fe608060405234801561001057600080fd5b50600436106100b45760003560e01c8063bc30a61811610071578063bc30a6181461018f578063c8f5f189146101bf578063d0b9ea27146101d2578063d2f3fcc714610202578063f5c0e3831461020a578063fc72a3851461021d57600080fd5b8063191733d6146100b95780632f1d7588146100ce5780639296057b146100e157806393a668b714610107578063aab3a9d61461011a578063abb428a61461017a575b600080fd5b6100cc6100c73660046109d4565b610238565b005b6100cc6100dc3660046109f6565b6103e9565b6100f46100ef3660046109d4565b610459565b6040519081526020015b60405180910390f35b6100cc6101153660046109d4565b6106dc565b6100cc6101283660046109d4565b600380546001810182556000919091527fc2575a0e9e593c00f959f8c92f12db2869c3395a3b0502d05e2516446f71f85b0180546001600160a01b0319166001600160a01b0392909216919091179055565b610182610730565b6040516100fe9190610a29565b6100cc61019d3660046109d4565b600680546001600160a01b0319166001600160a01b0392909216919091179055565b6100cc6101cd3660046109d4565b61076b565b6100cc6101e03660046109d4565b600580546001600160a01b0319166001600160a01b0392909216919091179055565b6100f46107cf565b6100cc6102183660046109f6565b6107ee565b610225610878565b6040516100fe9796959493929190610aa7565b6003805461024890600190610b04565b8154811061025857610258610b2b565b6000918252602090912001546001600160a01b038281169116146102d35760405162461bcd60e51b815260206004820152602760248201527f4f6e6c79205472616e73706f727465722063616e2063616c6c207468697320666044820152663ab731ba34b7b760c91b60648201526084015b60405180910390fd5b600060095460ff1660068111156102ec576102ec610b41565b146103395760405162461bcd60e51b815260206004820152601d60248201527f5061636b616765206d7573742062652061742070726f636573736f722e00000060448201526064016102ca565b6005546001600160a01b03161561039c57600980546001919060ff19168280021790555060055460408051600180825260208201526001600160a01b03928316928416913091600080516020610b9b83398151915291015b60405180910390a450565b600980546002919060ff191660018302179055506006546040805160018152600260208201526001600160a01b03928316928416913091600080516020610b9b8339815191529101610391565b6006546001600160a01b038281169116146104165760405162461bcd60e51b81526004016102ca90610b57565b600780546001600160a01b0319166001600160a01b03841617905560055b6009805460ff1916600183600681111561045057610450610b41565b02179055505050565b6005546000906001600160a01b038381169116148061048557506006546001600160a01b038381169116145b6104ef5760405162461bcd60e51b815260206004820152603560248201527f4f6e6c792057686f6c6573616c6572206f72204469737472696275746f72206360448201527430b71031b0b636103a3434b990333ab731ba34b7b760591b60648201526084016102ca565b60095460019060ff16600681111561050957610509610b41565b10156105535760405162461bcd60e51b8152602060048201526019602482015278141c9bd91d58dd081b9bdd081c1a58dad959081d5c081e595d603a1b60448201526064016102ca565b6005546001600160a01b0383811691161480156105865750600160095460ff16600681111561058457610584610b41565b145b15610616576009805460ff1916600390811790915560055481546001600160a01b0390911691906105b990600190610b04565b815481106105c9576105c9610b2b565b6000918252602091829020015460408051600281526003938101939093526001600160a01b03909116913091600080516020610b9b833981519152910160405180910390a4506001919050565b6006546001600160a01b0383811691161480156106495750600260095460ff16600681111561064757610647610b41565b145b156106d7576009805460ff19166004179055600654600380546001600160a01b039092169161067a90600190610b04565b8154811061068a5761068a610b2b565b6000918252602091829020015460408051600381526004938101939093526001600160a01b03909116913091600080516020610b9b833981519152910160405180910390a4506002919050565b919050565b6006546001600160a01b038281169116146107095760405162461bcd60e51b81526004016102ca90610b57565b60045b6009805460ff1916600183600681111561072857610728610b41565b021790555050565b61073861099f565b50604080516060810182526005546001600160a01b03908116825260065481166020830152600754169181019190915290565b6007546001600160a01b038281169116146107c85760405162461bcd60e51b815260206004820181905260248201527f5468697320437573746f6d6572206973206e6f74204173736f6369617465642e60448201526064016102ca565b600661070c565b60095460009060ff1660068111156107e9576107e9610b41565b905090565b6005546001600160a01b038281169116146108565760405162461bcd60e51b815260206004820152602260248201527f746869732057686f6c6573616c6572206973206e6f74204173736f6369617465604482015261321760f11b60648201526084016102ca565b600680546001600160a01b0319166001600160a01b0384161790556002610434565b600080606060006060600080600460009054906101000a90046001600160a01b031660015460026008546003600660009054906101000a90046001600160a01b0316600760009054906101000a90046001600160a01b03168480548060200260200160405190810160405280929190818152602001828054801561092557602002820191906000526020600020905b81546001600160a01b03168152600190910190602001808311610907575b505050505094508280548060200260200160405190810160405280929190818152602001828054801561098157602002820191906000526020600020905b81546001600160a01b03168152600190910190602001808311610963575b50505050509250965096509650965096509650965090919293949596565b60405180606001604052806003906020820280368337509192915050565b80356001600160a01b03811681146106d757600080fd5b6000602082840312156109e657600080fd5b6109ef826109bd565b9392505050565b60008060408385031215610a0957600080fd5b610a12836109bd565b9150610a20602084016109bd565b90509250929050565b60608101818360005b6003811015610a5a5781516001600160a01b0316835260209283019290910190600101610a32565b50505092915050565b600081518084526020808501945080840160005b83811015610a9c5781516001600160a01b031687529582019590820190600101610a77565b509495945050505050565b600060018060a01b03808a16835288602084015260e06040840152610acf60e0840189610a63565b8760608501528381036080850152610ae78188610a63565b95821660a0850152509290921660c0909101525095945050505050565b81810381811115610b2557634e487b7160e01b600052601160045260246000fd5b92915050565b634e487b7160e01b600052603260045260246000fd5b634e487b7160e01b600052602160045260246000fd5b60208082526023908201527f54686973204469737472696275746f72206973206e6f74204173736f6369617460408201526232b21760e91b60608201526080019056fe7e89c4b1a4e2b51aae84eb1f90e8a34cb792ece5ac5cb63db4830c891220b28da2646970667358221220673178368a22b0b918661f9fe552b9af78adc1e2805b64db78b52296a778880464736f6c634300081300336080604052600060025534801561001557600080fd5b50604051610cb2380380610cb283398101604081905261003491610059565b600080546001600160a01b0319166001600160a01b0392909216919091179055610089565b60006020828403121561006b57600080fd5b81516001600160a01b038116811461008257600080fd5b9392505050565b610c1a806100986000396000f3fe608060405234801561001057600080fd5b506004361061004c5760003560e01c806327506f53146100515780633626a3681461006f57806378ce1365146100845780639ace38c21461009b575b600080fd5b6100596100c1565b6040516100669190610730565b60405180910390f35b61008261007d3660046108ba565b610310565b005b61008d60025481565b604051908152602001610066565b6100ae6100a9366004610951565b610590565b604051610066979695949392919061096a565b60025460609060008167ffffffffffffffff8111156100e2576100e2610817565b60405190808252806020026020018201604052801561014857816020015b6040805160e0810182526000808252602080830182905292820181905260608083018290526080830181905260a083015260c082015282526000199092019101816101005790505b50905060005b8281101561030957600081815260016020818152604092839020835160e08101855281548152928101546001600160a01b0390811692840192909252600281015490911692820192909252600382015460608201526004820180549192916080840191906101bb906109ca565b80601f01602080910402602001604051908101604052809291908181526020018280546101e7906109ca565b80156102345780601f1061020957610100808354040283529160200191610234565b820191906000526020600020905b81548152906001019060200180831161021757829003601f168201915b5050505050815260200160058201805461024d906109ca565b80601f0160208091040260200160405190810160405280929190818152602001828054610279906109ca565b80156102c65780601f1061029b576101008083540402835291602001916102c6565b820191906000526020600020905b8154815290600101906020018083116102a957829003601f168201915b505050505081526020016006820154815250508282815181106102eb576102eb610a04565b6020026020010181905250808061030190610a30565b91505061014e565b5092915050565b60025442906000036103ea576040805160e0810182528881526001600160a01b038089166020808401918252898316848601908152606085018a8152608086018a815260a087018a905260c087018990526002805460009081526001958690529890982087518155945193850180549487166001600160a01b03199586161790559151968401805497909516969092169590951790925590516003820155915190919060048201906103c29082610a98565b5060a082015160058201906103d79082610a98565b5060c0820151816006015590505061052b565b836001600060016002546103fe9190610b58565b815260200190815260200160002060000154146104615760405162461bcd60e51b815260206004820152601b60248201527f5472616e73616374696f6e206572726f72206f63637572726564210000000000604482015260640160405180910390fd5b6040805160e0810182528881526001600160a01b038089166020808401918252898316848601908152606085018a8152608086018a815260a087018a905260c087018990526002805460009081526001958690529890982087518155945193850180549487166001600160a01b03199586161790559151968401805497909516969092169590951790925590516003820155915190919060048201906105079082610a98565b5060a0820151600582019061051c9082610a98565b5060c082015181600601559050505b60016002600082825461053e9190610b71565b90915550506040517f30d01d358fb0899fe4d50947b2e9301c952d9eed09b14c7ecdcbeed4434557c49061057f90899089908990899087908a908a90610b84565b60405180910390a150505050505050565b6001602081905260009182526040909120805491810154600282015460038301546004840180546001600160a01b0394851695949093169391926105d3906109ca565b80601f01602080910402602001604051908101604052809291908181526020018280546105ff906109ca565b801561064c5780601f106106215761010080835404028352916020019161064c565b820191906000526020600020905b81548152906001019060200180831161062f57829003601f168201915b505050505090806005018054610661906109ca565b80601f016020809104026020016040519081016040528092919081815260200182805461068d906109ca565b80156106da5780601f106106af576101008083540402835291602001916106da565b820191906000526020600020905b8154815290600101906020018083116106bd57829003601f168201915b5050505050908060060154905087565b6000815180845260005b81811015610710576020818501810151868301820152016106f4565b506000602082860101526020601f19601f83011685010191505092915050565b60006020808301818452808551808352604092508286019150828160051b87010184880160005b838110156107ed57888303603f19018552815180518452878101516001600160a01b03908116898601528782015116878501526060808201519085015260808082015160e082870181905291906107b0838801826106ea565b9250505060a080830151868303828801526107cb83826106ea565b60c0948501519790940196909652505094870194925090860190600101610757565b509098975050505050505050565b80356001600160a01b038116811461081257600080fd5b919050565b634e487b7160e01b600052604160045260246000fd5b600082601f83011261083e57600080fd5b813567ffffffffffffffff8082111561085957610859610817565b604051601f8301601f19908116603f0116810190828211818310171561088157610881610817565b8160405283815286602085880101111561089a57600080fd5b836020870160208301376000602085830101528094505050505092915050565b60008060008060008060c087890312156108d357600080fd5b863595506108e3602088016107fb565b94506108f1604088016107fb565b935060608701359250608087013567ffffffffffffffff8082111561091557600080fd5b6109218a838b0161082d565b935060a089013591508082111561093757600080fd5b5061094489828a0161082d565b9150509295509295509295565b60006020828403121561096357600080fd5b5035919050565b8781526001600160a01b038781166020830152861660408201526060810185905260e0608082018190526000906109a3908301866106ea565b82810360a08401526109b581866106ea565b9150508260c083015298975050505050505050565b600181811c908216806109de57607f821691505b6020821081036109fe57634e487b7160e01b600052602260045260246000fd5b50919050565b634e487b7160e01b600052603260045260246000fd5b634e487b7160e01b600052601160045260246000fd5b600060018201610a4257610a42610a1a565b5060010190565b601f821115610a9357600081815260208120601f850160051c81016020861015610a705750805b601f850160051c820191505b81811015610a8f57828155600101610a7c565b5050505b505050565b815167ffffffffffffffff811115610ab257610ab2610817565b610ac681610ac084546109ca565b84610a49565b602080601f831160018114610afb5760008415610ae35750858301515b600019600386901b1c1916600185901b178555610a8f565b600085815260208120601f198616915b82811015610b2a57888601518255948401946001909101908401610b0b565b5085821015610b485787850151600019600388901b60f8161c191681555b5050505050600190811b01905550565b81810381811115610b6b57610b6b610a1a565b92915050565b80820180821115610b6b57610b6b610a1a565b8781526001600160a01b03878116602083015286166040820152606081018590526080810184905260e060a08201819052600090610bc4908301856106ea565b82810360c0840152610bd681856106ea565b9a995050505050505050505056fea2646970667358221220ad3e83d8579e9c39663418c580c249f59eddf57ba0bd58657d72b382bd72fdca64736f6c63430008130033a2646970667358221220639b5d535dc6f5e27970df146609fd675ce4a6ac23af79ae6f0fb1db1a2cf24764736f6c63430008130033",
  "immutableReferences": {},
  "source": "// SPDX-License-Identifier: MIT\r\npragma solidity ^0.8.0;\r\n\r\npragma experimental ABIEncoderV2;\r\n\r\n\r\nimport \"./Crop.sol\";\r\nimport \"./Farmer.sol\";\r\nimport \"./Transporter.sol\";\r\nimport \"./Product.sol\";\r\nimport \"./Processor.sol\";\r\nimport \"./ProductW_D.sol\";\r\nimport \"./Wholesaler.sol\";\r\nimport \"./ProductD_C.sol\";\r\nimport \"./Distributor.sol\";\r\nimport \"./Customer.sol\";\r\nimport \"./UserData.sol\";\r\n\r\n\r\n//// New supply chain : farmer -> transporter -> processor -> transporter -> whole-saler -> transporter -> distributor -> transporter -> customer/hospital/pharmacy\r\n\r\ncontract SupplyChain is Farmer, Transporter, Processor, UserData {\r\n    address public Owner;\r\n\r\n\r\n    //create a variable for crops that are for sale\r\n\r\n    constructor() {\r\n        Owner = msg.sender;\r\n    }\r\n\r\n    modifier onlyOwner() {\r\n        require(Owner == msg.sender);\r\n        _;\r\n    }\r\n\r\n    modifier checkUser(address addr) {\r\n        require(addr == msg.sender);\r\n        _;\r\n    }\r\n\r\n    //enum roles {noRole, farmer, transporter, processor, wholesaler, distributor, customer}\r\n\r\n    //////////////// Events ////////////////////\r\n\r\n    event UserRegister(address indexed _address, bytes32 name);\r\n    event buyEvent(address buyer, address indexed seller, address packageAddr, bytes signature, uint indexed timestamp);\r\n    event respondEvent(address indexed buyer, address seller, address packageAddr, bytes signature, uint indexed timestamp);\r\n    event sendEvent(address seller, address buyer, address indexed packageAddr, bytes signature, uint indexed timestamp);\r\n    event receivedEvent(address indexed buyer, address seller, address packageAddr, bytes signature, uint indexed timestamp);\r\n\r\n//////////////// Event functions (All entities) ////////////////////\r\n\r\n    \r\n    function requestProduct(address buyer, address seller, address packageAddr, bytes memory signature) public {\r\n        emit buyEvent(buyer, seller, packageAddr, signature, block.timestamp);\r\n    }\r\n    \r\n    function respondToEntity(address buyer, address seller, address packageAddr, bytes memory signature) public {\r\n        emit respondEvent(buyer, seller, packageAddr, signature, block.timestamp);\r\n    }\r\n    \r\n    function sendPackageToEntity(address buyer, address seller, address packageAddr, bytes memory signature) public {\r\n        emit sendEvent(seller, buyer, packageAddr, signature, block.timestamp);\r\n    }\r\n\r\n    //verify package\r\n    function verify(address p, bytes32 hash, uint8 v, bytes32 r, bytes32 s) public pure returns(bool) {\r\n        return ecrecover(hash, v, r, s) == p;\r\n    } \r\n    /////////////// Users (Only Owner Executable) //////////////////////\r\n\r\n    \r\n    function registerUser(bytes32 name,string[] memory loc,uint256 role,address _userAddr) external onlyOwner {\r\n        userInfo[_userAddr].name = name;\r\n        userInfo[_userAddr].userLoc = loc;\r\n        userInfo[_userAddr].role = roles(role);\r\n        userInfo[_userAddr].userAddr = _userAddr;\r\n\r\n        if(userInfo[_userAddr].role == roles.farmer){\r\n            farmers.push(_userAddr);\r\n        }else if(userInfo[_userAddr].role == roles.transporter){\r\n            transporters.push(_userAddr);\r\n        }else if(userInfo[_userAddr].role == roles.processor){\r\n            processors.push(_userAddr);\r\n        }else if(userInfo[_userAddr].role == roles.wholesaler){\r\n            wholesalers.push(_userAddr);\r\n        }else if(userInfo[_userAddr].role == roles.distributor){\r\n            distributors.push(_userAddr);\r\n        }else if(userInfo[_userAddr].role == roles.customer){\r\n            customers.push(_userAddr);\r\n        }\r\n\r\n        emit UserRegister(_userAddr, name);\r\n    }\r\n\r\n    function changeUserRole(uint256 _role, address _addr) external onlyOwner returns (string memory){\r\n        userInfo[_addr].role = roles(_role);\r\n        return \"Role Updated!\";\r\n    }\r\n\r\n    function getUserInfo(address _address) external view onlyOwner returns (userData memory) {\r\n        return userInfo[_address];\r\n    }\r\n\r\n    \r\n\r\n\r\n    /////////////// Farmer //////////////////////\r\n\r\n    //add a variable into this function called boolean sale\r\n    function farmerCreatesCropPackage(bytes32 _description, uint256 _quantity, address _transporterAddr,address _processorAddr) external {\r\n        require(userInfo[msg.sender].role == roles.farmer);\r\n        createCropPackage(_description,_quantity,_transporterAddr,_processorAddr);\r\n    }\r\n\r\n    function farmerGetPackageCount() external view returns (uint256) {\r\n        require(userInfo[msg.sender].role == roles.farmer);\r\n        return getNoOfPackagesOfFarmer();\r\n    }\r\n\r\n    function farmerGetCropPackageAddresses() external view returns (address[] memory) {\r\n        address[] memory ret = getAllPackages();\r\n        return ret;\r\n    }\r\n\r\n    ///////////////  Transporter ///////////////\r\n\r\n    function transporterHandlePackage(address _address,uint256 transporterType,address cid) external {\r\n        require(userInfo[msg.sender].role == roles.transporter);\r\n        require(transporterType > 0);\r\n        handlePackage(_address, transporterType, cid);\r\n    }\r\n\r\n    ///////////////  Processor ///////////////\r\n    function processorReceivedCrops(address _addr) external {\r\n        require(userInfo[msg.sender].role == roles.processor);\r\n        processorReceivedPackage(_addr, msg.sender);\r\n    }\r\n\r\n    function processorCreatesNewProduct(bytes32 _description,address[] memory _cropAddr,uint256 _quantity,address[] memory _transporterAddr,address _receiverAddr,uint256 RcvrType) external returns (string memory) {\r\n        require(userInfo[msg.sender].role == roles.processor);\r\n        require(RcvrType != 0);\r\n        processorCreatesProduct(msg.sender,_description,_cropAddr,_quantity,_transporterAddr,_receiverAddr,RcvrType);\r\n        return \"Product created!\";\r\n    }\r\n\r\n    function processorGetAllCrops() public view returns (address[] memory) {\r\n        require(userInfo[msg.sender].role == roles.processor);\r\n        address[] memory crops = getAllCrops();\r\n        return crops;\r\n    }\r\n\r\n    function getAllFarmers() public view returns (address[] memory){\r\n        return farmers;\r\n    }\r\n\r\n    function processorGetAllCreatedProducts() public view returns (address[] memory) {\r\n        require(userInfo[msg.sender].role == roles.processor);\r\n        address[] memory createdProducts = getAllCreatedProducts();\r\n        return createdProducts;\r\n    }\r\n\r\n    //function getSaleCrops() external view returns ()\r\n\r\n\r\n}",
  "sourcePath": "D:\\Projects\\FarmTrust1\\contracts\\SupplyChain.sol",
  "compiler": {
    "name": "solc",
    "version": "0.8.19+commit.7dd6d404.Emscripten.clang"
  },
  "schemaVersion": "3.4.13",
  "updatedAt": "2023-05-07T07:47:46.409Z",
  "networkType": "ethereum",
  "devdoc": {
    "kind": "dev",
    "methods": {},
    "version": 1
  },
  "userdoc": {
    "kind": "user",
    "methods": {},
    "version": 1
  }
}