{
  "contractName": "SupplyChain",
  "abi": [
    {
      "inputs": [],
      "stateMutability": "nonpayable",
      "type": "constructor"
    },
    {
      "anonymous": false,
      "inputs": [
        {
          "indexed": true,
          "internalType": "address",
          "name": "_address",
          "type": "address"
        },
        {
          "indexed": false,
          "internalType": "bytes32",
          "name": "name",
          "type": "bytes32"
        }
      ],
      "name": "UserRegister",
      "type": "event"
    },
    {
      "anonymous": false,
      "inputs": [
        {
          "indexed": false,
          "internalType": "address",
          "name": "buyer",
          "type": "address"
        },
        {
          "indexed": true,
          "internalType": "address",
          "name": "seller",
          "type": "address"
        },
        {
          "indexed": false,
          "internalType": "address",
          "name": "packageAddr",
          "type": "address"
        },
        {
          "indexed": false,
          "internalType": "bytes",
          "name": "signature",
          "type": "bytes"
        },
        {
          "indexed": true,
          "internalType": "uint256",
          "name": "timestamp",
          "type": "uint256"
        }
      ],
      "name": "buyEvent",
      "type": "event"
    },
    {
      "anonymous": false,
      "inputs": [
        {
          "indexed": true,
          "internalType": "address",
          "name": "buyer",
          "type": "address"
        },
        {
          "indexed": false,
          "internalType": "address",
          "name": "seller",
          "type": "address"
        },
        {
          "indexed": false,
          "internalType": "address",
          "name": "packageAddr",
          "type": "address"
        },
        {
          "indexed": false,
          "internalType": "bytes",
          "name": "signature",
          "type": "bytes"
        },
        {
          "indexed": true,
          "internalType": "uint256",
          "name": "timestamp",
          "type": "uint256"
        }
      ],
      "name": "receivedEvent",
      "type": "event"
    },
    {
      "anonymous": false,
      "inputs": [
        {
          "indexed": true,
          "internalType": "address",
          "name": "buyer",
          "type": "address"
        },
        {
          "indexed": false,
          "internalType": "address",
          "name": "seller",
          "type": "address"
        },
        {
          "indexed": false,
          "internalType": "address",
          "name": "packageAddr",
          "type": "address"
        },
        {
          "indexed": false,
          "internalType": "bytes",
          "name": "signature",
          "type": "bytes"
        },
        {
          "indexed": true,
          "internalType": "uint256",
          "name": "timestamp",
          "type": "uint256"
        }
      ],
      "name": "respondEvent",
      "type": "event"
    },
    {
      "anonymous": false,
      "inputs": [
        {
          "indexed": false,
          "internalType": "address",
          "name": "seller",
          "type": "address"
        },
        {
          "indexed": false,
          "internalType": "address",
          "name": "buyer",
          "type": "address"
        },
        {
          "indexed": true,
          "internalType": "address",
          "name": "packageAddr",
          "type": "address"
        },
        {
          "indexed": false,
          "internalType": "bytes",
          "name": "signature",
          "type": "bytes"
        },
        {
          "indexed": true,
          "internalType": "uint256",
          "name": "timestamp",
          "type": "uint256"
        }
      ],
      "name": "sendEvent",
      "type": "event"
    },
    {
      "inputs": [],
      "name": "Owner",
      "outputs": [
        {
          "internalType": "address",
          "name": "",
          "type": "address"
        }
      ],
      "stateMutability": "view",
      "type": "function",
      "constant": true
    },
    {
      "inputs": [
        {
          "internalType": "bytes32",
          "name": "_description",
          "type": "bytes32"
        },
        {
          "internalType": "uint256",
          "name": "_quantity",
          "type": "uint256"
        },
        {
          "internalType": "address",
          "name": "_transporterAddr",
          "type": "address"
        },
        {
          "internalType": "address",
          "name": "_processorAddr",
          "type": "address"
        }
      ],
      "name": "createCropPackage",
      "outputs": [],
      "stateMutability": "nonpayable",
      "type": "function"
    },
    {
      "inputs": [
        {
          "internalType": "uint256",
          "name": "",
          "type": "uint256"
        }
      ],
      "name": "customers",
      "outputs": [
        {
          "internalType": "address",
          "name": "",
          "type": "address"
        }
      ],
      "stateMutability": "view",
      "type": "function",
      "constant": true
    },
    {
      "inputs": [
        {
          "internalType": "uint256",
          "name": "",
          "type": "uint256"
        }
      ],
      "name": "distributors",
      "outputs": [
        {
          "internalType": "address",
          "name": "",
          "type": "address"
        }
      ],
      "stateMutability": "view",
      "type": "function",
      "constant": true
    },
    {
      "inputs": [
        {
          "internalType": "address",
          "name": "",
          "type": "address"
        },
        {
          "internalType": "uint256",
          "name": "",
          "type": "uint256"
        }
      ],
      "name": "farmerCrops",
      "outputs": [
        {
          "internalType": "address",
          "name": "",
          "type": "address"
        }
      ],
      "stateMutability": "view",
      "type": "function",
      "constant": true
    },
    {
      "inputs": [
        {
          "internalType": "uint256",
          "name": "",
          "type": "uint256"
        }
      ],
      "name": "farmers",
      "outputs": [
        {
          "internalType": "address",
          "name": "",
          "type": "address"
        }
      ],
      "stateMutability": "view",
      "type": "function",
      "constant": true
    },
    {
      "inputs": [],
      "name": "getAllCreatedProducts",
      "outputs": [
        {
          "internalType": "address[]",
          "name": "",
          "type": "address[]"
        }
      ],
      "stateMutability": "view",
      "type": "function",
      "constant": true
    },
    {
      "inputs": [],
      "name": "getAllCrops",
      "outputs": [
        {
          "internalType": "address[]",
          "name": "",
          "type": "address[]"
        }
      ],
      "stateMutability": "view",
      "type": "function",
      "constant": true
    },
    {
      "inputs": [],
      "name": "getAllPackages",
      "outputs": [
        {
          "internalType": "address[]",
          "name": "",
          "type": "address[]"
        }
      ],
      "stateMutability": "view",
      "type": "function",
      "constant": true
    },
    {
      "inputs": [],
      "name": "getNoOfPackagesOfFarmer",
      "outputs": [
        {
          "internalType": "uint256",
          "name": "",
          "type": "uint256"
        }
      ],
      "stateMutability": "view",
      "type": "function",
      "constant": true
    },
    {
      "inputs": [
        {
          "internalType": "address",
          "name": "_addr",
          "type": "address"
        }
      ],
      "name": "getUser",
      "outputs": [
        {
          "components": [
            {
              "internalType": "bytes32",
              "name": "name",
              "type": "bytes32"
            },
            {
              "internalType": "string[]",
              "name": "userLoc",
              "type": "string[]"
            },
            {
              "internalType": "enum roles",
              "name": "role",
              "type": "uint8"
            },
            {
              "internalType": "address",
              "name": "userAddr",
              "type": "address"
            }
          ],
          "internalType": "struct UserData.userData",
          "name": "",
          "type": "tuple"
        }
      ],
      "stateMutability": "view",
      "type": "function",
      "constant": true
    },
    {
      "inputs": [],
      "name": "getallCustomers",
      "outputs": [
        {
          "internalType": "address[]",
          "name": "",
          "type": "address[]"
        }
      ],
      "stateMutability": "view",
      "type": "function",
      "constant": true
    },
    {
      "inputs": [],
      "name": "getallDistributors",
      "outputs": [
        {
          "internalType": "address[]",
          "name": "",
          "type": "address[]"
        }
      ],
      "stateMutability": "view",
      "type": "function",
      "constant": true
    },
    {
      "inputs": [],
      "name": "getallFarmers",
      "outputs": [
        {
          "internalType": "address[]",
          "name": "",
          "type": "address[]"
        }
      ],
      "stateMutability": "view",
      "type": "function",
      "constant": true
    },
    {
      "inputs": [],
      "name": "getallProcessors",
      "outputs": [
        {
          "internalType": "address[]",
          "name": "",
          "type": "address[]"
        }
      ],
      "stateMutability": "view",
      "type": "function",
      "constant": true
    },
    {
      "inputs": [],
      "name": "getallTransporters",
      "outputs": [
        {
          "internalType": "address[]",
          "name": "",
          "type": "address[]"
        }
      ],
      "stateMutability": "view",
      "type": "function",
      "constant": true
    },
    {
      "inputs": [],
      "name": "getallWholesalers",
      "outputs": [
        {
          "internalType": "address[]",
          "name": "",
          "type": "address[]"
        }
      ],
      "stateMutability": "view",
      "type": "function",
      "constant": true
    },
    {
      "inputs": [
        {
          "internalType": "address",
          "name": "_addr",
          "type": "address"
        },
        {
          "internalType": "uint256",
          "name": "transportertype",
          "type": "uint256"
        },
        {
          "internalType": "address",
          "name": "cid",
          "type": "address"
        }
      ],
      "name": "handlePackage",
      "outputs": [],
      "stateMutability": "nonpayable",
      "type": "function"
    },
    {
      "inputs": [
        {
          "internalType": "address",
          "name": "_processorAddr",
          "type": "address"
        },
        {
          "internalType": "bytes32",
          "name": "_description",
          "type": "bytes32"
        },
        {
          "internalType": "address[]",
          "name": "_cropsAddr",
          "type": "address[]"
        },
        {
          "internalType": "uint256",
          "name": "_quantity",
          "type": "uint256"
        },
        {
          "internalType": "address[]",
          "name": "_transporterAddr",
          "type": "address[]"
        }
      ],
      "name": "processorCreatesProduct",
      "outputs": [],
      "stateMutability": "nonpayable",
      "type": "function"
    },
    {
      "inputs": [
        {
          "internalType": "address",
          "name": "",
          "type": "address"
        },
        {
          "internalType": "uint256",
          "name": "",
          "type": "uint256"
        }
      ],
      "name": "processorCrops",
      "outputs": [
        {
          "internalType": "address",
          "name": "",
          "type": "address"
        }
      ],
      "stateMutability": "view",
      "type": "function",
      "constant": true
    },
    {
      "inputs": [
        {
          "internalType": "address",
          "name": "",
          "type": "address"
        },
        {
          "internalType": "uint256",
          "name": "",
          "type": "uint256"
        }
      ],
      "name": "processorProducts",
      "outputs": [
        {
          "internalType": "address",
          "name": "",
          "type": "address"
        }
      ],
      "stateMutability": "view",
      "type": "function",
      "constant": true
    },
    {
      "inputs": [
        {
          "internalType": "address",
          "name": "_addr",
          "type": "address"
        },
        {
          "internalType": "address",
          "name": "_processorAddress",
          "type": "address"
        }
      ],
      "name": "processorReceivedPackage",
      "outputs": [],
      "stateMutability": "nonpayable",
      "type": "function"
    },
    {
      "inputs": [
        {
          "internalType": "uint256",
          "name": "",
          "type": "uint256"
        }
      ],
      "name": "processors",
      "outputs": [
        {
          "internalType": "address",
          "name": "",
          "type": "address"
        }
      ],
      "stateMutability": "view",
      "type": "function",
      "constant": true
    },
    {
      "inputs": [
        {
          "internalType": "uint256",
          "name": "",
          "type": "uint256"
        }
      ],
      "name": "transporters",
      "outputs": [
        {
          "internalType": "address",
          "name": "",
          "type": "address"
        }
      ],
      "stateMutability": "view",
      "type": "function",
      "constant": true
    },
    {
      "inputs": [
        {
          "internalType": "address",
          "name": "",
          "type": "address"
        }
      ],
      "name": "userInfo",
      "outputs": [
        {
          "internalType": "bytes32",
          "name": "name",
          "type": "bytes32"
        },
        {
          "internalType": "enum roles",
          "name": "role",
          "type": "uint8"
        },
        {
          "internalType": "address",
          "name": "userAddr",
          "type": "address"
        }
      ],
      "stateMutability": "view",
      "type": "function",
      "constant": true
    },
    {
      "inputs": [
        {
          "internalType": "uint256",
          "name": "",
          "type": "uint256"
        }
      ],
      "name": "wholesalers",
      "outputs": [
        {
          "internalType": "address",
          "name": "",
          "type": "address"
        }
      ],
      "stateMutability": "view",
      "type": "function",
      "constant": true
    },
    {
      "inputs": [
        {
          "internalType": "address",
          "name": "buyer",
          "type": "address"
        },
        {
          "internalType": "address",
          "name": "seller",
          "type": "address"
        },
        {
          "internalType": "address",
          "name": "packageAddr",
          "type": "address"
        },
        {
          "internalType": "bytes",
          "name": "signature",
          "type": "bytes"
        }
      ],
      "name": "requestProduct",
      "outputs": [],
      "stateMutability": "nonpayable",
      "type": "function"
    },
    {
      "inputs": [
        {
          "internalType": "address",
          "name": "buyer",
          "type": "address"
        },
        {
          "internalType": "address",
          "name": "seller",
          "type": "address"
        },
        {
          "internalType": "address",
          "name": "packageAddr",
          "type": "address"
        },
        {
          "internalType": "bytes",
          "name": "signature",
          "type": "bytes"
        }
      ],
      "name": "respondToEntity",
      "outputs": [],
      "stateMutability": "nonpayable",
      "type": "function"
    },
    {
      "inputs": [
        {
          "internalType": "address",
          "name": "buyer",
          "type": "address"
        },
        {
          "internalType": "address",
          "name": "seller",
          "type": "address"
        },
        {
          "internalType": "address",
          "name": "packageAddr",
          "type": "address"
        },
        {
          "internalType": "bytes",
          "name": "signature",
          "type": "bytes"
        }
      ],
      "name": "sendPackageToEntity",
      "outputs": [],
      "stateMutability": "nonpayable",
      "type": "function"
    },
    {
      "inputs": [
        {
          "internalType": "address",
          "name": "p",
          "type": "address"
        },
        {
          "internalType": "bytes32",
          "name": "hash",
          "type": "bytes32"
        },
        {
          "internalType": "uint8",
          "name": "v",
          "type": "uint8"
        },
        {
          "internalType": "bytes32",
          "name": "r",
          "type": "bytes32"
        },
        {
          "internalType": "bytes32",
          "name": "s",
          "type": "bytes32"
        }
      ],
      "name": "verify",
      "outputs": [
        {
          "internalType": "bool",
          "name": "",
          "type": "bool"
        }
      ],
      "stateMutability": "pure",
      "type": "function",
      "constant": true
    },
    {
      "inputs": [
        {
          "internalType": "bytes32",
          "name": "name",
          "type": "bytes32"
        },
        {
          "internalType": "string[]",
          "name": "loc",
          "type": "string[]"
        },
        {
          "internalType": "uint256",
          "name": "role",
          "type": "uint256"
        },
        {
          "internalType": "address",
          "name": "_userAddr",
          "type": "address"
        }
      ],
      "name": "registerUser",
      "outputs": [],
      "stateMutability": "nonpayable",
      "type": "function"
    },
    {
      "inputs": [
        {
          "internalType": "uint256",
          "name": "_role",
          "type": "uint256"
        },
        {
          "internalType": "address",
          "name": "_addr",
          "type": "address"
        }
      ],
      "name": "changeUserRole",
      "outputs": [
        {
          "internalType": "string",
          "name": "",
          "type": "string"
        }
      ],
      "stateMutability": "nonpayable",
      "type": "function"
    },
    {
      "inputs": [
        {
          "internalType": "address",
          "name": "_address",
          "type": "address"
        }
      ],
      "name": "getUserInfo",
      "outputs": [
        {
          "components": [
            {
              "internalType": "bytes32",
              "name": "name",
              "type": "bytes32"
            },
            {
              "internalType": "string[]",
              "name": "userLoc",
              "type": "string[]"
            },
            {
              "internalType": "enum roles",
              "name": "role",
              "type": "uint8"
            },
            {
              "internalType": "address",
              "name": "userAddr",
              "type": "address"
            }
          ],
          "internalType": "struct UserData.userData",
          "name": "",
          "type": "tuple"
        }
      ],
      "stateMutability": "view",
      "type": "function",
      "constant": true
    },
    {
      "inputs": [
        {
          "internalType": "bytes32",
          "name": "_description",
          "type": "bytes32"
        },
        {
          "internalType": "uint256",
          "name": "_quantity",
          "type": "uint256"
        },
        {
          "internalType": "address",
          "name": "_transporterAddr",
          "type": "address"
        },
        {
          "internalType": "address",
          "name": "_processorAddr",
          "type": "address"
        }
      ],
      "name": "farmerCreatesCropPackage",
      "outputs": [],
      "stateMutability": "nonpayable",
      "type": "function"
    },
    {
      "inputs": [],
      "name": "farmerGetPackageCount",
      "outputs": [
        {
          "internalType": "uint256",
          "name": "",
          "type": "uint256"
        }
      ],
      "stateMutability": "view",
      "type": "function",
      "constant": true
    },
    {
      "inputs": [],
      "name": "farmerGetCropPackageAddresses",
      "outputs": [
        {
          "internalType": "address[]",
          "name": "",
          "type": "address[]"
        }
      ],
      "stateMutability": "view",
      "type": "function",
      "constant": true
    },
    {
      "inputs": [
        {
          "internalType": "address",
          "name": "_address",
          "type": "address"
        },
        {
          "internalType": "uint256",
          "name": "transporterType",
          "type": "uint256"
        },
        {
          "internalType": "address",
          "name": "cid",
          "type": "address"
        }
      ],
      "name": "transporterHandlePackage",
      "outputs": [],
      "stateMutability": "nonpayable",
      "type": "function"
    },
    {
      "inputs": [
        {
          "internalType": "address",
          "name": "_addr",
          "type": "address"
        }
      ],
      "name": "processorReceivedCrops",
      "outputs": [],
      "stateMutability": "nonpayable",
      "type": "function"
    },
    {
      "inputs": [
        {
          "internalType": "bytes32",
          "name": "_description",
          "type": "bytes32"
        },
        {
          "internalType": "address[]",
          "name": "_cropAddr",
          "type": "address[]"
        },
        {
          "internalType": "uint256",
          "name": "_quantity",
          "type": "uint256"
        },
        {
          "internalType": "address[]",
          "name": "_transporterAddr",
          "type": "address[]"
        }
      ],
      "name": "processorCreatesNewProduct",
      "outputs": [
        {
          "internalType": "string",
          "name": "",
          "type": "string"
        }
      ],
      "stateMutability": "nonpayable",
      "type": "function"
    },
    {
      "inputs": [],
      "name": "processorGetAllCrops",
      "outputs": [
        {
          "internalType": "address[]",
          "name": "",
          "type": "address[]"
        }
      ],
      "stateMutability": "view",
      "type": "function",
      "constant": true
    },
    {
      "inputs": [],
      "name": "getAllFarmers",
      "outputs": [
        {
          "internalType": "address[]",
          "name": "",
          "type": "address[]"
        }
      ],
      "stateMutability": "view",
      "type": "function",
      "constant": true
    },
    {
      "inputs": [],
      "name": "processorGetAllCreatedProducts",
      "outputs": [
        {
          "internalType": "address[]",
          "name": "",
          "type": "address[]"
        }
      ],
      "stateMutability": "view",
      "type": "function",
      "constant": true
    }
  ],
  "bytecode": "0x608060405234801561001057600080fd5b50600a80546001600160a01b0319163317905561555f806100326000396000f3fe60806040523480156200001157600080fd5b5060043610620002905760003560e01c806373156f751162000161578063c0abda2a11620000d3578063ea4680681162000092578063ea46806814620005c8578063eba1b7ce14620005d2578063ee0342cc14620005dc578063f9a386b114620005e6578063fc23328c14620005fd578063fe7c58e9146200061457600080fd5b8063c0abda2a1462000562578063c81c0dfd1462000579578063d06f7b551462000590578063db5d7f0e14620005a7578063e0cf92fe14620005b157600080fd5b8063aeb35f201162000120578063aeb35f2014620004f2578063b4a99a4e1462000509578063b8b16ca3146200051d578063bb3bc4e01462000534578063be7ef9c0146200054b57600080fd5b806373156f751462000497578063835b417f14620004a15780638afdd66914620004ab57806390ff8ca014620004c25780639100978614620004cc57600080fd5b8063493295b6116200020757806352caf8bf11620001c657806352caf8bf1462000422578063536954e414620004395780636386c1c714620004435780636694cfa114620004395780636f41507c14620004695780636f77926b146200048057600080fd5b8063493295b614620003ab57806349e3fc4614620003c25780634db6eabe14620003d9578063506535f314620003e357806350b492ba146200040b57600080fd5b80631959a00211620002545780631959a002146200031b5780631a717f6514620003695780631d48dc9014620003735780631f90ddaf146200037d57806329c2a877146200039457600080fd5b8062af37ff146200029557806303c6c71114620002b95780630a421f0f14620002d257806312b7963614620002dc578063142d6e6e1462000302575b600080fd5b336000908152602081905260409020545b6040519081526020015b60405180910390f35b620002c36200062b565b604051620002b0919062001c4c565b620002c36200068f565b620002f3620002ed36600462001c80565b62000781565b604051620002b0919062001cad565b620003196200031336600462001dac565b620007ba565b005b620003586200032c36600462001e3c565b6009602052600090815260409020805460029091015460ff81169061010090046001600160a01b031683565b604051620002b09392919062001e93565b620002a662000841565b620002c36200088e565b620003196200038e36600462001f1f565b62000979565b620002f3620003a536600462002018565b62000dc3565b620002f3620003bc36600462001c80565b62000dee565b62000319620003d336600462002032565b62000e0b565b620002c362000f42565b620003fa620003f436600462002072565b62000fa4565b6040519015158152602001620002b0565b620002f36200041c36600462002018565b62001023565b620003196200043336600462002032565b62001034565b620002c36200107f565b6200045a6200045436600462001e3c565b620010e1565b604051620002b0919062002120565b620003196200047a366004620021c5565b62001289565b6200045a6200049136600462001e3c565b620013c6565b620002c3620014f4565b620002c36200153f565b620002f3620004bc36600462002018565b620015a1565b620002c3620015b2565b620004e3620004dd36600462002206565b62001614565b604051620002b0919062002235565b620003196200050336600462001e3c565b620016ac565b600a54620002f3906001600160a01b031681565b620003196200052e3660046200224a565b620016f2565b620004e362000545366004620022d7565b62001740565b620003196200055c366004620021c5565b620017b8565b620002f36200057336600462002018565b6200180a565b620002f36200058a36600462001c80565b6200181b565b62000319620005a13660046200224a565b62001838565b620002c362001878565b62000319620005c23660046200224a565b620018bd565b620002c3620018fd565b620002c3620019e8565b620002c362001a4a565b62000319620005f736600462002348565b62001a58565b620002f36200060e36600462002018565b62001afa565b620002f36200062536600462002018565b62001b0b565b606060048054806020026020016040519081016040528092919081815260200182805480156200068557602002820191906000526020600020905b81546001600160a01b0316815260019091019060200180831162000666575b5050505050905090565b33600090815260208190526040812054606091816001600160401b03811115620006bd57620006bd62001cc1565b604051908082528060200260200182016040528015620006e7578160200160208202803683370190505b50905060005b828110156200077a573360009081526020819052604090208054829081106200071a576200071a62002377565b9060005260206000200160009054906101000a90046001600160a01b03168282815181106200074d576200074d62002377565b6001600160a01b03909216602092830291909101909101528062000771816200238d565b915050620006ed565b5092915050565b600060205281600052604060002081815481106200079e57600080fd5b6000918252602090912001546001600160a01b03169150829050565b60008585858585604051620007cf9062001b1c565b620007df959493929190620023b5565b604051809103906000f080158015620007fc573d6000803e3d6000fd5b506001600160a01b0396871660009081526002602090815260408220805460018101825590835291200180546001600160a01b03191691909716179095555050505050565b600060013360009081526009602052604090206002015460ff1660068111156200086f576200086f62001e5a565b146200087a57600080fd5b503360009081526020819052604090205490565b33600090815260016020526040812054606091816001600160401b03811115620008bc57620008bc62001cc1565b604051908082528060200260200182016040528015620008e6578160200160208202803683370190505b50905060005b828110156200077a5733600090815260016020526040902080548290811062000919576200091962002377565b9060005260206000200160009054906101000a90046001600160a01b03168282815181106200094c576200094c62002377565b6001600160a01b03909216602092830291909101909101528062000970816200238d565b915050620008ec565b600a546001600160a01b031633146200099157600080fd5b6001600160a01b03811660009081526009602090815260409091208581558451620009c59260019092019186019062001b2a565b50816006811115620009db57620009db62001e5a565b6001600160a01b0382166000908152600960205260409020600201805460ff1916600183600681111562000a135762000a1362001e5a565b02179055506001600160a01b03811660008181526009602052604090206002018054610100909202610100600160a81b03198316811790915560019160ff918216911617600681111562000a6b5762000a6b62001e5a565b0362000ac257600380546001810182556000919091527fc2575a0e9e593c00f959f8c92f12db2869c3395a3b0502d05e2516446f71f85b0180546001600160a01b0319166001600160a01b03831617905562000d79565b60026001600160a01b03821660009081526009602052604090206002015460ff16600681111562000af75762000af762001e5a565b0362000b4e57600480546001810182556000919091527f8a35acfbc15ff81a39ae7d344fd709f28e8600b4aa8c65c6b64bfe7fe36bd19b0180546001600160a01b0319166001600160a01b03831617905562000d79565b60036001600160a01b03821660009081526009602052604090206002015460ff16600681111562000b835762000b8362001e5a565b0362000bda57600580546001810182556000919091527f036b6384b5eca791c62761152d0c79bb0604c104a5fb6f4eb0703f3154bb3db00180546001600160a01b0319166001600160a01b03831617905562000d79565b60046001600160a01b03821660009081526009602052604090206002015460ff16600681111562000c0f5762000c0f62001e5a565b0362000c6657600680546001810182556000919091527ff652222313e28459528d920b65115c16c04f3efc82aaedc97be59f3f377c0d3f0180546001600160a01b0319166001600160a01b03831617905562000d79565b60056001600160a01b03821660009081526009602052604090206002015460ff16600681111562000c9b5762000c9b62001e5a565b0362000cf257600780546001810182556000919091527fa66cc928b5edb82af9bd49922954155ab7b0942694bea4ce44661d9a8736c6880180546001600160a01b0319166001600160a01b03831617905562000d79565b60066001600160a01b03821660009081526009602052604090206002015460ff16600681111562000d275762000d2762001e5a565b0362000d7957600880546001810182556000919091527ff3f7a9fe364faab93b216da50a3214154f22a0a2b415b23a84c8169e8b636ee30180546001600160a01b0319166001600160a01b0383161790555b806001600160a01b03167f33a7170f028b1e4f5ba321064a00ed820856a920c7f9c6636fbcf385427b1b0f8560405162000db591815260200190565b60405180910390a250505050565b6004818154811062000dd457600080fd5b6000918252602090912001546001600160a01b0316905081565b600160205281600052604060002081815481106200079e57600080fd5b60405133606081901b6bffffffffffffffffffffffff1916602083015242603483015260009160029060540160408051601f198184030181529082905262000e539162002404565b602060405180830381855afa15801562000e71573d6000803e3d6000fd5b5050506040513d601f19601f8201168201806040525081019062000e96919062002422565b60601c8686868660405162000eab9062001b87565b6001600160a01b0396871681529486166020860152604085019390935260608401919091528316608083015290911660a082015260c001604051809103906000f08015801562000eff573d6000803e3d6000fd5b50336000908152602081815260408220805460018101825590835291200180546001600160a01b0319166001600160a01b03929092169190911790555050505050565b6060600780548060200260200160405190810160405280929190818152602001828054801562000685576020028201919060005260206000209081546001600160a01b0316815260019091019060200180831162000666575050505050905090565b6040805160008082526020820180845287905260ff86169282019290925260608101849052608081018390526001600160a01b0387169060019060a0016020604051602081039080840390855afa15801562001004573d6000803e3d6000fd5b505050602060405103516001600160a01b031614905095945050505050565b6007818154811062000dd457600080fd5b60013360009081526009602052604090206002015460ff16600681111562001060576200106062001e5a565b146200106b57600080fd5b620010798484848462000e0b565b50505050565b6060600380548060200260200160405190810160405280929190818152602001828054801562000685576020028201919060005260206000209081546001600160a01b0316815260019091019060200180831162000666575050505050905090565b6200110d6040805160808101825260008082526060602083015290918201908152600060209091015290565b600a546001600160a01b031633146200112557600080fd5b6001600160a01b03821660009081526009602090815260408083208151608081018352815481526001820180548451818702810187019095528085529195929486810194939192919084015b828210156200122757838290600052602060002001805462001193906200243c565b80601f0160208091040260200160405190810160405280929190818152602001828054620011c1906200243c565b8015620012125780601f10620011e65761010080835404028352916020019162001212565b820191906000526020600020905b815481529060010190602001808311620011f457829003601f168201915b50505050508152602001906001019062001171565b50505090825250600282015460209091019060ff16600681111562001250576200125062001e5a565b600681111562001264576200126462001e5a565b81526002919091015461010090046001600160a01b031660209091015290505b919050565b81600103620012f95760405163638e9a3d60e01b81526001600160a01b0384169063638e9a3d90620012c090339060040162001cad565b600060405180830381600087803b158015620012db57600080fd5b505af1158015620012f0573d6000803e3d6000fd5b50505050505050565b816002036200133057604051630c8b99eb60e11b81526001600160a01b0384169063191733d690620012c090339060040162001cad565b816003036200136e57604051630887851b60e31b81526001600160a01b03848116600483015233602483015282169063443c28d890604401620012c0565b81600403620013c15760405163298abd8d60e11b81526001600160a01b0384811660048301523360248301528216906353157b1a90604401600060405180830381600087803b158015620012db57600080fd5b505050565b620013f26040805160808101825260008082526060602083015290918201908152600060209091015290565b6001600160a01b03821660009081526009602090815260408083208151608081018352815481526001820180548451818702810187019095528085529195929486810194939192919084015b828210156200122757838290600052602060002001805462001460906200243c565b80601f01602080910402602001604051908101604052809291908181526020018280546200148e906200243c565b8015620014df5780601f10620014b357610100808354040283529160200191620014df565b820191906000526020600020905b815481529060010190602001808311620014c157829003601f168201915b5050505050815260200190600101906200143e565b606060033360009081526009602052604090206002015460ff16600681111562001522576200152262001e5a565b146200152d57600080fd5b6000620015396200088e565b92915050565b6060600580548060200260200160405190810160405280929190818152602001828054801562000685576020028201919060005260206000209081546001600160a01b0316815260019091019060200180831162000666575050505050905090565b6003818154811062000dd457600080fd5b6060600680548060200260200160405190810160405280929190818152602001828054801562000685576020028201919060005260206000209081546001600160a01b0316815260019091019060200180831162000666575050505050905090565b600a546060906001600160a01b031633146200162f57600080fd5b82600681111562001644576200164462001e5a565b6001600160a01b0383166000908152600960205260409020600201805460ff191660018360068111156200167c576200167c62001e5a565b02179055505060408051808201909152600d81526c526f6c6520557064617465642160981b602082015292915050565b60033360009081526009602052604090206002015460ff166006811115620016d857620016d862001e5a565b14620016e357600080fd5b620016ef813362001a58565b50565b42836001600160a01b03167f22561ca0666e99052dd8231a6c5c337204ed5658c357aa6afcd53c207acfac67868585604051620017329392919062002478565b60405180910390a350505050565b606060033360009081526009602052604090206002015460ff1660068111156200176e576200176e62001e5a565b146200177957600080fd5b620017883386868686620007ba565b5060408051808201909152601081526f50726f6475637420637265617465642160801b6020820152949350505050565b60023360009081526009602052604090206002015460ff166006811115620017e457620017e462001e5a565b14620017ef57600080fd5b60008211620017fd57600080fd5b620013c183838362001289565b6008818154811062000dd457600080fd5b600260205281600052604060002081815481106200079e57600080fd5b42826001600160a01b03167f31f87de04fd141167b8131be7a8ccb2bac63361a15671c96d90c39ddc9ef909d858785604051620017329392919062002478565b606060033360009081526009602052604090206002015460ff166006811115620018a657620018a662001e5a565b14620018b157600080fd5b600062001539620018fd565b42846001600160a01b03167f9151271dfe612a18bf915ee1609e6f94f62fd775c704a0ae2ef091519f0c9b39858585604051620017329392919062002478565b33600090815260026020526040812054606091816001600160401b038111156200192b576200192b62001cc1565b60405190808252806020026020018201604052801562001955578160200160208202803683370190505b50905060005b828110156200077a5733600090815260026020526040902080548290811062001988576200198862002377565b9060005260206000200160009054906101000a90046001600160a01b0316828281518110620019bb57620019bb62002377565b6001600160a01b039092166020928302919091019091015280620019df816200238d565b9150506200195b565b6060600880548060200260200160405190810160405280929190818152602001828054801562000685576020028201919060005260206000209081546001600160a01b0316815260019091019060200180831162000666575050505050905090565b60606000620015396200068f565b604051630a57332d60e31b81526001600160a01b038316906352b999689062001a8690849060040162001cad565b600060405180830381600087803b15801562001aa157600080fd5b505af115801562001ab6573d6000803e3d6000fd5b505050506001600160a01b03908116600090815260016020818152604083208054928301815583529091200180546001600160a01b03191692909116919091179055565b6006818154811062000dd457600080fd5b6005818154811062000dd457600080fd5b611c0580620025ce83390190565b82805482825590600052602060002090810192821562001b75579160200282015b8281111562001b75578251829062001b64908262002501565b509160200191906001019062001b4b565b5062001b8392915062001b95565b5090565b61135780620041d383390190565b8082111562001b8357600062001bac828262001bb6565b5060010162001b95565b50805462001bc4906200243c565b6000825580601f1062001bd5575050565b601f016020900490600052602060002090810190620016ef91905b8082111562001b83576000815560010162001bf0565b600081518084526020808501945080840160005b8381101562001c415781516001600160a01b03168752958201959082019060010162001c1a565b509495945050505050565b60208152600062001c61602083018462001c06565b9392505050565b80356001600160a01b03811681146200128457600080fd5b6000806040838503121562001c9457600080fd5b62001c9f8362001c68565b946020939093013593505050565b6001600160a01b0391909116815260200190565b634e487b7160e01b600052604160045260246000fd5b604051601f8201601f191681016001600160401b038111828210171562001d025762001d0262001cc1565b604052919050565b60006001600160401b0382111562001d265762001d2662001cc1565b5060051b60200190565b600082601f83011262001d4257600080fd5b8135602062001d5b62001d558362001d0a565b62001cd7565b82815260059290921b8401810191818101908684111562001d7b57600080fd5b8286015b8481101562001da15762001d938162001c68565b835291830191830162001d7f565b509695505050505050565b600080600080600060a0868803121562001dc557600080fd5b62001dd08662001c68565b94506020860135935060408601356001600160401b038082111562001df457600080fd5b62001e0289838a0162001d30565b945060608801359350608088013591508082111562001e2057600080fd5b5062001e2f8882890162001d30565b9150509295509295909350565b60006020828403121562001e4f57600080fd5b62001c618262001c68565b634e487b7160e01b600052602160045260246000fd5b6007811062001e8f57634e487b7160e01b600052602160045260246000fd5b9052565b8381526060810162001ea9602083018562001e70565b6001600160a01b03929092166040919091015292915050565b60006001600160401b0383111562001ede5762001ede62001cc1565b62001ef3601f8401601f191660200162001cd7565b905082815283838301111562001f0857600080fd5b828260208301376000602084830101529392505050565b6000806000806080858703121562001f3657600080fd5b843593506020808601356001600160401b038082111562001f5657600080fd5b818801915088601f83011262001f6b57600080fd5b813562001f7c62001d558262001d0a565b81815260059190911b8301840190848101908b83111562001f9c57600080fd5b8585015b8381101562001fef5780358581111562001fba5760008081fd5b8601603f81018e1362001fcd5760008081fd5b62001fe08e898301356040840162001ec2565b84525091860191860162001fa0565b509750505050604087013593506200200d9150506060860162001c68565b905092959194509250565b6000602082840312156200202b57600080fd5b5035919050565b600080600080608085870312156200204957600080fd5b8435935060208501359250620020626040860162001c68565b91506200200d6060860162001c68565b600080600080600060a086880312156200208b57600080fd5b620020968662001c68565b945060208601359350604086013560ff81168114620020b457600080fd5b94979396509394606081013594506080013592915050565b60005b83811015620020e9578181015183820152602001620020cf565b50506000910152565b600081518084526200210c816020860160208601620020cc565b601f01601f19169290920160200192915050565b6000602080835260a08301845182850152818501516080604086015281815180845260c08701915060c08160051b8801019350848301925060005b818110156200218d5760bf198886030183526200217a858551620020f2565b945092850192918501916001016200215b565b5050505060408501519150620021a7606085018362001e70565b60608501516001600160a01b03811660808601529150949350505050565b600080600060608486031215620021db57600080fd5b620021e68462001c68565b925060208401359150620021fd6040850162001c68565b90509250925092565b600080604083850312156200221a57600080fd5b823591506200222c6020840162001c68565b90509250929050565b60208152600062001c616020830184620020f2565b600080600080608085870312156200226157600080fd5b6200226c8562001c68565b93506200227c6020860162001c68565b92506200228c6040860162001c68565b915060608501356001600160401b03811115620022a857600080fd5b8501601f81018713620022ba57600080fd5b620022cb8782356020840162001ec2565b91505092959194509250565b60008060008060808587031215620022ee57600080fd5b8435935060208501356001600160401b03808211156200230d57600080fd5b6200231b8883890162001d30565b94506040870135935060608701359150808211156200233957600080fd5b50620022cb8782880162001d30565b600080604083850312156200235c57600080fd5b620023678362001c68565b91506200222c6020840162001c68565b634e487b7160e01b600052603260045260246000fd5b600060018201620023ae57634e487b7160e01b600052601160045260246000fd5b5060010190565b60018060a01b038616815284602082015260a060408201526000620023de60a083018662001c06565b8460608401528281036080840152620023f8818562001c06565b98975050505050505050565b6000825162002418818460208701620020cc565b9190910192915050565b6000602082840312156200243557600080fd5b5051919050565b600181811c908216806200245157607f821691505b6020821081036200247257634e487b7160e01b600052602260045260246000fd5b50919050565b6001600160a01b03848116825283166020820152606060408201819052600090620024a690830184620020f2565b95945050505050565b601f821115620013c157600081815260208120601f850160051c81016020861015620024d85750805b601f850160051c820191505b81811015620024f957828155600101620024e4565b505050505050565b81516001600160401b038111156200251d576200251d62001cc1565b62002535816200252e84546200243c565b84620024af565b602080601f8311600181146200256d5760008415620025545750858301515b600019600386901b1c1916600185901b178555620024f9565b600085815260208120601f198616915b828110156200259e578886015182559484019460019091019084016200257d565b5085821015620025bd5787850151600019600388901b60f8161c191681555b5050505050600190811b0190555056fe60806040523480156200001157600080fd5b5060405162001c0538038062001c05833981016040819052620000349162000294565b600080546001600160a01b0387166001600160a01b03199182168117909255600480549091169091179055600184905582516200007990600290602086019062000125565b50600882905580516200009490600390602084019062000125565b50600580546001600160a01b03199081169091556006805490911690556040516000908690620000c4906200018f565b6001600160a01b039091168152602001604051809103906000f080158015620000f1573d6000803e3d6000fd5b50600980546001600160a01b0390921661010002610100600160a81b03199092169190911790555062000325945050505050565b8280548282559060005260206000209081019282156200017d579160200282015b828111156200017d57825182546001600160a01b0319166001600160a01b0390911617825560209092019160019091019062000146565b506200018b9291506200019d565b5090565b610cb28062000f5383390190565b5b808211156200018b57600081556001016200019e565b80516001600160a01b0381168114620001cc57600080fd5b919050565b634e487b7160e01b600052604160045260246000fd5b600082601f830112620001f957600080fd5b815160206001600160401b0380831115620002185762000218620001d1565b8260051b604051601f19603f83011681018181108482111715620002405762000240620001d1565b6040529384528581018301938381019250878511156200025f57600080fd5b83870191505b8482101562000289576200027982620001b4565b8352918301919083019062000265565b979650505050505050565b600080600080600060a08688031215620002ad57600080fd5b620002b886620001b4565b6020870151604088015191965094506001600160401b0380821115620002dd57600080fd5b620002eb89838a01620001e7565b94506060880151935060808801519150808211156200030957600080fd5b506200031888828901620001e7565b9150509295509295909350565b610c1e80620003356000396000f3fe608060405234801561001057600080fd5b50600436106100b45760003560e01c8063abb428a611610071578063abb428a6146101aa578063c8f5f189146101bf578063d2f3fcc7146101d2578063e138d4ce146101da578063f5c0e3831461020a578063fc72a3851461021d57600080fd5b8063191733d6146100b95780632f1d7588146100ce5780639296057b146100e157806393a668b71461010757806396991e791461011a578063aab3a9d61461014a575b600080fd5b6100cc6100c73660046109eb565b61023a565b005b6100cc6100dc366004610a0d565b6103eb565b6100f46100ef3660046109eb565b61045b565b6040519081526020015b60405180910390f35b6100cc6101153660046109eb565b6106de565b6100cc6101283660046109eb565b600680546001600160a01b0319166001600160a01b0392909216919091179055565b6100cc6101583660046109eb565b600380546001810182556000919091527fc2575a0e9e593c00f959f8c92f12db2869c3395a3b0502d05e2516446f71f85b0180546001600160a01b0319166001600160a01b0392909216919091179055565b6101b2610732565b6040516100fe9190610a40565b6100cc6101cd3660046109eb565b61076d565b6100f46107d1565b6100cc6101e83660046109eb565b600580546001600160a01b0319166001600160a01b0392909216919091179055565b6100cc610218366004610a0d565b6107f0565b61022561087a565b6040516100fe99989796959493929190610abe565b6003805461024a90600190610b32565b8154811061025a5761025a610b59565b6000918252602090912001546001600160a01b038281169116146102d55760405162461bcd60e51b815260206004820152602760248201527f4f6e6c79205472616e73706f727465722063616e2063616c6c207468697320666044820152663ab731ba34b7b760c91b60648201526084015b60405180910390fd5b600060095460ff1660068111156102ee576102ee610b6f565b1461033b5760405162461bcd60e51b815260206004820152601d60248201527f5061636b616765206d7573742062652061742070726f636573736f722e00000060448201526064016102cc565b6005546001600160a01b03161561039e57600980546001919060ff19168280021790555060055460408051600180825260208201526001600160a01b03928316928416913091600080516020610bc983398151915291015b60405180910390a450565b600980546002919060ff191660018302179055506006546040805160018152600260208201526001600160a01b03928316928416913091600080516020610bc98339815191529101610393565b6006546001600160a01b038281169116146104185760405162461bcd60e51b81526004016102cc90610b85565b600780546001600160a01b0319166001600160a01b03841617905560055b6009805460ff1916600183600681111561045257610452610b6f565b02179055505050565b6005546000906001600160a01b038381169116148061048757506006546001600160a01b038381169116145b6104f15760405162461bcd60e51b815260206004820152603560248201527f4f6e6c792057686f6c6573616c6572206f72204469737472696275746f72206360448201527430b71031b0b636103a3434b990333ab731ba34b7b760591b60648201526084016102cc565b60095460019060ff16600681111561050b5761050b610b6f565b10156105555760405162461bcd60e51b8152602060048201526019602482015278141c9bd91d58dd081b9bdd081c1a58dad959081d5c081e595d603a1b60448201526064016102cc565b6005546001600160a01b0383811691161480156105885750600160095460ff16600681111561058657610586610b6f565b145b15610618576009805460ff1916600390811790915560055481546001600160a01b0390911691906105bb90600190610b32565b815481106105cb576105cb610b59565b6000918252602091829020015460408051600281526003938101939093526001600160a01b03909116913091600080516020610bc9833981519152910160405180910390a4506001919050565b6006546001600160a01b03838116911614801561064b5750600260095460ff16600681111561064957610649610b6f565b145b156106d9576009805460ff19166004179055600654600380546001600160a01b039092169161067c90600190610b32565b8154811061068c5761068c610b59565b6000918252602091829020015460408051600381526004938101939093526001600160a01b03909116913091600080516020610bc9833981519152910160405180910390a4506002919050565b919050565b6006546001600160a01b0382811691161461070b5760405162461bcd60e51b81526004016102cc90610b85565b60045b6009805460ff1916600183600681111561072a5761072a610b6f565b021790555050565b61073a6109b6565b50604080516060810182526005546001600160a01b03908116825260065481166020830152600754169181019190915290565b6007546001600160a01b038281169116146107ca5760405162461bcd60e51b815260206004820181905260248201527f5468697320437573746f6d6572206973206e6f74204173736f6369617465642e60448201526064016102cc565b600661070e565b60095460009060ff1660068111156107eb576107eb610b6f565b905090565b6005546001600160a01b038281169116146108585760405162461bcd60e51b815260206004820152602260248201527f746869732057686f6c6573616c6572206973206e6f74204173736f6369617465604482015261321760f11b60648201526084016102cc565b600680546001600160a01b0319166001600160a01b0384161790556002610436565b6004546001546008546006805460095460009586956060958795879587958695869586956001600160a01b03928316959194600294919360039391169160ff16908111156108ca576108ca610b6f565b6009546005548654604080516020808402820181019092528281526101009094046001600160a01b039081169493169291899183018282801561093657602002820191906000526020600020905b81546001600160a01b03168152600190910190602001808311610918575b505050505096508480548060200260200160405190810160405280929190818152602001828054801561099257602002820191906000526020600020905b81546001600160a01b03168152600190910190602001808311610974575b50505050509450985098509850985098509850985098509850909192939495969798565b60405180606001604052806003906020820280368337509192915050565b80356001600160a01b03811681146106d957600080fd5b6000602082840312156109fd57600080fd5b610a06826109d4565b9392505050565b60008060408385031215610a2057600080fd5b610a29836109d4565b9150610a37602084016109d4565b90509250929050565b60608101818360005b6003811015610a715781516001600160a01b0316835260209283019290910190600101610a49565b50505092915050565b600081518084526020808501945080840160005b83811015610ab35781516001600160a01b031687529582019590820190600101610a8e565b509495945050505050565b6001600160a01b038a81168252602082018a905261012060408301819052600091610aeb8483018c610a7a565b91508960608501528382036080850152610b05828a610a7a565b97811660a085015260c0840196909652505091831660e08301529091166101009091015295945050505050565b81810381811115610b5357634e487b7160e01b600052601160045260246000fd5b92915050565b634e487b7160e01b600052603260045260246000fd5b634e487b7160e01b600052602160045260246000fd5b60208082526023908201527f54686973204469737472696275746f72206973206e6f74204173736f6369617460408201526232b21760e91b60608201526080019056fe7e89c4b1a4e2b51aae84eb1f90e8a34cb792ece5ac5cb63db4830c891220b28da26469706673582212206d26c327ec9bc018775b646cb12dcad9939bbf4882480d3379f2423800892ac764736f6c634300081300336080604052600060025534801561001557600080fd5b50604051610cb2380380610cb283398101604081905261003491610059565b600080546001600160a01b0319166001600160a01b0392909216919091179055610089565b60006020828403121561006b57600080fd5b81516001600160a01b038116811461008257600080fd5b9392505050565b610c1a806100986000396000f3fe608060405234801561001057600080fd5b506004361061004c5760003560e01c806327506f53146100515780633626a3681461006f57806378ce1365146100845780639ace38c21461009b575b600080fd5b6100596100c1565b6040516100669190610730565b60405180910390f35b61008261007d3660046108ba565b610310565b005b61008d60025481565b604051908152602001610066565b6100ae6100a9366004610951565b610590565b604051610066979695949392919061096a565b60025460609060008167ffffffffffffffff8111156100e2576100e2610817565b60405190808252806020026020018201604052801561014857816020015b6040805160e0810182526000808252602080830182905292820181905260608083018290526080830181905260a083015260c082015282526000199092019101816101005790505b50905060005b8281101561030957600081815260016020818152604092839020835160e08101855281548152928101546001600160a01b0390811692840192909252600281015490911692820192909252600382015460608201526004820180549192916080840191906101bb906109ca565b80601f01602080910402602001604051908101604052809291908181526020018280546101e7906109ca565b80156102345780601f1061020957610100808354040283529160200191610234565b820191906000526020600020905b81548152906001019060200180831161021757829003601f168201915b5050505050815260200160058201805461024d906109ca565b80601f0160208091040260200160405190810160405280929190818152602001828054610279906109ca565b80156102c65780601f1061029b576101008083540402835291602001916102c6565b820191906000526020600020905b8154815290600101906020018083116102a957829003601f168201915b505050505081526020016006820154815250508282815181106102eb576102eb610a04565b6020026020010181905250808061030190610a30565b91505061014e565b5092915050565b60025442906000036103ea576040805160e0810182528881526001600160a01b038089166020808401918252898316848601908152606085018a8152608086018a815260a087018a905260c087018990526002805460009081526001958690529890982087518155945193850180549487166001600160a01b03199586161790559151968401805497909516969092169590951790925590516003820155915190919060048201906103c29082610a98565b5060a082015160058201906103d79082610a98565b5060c0820151816006015590505061052b565b836001600060016002546103fe9190610b58565b815260200190815260200160002060000154146104615760405162461bcd60e51b815260206004820152601b60248201527f5472616e73616374696f6e206572726f72206f63637572726564210000000000604482015260640160405180910390fd5b6040805160e0810182528881526001600160a01b038089166020808401918252898316848601908152606085018a8152608086018a815260a087018a905260c087018990526002805460009081526001958690529890982087518155945193850180549487166001600160a01b03199586161790559151968401805497909516969092169590951790925590516003820155915190919060048201906105079082610a98565b5060a0820151600582019061051c9082610a98565b5060c082015181600601559050505b60016002600082825461053e9190610b71565b90915550506040517f30d01d358fb0899fe4d50947b2e9301c952d9eed09b14c7ecdcbeed4434557c49061057f90899089908990899087908a908a90610b84565b60405180910390a150505050505050565b6001602081905260009182526040909120805491810154600282015460038301546004840180546001600160a01b0394851695949093169391926105d3906109ca565b80601f01602080910402602001604051908101604052809291908181526020018280546105ff906109ca565b801561064c5780601f106106215761010080835404028352916020019161064c565b820191906000526020600020905b81548152906001019060200180831161062f57829003601f168201915b505050505090806005018054610661906109ca565b80601f016020809104026020016040519081016040528092919081815260200182805461068d906109ca565b80156106da5780601f106106af576101008083540402835291602001916106da565b820191906000526020600020905b8154815290600101906020018083116106bd57829003601f168201915b5050505050908060060154905087565b6000815180845260005b81811015610710576020818501810151868301820152016106f4565b506000602082860101526020601f19601f83011685010191505092915050565b60006020808301818452808551808352604092508286019150828160051b87010184880160005b838110156107ed57888303603f19018552815180518452878101516001600160a01b03908116898601528782015116878501526060808201519085015260808082015160e082870181905291906107b0838801826106ea565b9250505060a080830151868303828801526107cb83826106ea565b60c0948501519790940196909652505094870194925090860190600101610757565b509098975050505050505050565b80356001600160a01b038116811461081257600080fd5b919050565b634e487b7160e01b600052604160045260246000fd5b600082601f83011261083e57600080fd5b813567ffffffffffffffff8082111561085957610859610817565b604051601f8301601f19908116603f0116810190828211818310171561088157610881610817565b8160405283815286602085880101111561089a57600080fd5b836020870160208301376000602085830101528094505050505092915050565b60008060008060008060c087890312156108d357600080fd5b863595506108e3602088016107fb565b94506108f1604088016107fb565b935060608701359250608087013567ffffffffffffffff8082111561091557600080fd5b6109218a838b0161082d565b935060a089013591508082111561093757600080fd5b5061094489828a0161082d565b9150509295509295509295565b60006020828403121561096357600080fd5b5035919050565b8781526001600160a01b038781166020830152861660408201526060810185905260e0608082018190526000906109a3908301866106ea565b82810360a08401526109b581866106ea565b9150508260c083015298975050505050505050565b600181811c908216806109de57607f821691505b6020821081036109fe57634e487b7160e01b600052602260045260246000fd5b50919050565b634e487b7160e01b600052603260045260246000fd5b634e487b7160e01b600052601160045260246000fd5b600060018201610a4257610a42610a1a565b5060010190565b601f821115610a9357600081815260208120601f850160051c81016020861015610a705750805b601f850160051c820191505b81811015610a8f57828155600101610a7c565b5050505b505050565b815167ffffffffffffffff811115610ab257610ab2610817565b610ac681610ac084546109ca565b84610a49565b602080601f831160018114610afb5760008415610ae35750858301515b600019600386901b1c1916600185901b178555610a8f565b600085815260208120601f198616915b82811015610b2a57888601518255948401946001909101908401610b0b565b5085821015610b485787850151600019600388901b60f8161c191681555b5050505050600190811b01905550565b81810381811115610b6b57610b6b610a1a565b92915050565b80820180821115610b6b57610b6b610a1a565b8781526001600160a01b03878116602083015286166040820152606081018590526080810184905260e060a08201819052600090610bc4908301856106ea565b82810360c0840152610bd681856106ea565b9a995050505050505050505056fea2646970667358221220ad3e83d8579e9c39663418c580c249f59eddf57ba0bd58657d72b382bd72fdca64736f6c63430008130033608060405234801561001057600080fd5b5060405161135738038061135783398101604081905261002f91610123565b600080546001600160a01b03199081166001600160a01b0389811691821784556001805484168a8316179055600288905560038790556004805484168783161790556005805490931690851617909155600680546001600160a81b031916909117905560405182906100a0906100fa565b6001600160a01b039091168152602001604051809103906000f0801580156100cc573d6000803e3d6000fd5b50600880546001600160a01b0319166001600160a01b03929092169190911790555061018995505050505050565b610cb2806106a583390190565b80516001600160a01b038116811461011e57600080fd5b919050565b60008060008060008060c0878903121561013c57600080fd5b61014587610107565b955061015360208801610107565b9450604087015193506060870151925061016f60808801610107565b915061017d60a08801610107565b90509295509295509295565b61050d806101986000396000f3fe608060405234801561001057600080fd5b50600436106100625760003560e01c806324ce4bc81461006757806352b99968146100ba578063638e9a3d146100cf57806368188a28146100e2578063bfcf7f2f146100f8578063e83fc4ac14610128575b600080fd5b6001546002546003546006546004546005546008546040516100b1976001600160a01b03908116979695818116958216948216939190911691600160a01b90910460ff1690610437565b60405180910390f35b6100cd6100c83660046104a7565b610158565b005b6100cd6100dd3660046104a7565b6102b0565b6100ea6103fb565b6040519081526020016100b1565b6100cd6101063660046104a7565b600480546001600160a01b0319166001600160a01b0392909216919091179055565b6100cd6101363660046104a7565b600580546001600160a01b0319166001600160a01b0392909216919091179055565b6005546001600160a01b038281169116146101d95760405162461bcd60e51b815260206004820152603660248201527f4f6e6c792070726f636573736f72206f6620746865207061636b6167652063616044820152756e20726563656965766520746865207061636b61676560501b60648201526084015b60405180910390fd5b6001600654600160a01b900460ff1660028111156101f9576101f9610421565b146102425760405162461bcd60e51b8152602060048201526019602482015278141c9bd91d58dd081b9bdd081c1a58dad959081d5c081e595d603a1b60448201526064016101d0565b6006805460ff60a01b1916600160a11b1790556005546004546001805460408051928352600260208401526001600160a01b039485169493841693909116917f7e89c4b1a4e2b51aae84eb1f90e8a34cb792ece5ac5cb63db4830c891220b28d91015b60405180910390a450565b6004546001600160a01b038281169116146103265760405162461bcd60e51b815260206004820152603060248201527f4f6e6c79207472616e73706f72746572206f6620746865207061636b6167652060448201526f63616e207069636b207061636b61676560801b60648201526084016101d0565b6000600654600160a01b900460ff16600281111561034657610346610421565b146103935760405162461bcd60e51b815260206004820152601c60248201527f5061636b616765206d75737420626520617420537570706c6965722e0000000060448201526064016101d0565b6006805460ff60a01b1916600160a01b179055600554600454600180546040805183815260208101939093526001600160a01b039485169493841693909116917f7e89c4b1a4e2b51aae84eb1f90e8a34cb792ece5ac5cb63db4830c891220b28d91016102a5565b600654600090600160a01b900460ff16600281111561041c5761041c610421565b905090565b634e487b7160e01b600052602160045260246000fd5b6001600160a01b03898116825260208201899052604082018890528681166060830152858116608083015284811660a0830152831660c082015261010081016003831061049457634e487b7160e01b600052602160045260246000fd5b8260e08301529998505050505050505050565b6000602082840312156104b957600080fd5b81356001600160a01b03811681146104d057600080fd5b939250505056fea2646970667358221220611693453a4af7708f7c3b2300bfd281ddc00c25b3d733f29cd442a2a85ac0ce64736f6c634300081300336080604052600060025534801561001557600080fd5b50604051610cb2380380610cb283398101604081905261003491610059565b600080546001600160a01b0319166001600160a01b0392909216919091179055610089565b60006020828403121561006b57600080fd5b81516001600160a01b038116811461008257600080fd5b9392505050565b610c1a806100986000396000f3fe608060405234801561001057600080fd5b506004361061004c5760003560e01c806327506f53146100515780633626a3681461006f57806378ce1365146100845780639ace38c21461009b575b600080fd5b6100596100c1565b6040516100669190610730565b60405180910390f35b61008261007d3660046108ba565b610310565b005b61008d60025481565b604051908152602001610066565b6100ae6100a9366004610951565b610590565b604051610066979695949392919061096a565b60025460609060008167ffffffffffffffff8111156100e2576100e2610817565b60405190808252806020026020018201604052801561014857816020015b6040805160e0810182526000808252602080830182905292820181905260608083018290526080830181905260a083015260c082015282526000199092019101816101005790505b50905060005b8281101561030957600081815260016020818152604092839020835160e08101855281548152928101546001600160a01b0390811692840192909252600281015490911692820192909252600382015460608201526004820180549192916080840191906101bb906109ca565b80601f01602080910402602001604051908101604052809291908181526020018280546101e7906109ca565b80156102345780601f1061020957610100808354040283529160200191610234565b820191906000526020600020905b81548152906001019060200180831161021757829003601f168201915b5050505050815260200160058201805461024d906109ca565b80601f0160208091040260200160405190810160405280929190818152602001828054610279906109ca565b80156102c65780601f1061029b576101008083540402835291602001916102c6565b820191906000526020600020905b8154815290600101906020018083116102a957829003601f168201915b505050505081526020016006820154815250508282815181106102eb576102eb610a04565b6020026020010181905250808061030190610a30565b91505061014e565b5092915050565b60025442906000036103ea576040805160e0810182528881526001600160a01b038089166020808401918252898316848601908152606085018a8152608086018a815260a087018a905260c087018990526002805460009081526001958690529890982087518155945193850180549487166001600160a01b03199586161790559151968401805497909516969092169590951790925590516003820155915190919060048201906103c29082610a98565b5060a082015160058201906103d79082610a98565b5060c0820151816006015590505061052b565b836001600060016002546103fe9190610b58565b815260200190815260200160002060000154146104615760405162461bcd60e51b815260206004820152601b60248201527f5472616e73616374696f6e206572726f72206f63637572726564210000000000604482015260640160405180910390fd5b6040805160e0810182528881526001600160a01b038089166020808401918252898316848601908152606085018a8152608086018a815260a087018a905260c087018990526002805460009081526001958690529890982087518155945193850180549487166001600160a01b03199586161790559151968401805497909516969092169590951790925590516003820155915190919060048201906105079082610a98565b5060a0820151600582019061051c9082610a98565b5060c082015181600601559050505b60016002600082825461053e9190610b71565b90915550506040517f30d01d358fb0899fe4d50947b2e9301c952d9eed09b14c7ecdcbeed4434557c49061057f90899089908990899087908a908a90610b84565b60405180910390a150505050505050565b6001602081905260009182526040909120805491810154600282015460038301546004840180546001600160a01b0394851695949093169391926105d3906109ca565b80601f01602080910402602001604051908101604052809291908181526020018280546105ff906109ca565b801561064c5780601f106106215761010080835404028352916020019161064c565b820191906000526020600020905b81548152906001019060200180831161062f57829003601f168201915b505050505090806005018054610661906109ca565b80601f016020809104026020016040519081016040528092919081815260200182805461068d906109ca565b80156106da5780601f106106af576101008083540402835291602001916106da565b820191906000526020600020905b8154815290600101906020018083116106bd57829003601f168201915b5050505050908060060154905087565b6000815180845260005b81811015610710576020818501810151868301820152016106f4565b506000602082860101526020601f19601f83011685010191505092915050565b60006020808301818452808551808352604092508286019150828160051b87010184880160005b838110156107ed57888303603f19018552815180518452878101516001600160a01b03908116898601528782015116878501526060808201519085015260808082015160e082870181905291906107b0838801826106ea565b9250505060a080830151868303828801526107cb83826106ea565b60c0948501519790940196909652505094870194925090860190600101610757565b509098975050505050505050565b80356001600160a01b038116811461081257600080fd5b919050565b634e487b7160e01b600052604160045260246000fd5b600082601f83011261083e57600080fd5b813567ffffffffffffffff8082111561085957610859610817565b604051601f8301601f19908116603f0116810190828211818310171561088157610881610817565b8160405283815286602085880101111561089a57600080fd5b836020870160208301376000602085830101528094505050505092915050565b60008060008060008060c087890312156108d357600080fd5b863595506108e3602088016107fb565b94506108f1604088016107fb565b935060608701359250608087013567ffffffffffffffff8082111561091557600080fd5b6109218a838b0161082d565b935060a089013591508082111561093757600080fd5b5061094489828a0161082d565b9150509295509295509295565b60006020828403121561096357600080fd5b5035919050565b8781526001600160a01b038781166020830152861660408201526060810185905260e0608082018190526000906109a3908301866106ea565b82810360a08401526109b581866106ea565b9150508260c083015298975050505050505050565b600181811c908216806109de57607f821691505b6020821081036109fe57634e487b7160e01b600052602260045260246000fd5b50919050565b634e487b7160e01b600052603260045260246000fd5b634e487b7160e01b600052601160045260246000fd5b600060018201610a4257610a42610a1a565b5060010190565b601f821115610a9357600081815260208120601f850160051c81016020861015610a705750805b601f850160051c820191505b81811015610a8f57828155600101610a7c565b5050505b505050565b815167ffffffffffffffff811115610ab257610ab2610817565b610ac681610ac084546109ca565b84610a49565b602080601f831160018114610afb5760008415610ae35750858301515b600019600386901b1c1916600185901b178555610a8f565b600085815260208120601f198616915b82811015610b2a57888601518255948401946001909101908401610b0b565b5085821015610b485787850151600019600388901b60f8161c191681555b5050505050600190811b01905550565b81810381811115610b6b57610b6b610a1a565b92915050565b80820180821115610b6b57610b6b610a1a565b8781526001600160a01b03878116602083015286166040820152606081018590526080810184905260e060a08201819052600090610bc4908301856106ea565b82810360c0840152610bd681856106ea565b9a995050505050505050505056fea2646970667358221220ad3e83d8579e9c39663418c580c249f59eddf57ba0bd58657d72b382bd72fdca64736f6c63430008130033a2646970667358221220baf8c4fb8a6bd41419d76b21bec82570276b797d9468925a7c82b63c11d4edc264736f6c63430008130033",
  "immutableReferences": {},
  "source": "// SPDX-License-Identifier: MIT\r\npragma solidity ^0.8.0;\r\n\r\npragma experimental ABIEncoderV2;\r\n\r\n\r\nimport \"./Crop.sol\";\r\nimport \"./Farmer.sol\";\r\nimport \"./Transporter.sol\";\r\nimport \"./Product.sol\";\r\nimport \"./Processor.sol\";\r\nimport \"./ProductW_D.sol\";\r\nimport \"./Wholesaler.sol\";\r\nimport \"./ProductD_C.sol\";\r\nimport \"./Distributor.sol\";\r\nimport \"./Customer.sol\";\r\nimport \"./UserData.sol\";\r\n\r\n\r\n//// New supply chain : farmer -> transporter -> processor -> transporter -> whole-saler -> transporter -> distributor -> transporter -> customer/hospital/pharmacy\r\n\r\ncontract SupplyChain is Farmer, Transporter, Processor, UserData {\r\n    address public Owner;\r\n\r\n\r\n    //create a variable for crops that are for sale\r\n\r\n    constructor() {\r\n        Owner = msg.sender;\r\n    }\r\n\r\n    modifier onlyOwner() {\r\n        require(Owner == msg.sender);\r\n        _;\r\n    }\r\n\r\n    modifier checkUser(address addr) {\r\n        require(addr == msg.sender);\r\n        _;\r\n    }\r\n\r\n    //enum roles {noRole, farmer, transporter, processor, wholesaler, distributor, customer}\r\n\r\n    //////////////// Events ////////////////////\r\n\r\n    event UserRegister(address indexed _address, bytes32 name);\r\n    event buyEvent(address buyer, address indexed seller, address packageAddr, bytes signature, uint indexed timestamp);\r\n    event respondEvent(address indexed buyer, address seller, address packageAddr, bytes signature, uint indexed timestamp);\r\n    event sendEvent(address seller, address buyer, address indexed packageAddr, bytes signature, uint indexed timestamp);\r\n    event receivedEvent(address indexed buyer, address seller, address packageAddr, bytes signature, uint indexed timestamp);\r\n\r\n//////////////// Event functions (All entities) ////////////////////\r\n\r\n    \r\n    function requestProduct(address buyer, address seller, address packageAddr, bytes memory signature) public {\r\n        emit buyEvent(buyer, seller, packageAddr, signature, block.timestamp);\r\n    }\r\n    \r\n    function respondToEntity(address buyer, address seller, address packageAddr, bytes memory signature) public {\r\n        emit respondEvent(buyer, seller, packageAddr, signature, block.timestamp);\r\n    }\r\n    \r\n    function sendPackageToEntity(address buyer, address seller, address packageAddr, bytes memory signature) public {\r\n        emit sendEvent(seller, buyer, packageAddr, signature, block.timestamp);\r\n    }\r\n\r\n    //verify package\r\n    function verify(address p, bytes32 hash, uint8 v, bytes32 r, bytes32 s) public pure returns(bool) {\r\n        return ecrecover(hash, v, r, s) == p;\r\n    } \r\n    /////////////// Users (Only Owner Executable) //////////////////////\r\n\r\n    \r\n    function registerUser(bytes32 name,string[] memory loc,uint256 role,address _userAddr) external onlyOwner {\r\n        userInfo[_userAddr].name = name;\r\n        userInfo[_userAddr].userLoc = loc;\r\n        userInfo[_userAddr].role = roles(role);\r\n        userInfo[_userAddr].userAddr = _userAddr;\r\n\r\n        if(userInfo[_userAddr].role == roles.farmer){\r\n            farmers.push(_userAddr);\r\n        }else if(userInfo[_userAddr].role == roles.transporter){\r\n            transporters.push(_userAddr);\r\n        }else if(userInfo[_userAddr].role == roles.processor){\r\n            processors.push(_userAddr);\r\n        }else if(userInfo[_userAddr].role == roles.wholesaler){\r\n            wholesalers.push(_userAddr);\r\n        }else if(userInfo[_userAddr].role == roles.distributor){\r\n            distributors.push(_userAddr);\r\n        }else if(userInfo[_userAddr].role == roles.customer){\r\n            customers.push(_userAddr);\r\n        }\r\n\r\n        emit UserRegister(_userAddr, name);\r\n    }\r\n\r\n    function changeUserRole(uint256 _role, address _addr) external onlyOwner returns (string memory){\r\n        userInfo[_addr].role = roles(_role);\r\n        return \"Role Updated!\";\r\n    }\r\n\r\n    function getUserInfo(address _address) external view onlyOwner returns (userData memory) {\r\n        return userInfo[_address];\r\n    }\r\n\r\n    \r\n\r\n\r\n    /////////////// Farmer //////////////////////\r\n\r\n    //add a variable into this function called boolean sale\r\n    function farmerCreatesCropPackage(bytes32 _description, uint256 _quantity, address _transporterAddr,address _processorAddr) external {\r\n        require(userInfo[msg.sender].role == roles.farmer);\r\n        createCropPackage(_description,_quantity,_transporterAddr,_processorAddr);\r\n    }\r\n\r\n    function farmerGetPackageCount() external view returns (uint256) {\r\n        require(userInfo[msg.sender].role == roles.farmer);\r\n        return getNoOfPackagesOfFarmer();\r\n    }\r\n\r\n    function farmerGetCropPackageAddresses() external view returns (address[] memory) {\r\n        address[] memory ret = getAllPackages();\r\n        return ret;\r\n    }\r\n\r\n    ///////////////  Transporter ///////////////\r\n\r\n    function transporterHandlePackage(address _address,uint256 transporterType,address cid) external {\r\n        require(userInfo[msg.sender].role == roles.transporter);\r\n        require(transporterType > 0);\r\n        handlePackage(_address, transporterType, cid);\r\n    }\r\n\r\n    ///////////////  Processor ///////////////\r\n    function processorReceivedCrops(address _addr) external {\r\n        require(userInfo[msg.sender].role == roles.processor);\r\n        processorReceivedPackage(_addr, msg.sender);\r\n    }\r\n\r\n    function processorCreatesNewProduct(bytes32 _description,address[] memory _cropAddr,uint256 _quantity,address[] memory _transporterAddr) external returns (string memory) {\r\n        require(userInfo[msg.sender].role == roles.processor);\r\n        processorCreatesProduct(msg.sender,_description,_cropAddr,_quantity,_transporterAddr);\r\n        return \"Product created!\";\r\n    }\r\n\r\n    function processorGetAllCrops() public view returns (address[] memory) {\r\n        require(userInfo[msg.sender].role == roles.processor);\r\n        address[] memory crops = getAllCrops();\r\n        return crops;\r\n    }\r\n\r\n    function getAllFarmers() public view returns (address[] memory){\r\n        return farmers;\r\n    }\r\n\r\n    function processorGetAllCreatedProducts() public view returns (address[] memory) {\r\n        require(userInfo[msg.sender].role == roles.processor);\r\n        address[] memory createdProducts = getAllCreatedProducts();\r\n        return createdProducts;\r\n    }\r\n\r\n    //function getSaleCrops() external view returns ()\r\n\r\n\r\n}",
  "sourcePath": "D:\\Projects\\FarmTrust1\\contracts\\SupplyChain.sol",
  "compiler": {
    "name": "solc",
    "version": "0.8.19+commit.7dd6d404.Emscripten.clang"
  },
  "schemaVersion": "3.4.13",
  "updatedAt": "2023-05-24T18:07:54.252Z",
  "networkType": "ethereum",
  "devdoc": {
    "kind": "dev",
    "methods": {},
    "version": 1
  },
  "userdoc": {
    "kind": "user",
    "methods": {},
    "version": 1
  }
}