{
  "contractName": "SupplyChain",
  "abi": [
    {
      "inputs": [],
      "stateMutability": "nonpayable",
      "type": "constructor"
    },
    {
      "anonymous": false,
      "inputs": [
        {
          "indexed": false,
          "internalType": "address",
          "name": "_address",
          "type": "address"
        },
        {
          "indexed": true,
          "internalType": "address",
          "name": "Customer",
          "type": "address"
        },
        {
          "indexed": false,
          "internalType": "uint256",
          "name": "status",
          "type": "uint256"
        }
      ],
      "name": "ProductStatus",
      "type": "event"
    },
    {
      "anonymous": false,
      "inputs": [
        {
          "indexed": true,
          "internalType": "address",
          "name": "_address",
          "type": "address"
        },
        {
          "indexed": false,
          "internalType": "bytes32",
          "name": "name",
          "type": "bytes32"
        }
      ],
      "name": "UserRegister",
      "type": "event"
    },
    {
      "anonymous": false,
      "inputs": [
        {
          "indexed": false,
          "internalType": "address",
          "name": "buyer",
          "type": "address"
        },
        {
          "indexed": false,
          "internalType": "address",
          "name": "seller",
          "type": "address"
        },
        {
          "indexed": false,
          "internalType": "address",
          "name": "packageAddr",
          "type": "address"
        },
        {
          "indexed": false,
          "internalType": "bytes32",
          "name": "signature",
          "type": "bytes32"
        },
        {
          "indexed": true,
          "internalType": "uint256",
          "name": "now",
          "type": "uint256"
        }
      ],
      "name": "buyEvent",
      "type": "event"
    },
    {
      "anonymous": false,
      "inputs": [
        {
          "indexed": false,
          "internalType": "address",
          "name": "buyer",
          "type": "address"
        },
        {
          "indexed": false,
          "internalType": "address",
          "name": "seller",
          "type": "address"
        },
        {
          "indexed": false,
          "internalType": "address",
          "name": "packageAddr",
          "type": "address"
        },
        {
          "indexed": false,
          "internalType": "bytes32",
          "name": "signature",
          "type": "bytes32"
        },
        {
          "indexed": true,
          "internalType": "uint256",
          "name": "now",
          "type": "uint256"
        }
      ],
      "name": "receivedEvent",
      "type": "event"
    },
    {
      "anonymous": false,
      "inputs": [
        {
          "indexed": false,
          "internalType": "address",
          "name": "buyer",
          "type": "address"
        },
        {
          "indexed": false,
          "internalType": "address",
          "name": "seller",
          "type": "address"
        },
        {
          "indexed": false,
          "internalType": "address",
          "name": "packageAddr",
          "type": "address"
        },
        {
          "indexed": false,
          "internalType": "bytes32",
          "name": "signature",
          "type": "bytes32"
        },
        {
          "indexed": true,
          "internalType": "uint256",
          "name": "now",
          "type": "uint256"
        }
      ],
      "name": "respondEvent",
      "type": "event"
    },
    {
      "anonymous": false,
      "inputs": [
        {
          "indexed": false,
          "internalType": "address",
          "name": "seller",
          "type": "address"
        },
        {
          "indexed": false,
          "internalType": "address",
          "name": "buyer",
          "type": "address"
        },
        {
          "indexed": false,
          "internalType": "address",
          "name": "packageAddr",
          "type": "address"
        },
        {
          "indexed": false,
          "internalType": "bytes32",
          "name": "signature",
          "type": "bytes32"
        },
        {
          "indexed": true,
          "internalType": "uint256",
          "name": "now",
          "type": "uint256"
        }
      ],
      "name": "sendEvent",
      "type": "event"
    },
    {
      "inputs": [],
      "name": "Owner",
      "outputs": [
        {
          "internalType": "address",
          "name": "",
          "type": "address"
        }
      ],
      "stateMutability": "view",
      "type": "function",
      "constant": true
    },
    {
      "inputs": [
        {
          "internalType": "address",
          "name": "",
          "type": "address"
        },
        {
          "internalType": "uint256",
          "name": "",
          "type": "uint256"
        }
      ],
      "name": "ProductBatchAtCustomer",
      "outputs": [
        {
          "internalType": "address",
          "name": "",
          "type": "address"
        }
      ],
      "stateMutability": "view",
      "type": "function",
      "constant": true
    },
    {
      "inputs": [
        {
          "internalType": "address",
          "name": "",
          "type": "address"
        },
        {
          "internalType": "uint256",
          "name": "",
          "type": "uint256"
        }
      ],
      "name": "ProductDtoC",
      "outputs": [
        {
          "internalType": "address",
          "name": "",
          "type": "address"
        }
      ],
      "stateMutability": "view",
      "type": "function",
      "constant": true
    },
    {
      "inputs": [
        {
          "internalType": "address",
          "name": "",
          "type": "address"
        }
      ],
      "name": "ProductDtoCTxContract",
      "outputs": [
        {
          "internalType": "address",
          "name": "",
          "type": "address"
        }
      ],
      "stateMutability": "view",
      "type": "function",
      "constant": true
    },
    {
      "inputs": [
        {
          "internalType": "address",
          "name": "",
          "type": "address"
        },
        {
          "internalType": "uint256",
          "name": "",
          "type": "uint256"
        }
      ],
      "name": "ProductWtoD",
      "outputs": [
        {
          "internalType": "address",
          "name": "",
          "type": "address"
        }
      ],
      "stateMutability": "view",
      "type": "function",
      "constant": true
    },
    {
      "inputs": [
        {
          "internalType": "address",
          "name": "",
          "type": "address"
        }
      ],
      "name": "ProductWtoDTxContract",
      "outputs": [
        {
          "internalType": "address",
          "name": "",
          "type": "address"
        }
      ],
      "stateMutability": "view",
      "type": "function",
      "constant": true
    },
    {
      "inputs": [
        {
          "internalType": "address",
          "name": "",
          "type": "address"
        },
        {
          "internalType": "uint256",
          "name": "",
          "type": "uint256"
        }
      ],
      "name": "ProductsAtDistributor",
      "outputs": [
        {
          "internalType": "address",
          "name": "",
          "type": "address"
        }
      ],
      "stateMutability": "view",
      "type": "function",
      "constant": true
    },
    {
      "inputs": [
        {
          "internalType": "address",
          "name": "",
          "type": "address"
        },
        {
          "internalType": "uint256",
          "name": "",
          "type": "uint256"
        }
      ],
      "name": "ProductsAtWholesaler",
      "outputs": [
        {
          "internalType": "address",
          "name": "",
          "type": "address"
        }
      ],
      "stateMutability": "view",
      "type": "function",
      "constant": true
    },
    {
      "inputs": [
        {
          "internalType": "bytes32",
          "name": "_description",
          "type": "bytes32"
        },
        {
          "internalType": "uint256",
          "name": "_quantity",
          "type": "uint256"
        },
        {
          "internalType": "address",
          "name": "_transporterAddr",
          "type": "address"
        },
        {
          "internalType": "address",
          "name": "_processorAddr",
          "type": "address"
        }
      ],
      "name": "createCropPackage",
      "outputs": [],
      "stateMutability": "nonpayable",
      "type": "function"
    },
    {
      "inputs": [
        {
          "internalType": "address",
          "name": "",
          "type": "address"
        },
        {
          "internalType": "uint256",
          "name": "",
          "type": "uint256"
        }
      ],
      "name": "farmerCrops",
      "outputs": [
        {
          "internalType": "address",
          "name": "",
          "type": "address"
        }
      ],
      "stateMutability": "view",
      "type": "function",
      "constant": true
    },
    {
      "inputs": [],
      "name": "getAllPackages",
      "outputs": [
        {
          "internalType": "address[]",
          "name": "",
          "type": "address[]"
        }
      ],
      "stateMutability": "view",
      "type": "function",
      "constant": true
    },
    {
      "inputs": [],
      "name": "getNoOfPackagesOfFarmer",
      "outputs": [
        {
          "internalType": "uint256",
          "name": "",
          "type": "uint256"
        }
      ],
      "stateMutability": "view",
      "type": "function",
      "constant": true
    },
    {
      "inputs": [
        {
          "internalType": "address",
          "name": "_addr",
          "type": "address"
        },
        {
          "internalType": "uint256",
          "name": "transportertype",
          "type": "uint256"
        },
        {
          "internalType": "address",
          "name": "cid",
          "type": "address"
        }
      ],
      "name": "handlePackage",
      "outputs": [],
      "stateMutability": "nonpayable",
      "type": "function"
    },
    {
      "inputs": [
        {
          "internalType": "address",
          "name": "_processorAddr",
          "type": "address"
        },
        {
          "internalType": "bytes32",
          "name": "_description",
          "type": "bytes32"
        },
        {
          "internalType": "address[]",
          "name": "_cropsAddr",
          "type": "address[]"
        },
        {
          "internalType": "uint256",
          "name": "_quantity",
          "type": "uint256"
        },
        {
          "internalType": "address[]",
          "name": "_transporterAddr",
          "type": "address[]"
        },
        {
          "internalType": "address",
          "name": "_recieverAddr",
          "type": "address"
        },
        {
          "internalType": "uint256",
          "name": "RcvrType",
          "type": "uint256"
        }
      ],
      "name": "processorCreatesProduct",
      "outputs": [],
      "stateMutability": "nonpayable",
      "type": "function"
    },
    {
      "inputs": [
        {
          "internalType": "address",
          "name": "",
          "type": "address"
        },
        {
          "internalType": "uint256",
          "name": "",
          "type": "uint256"
        }
      ],
      "name": "processorCrops",
      "outputs": [
        {
          "internalType": "address",
          "name": "",
          "type": "address"
        }
      ],
      "stateMutability": "view",
      "type": "function",
      "constant": true
    },
    {
      "inputs": [
        {
          "internalType": "address",
          "name": "",
          "type": "address"
        },
        {
          "internalType": "uint256",
          "name": "",
          "type": "uint256"
        }
      ],
      "name": "processorProducts",
      "outputs": [
        {
          "internalType": "address",
          "name": "",
          "type": "address"
        }
      ],
      "stateMutability": "view",
      "type": "function",
      "constant": true
    },
    {
      "inputs": [
        {
          "internalType": "address",
          "name": "_addr",
          "type": "address"
        },
        {
          "internalType": "address",
          "name": "_processorAddress",
          "type": "address"
        }
      ],
      "name": "processorReceivedPackage",
      "outputs": [],
      "stateMutability": "nonpayable",
      "type": "function"
    },
    {
      "inputs": [
        {
          "internalType": "address",
          "name": "_address",
          "type": "address"
        },
        {
          "internalType": "address",
          "name": "cid",
          "type": "address"
        }
      ],
      "name": "productRecievedAtCustomer",
      "outputs": [],
      "stateMutability": "nonpayable",
      "type": "function"
    },
    {
      "inputs": [
        {
          "internalType": "address",
          "name": "_address",
          "type": "address"
        },
        {
          "internalType": "address",
          "name": "cid",
          "type": "address"
        }
      ],
      "name": "productRecievedAtDistributor",
      "outputs": [],
      "stateMutability": "nonpayable",
      "type": "function"
    },
    {
      "inputs": [
        {
          "internalType": "address",
          "name": "_address",
          "type": "address"
        }
      ],
      "name": "productRecievedAtWholesaler",
      "outputs": [],
      "stateMutability": "nonpayable",
      "type": "function"
    },
    {
      "inputs": [
        {
          "internalType": "address",
          "name": "",
          "type": "address"
        }
      ],
      "name": "sale",
      "outputs": [
        {
          "internalType": "enum Customer.salestatus",
          "name": "",
          "type": "uint8"
        }
      ],
      "stateMutability": "view",
      "type": "function",
      "constant": true
    },
    {
      "inputs": [
        {
          "internalType": "address",
          "name": "_address",
          "type": "address"
        }
      ],
      "name": "salesInfo",
      "outputs": [
        {
          "internalType": "uint256",
          "name": "Status",
          "type": "uint256"
        }
      ],
      "stateMutability": "view",
      "type": "function",
      "constant": true
    },
    {
      "inputs": [
        {
          "internalType": "address",
          "name": "_address",
          "type": "address"
        },
        {
          "internalType": "address",
          "name": "transporter",
          "type": "address"
        },
        {
          "internalType": "address",
          "name": "receiver",
          "type": "address"
        }
      ],
      "name": "transferProductDtoC",
      "outputs": [],
      "stateMutability": "nonpayable",
      "type": "function"
    },
    {
      "inputs": [
        {
          "internalType": "address",
          "name": "_address",
          "type": "address"
        },
        {
          "internalType": "address",
          "name": "transporter",
          "type": "address"
        },
        {
          "internalType": "address",
          "name": "receiver",
          "type": "address"
        }
      ],
      "name": "transferProductWtoD",
      "outputs": [],
      "stateMutability": "nonpayable",
      "type": "function"
    },
    {
      "inputs": [
        {
          "internalType": "address",
          "name": "_address",
          "type": "address"
        },
        {
          "internalType": "uint256",
          "name": "Status",
          "type": "uint256"
        }
      ],
      "name": "updateSaleStatus",
      "outputs": [],
      "stateMutability": "nonpayable",
      "type": "function"
    },
    {
      "inputs": [
        {
          "internalType": "address",
          "name": "",
          "type": "address"
        }
      ],
      "name": "userInfo",
      "outputs": [
        {
          "internalType": "bytes32",
          "name": "name",
          "type": "bytes32"
        },
        {
          "internalType": "enum SupplyChain.roles",
          "name": "role",
          "type": "uint8"
        },
        {
          "internalType": "address",
          "name": "userAddr",
          "type": "address"
        }
      ],
      "stateMutability": "view",
      "type": "function",
      "constant": true
    },
    {
      "inputs": [
        {
          "internalType": "bytes32",
          "name": "name",
          "type": "bytes32"
        },
        {
          "internalType": "string[]",
          "name": "loc",
          "type": "string[]"
        },
        {
          "internalType": "uint256",
          "name": "role",
          "type": "uint256"
        },
        {
          "internalType": "address",
          "name": "_userAddr",
          "type": "address"
        }
      ],
      "name": "registerUser",
      "outputs": [],
      "stateMutability": "nonpayable",
      "type": "function"
    },
    {
      "inputs": [
        {
          "internalType": "uint256",
          "name": "_role",
          "type": "uint256"
        },
        {
          "internalType": "address",
          "name": "_addr",
          "type": "address"
        }
      ],
      "name": "changeUserRole",
      "outputs": [
        {
          "internalType": "string",
          "name": "",
          "type": "string"
        }
      ],
      "stateMutability": "nonpayable",
      "type": "function"
    },
    {
      "inputs": [
        {
          "internalType": "address",
          "name": "_address",
          "type": "address"
        }
      ],
      "name": "getUserInfo",
      "outputs": [
        {
          "components": [
            {
              "internalType": "bytes32",
              "name": "name",
              "type": "bytes32"
            },
            {
              "internalType": "string[]",
              "name": "userLoc",
              "type": "string[]"
            },
            {
              "internalType": "enum SupplyChain.roles",
              "name": "role",
              "type": "uint8"
            },
            {
              "internalType": "address",
              "name": "userAddr",
              "type": "address"
            }
          ],
          "internalType": "struct SupplyChain.userData",
          "name": "",
          "type": "tuple"
        }
      ],
      "stateMutability": "view",
      "type": "function",
      "constant": true
    },
    {
      "inputs": [
        {
          "internalType": "bytes32",
          "name": "_description",
          "type": "bytes32"
        },
        {
          "internalType": "uint256",
          "name": "_quantity",
          "type": "uint256"
        },
        {
          "internalType": "address",
          "name": "_transporterAddr",
          "type": "address"
        },
        {
          "internalType": "address",
          "name": "_processorAddr",
          "type": "address"
        }
      ],
      "name": "farmerCreatesCropPackage",
      "outputs": [],
      "stateMutability": "nonpayable",
      "type": "function"
    },
    {
      "inputs": [],
      "name": "farmerGetPackageCount",
      "outputs": [
        {
          "internalType": "uint256",
          "name": "",
          "type": "uint256"
        }
      ],
      "stateMutability": "view",
      "type": "function",
      "constant": true
    },
    {
      "inputs": [],
      "name": "farmerGetRawMaterialAddresses",
      "outputs": [
        {
          "internalType": "address[]",
          "name": "",
          "type": "address[]"
        }
      ],
      "stateMutability": "view",
      "type": "function",
      "constant": true
    },
    {
      "inputs": [
        {
          "internalType": "address",
          "name": "_address",
          "type": "address"
        },
        {
          "internalType": "uint256",
          "name": "transporterType",
          "type": "uint256"
        },
        {
          "internalType": "address",
          "name": "cid",
          "type": "address"
        }
      ],
      "name": "transporterHandlePackage",
      "outputs": [],
      "stateMutability": "nonpayable",
      "type": "function"
    },
    {
      "inputs": [
        {
          "internalType": "address",
          "name": "_addr",
          "type": "address"
        }
      ],
      "name": "processorReceivedCrops",
      "outputs": [],
      "stateMutability": "nonpayable",
      "type": "function"
    },
    {
      "inputs": [
        {
          "internalType": "bytes32",
          "name": "_description",
          "type": "bytes32"
        },
        {
          "internalType": "address[]",
          "name": "_cropAddr",
          "type": "address[]"
        },
        {
          "internalType": "uint256",
          "name": "_quantity",
          "type": "uint256"
        },
        {
          "internalType": "address[]",
          "name": "_transporterAddr",
          "type": "address[]"
        },
        {
          "internalType": "address",
          "name": "_receiverAddr",
          "type": "address"
        },
        {
          "internalType": "uint256",
          "name": "RcvrType",
          "type": "uint256"
        }
      ],
      "name": "processorCreatesNewProduct",
      "outputs": [
        {
          "internalType": "string",
          "name": "",
          "type": "string"
        }
      ],
      "stateMutability": "nonpayable",
      "type": "function"
    },
    {
      "inputs": [
        {
          "internalType": "address",
          "name": "_address",
          "type": "address"
        }
      ],
      "name": "wholesalerReceivedProduct",
      "outputs": [],
      "stateMutability": "nonpayable",
      "type": "function"
    },
    {
      "inputs": [
        {
          "internalType": "address",
          "name": "_address",
          "type": "address"
        },
        {
          "internalType": "address",
          "name": "transporter",
          "type": "address"
        },
        {
          "internalType": "address",
          "name": "receiver",
          "type": "address"
        }
      ],
      "name": "transferProductW_D",
      "outputs": [],
      "stateMutability": "nonpayable",
      "type": "function"
    },
    {
      "inputs": [
        {
          "internalType": "uint256",
          "name": "index",
          "type": "uint256"
        }
      ],
      "name": "getBatchIdByIndexWD",
      "outputs": [
        {
          "internalType": "address",
          "name": "packageID",
          "type": "address"
        }
      ],
      "stateMutability": "view",
      "type": "function",
      "constant": true
    },
    {
      "inputs": [
        {
          "internalType": "address",
          "name": "_address",
          "type": "address"
        }
      ],
      "name": "getSubContractWD",
      "outputs": [
        {
          "internalType": "address",
          "name": "SubContractWD",
          "type": "address"
        }
      ],
      "stateMutability": "view",
      "type": "function",
      "constant": true
    },
    {
      "inputs": [
        {
          "internalType": "address",
          "name": "_address",
          "type": "address"
        },
        {
          "internalType": "address",
          "name": "cid",
          "type": "address"
        }
      ],
      "name": "distributorReceivedProduct",
      "outputs": [],
      "stateMutability": "nonpayable",
      "type": "function"
    },
    {
      "inputs": [
        {
          "internalType": "address",
          "name": "_address",
          "type": "address"
        },
        {
          "internalType": "address",
          "name": "transporter",
          "type": "address"
        },
        {
          "internalType": "address",
          "name": "receiver",
          "type": "address"
        }
      ],
      "name": "distributorTransferProducttoCustomer",
      "outputs": [],
      "stateMutability": "nonpayable",
      "type": "function"
    },
    {
      "inputs": [],
      "name": "getBatchesCountDC",
      "outputs": [
        {
          "internalType": "uint256",
          "name": "count",
          "type": "uint256"
        }
      ],
      "stateMutability": "view",
      "type": "function",
      "constant": true
    },
    {
      "inputs": [
        {
          "internalType": "uint256",
          "name": "index",
          "type": "uint256"
        }
      ],
      "name": "getBatchIdByIndexDC",
      "outputs": [
        {
          "internalType": "address",
          "name": "packageID",
          "type": "address"
        }
      ],
      "stateMutability": "view",
      "type": "function",
      "constant": true
    },
    {
      "inputs": [
        {
          "internalType": "address",
          "name": "_address",
          "type": "address"
        }
      ],
      "name": "getSubContractDC",
      "outputs": [
        {
          "internalType": "address",
          "name": "SubContractDP",
          "type": "address"
        }
      ],
      "stateMutability": "view",
      "type": "function",
      "constant": true
    },
    {
      "inputs": [
        {
          "internalType": "address",
          "name": "_address",
          "type": "address"
        },
        {
          "internalType": "address",
          "name": "cid",
          "type": "address"
        }
      ],
      "name": "customerReceivedProduct",
      "outputs": [],
      "stateMutability": "nonpayable",
      "type": "function"
    },
    {
      "inputs": [
        {
          "internalType": "address",
          "name": "_address",
          "type": "address"
        },
        {
          "internalType": "uint256",
          "name": "Status",
          "type": "uint256"
        }
      ],
      "name": "updateStatus",
      "outputs": [],
      "stateMutability": "nonpayable",
      "type": "function"
    },
    {
      "inputs": [
        {
          "internalType": "address",
          "name": "_address",
          "type": "address"
        }
      ],
      "name": "getSalesInfo",
      "outputs": [
        {
          "internalType": "uint256",
          "name": "Status",
          "type": "uint256"
        }
      ],
      "stateMutability": "view",
      "type": "function",
      "constant": true
    },
    {
      "inputs": [],
      "name": "getBatchesCountC",
      "outputs": [
        {
          "internalType": "uint256",
          "name": "count",
          "type": "uint256"
        }
      ],
      "stateMutability": "view",
      "type": "function",
      "constant": true
    },
    {
      "inputs": [
        {
          "internalType": "uint256",
          "name": "index",
          "type": "uint256"
        }
      ],
      "name": "getBatchIdByIndexC",
      "outputs": [
        {
          "internalType": "address",
          "name": "_address",
          "type": "address"
        }
      ],
      "stateMutability": "view",
      "type": "function",
      "constant": true
    }
  ],
  "bytecode": "0x608060405234801561001057600080fd5b50600b80546001600160a01b03191633179055615f93806100326000396000f3fe60806040523480156200001157600080fd5b5060043610620002e35760003560e01c806375df26841162000191578063b6bc306711620000eb578063cd347656116200009e578063cd347656146200077e578063cd55152e1462000795578063d067e172146200079f578063d93abb9514620007b6578063eae3c20714620007c0578063f9a386b114620007d7578063fccd107614620007ee57600080fd5b8063b6bc306714620006f4578063b91bd97c146200070b578063bb8ee1c51462000722578063be7ef9c01462000739578063c253c1f41462000750578063c81c0dfd146200076757600080fd5b8063a232c1301162000144578063a232c1301462000658578063a4d886b21462000684578063ab2910f4146200069b578063aeb35f2014620006b2578063b427ee3714620006c9578063b4a99a4e14620006e057600080fd5b806375df268414620005b05780637cecb2de14620005e55780637f00184714620005fc5780639100978614620006135780639af035a3146200062a5780639c1ba94a146200064157600080fd5b806331e0afc2116200024357806352caf8bf11620001f657806352caf8bf146200050c57806357bd4c7a146200052357806360654159146200052d57806362c1fe3914620005445780636386c1c714620005735780636f41507c146200059957600080fd5b806331e0afc2146200044657806334759016146200045d57806344f89a4a146200048c578063493295b614620004b857806349e3fc4614620004cf5780634c3f3d7314620004e657600080fd5b8063110b3077116200029c578063110b3077146200039257806312b7963614620003a9578063164bcd5b14620003c05780631959a00214620003d75780631a717f6514620004255780631f90ddaf146200042f57600080fd5b806230b47614620002e8578062af37ff146200030157806303e18be214620003255780630a421f0f146200034b5780630bf89a8914620003645780630dedb1c7146200037b575b600080fd5b620002ff620002f936600462001ed8565b62000805565b005b336000908152602081905260409020545b6040519081526020015b60405180910390f35b6200033c6200033636600462001f2a565b620008c8565b6040516200031c919062001f59565b6200035562000901565b6040516200031c919062001fb3565b620002ff6200037536600462001ed8565b620009f3565b620002ff6200038c36600462001ed8565b62000ab4565b6200033c620003a336600462001f2a565b62000b4f565b6200033c620003ba36600462001f2a565b62000b6c565b6200033c620003d136600462001fcf565b62000b89565b62000414620003e836600462001fe9565b600c602052600090815260409020805460029091015460ff81169061010090046001600160a01b031683565b6040516200031c9392919062002036565b6200031262000c01565b620002ff62000440366004620020d4565b62000c4e565b620002ff6200045736600462001f2a565b62000d57565b6200033c6200046e36600462001fe9565b6001600160a01b039081166000908152600560205260409020541690565b6200033c6200049d36600462001fe9565b6005602052600090815260409020546001600160a01b031681565b6200033c620004c936600462001f2a565b62000e9a565b620002ff620004e036600462002214565b62000eb7565b620004fd620004f7366004620022db565b62000fee565b6040516200031c9190620023cb565b620002ff6200051d36600462002214565b62001078565b62000312620010c3565b620002ff6200053e366004620023e0565b62001110565b6200033c6200055536600462001fe9565b6001600160a01b039081166000908152600860205260409020541690565b6200058a6200058436600462001fe9565b62001153565b6040516200031c91906200241e565b620002ff620005aa366004620024c3565b620012fb565b620005d6620005c136600462001fe9565b600a6020526000908152604090205460ff1681565b6040516200031c9190620024ff565b6200033c620005f636600462001f2a565b62001414565b6200033c6200060d36600462001f2a565b62001431565b620004fd620006243660046200251c565b6200144e565b6200033c6200063b36600462001fcf565b620014e6565b6200033c6200065236600462001fcf565b62001543565b6200033c6200066936600462001fe9565b6008602052600090815260409020546001600160a01b031681565b620003126200069536600462001fe9565b620015a0565b620002ff620006ac366004620023e0565b620015b3565b620002ff620006c336600462001fe9565b62001715565b620002ff620006da36600462001ed8565b6200175b565b600b546200033c906001600160a01b031681565b6200033c6200070536600462001f2a565b620017f6565b620002ff6200071c36600462002544565b62001813565b620003126200073336600462001fe9565b620018a0565b620002ff6200074a366004620024c3565b620018d0565b620002ff6200076136600462001fe9565b62001922565b6200033c6200077836600462001f2a565b620019e2565b620002ff6200078f36600462001fe9565b620019ff565b6200031262001a76565b620002ff620007b0366004620023e0565b62001ac3565b6200035562001b83565b620002ff620007d136600462001f2a565b62001b91565b620002ff620007e8366004620023e0565b62001c28565b620002ff620007ff366004620023e0565b62001cca565b6004336000908152600c602052604090206002015460ff16600681111562000831576200083162002009565b148015620008ac5750826001600160a01b031663abb428a66040518163ffffffff1660e01b8152600401606060405180830381865afa15801562000879573d6000803e3d6000fd5b505050506040513d601f19601f820116820180604052508101906200089f9190620025f6565b516001600160a01b031633145b620008b657600080fd5b620008c383838362000ab4565b505050565b60096020528160005260406000208181548110620008e557600080fd5b6000918252602090912001546001600160a01b03169150829050565b33600090815260208190526040812054606091816001600160401b038111156200092f576200092f62002065565b60405190808252806020026020018201604052801562000959578160200160208202803683370190505b50905060005b82811015620009ec573360009081526020819052604090208054829081106200098c576200098c62002686565b9060005260206000200160009054906101000a90046001600160a01b0316828281518110620009bf57620009bf62002686565b6001600160a01b039092166020928302919091019091015280620009e3816200269c565b9150506200095f565b5092915050565b6005336000908152600c602052604090206002015460ff16600681111562000a1f5762000a1f62002009565b14801562000a9d5750826001600160a01b031663abb428a66040518163ffffffff1660e01b8152600401606060405180830381865afa15801562000a67573d6000803e3d6000fd5b505050506040513d601f19601f8201168201806040525081019062000a8d9190620025f6565b602001516001600160a01b031633145b62000aa757600080fd5b620008c38383836200175b565b60008333848460405162000ac89062001daf565b62000ad79493929190620026c4565b604051809103906000f08015801562000af4573d6000803e3d6000fd5b5033600090815260046020908152604080832080546001810182559084528284200180546001600160a01b039586166001600160a01b0319918216811790925598909416835260059091529020805490951617909355505050565b60076020528160005260406000208181548110620008e557600080fd5b60006020528160005260406000208181548110620008e557600080fd5b60006005336000908152600c602052604090206002015460ff16600681111562000bb75762000bb762002009565b1462000bc257600080fd5b33600090815260076020526040902080548390811062000be65762000be662002686565b6000918252602090912001546001600160a01b031692915050565b60006001336000908152600c602052604090206002015460ff16600681111562000c2f5762000c2f62002009565b1462000c3a57600080fd5b503360009081526020819052604090205490565b600b546001600160a01b0316331462000c6657600080fd5b6001600160a01b0381166000908152600c60209081526040909120858155845162000c9a9260019092019186019062001dbd565b5081600681111562000cb05762000cb062002009565b6001600160a01b0382166000908152600c60205260409020600201805460ff1916600183600681111562000ce85762000ce862002009565b02179055506001600160a01b0381166000818152600c60209081526040918290206002018054610100600160a81b031916610100850217905590518681527f33a7170f028b1e4f5ba321064a00ed820856a920c7f9c6636fbcf385427b1b0f910160405180910390a250505050565b6006336000908152600c602052604090206002015460ff16600681111562000d835762000d8362002009565b14801562000e015750816001600160a01b031663abb428a66040518163ffffffff1660e01b8152600401606060405180830381865afa15801562000dcb573d6000803e3d6000fd5b505050506040513d601f19601f8201168201806040525081019062000df19190620025f6565b604001516001600160a01b031633145b62000e4d5760405162461bcd60e51b815260206004820152601860248201527713db9b1e4810dd5cdd1bdb595c881bdc8818dd5c9c995b9d60421b604482015260640160405180910390fd5b60016001600160a01b0383166000908152600a602052604090205460ff16600481111562000e7f5762000e7f62002009565b1462000e8a57600080fd5b62000e96828262001b91565b5050565b60016020528160005260406000208181548110620008e557600080fd5b60405133606081901b6bffffffffffffffffffffffff1916602083015242603483015260009160029060540160408051601f198184030181529082905262000eff91620026ef565b602060405180830381855afa15801562000f1d573d6000803e3d6000fd5b5050506040513d601f19601f8201168201806040525081019062000f4291906200270d565b60601c8686868660405162000f579062001e1a565b6001600160a01b0396871681529486166020860152604085019390935260608401919091528316608083015290911660a082015260c001604051809103906000f08015801562000fab573d6000803e3d6000fd5b50336000908152602081815260408220805460018101825590835291200180546001600160a01b0319166001600160a01b03929092169190911790555050505050565b60606003336000908152600c602052604090206002015460ff1660068111156200101c576200101c62002009565b146200102757600080fd5b816000036200103557600080fd5b620010463388888888888862001813565b5060408051808201909152601081526f50726f6475637420637265617465642160801b60208201529695505050505050565b6001336000908152600c602052604090206002015460ff166006811115620010a457620010a462002009565b14620010af57600080fd5b620010bd8484848462000eb7565b50505050565b60006006336000908152600c602052604090206002015460ff166006811115620010f157620010f162002009565b14620010fc57600080fd5b503360009081526009602052604090205490565b6006336000908152600c602052604090206002015460ff1660068111156200113c576200113c62002009565b146200114757600080fd5b62000e96828262001cca565b6200117f6040805160808101825260008082526060602083015290918201908152600060209091015290565b600b546001600160a01b031633146200119757600080fd5b6001600160a01b0382166000908152600c602090815260408083208151608081018352815481526001820180548451818702810187019095528085529195929486810194939192919084015b8282101562001299578382906000526020600020018054620012059062002727565b80601f0160208091040260200160405190810160405280929190818152602001828054620012339062002727565b8015620012845780601f10620012585761010080835404028352916020019162001284565b820191906000526020600020905b8154815290600101906020018083116200126657829003601f168201915b505050505081526020019060010190620011e3565b50505090825250600282015460209091019060ff166006811115620012c257620012c262002009565b6006811115620012d657620012d662002009565b81526002919091015461010090046001600160a01b031660209091015290505b919050565b816001036200136b5760405163638e9a3d60e01b81526001600160a01b0384169063638e9a3d906200133290339060040162001f59565b600060405180830381600087803b1580156200134d57600080fd5b505af115801562001362573d6000803e3d6000fd5b50505050505050565b81600203620013a257604051630c8b99eb60e11b81526001600160a01b0384169063191733d6906200133290339060040162001f59565b81600303620013db57604051630887851b60e31b81526001600160a01b0382169063443c28d89062001332908690339060040162002763565b81600403620008c35760405163298abd8d60e11b81526001600160a01b038216906353157b1a9062001332908690339060040162002763565b60036020528160005260406000208181548110620008e557600080fd5b60066020528160005260406000208181548110620008e557600080fd5b600b546060906001600160a01b031633146200146957600080fd5b8260068111156200147e576200147e62002009565b6001600160a01b0383166000908152600c60205260409020600201805460ff19166001836006811115620014b657620014b662002009565b02179055505060408051808201909152600d81526c526f6c6520557064617465642160981b602082015292915050565b60006004336000908152600c602052604090206002015460ff16600681111562001514576200151462002009565b146200151f57600080fd5b33600090815260046020526040902080548390811062000be65762000be662002686565b60006006336000908152600c602052604090206002015460ff16600681111562001571576200157162002009565b146200157c57600080fd5b33600090815260096020526040902080548390811062000be65762000be662002686565b6000620015ad82620018a0565b92915050565b604051639296057b60e01b81526000906001600160a01b03841690639296057b90620015e490339060040162001f59565b6020604051808303816000875af115801562001604573d6000803e3d6000fd5b505050506040513d601f19601f820116820180604052508101906200162a91906200270d565b905080600203620008c357336000908152600660209081526040808320805460018101825590845291832090910180546001600160a01b0319166001600160a01b03871690811790915581516355da145360e11b81529151909163abb428a69160048083019260609291908290030181865afa158015620016af573d6000803e3d6000fd5b505050506040513d601f19601f82011682018060405250810190620016d59190620025f6565b516001600160a01b031614620008c35760405163d7dcbe3b60e01b81526001600160a01b0383169063d7dcbe3b9062001332908690339060040162002763565b6003336000908152600c602052604090206002015460ff16600681111562001741576200174162002009565b146200174c57600080fd5b62001758813362001c28565b50565b6000833384846040516200176f9062001e28565b6200177e9493929190620026c4565b604051809103906000f0801580156200179b573d6000803e3d6000fd5b5033600090815260076020908152604080832080546001810182559084528284200180546001600160a01b039586166001600160a01b0319918216811790925598909416835260089091529020805490951617909355505050565b60046020528160005260406000208181548110620008e557600080fd5b6000878787878787876040516200182a9062001e36565b6200183c97969594939291906200277d565b604051809103906000f08015801562001859573d6000803e3d6000fd5b506001600160a01b0398891660009081526002602090815260408220805460018101825590835291200180546001600160a01b031916919099161790975550505050505050565b6001600160a01b0381166000908152600a602052604081205460ff166004811115620015ad57620015ad62002009565b6002336000908152600c602052604090206002015460ff166006811115620018fc57620018fc62002009565b146200190757600080fd5b600082116200191557600080fd5b620008c3838383620012fb565b604051639296057b60e01b81526000906001600160a01b03831690639296057b906200195390339060040162001f59565b6020604051808303816000875af115801562001973573d6000803e3d6000fd5b505050506040513d601f19601f820116820180604052508101906200199991906200270d565b90508060010362000e96573360009081526003602090815260408220805460018101825590835291200180546001600160a01b0384166001600160a01b03199091161790555050565b60026020528160005260406000208181548110620008e557600080fd5b6004336000908152600c602052604090206002015460ff16600681111562001a2b5762001a2b62002009565b148062001a6157506005336000908152600c602052604090206002015460ff16600681111562001a5f5762001a5f62002009565b145b62001a6b57600080fd5b620017588162001922565b60006005336000908152600c602052604090206002015460ff16600681111562001aa45762001aa462002009565b1462001aaf57600080fd5b503360009081526007602052604090205490565b6005336000908152600c602052604090206002015460ff16600681111562001aef5762001aef62002009565b14801562001b6d5750816001600160a01b031663abb428a66040518163ffffffff1660e01b8152600401606060405180830381865afa15801562001b37573d6000803e3d6000fd5b505050506040513d601f19601f8201168201806040525081019062001b5d9190620025f6565b602001516001600160a01b031633145b62001b7757600080fd5b62000e968282620015b3565b60606000620015ad62000901565b80600481111562001ba65762001ba662002009565b6001600160a01b0383166000908152600a60205260409020805460ff1916600183600481111562001bdb5762001bdb62002009565b0217905550604080516001600160a01b03841681526020810183905233917fccec82c925d72dd2aa8d8b6eaa04ce67d3cbcffbfd3c646bd72b0206339c1d60910160405180910390a25050565b604051630a57332d60e31b81526001600160a01b038316906352b999689062001c5690849060040162001f59565b600060405180830381600087803b15801562001c7157600080fd5b505af115801562001c86573d6000803e3d6000fd5b505050506001600160a01b03908116600090815260016020818152604083208054928301815583529091200180546001600160a01b03191692909116919091179055565b604051637bd6ee1f60e11b81526001600160a01b0382169063f7addc3e9062001cfa908590339060040162002763565b600060405180830381600087803b15801562001d1557600080fd5b505af115801562001d2a573d6000803e3d6000fd5b50503360009081526009602090815260408220805460018082018355918452919092200180546001600160a01b0319166001600160a01b038716179055915062001d719050565b6001600160a01b0383166000908152600a60205260409020805460ff1916600183600481111562001da65762001da662002009565b02179055505050565b61041a80620028f883390190565b82805482825590600052602060002090810192821562001e08579160200282015b8281111562001e08578251829062001df790826200282b565b509160200191906001019062001dde565b5062001e1692915062001e44565b5090565b61127e8062002d1283390190565b61041e8062003f9083390190565b611bb080620043ae83390190565b8082111562001e1657600062001e5b828262001e65565b5060010162001e44565b50805462001e739062002727565b6000825580601f1062001e84575050565b601f0160209004906000526020600020908101906200175891905b8082111562001e16576000815560010162001e9f565b6001600160a01b03811681146200175857600080fd5b8035620012f68162001eb5565b60008060006060848603121562001eee57600080fd5b833562001efb8162001eb5565b9250602084013562001f0d8162001eb5565b9150604084013562001f1f8162001eb5565b809150509250925092565b6000806040838503121562001f3e57600080fd5b823562001f4b8162001eb5565b946020939093013593505050565b6001600160a01b0391909116815260200190565b600081518084526020808501945080840160005b8381101562001fa85781516001600160a01b03168752958201959082019060010162001f81565b509495945050505050565b60208152600062001fc8602083018462001f6d565b9392505050565b60006020828403121562001fe257600080fd5b5035919050565b60006020828403121562001ffc57600080fd5b813562001fc88162001eb5565b634e487b7160e01b600052602160045260246000fd5b6007811062002032576200203262002009565b9052565b838152606081016200204c60208301856200201f565b6001600160a01b03929092166040919091015292915050565b634e487b7160e01b600052604160045260246000fd5b604051601f8201601f191681016001600160401b0381118282101715620020a657620020a662002065565b604052919050565b60006001600160401b03821115620020ca57620020ca62002065565b5060051b60200190565b60008060008060808587031215620020eb57600080fd5b843593506020808601356001600160401b03808211156200210b57600080fd5b818801915088601f8301126200212057600080fd5b8135620021376200213182620020ae565b6200207b565b81815260059190911b8301840190848101908b8311156200215757600080fd5b8585015b83811015620021eb578035858111156200217457600080fd5b8601603f81018e136200218657600080fd5b87810135868111156200219d576200219d62002065565b620021b1601f8201601f19168a016200207b565b8181528f6040838501011115620021c85760008081fd5b81604084018b83013760009181018a01919091528452509186019186016200215b565b50975050505060408701359350620022099150506060860162001ecb565b905092959194509250565b600080600080608085870312156200222b57600080fd5b84359350602085013592506040850135620022468162001eb5565b91506060850135620022588162001eb5565b939692955090935050565b600082601f8301126200227557600080fd5b81356020620022886200213183620020ae565b82815260059290921b84018101918181019086841115620022a857600080fd5b8286015b84811015620022d0578035620022c28162001eb5565b8352918301918301620022ac565b509695505050505050565b60008060008060008060c08789031215620022f557600080fd5b8635955060208701356001600160401b03808211156200231457600080fd5b620023228a838b0162002263565b96506040890135955060608901359150808211156200234057600080fd5b506200234f89828a0162002263565b9350506080870135620023628162001eb5565b8092505060a087013590509295509295509295565b60005b83811015620023945781810151838201526020016200237a565b50506000910152565b60008151808452620023b781602086016020860162002377565b601f01601f19169290920160200192915050565b60208152600062001fc860208301846200239d565b60008060408385031215620023f457600080fd5b8235620024018162001eb5565b91506020830135620024138162001eb5565b809150509250929050565b6000602080835260a08301845182850152818501516080604086015281815180845260c08701915060c08160051b8801019350848301925060005b818110156200248b5760bf19888603018352620024788585516200239d565b9450928501929185019160010162002459565b5050505060408501519150620024a560608501836200201f565b60608501516001600160a01b03811660808601529150949350505050565b600080600060608486031215620024d957600080fd5b8335620024e68162001eb5565b925060208401359150604084013562001f1f8162001eb5565b602081016005831062002516576200251662002009565b91905290565b600080604083850312156200253057600080fd5b823591506020830135620024138162001eb5565b600080600080600080600060e0888a0312156200256057600080fd5b87356200256d8162001eb5565b96506020880135955060408801356001600160401b03808211156200259157600080fd5b6200259f8b838c0162002263565b965060608a0135955060808a0135915080821115620025bd57600080fd5b50620025cc8a828b0162002263565b93505060a0880135620025df8162001eb5565b8092505060c0880135905092959891949750929550565b6000606082840312156200260957600080fd5b82601f8301126200261957600080fd5b604051606081018181106001600160401b03821117156200263e576200263e62002065565b6040528060608401858111156200265457600080fd5b845b818110156200267b5780516200266c8162001eb5565b83526020928301920162002656565b509195945050505050565b634e487b7160e01b600052603260045260246000fd5b600060018201620026bd57634e487b7160e01b600052601160045260246000fd5b5060010190565b6001600160a01b03948516815292841660208401529083166040830152909116606082015260800190565b600082516200270381846020870162002377565b9190910192915050565b6000602082840312156200272057600080fd5b5051919050565b600181811c908216806200273c57607f821691505b6020821081036200275d57634e487b7160e01b600052602260045260246000fd5b50919050565b6001600160a01b0392831681529116602082015260400190565b600060018060a01b03808a16835288602084015260e06040840152620027a760e084018962001f6d565b8760608501528381036080850152620027c1818862001f6d565b9590911660a0840152505060c0015295945050505050565b601f821115620008c357600081815260208120601f850160051c81016020861015620028025750805b601f850160051c820191505b8181101562002823578281556001016200280e565b505050505050565b81516001600160401b0381111562002847576200284762002065565b6200285f8162002858845462002727565b84620027d9565b602080601f8311600181146200289757600084156200287e5750858301515b600019600386901b1c1916600185901b17855562002823565b600085815260208120601f198616915b82811015620028c857888601518255948401946001909101908401620028a7565b5085821015620028e75787850151600019600388901b60f8161c191681555b5050505050600190811b0190555056fe608060405234801561001057600080fd5b5060405161041a38038061041a83398101604081905261002f916100b6565b600080546001600160a01b039485166001600160a01b0319918216811790925560018054968616968216969096179095556002805486169091179055600380549284169290941691909117909255600480546001600160a81b0319169290911691909117905561010a565b80516001600160a01b03811681146100b157600080fd5b919050565b600080600080608085870312156100cc57600080fd5b6100d58561009a565b93506100e36020860161009a565b92506100f16040860161009a565b91506100ff6060860161009a565b905092959194509250565b610301806101196000396000f3fe608060405234801561001057600080fd5b50600436106100415760003560e01c8063443c28d814610046578063d2f3fcc71461005b578063d7dcbe3b14610075575b600080fd5b610059610054366004610282565b610088565b005b610063610182565b60405190815260200160405180910390f35b610059610083366004610282565b6101a8565b6003546001600160a01b038281169116146101025760405162461bcd60e51b815260206004820152602f60248201527f4f6e6c79204173736f63696174656420736869707065722063616e2063616c6c60448201526e103a3434b990333ab731ba34b7b71760891b60648201526084015b60405180910390fd5b60048054600160a01b60ff60a01b19821617825560025460405163f5c0e38360e01b81526001600160a01b03928316938101939093528116602483015283169063f5c0e383906044015b600060405180830381600087803b15801561016657600080fd5b505af115801561017a573d6000803e3d6000fd5b505050505050565b600454600090600160a01b900460ff1660028111156101a3576101a36102b5565b905090565b6004546001600160a01b0382811691161461021e5760405162461bcd60e51b815260206004820152603060248201527f4f6e6c79204173736f6369617465642072656365697665722063616e2063616c60448201526f36103a3434b990333ab731ba34b7b71760811b60648201526084016100f9565b600480546002919060ff60a01b1916600160a01b8302179055506040516393a668b760e01b81526001600160a01b0382811660048301528316906393a668b79060240161014c565b80356001600160a01b038116811461027d57600080fd5b919050565b6000806040838503121561029557600080fd5b61029e83610266565b91506102ac60208401610266565b90509250929050565b634e487b7160e01b600052602160045260246000fdfea2646970667358221220dded0d20a6efe599cca298e00c387756010f4d7d09ea7038177eb2dc298163ed64736f6c63430008130033608060405234801561001057600080fd5b5060405161127e38038061127e83398101604081905261002f91610123565b600080546001600160a01b03199081166001600160a01b0389811691821784556001805484168a8316179055600288905560038790556004805484168783161790556005805490931690851617909155600680546001600160a81b031916909117905560405182906100a0906100fa565b6001600160a01b039091168152602001604051809103906000f0801580156100cc573d6000803e3d6000fd5b50600880546001600160a01b0319166001600160a01b03929092169190911790555061018995505050505050565b610cb2806105cc83390190565b80516001600160a01b038116811461011e57600080fd5b919050565b60008060008060008060c0878903121561013c57600080fd5b61014587610107565b955061015360208801610107565b9450604087015193506060870151925061016f60808801610107565b915061017d60a08801610107565b90509295509295509295565b610434806101986000396000f3fe608060405234801561001057600080fd5b506004361061004c5760003560e01c806324ce4bc81461005157806352b99968146100b1578063638e9a3d146100c657806368188a28146100d9575b600080fd5b600154600254600354600654600454600554600854604080516001600160a01b0398891681526020810197909752860194909452918516606085015284166080840152831660a08301529190911660c082015260e0015b60405180910390f35b6100c46100bf3660046103b8565b6100ef565b005b6100c46100d43660046103b8565b610247565b6100e1610392565b6040519081526020016100a8565b6005546001600160a01b038281169116146101705760405162461bcd60e51b815260206004820152603660248201527f4f6e6c792070726f636573736f72206f6620746865207061636b6167652063616044820152756e20726563656965766520746865207061636b61676560501b60648201526084015b60405180910390fd5b6001600654600160a01b900460ff166002811115610190576101906103e8565b146101d95760405162461bcd60e51b8152602060048201526019602482015278141c9bd91d58dd081b9bdd081c1a58dad959081d5c081e595d603a1b6044820152606401610167565b6006805460ff60a01b1916600160a11b1790556005546004546001805460408051928352600260208401526001600160a01b039485169493841693909116917f7e89c4b1a4e2b51aae84eb1f90e8a34cb792ece5ac5cb63db4830c891220b28d91015b60405180910390a450565b6004546001600160a01b038281169116146102bd5760405162461bcd60e51b815260206004820152603060248201527f4f6e6c79207472616e73706f72746572206f6620746865207061636b6167652060448201526f63616e207069636b207061636b61676560801b6064820152608401610167565b6000600654600160a01b900460ff1660028111156102dd576102dd6103e8565b1461032a5760405162461bcd60e51b815260206004820152601c60248201527f5061636b616765206d75737420626520617420537570706c6965722e000000006044820152606401610167565b6006805460ff60a01b1916600160a01b179055600554600454600180546040805183815260208101939093526001600160a01b039485169493841693909116917f7e89c4b1a4e2b51aae84eb1f90e8a34cb792ece5ac5cb63db4830c891220b28d910161023c565b600654600090600160a01b900460ff1660028111156103b3576103b36103e8565b905090565b6000602082840312156103ca57600080fd5b81356001600160a01b03811681146103e157600080fd5b9392505050565b634e487b7160e01b600052602160045260246000fdfea264697066735822122058a91dd6d2641672790e0b4b027a93cf27b75db1e2b3ede9ffb6e12d7db8b79d64736f6c634300081300336080604052600060025534801561001557600080fd5b50604051610cb2380380610cb283398101604081905261003491610059565b600080546001600160a01b0319166001600160a01b0392909216919091179055610089565b60006020828403121561006b57600080fd5b81516001600160a01b038116811461008257600080fd5b9392505050565b610c1a806100986000396000f3fe608060405234801561001057600080fd5b506004361061004c5760003560e01c806327506f53146100515780633626a3681461006f57806378ce1365146100845780639ace38c21461009b575b600080fd5b6100596100c1565b6040516100669190610730565b60405180910390f35b61008261007d3660046108ba565b610310565b005b61008d60025481565b604051908152602001610066565b6100ae6100a9366004610951565b610590565b604051610066979695949392919061096a565b60025460609060008167ffffffffffffffff8111156100e2576100e2610817565b60405190808252806020026020018201604052801561014857816020015b6040805160e0810182526000808252602080830182905292820181905260608083018290526080830181905260a083015260c082015282526000199092019101816101005790505b50905060005b8281101561030957600081815260016020818152604092839020835160e08101855281548152928101546001600160a01b0390811692840192909252600281015490911692820192909252600382015460608201526004820180549192916080840191906101bb906109ca565b80601f01602080910402602001604051908101604052809291908181526020018280546101e7906109ca565b80156102345780601f1061020957610100808354040283529160200191610234565b820191906000526020600020905b81548152906001019060200180831161021757829003601f168201915b5050505050815260200160058201805461024d906109ca565b80601f0160208091040260200160405190810160405280929190818152602001828054610279906109ca565b80156102c65780601f1061029b576101008083540402835291602001916102c6565b820191906000526020600020905b8154815290600101906020018083116102a957829003601f168201915b505050505081526020016006820154815250508282815181106102eb576102eb610a04565b6020026020010181905250808061030190610a30565b91505061014e565b5092915050565b60025442906000036103ea576040805160e0810182528881526001600160a01b038089166020808401918252898316848601908152606085018a8152608086018a815260a087018a905260c087018990526002805460009081526001958690529890982087518155945193850180549487166001600160a01b03199586161790559151968401805497909516969092169590951790925590516003820155915190919060048201906103c29082610a98565b5060a082015160058201906103d79082610a98565b5060c0820151816006015590505061052b565b836001600060016002546103fe9190610b58565b815260200190815260200160002060000154146104615760405162461bcd60e51b815260206004820152601b60248201527f5472616e73616374696f6e206572726f72206f63637572726564210000000000604482015260640160405180910390fd5b6040805160e0810182528881526001600160a01b038089166020808401918252898316848601908152606085018a8152608086018a815260a087018a905260c087018990526002805460009081526001958690529890982087518155945193850180549487166001600160a01b03199586161790559151968401805497909516969092169590951790925590516003820155915190919060048201906105079082610a98565b5060a0820151600582019061051c9082610a98565b5060c082015181600601559050505b60016002600082825461053e9190610b71565b90915550506040517f30d01d358fb0899fe4d50947b2e9301c952d9eed09b14c7ecdcbeed4434557c49061057f90899089908990899087908a908a90610b84565b60405180910390a150505050505050565b6001602081905260009182526040909120805491810154600282015460038301546004840180546001600160a01b0394851695949093169391926105d3906109ca565b80601f01602080910402602001604051908101604052809291908181526020018280546105ff906109ca565b801561064c5780601f106106215761010080835404028352916020019161064c565b820191906000526020600020905b81548152906001019060200180831161062f57829003601f168201915b505050505090806005018054610661906109ca565b80601f016020809104026020016040519081016040528092919081815260200182805461068d906109ca565b80156106da5780601f106106af576101008083540402835291602001916106da565b820191906000526020600020905b8154815290600101906020018083116106bd57829003601f168201915b5050505050908060060154905087565b6000815180845260005b81811015610710576020818501810151868301820152016106f4565b506000602082860101526020601f19601f83011685010191505092915050565b60006020808301818452808551808352604092508286019150828160051b87010184880160005b838110156107ed57888303603f19018552815180518452878101516001600160a01b03908116898601528782015116878501526060808201519085015260808082015160e082870181905291906107b0838801826106ea565b9250505060a080830151868303828801526107cb83826106ea565b60c0948501519790940196909652505094870194925090860190600101610757565b509098975050505050505050565b80356001600160a01b038116811461081257600080fd5b919050565b634e487b7160e01b600052604160045260246000fd5b600082601f83011261083e57600080fd5b813567ffffffffffffffff8082111561085957610859610817565b604051601f8301601f19908116603f0116810190828211818310171561088157610881610817565b8160405283815286602085880101111561089a57600080fd5b836020870160208301376000602085830101528094505050505092915050565b60008060008060008060c087890312156108d357600080fd5b863595506108e3602088016107fb565b94506108f1604088016107fb565b935060608701359250608087013567ffffffffffffffff8082111561091557600080fd5b6109218a838b0161082d565b935060a089013591508082111561093757600080fd5b5061094489828a0161082d565b9150509295509295509295565b60006020828403121561096357600080fd5b5035919050565b8781526001600160a01b038781166020830152861660408201526060810185905260e0608082018190526000906109a3908301866106ea565b82810360a08401526109b581866106ea565b9150508260c083015298975050505050505050565b600181811c908216806109de57607f821691505b6020821081036109fe57634e487b7160e01b600052602260045260246000fd5b50919050565b634e487b7160e01b600052603260045260246000fd5b634e487b7160e01b600052601160045260246000fd5b600060018201610a4257610a42610a1a565b5060010190565b601f821115610a9357600081815260208120601f850160051c81016020861015610a705750805b601f850160051c820191505b81811015610a8f57828155600101610a7c565b5050505b505050565b815167ffffffffffffffff811115610ab257610ab2610817565b610ac681610ac084546109ca565b84610a49565b602080601f831160018114610afb5760008415610ae35750858301515b600019600386901b1c1916600185901b178555610a8f565b600085815260208120601f198616915b82811015610b2a57888601518255948401946001909101908401610b0b565b5085821015610b485787850151600019600388901b60f8161c191681555b5050505050600190811b01905550565b81810381811115610b6b57610b6b610a1a565b92915050565b80820180821115610b6b57610b6b610a1a565b8781526001600160a01b03878116602083015286166040820152606081018590526080810184905260e060a08201819052600090610bc4908301856106ea565b82810360c0840152610bd681856106ea565b9a995050505050505050505056fea2646970667358221220ad3e83d8579e9c39663418c580c249f59eddf57ba0bd58657d72b382bd72fdca64736f6c63430008130033608060405234801561001057600080fd5b5060405161041e38038061041e83398101604081905261002f916100b6565b600080546001600160a01b039485166001600160a01b0319918216811790925560018054968616968216969096179095556002805486169091179055600380549284169290941691909117909255600480546001600160a81b0319169290911691909117905561010a565b80516001600160a01b03811681146100b157600080fd5b919050565b600080600080608085870312156100cc57600080fd5b6100d58561009a565b93506100e36020860161009a565b92506100f16040860161009a565b91506100ff6060860161009a565b905092959194509250565b610305806101196000396000f3fe608060405234801561001057600080fd5b50600436106100415760003560e01c806353157b1a14610046578063c0114d061461005b578063f7addc3e14610075575b600080fd5b610059610054366004610286565b610088565b005b610063610186565b60405190815260200160405180910390f35b610059610083366004610286565b6101ac565b6003546001600160a01b038281169116146101065760405162461bcd60e51b815260206004820152603360248201527f4f6e6c79204173736f636961746564207472616e73706f727465722063616e2060448201527231b0b636103a3434b990333ab731ba34b7b71760691b60648201526084015b60405180910390fd5b60048054600160a01b60ff60a01b1982161782556002546040516305e3aeb160e31b81526001600160a01b039283169381019390935281166024830152831690632f1d7588906044015b600060405180830381600087803b15801561016a57600080fd5b505af115801561017e573d6000803e3d6000fd5b505050505050565b600454600090600160a01b900460ff1660028111156101a7576101a76102b9565b905090565b6004546001600160a01b038281169116146102225760405162461bcd60e51b815260206004820152603060248201527f4f6e6c79204173736f6369617465642072656365697665722063616e2063616c60448201526f36103a3434b990333ab731ba34b7b71760811b60648201526084016100fd565b600480546002919060ff60a01b1916600160a01b83021790555060405163c8f5f18960e01b81526001600160a01b03828116600483015283169063c8f5f18990602401610150565b80356001600160a01b038116811461028157600080fd5b919050565b6000806040838503121561029957600080fd5b6102a28361026a565b91506102b06020840161026a565b90509250929050565b634e487b7160e01b600052602160045260246000fdfea26469706673582212201996b20429dc0a21983315a91769f5dd295e9d971449ed14f9ad118d8acf9c2764736f6c6343000813003360806040523480156200001157600080fd5b5060405162001bb038038062001bb08339810160408190526200003491620002c7565b600080546001600160a01b0389166001600160a01b03199182168117909255600480549091169091179055600186905584516200007990600290602088019062000158565b50600884905582516200009490600390602086019062000158565b5080600103620000bf57600580546001600160a01b0319166001600160a01b038416179055620000e4565b80600203620000e457600680546001600160a01b0319166001600160a01b0384161790555b600087604051620000f590620001c2565b6001600160a01b039091168152602001604051809103906000f08015801562000122573d6000803e3d6000fd5b50600980546001600160a01b0390921661010002610100600160a81b031990921691909117905550620003749650505050505050565b828054828255906000526020600020908101928215620001b0579160200282015b82811115620001b057825182546001600160a01b0319166001600160a01b0390911617825560209092019160019091019062000179565b50620001be929150620001d0565b5090565b610cb28062000efe83390190565b5b80821115620001be5760008155600101620001d1565b80516001600160a01b0381168114620001ff57600080fd5b919050565b634e487b7160e01b600052604160045260246000fd5b600082601f8301126200022c57600080fd5b815160206001600160401b03808311156200024b576200024b62000204565b8260051b604051601f19603f8301168101818110848211171562000273576200027362000204565b6040529384528581018301938381019250878511156200029257600080fd5b83870191505b84821015620002bc57620002ac82620001e7565b8352918301919083019062000298565b979650505050505050565b600080600080600080600060e0888a031215620002e357600080fd5b620002ee88620001e7565b602089015160408a015191985096506001600160401b03808211156200031357600080fd5b620003218b838c016200021a565b965060608a0151955060808a01519150808211156200033f57600080fd5b506200034e8a828b016200021a565b9350506200035f60a08901620001e7565b915060c0880151905092959891949750929550565b610b7a80620003846000396000f3fe608060405234801561001057600080fd5b506004361061009e5760003560e01c8063abb428a611610066578063abb428a614610164578063c8f5f18914610179578063d2f3fcc71461018c578063f5c0e38314610194578063fc72a385146101a757600080fd5b8063191733d6146100a35780632f1d7588146100b85780639296057b146100cb57806393a668b7146100f1578063aab3a9d614610104575b600080fd5b6100b66100b136600461095e565b6101c2565b005b6100b66100c6366004610980565b610373565b6100de6100d936600461095e565b6103e3565b6040519081526020015b60405180910390f35b6100b66100ff36600461095e565b610666565b6100b661011236600461095e565b600380546001810182556000919091527fc2575a0e9e593c00f959f8c92f12db2869c3395a3b0502d05e2516446f71f85b0180546001600160a01b0319166001600160a01b0392909216919091179055565b61016c6106ba565b6040516100e891906109b3565b6100b661018736600461095e565b6106f5565b6100de610759565b6100b66101a2366004610980565b610778565b6101af610802565b6040516100e89796959493929190610a31565b600380546101d290600190610a8e565b815481106101e2576101e2610ab5565b6000918252602090912001546001600160a01b0382811691161461025d5760405162461bcd60e51b815260206004820152602760248201527f4f6e6c79205472616e73706f727465722063616e2063616c6c207468697320666044820152663ab731ba34b7b760c91b60648201526084015b60405180910390fd5b600060095460ff16600681111561027657610276610acb565b146102c35760405162461bcd60e51b815260206004820152601d60248201527f5061636b616765206d7573742062652061742070726f636573736f722e0000006044820152606401610254565b6005546001600160a01b03161561032657600980546001919060ff19168280021790555060055460408051600180825260208201526001600160a01b03928316928416913091600080516020610b2583398151915291015b60405180910390a450565b600980546002919060ff191660018302179055506006546040805160018152600260208201526001600160a01b03928316928416913091600080516020610b25833981519152910161031b565b6006546001600160a01b038281169116146103a05760405162461bcd60e51b815260040161025490610ae1565b600780546001600160a01b0319166001600160a01b03841617905560055b6009805460ff191660018360068111156103da576103da610acb565b02179055505050565b6005546000906001600160a01b038381169116148061040f57506006546001600160a01b038381169116145b6104795760405162461bcd60e51b815260206004820152603560248201527f4f6e6c792057686f6c6573616c6572206f72204469737472696275746f72206360448201527430b71031b0b636103a3434b990333ab731ba34b7b760591b6064820152608401610254565b60095460019060ff16600681111561049357610493610acb565b10156104dd5760405162461bcd60e51b8152602060048201526019602482015278141c9bd91d58dd081b9bdd081c1a58dad959081d5c081e595d603a1b6044820152606401610254565b6005546001600160a01b0383811691161480156105105750600160095460ff16600681111561050e5761050e610acb565b145b156105a0576009805460ff1916600390811790915560055481546001600160a01b03909116919061054390600190610a8e565b8154811061055357610553610ab5565b6000918252602091829020015460408051600281526003938101939093526001600160a01b03909116913091600080516020610b25833981519152910160405180910390a4506001919050565b6006546001600160a01b0383811691161480156105d35750600260095460ff1660068111156105d1576105d1610acb565b145b15610661576009805460ff19166004179055600654600380546001600160a01b039092169161060490600190610a8e565b8154811061061457610614610ab5565b6000918252602091829020015460408051600381526004938101939093526001600160a01b03909116913091600080516020610b25833981519152910160405180910390a4506002919050565b919050565b6006546001600160a01b038281169116146106935760405162461bcd60e51b815260040161025490610ae1565b60045b6009805460ff191660018360068111156106b2576106b2610acb565b021790555050565b6106c2610929565b50604080516060810182526005546001600160a01b03908116825260065481166020830152600754169181019190915290565b6007546001600160a01b038281169116146107525760405162461bcd60e51b815260206004820181905260248201527f5468697320437573746f6d6572206973206e6f74204173736f6369617465642e6044820152606401610254565b6006610696565b60095460009060ff16600681111561077357610773610acb565b905090565b6005546001600160a01b038281169116146107e05760405162461bcd60e51b815260206004820152602260248201527f746869732057686f6c6573616c6572206973206e6f74204173736f6369617465604482015261321760f11b6064820152608401610254565b600680546001600160a01b0319166001600160a01b03841617905560026103be565b600080606060006060600080600460009054906101000a90046001600160a01b031660015460026008546003600660009054906101000a90046001600160a01b0316600760009054906101000a90046001600160a01b0316848054806020026020016040519081016040528092919081815260200182805480156108af57602002820191906000526020600020905b81546001600160a01b03168152600190910190602001808311610891575b505050505094508280548060200260200160405190810160405280929190818152602001828054801561090b57602002820191906000526020600020905b81546001600160a01b031681526001909101906020018083116108ed575b50505050509250965096509650965096509650965090919293949596565b60405180606001604052806003906020820280368337509192915050565b80356001600160a01b038116811461066157600080fd5b60006020828403121561097057600080fd5b61097982610947565b9392505050565b6000806040838503121561099357600080fd5b61099c83610947565b91506109aa60208401610947565b90509250929050565b60608101818360005b60038110156109e45781516001600160a01b03168352602092830192909101906001016109bc565b50505092915050565b600081518084526020808501945080840160005b83811015610a265781516001600160a01b031687529582019590820190600101610a01565b509495945050505050565b600060018060a01b03808a16835288602084015260e06040840152610a5960e08401896109ed565b8760608501528381036080850152610a7181886109ed565b95821660a0850152509290921660c0909101525095945050505050565b81810381811115610aaf57634e487b7160e01b600052601160045260246000fd5b92915050565b634e487b7160e01b600052603260045260246000fd5b634e487b7160e01b600052602160045260246000fd5b60208082526023908201527f54686973204469737472696275746f72206973206e6f74204173736f6369617460408201526232b21760e91b60608201526080019056fe7e89c4b1a4e2b51aae84eb1f90e8a34cb792ece5ac5cb63db4830c891220b28da26469706673582212201a2e6b0c1798b08d7105b93e39ca86c94fc129b221d560fe16bc00372ea7cc3b64736f6c634300081300336080604052600060025534801561001557600080fd5b50604051610cb2380380610cb283398101604081905261003491610059565b600080546001600160a01b0319166001600160a01b0392909216919091179055610089565b60006020828403121561006b57600080fd5b81516001600160a01b038116811461008257600080fd5b9392505050565b610c1a806100986000396000f3fe608060405234801561001057600080fd5b506004361061004c5760003560e01c806327506f53146100515780633626a3681461006f57806378ce1365146100845780639ace38c21461009b575b600080fd5b6100596100c1565b6040516100669190610730565b60405180910390f35b61008261007d3660046108ba565b610310565b005b61008d60025481565b604051908152602001610066565b6100ae6100a9366004610951565b610590565b604051610066979695949392919061096a565b60025460609060008167ffffffffffffffff8111156100e2576100e2610817565b60405190808252806020026020018201604052801561014857816020015b6040805160e0810182526000808252602080830182905292820181905260608083018290526080830181905260a083015260c082015282526000199092019101816101005790505b50905060005b8281101561030957600081815260016020818152604092839020835160e08101855281548152928101546001600160a01b0390811692840192909252600281015490911692820192909252600382015460608201526004820180549192916080840191906101bb906109ca565b80601f01602080910402602001604051908101604052809291908181526020018280546101e7906109ca565b80156102345780601f1061020957610100808354040283529160200191610234565b820191906000526020600020905b81548152906001019060200180831161021757829003601f168201915b5050505050815260200160058201805461024d906109ca565b80601f0160208091040260200160405190810160405280929190818152602001828054610279906109ca565b80156102c65780601f1061029b576101008083540402835291602001916102c6565b820191906000526020600020905b8154815290600101906020018083116102a957829003601f168201915b505050505081526020016006820154815250508282815181106102eb576102eb610a04565b6020026020010181905250808061030190610a30565b91505061014e565b5092915050565b60025442906000036103ea576040805160e0810182528881526001600160a01b038089166020808401918252898316848601908152606085018a8152608086018a815260a087018a905260c087018990526002805460009081526001958690529890982087518155945193850180549487166001600160a01b03199586161790559151968401805497909516969092169590951790925590516003820155915190919060048201906103c29082610a98565b5060a082015160058201906103d79082610a98565b5060c0820151816006015590505061052b565b836001600060016002546103fe9190610b58565b815260200190815260200160002060000154146104615760405162461bcd60e51b815260206004820152601b60248201527f5472616e73616374696f6e206572726f72206f63637572726564210000000000604482015260640160405180910390fd5b6040805160e0810182528881526001600160a01b038089166020808401918252898316848601908152606085018a8152608086018a815260a087018a905260c087018990526002805460009081526001958690529890982087518155945193850180549487166001600160a01b03199586161790559151968401805497909516969092169590951790925590516003820155915190919060048201906105079082610a98565b5060a0820151600582019061051c9082610a98565b5060c082015181600601559050505b60016002600082825461053e9190610b71565b90915550506040517f30d01d358fb0899fe4d50947b2e9301c952d9eed09b14c7ecdcbeed4434557c49061057f90899089908990899087908a908a90610b84565b60405180910390a150505050505050565b6001602081905260009182526040909120805491810154600282015460038301546004840180546001600160a01b0394851695949093169391926105d3906109ca565b80601f01602080910402602001604051908101604052809291908181526020018280546105ff906109ca565b801561064c5780601f106106215761010080835404028352916020019161064c565b820191906000526020600020905b81548152906001019060200180831161062f57829003601f168201915b505050505090806005018054610661906109ca565b80601f016020809104026020016040519081016040528092919081815260200182805461068d906109ca565b80156106da5780601f106106af576101008083540402835291602001916106da565b820191906000526020600020905b8154815290600101906020018083116106bd57829003601f168201915b5050505050908060060154905087565b6000815180845260005b81811015610710576020818501810151868301820152016106f4565b506000602082860101526020601f19601f83011685010191505092915050565b60006020808301818452808551808352604092508286019150828160051b87010184880160005b838110156107ed57888303603f19018552815180518452878101516001600160a01b03908116898601528782015116878501526060808201519085015260808082015160e082870181905291906107b0838801826106ea565b9250505060a080830151868303828801526107cb83826106ea565b60c0948501519790940196909652505094870194925090860190600101610757565b509098975050505050505050565b80356001600160a01b038116811461081257600080fd5b919050565b634e487b7160e01b600052604160045260246000fd5b600082601f83011261083e57600080fd5b813567ffffffffffffffff8082111561085957610859610817565b604051601f8301601f19908116603f0116810190828211818310171561088157610881610817565b8160405283815286602085880101111561089a57600080fd5b836020870160208301376000602085830101528094505050505092915050565b60008060008060008060c087890312156108d357600080fd5b863595506108e3602088016107fb565b94506108f1604088016107fb565b935060608701359250608087013567ffffffffffffffff8082111561091557600080fd5b6109218a838b0161082d565b935060a089013591508082111561093757600080fd5b5061094489828a0161082d565b9150509295509295509295565b60006020828403121561096357600080fd5b5035919050565b8781526001600160a01b038781166020830152861660408201526060810185905260e0608082018190526000906109a3908301866106ea565b82810360a08401526109b581866106ea565b9150508260c083015298975050505050505050565b600181811c908216806109de57607f821691505b6020821081036109fe57634e487b7160e01b600052602260045260246000fd5b50919050565b634e487b7160e01b600052603260045260246000fd5b634e487b7160e01b600052601160045260246000fd5b600060018201610a4257610a42610a1a565b5060010190565b601f821115610a9357600081815260208120601f850160051c81016020861015610a705750805b601f850160051c820191505b81811015610a8f57828155600101610a7c565b5050505b505050565b815167ffffffffffffffff811115610ab257610ab2610817565b610ac681610ac084546109ca565b84610a49565b602080601f831160018114610afb5760008415610ae35750858301515b600019600386901b1c1916600185901b178555610a8f565b600085815260208120601f198616915b82811015610b2a57888601518255948401946001909101908401610b0b565b5085821015610b485787850151600019600388901b60f8161c191681555b5050505050600190811b01905550565b81810381811115610b6b57610b6b610a1a565b92915050565b80820180821115610b6b57610b6b610a1a565b8781526001600160a01b03878116602083015286166040820152606081018590526080810184905260e060a08201819052600090610bc4908301856106ea565b82810360c0840152610bd681856106ea565b9a995050505050505050505056fea2646970667358221220ad3e83d8579e9c39663418c580c249f59eddf57ba0bd58657d72b382bd72fdca64736f6c63430008130033a2646970667358221220a994cf4f75e633fdf91968215304b13c2a8154f77492929b2d1d9ed9020e076e64736f6c63430008130033",
  "immutableReferences": {},
  "source": "// SPDX-License-Identifier: MIT\r\npragma solidity >=0.4.22 <0.9.0;\r\npragma experimental ABIEncoderV2;\r\n\r\nimport \"./Crop.sol\";\r\nimport \"./Farmer.sol\";\r\nimport \"./Transporter.sol\";\r\nimport \"./Product.sol\";\r\nimport \"./Processor.sol\";\r\nimport \"./ProductW_D.sol\";\r\nimport \"./Wholesaler.sol\";\r\nimport \"./ProductD_C.sol\";\r\nimport \"./Distributor.sol\";\r\nimport \"./Customer.sol\";\r\n\r\n//// New supply chain : farmer -> transporter -> processor -> transporter -> whole-saler -> transporter -> distributor -> transporter -> customer/hospital/pharmacy\r\n\r\ncontract SupplyChain is Farmer, Transporter, Processor, Wholesaler, Distributor, Customer {\r\n    address public Owner;\r\n\r\n    constructor() {\r\n        Owner = msg.sender;\r\n    }\r\n\r\n    modifier onlyOwner() {\r\n        require(Owner == msg.sender);\r\n        _;\r\n    }\r\n\r\n    modifier checkUser(address addr) {\r\n        require(addr == msg.sender);\r\n        _;\r\n    }\r\n\r\n    enum roles {noRole, farmer, transporter, processor, wholesaler, distributor, customer}\r\n\r\n    //////////////// Events ////////////////////\r\n\r\n    event UserRegister(address indexed _address, bytes32 name);\r\n    event buyEvent(address buyer, address seller, address packageAddr, bytes32 signature, uint256 indexed now);\r\n    event respondEvent(address buyer,address seller,address packageAddr,bytes32 signature,uint256 indexed now);\r\n    event sendEvent(address seller,address buyer,address packageAddr,bytes32 signature,uint256 indexed now);\r\n    event receivedEvent(address buyer,address seller,address packageAddr,bytes32 signature,uint256 indexed now);\r\n\r\n    /////////////// Users (Only Owner Executable) //////////////////////\r\n\r\n    struct userData {\r\n        bytes32 name;\r\n        string[] userLoc;\r\n        roles role;\r\n        address userAddr;\r\n    }\r\n\r\n    mapping(address => userData) public userInfo;\r\n\r\n    function registerUser(bytes32 name,string[] memory loc,uint256 role,address _userAddr) external onlyOwner {\r\n        userInfo[_userAddr].name = name;\r\n        userInfo[_userAddr].userLoc = loc;\r\n        userInfo[_userAddr].role = roles(role);\r\n        userInfo[_userAddr].userAddr = _userAddr;\r\n\r\n        emit UserRegister(_userAddr, name);\r\n    }\r\n\r\n    function changeUserRole(uint256 _role, address _addr) external onlyOwner returns (string memory){\r\n        userInfo[_addr].role = roles(_role);\r\n        return \"Role Updated!\";\r\n    }\r\n\r\n    function getUserInfo(address _address) external view onlyOwner returns (userData memory) {\r\n        return userInfo[_address];\r\n    }\r\n\r\n    /////////////// Farmer //////////////////////\r\n\r\n    function farmerCreatesCropPackage(bytes32 _description, uint256 _quantity, address _transporterAddr,address _processorAddr) external {\r\n        require(userInfo[msg.sender].role == roles.farmer);\r\n        createCropPackage(_description,_quantity,_transporterAddr,_processorAddr);\r\n    }\r\n\r\n    function farmerGetPackageCount() external view returns (uint256) {\r\n        require(userInfo[msg.sender].role == roles.farmer);\r\n        return getNoOfPackagesOfFarmer();\r\n    }\r\n\r\n    function farmerGetRawMaterialAddresses() external view returns (address[] memory) {\r\n        address[] memory ret = getAllPackages();\r\n        return ret;\r\n    }\r\n\r\n    ///////////////  Transporter ///////////////\r\n\r\n    function transporterHandlePackage(address _address,uint256 transporterType,address cid) external {\r\n        require(userInfo[msg.sender].role == roles.transporter);\r\n        require(transporterType > 0);\r\n        handlePackage(_address, transporterType, cid);\r\n    }\r\n\r\n    ///////////////  Processor ///////////////\r\n\r\n    function processorReceivedCrops(address _addr) external {\r\n        require(userInfo[msg.sender].role == roles.processor);\r\n        processorReceivedPackage(_addr, msg.sender);\r\n    }\r\n\r\n    function processorCreatesNewProduct(bytes32 _description,address[] memory _cropAddr,uint256 _quantity,address[] memory _transporterAddr,address _receiverAddr,uint256 RcvrType) external returns (string memory) {\r\n        require(userInfo[msg.sender].role == roles.processor);\r\n        require(RcvrType != 0);\r\n        processorCreatesProduct(msg.sender,_description,_cropAddr,_quantity,_transporterAddr,_receiverAddr,RcvrType);\r\n        return \"Product created!\";\r\n    }\r\n\r\n    ///////////////  Wholesaler  ///////////////\r\n\r\n    function wholesalerReceivedProduct(address _address) external {\r\n        require(userInfo[msg.sender].role == roles.wholesaler || userInfo[msg.sender].role == roles.distributor);\r\n        productRecievedAtWholesaler(_address);\r\n    }\r\n\r\n    function transferProductW_D(address _address, address transporter, address receiver) external {\r\n        require(userInfo[msg.sender].role == roles.wholesaler && msg.sender == Product(_address).getWDC()[0]);\r\n        transferProductWtoD(_address, transporter, receiver);\r\n    }\r\n\r\n    function getBatchIdByIndexWD(uint256 index) external view returns (address packageID) {\r\n        require(userInfo[msg.sender].role == roles.wholesaler);\r\n        return ProductWtoD[msg.sender][index];\r\n    }\r\n\r\n    function getSubContractWD(address _address) external view returns (address SubContractWD) {\r\n        return ProductWtoDTxContract[_address];\r\n    }\r\n\r\n    ///////////////  Distributor  ///////////////\r\n\r\n    function distributorReceivedProduct(address _address, address cid) external {\r\n        require(userInfo[msg.sender].role == roles.distributor && msg.sender == Product(_address).getWDC()[1]);\r\n        productRecievedAtDistributor(_address, cid);\r\n    }\r\n\r\n    function distributorTransferProducttoCustomer(address _address, address transporter, address receiver) external {\r\n        require(userInfo[msg.sender].role == roles.distributor && msg.sender == Product(_address).getWDC()[1]);\r\n        transferProductDtoC(_address, transporter, receiver);\r\n    }\r\n\r\n    function getBatchesCountDC() external view returns (uint256 count) {\r\n        require(userInfo[msg.sender].role == roles.distributor);\r\n        return ProductDtoC[msg.sender].length;\r\n    }\r\n\r\n    function getBatchIdByIndexDC(uint256 index) external view returns (address packageID) {\r\n        require(userInfo[msg.sender].role == roles.distributor);\r\n        return ProductDtoC[msg.sender][index];\r\n    }\r\n\r\n    function getSubContractDC(address _address) external view returns (address SubContractDP) {\r\n        return ProductDtoCTxContract[_address];\r\n    }\r\n\r\n    ///////////////  Customer  ///////////////\r\n\r\n    function customerReceivedProduct(address _address, address cid) external {\r\n        require(userInfo[msg.sender].role == roles.customer);\r\n        productRecievedAtCustomer(_address, cid);\r\n    }\r\n\r\n    function updateStatus(address _address, uint256 Status) external {\r\n        require(userInfo[msg.sender].role == roles.customer && msg.sender == Product(_address).getWDC()[2], \"Only Customer or current\");\r\n        require(sale[_address] == salestatus(1));\r\n        updateSaleStatus(_address, Status);\r\n    }\r\n\r\n    function getSalesInfo(address _address) external view returns (uint256 Status) {\r\n        return salesInfo(_address);\r\n    }\r\n\r\n    function getBatchesCountC() external view returns (uint256 count) {\r\n        require(userInfo[msg.sender].role == roles.customer);\r\n        return ProductBatchAtCustomer[msg.sender].length;\r\n    }\r\n\r\n    function getBatchIdByIndexC(uint256 index) external view returns (address _address) {\r\n        require(userInfo[msg.sender].role == roles.customer);\r\n        return ProductBatchAtCustomer[msg.sender][index];\r\n    }\r\n}",
  "sourcePath": "C:\\Users\\Naveen\\Desktop\\FT\\FarmTrust1\\contracts\\SupplyChain.sol",
  "compiler": {
    "name": "solc",
    "version": "0.8.19+commit.7dd6d404.Emscripten.clang"
  },
  "schemaVersion": "3.4.13",
  "updatedAt": "2023-03-24T08:02:51.296Z",
  "networkType": "ethereum",
  "devdoc": {
    "kind": "dev",
    "methods": {},
    "version": 1
  },
  "userdoc": {
    "kind": "user",
    "methods": {},
    "version": 1
  }
}