{
  "contractName": "SupplyChain2",
  "abi": [
    {
      "inputs": [],
      "stateMutability": "nonpayable",
      "type": "constructor"
    },
    {
      "anonymous": false,
      "inputs": [
        {
          "indexed": false,
          "internalType": "address",
          "name": "_address",
          "type": "address"
        },
        {
          "indexed": true,
          "internalType": "address",
          "name": "Customer",
          "type": "address"
        },
        {
          "indexed": false,
          "internalType": "uint256",
          "name": "status",
          "type": "uint256"
        }
      ],
      "name": "ProductStatus",
      "type": "event"
    },
    {
      "anonymous": false,
      "inputs": [
        {
          "indexed": false,
          "internalType": "address",
          "name": "buyer",
          "type": "address"
        },
        {
          "indexed": true,
          "internalType": "address",
          "name": "seller",
          "type": "address"
        },
        {
          "indexed": false,
          "internalType": "address",
          "name": "packageAddr",
          "type": "address"
        },
        {
          "indexed": false,
          "internalType": "bytes",
          "name": "signature",
          "type": "bytes"
        },
        {
          "indexed": true,
          "internalType": "uint256",
          "name": "timestamp",
          "type": "uint256"
        }
      ],
      "name": "buyEvent",
      "type": "event"
    },
    {
      "anonymous": false,
      "inputs": [
        {
          "indexed": true,
          "internalType": "address",
          "name": "buyer",
          "type": "address"
        },
        {
          "indexed": false,
          "internalType": "address",
          "name": "seller",
          "type": "address"
        },
        {
          "indexed": false,
          "internalType": "address",
          "name": "packageAddr",
          "type": "address"
        },
        {
          "indexed": false,
          "internalType": "bytes",
          "name": "signature",
          "type": "bytes"
        },
        {
          "indexed": true,
          "internalType": "uint256",
          "name": "timestamp",
          "type": "uint256"
        }
      ],
      "name": "receivedEvent",
      "type": "event"
    },
    {
      "anonymous": false,
      "inputs": [
        {
          "indexed": true,
          "internalType": "address",
          "name": "buyer",
          "type": "address"
        },
        {
          "indexed": false,
          "internalType": "address",
          "name": "seller",
          "type": "address"
        },
        {
          "indexed": false,
          "internalType": "address",
          "name": "packageAddr",
          "type": "address"
        },
        {
          "indexed": false,
          "internalType": "bytes",
          "name": "signature",
          "type": "bytes"
        },
        {
          "indexed": true,
          "internalType": "uint256",
          "name": "timestamp",
          "type": "uint256"
        }
      ],
      "name": "respondEvent",
      "type": "event"
    },
    {
      "anonymous": false,
      "inputs": [
        {
          "indexed": false,
          "internalType": "address",
          "name": "seller",
          "type": "address"
        },
        {
          "indexed": false,
          "internalType": "address",
          "name": "buyer",
          "type": "address"
        },
        {
          "indexed": true,
          "internalType": "address",
          "name": "packageAddr",
          "type": "address"
        },
        {
          "indexed": false,
          "internalType": "bytes",
          "name": "signature",
          "type": "bytes"
        },
        {
          "indexed": true,
          "internalType": "uint256",
          "name": "timestamp",
          "type": "uint256"
        }
      ],
      "name": "sendEvent",
      "type": "event"
    },
    {
      "inputs": [],
      "name": "Owner",
      "outputs": [
        {
          "internalType": "address",
          "name": "",
          "type": "address"
        }
      ],
      "stateMutability": "view",
      "type": "function",
      "constant": true
    },
    {
      "inputs": [
        {
          "internalType": "address",
          "name": "",
          "type": "address"
        },
        {
          "internalType": "uint256",
          "name": "",
          "type": "uint256"
        }
      ],
      "name": "ProductBatchAtCustomer",
      "outputs": [
        {
          "internalType": "address",
          "name": "",
          "type": "address"
        }
      ],
      "stateMutability": "view",
      "type": "function",
      "constant": true
    },
    {
      "inputs": [
        {
          "internalType": "address",
          "name": "",
          "type": "address"
        },
        {
          "internalType": "uint256",
          "name": "",
          "type": "uint256"
        }
      ],
      "name": "ProductDtoC",
      "outputs": [
        {
          "internalType": "address",
          "name": "",
          "type": "address"
        }
      ],
      "stateMutability": "view",
      "type": "function",
      "constant": true
    },
    {
      "inputs": [
        {
          "internalType": "address",
          "name": "",
          "type": "address"
        }
      ],
      "name": "ProductDtoCTxContract",
      "outputs": [
        {
          "internalType": "address",
          "name": "",
          "type": "address"
        }
      ],
      "stateMutability": "view",
      "type": "function",
      "constant": true
    },
    {
      "inputs": [
        {
          "internalType": "address",
          "name": "",
          "type": "address"
        },
        {
          "internalType": "uint256",
          "name": "",
          "type": "uint256"
        }
      ],
      "name": "ProductWtoD",
      "outputs": [
        {
          "internalType": "address",
          "name": "",
          "type": "address"
        }
      ],
      "stateMutability": "view",
      "type": "function",
      "constant": true
    },
    {
      "inputs": [
        {
          "internalType": "address",
          "name": "",
          "type": "address"
        }
      ],
      "name": "ProductWtoDTxContract",
      "outputs": [
        {
          "internalType": "address",
          "name": "",
          "type": "address"
        }
      ],
      "stateMutability": "view",
      "type": "function",
      "constant": true
    },
    {
      "inputs": [
        {
          "internalType": "address",
          "name": "",
          "type": "address"
        },
        {
          "internalType": "uint256",
          "name": "",
          "type": "uint256"
        }
      ],
      "name": "ProductsAtDistributor",
      "outputs": [
        {
          "internalType": "address",
          "name": "",
          "type": "address"
        }
      ],
      "stateMutability": "view",
      "type": "function",
      "constant": true
    },
    {
      "inputs": [
        {
          "internalType": "address",
          "name": "",
          "type": "address"
        },
        {
          "internalType": "uint256",
          "name": "",
          "type": "uint256"
        }
      ],
      "name": "ProductsAtWholesaler",
      "outputs": [
        {
          "internalType": "address",
          "name": "",
          "type": "address"
        }
      ],
      "stateMutability": "view",
      "type": "function",
      "constant": true
    },
    {
      "inputs": [
        {
          "internalType": "uint256",
          "name": "",
          "type": "uint256"
        }
      ],
      "name": "customers",
      "outputs": [
        {
          "internalType": "address",
          "name": "",
          "type": "address"
        }
      ],
      "stateMutability": "view",
      "type": "function",
      "constant": true
    },
    {
      "inputs": [
        {
          "internalType": "uint256",
          "name": "",
          "type": "uint256"
        }
      ],
      "name": "distributors",
      "outputs": [
        {
          "internalType": "address",
          "name": "",
          "type": "address"
        }
      ],
      "stateMutability": "view",
      "type": "function",
      "constant": true
    },
    {
      "inputs": [
        {
          "internalType": "uint256",
          "name": "",
          "type": "uint256"
        }
      ],
      "name": "farmers",
      "outputs": [
        {
          "internalType": "address",
          "name": "",
          "type": "address"
        }
      ],
      "stateMutability": "view",
      "type": "function",
      "constant": true
    },
    {
      "inputs": [],
      "name": "getAllProductAtDistributor",
      "outputs": [
        {
          "internalType": "address[]",
          "name": "",
          "type": "address[]"
        }
      ],
      "stateMutability": "view",
      "type": "function",
      "constant": true
    },
    {
      "inputs": [
        {
          "internalType": "uint256",
          "name": "",
          "type": "uint256"
        }
      ],
      "name": "processors",
      "outputs": [
        {
          "internalType": "address",
          "name": "",
          "type": "address"
        }
      ],
      "stateMutability": "view",
      "type": "function",
      "constant": true
    },
    {
      "inputs": [
        {
          "internalType": "address",
          "name": "_address",
          "type": "address"
        },
        {
          "internalType": "address",
          "name": "cid",
          "type": "address"
        }
      ],
      "name": "productRecievedAtCustomer",
      "outputs": [],
      "stateMutability": "nonpayable",
      "type": "function"
    },
    {
      "inputs": [
        {
          "internalType": "address",
          "name": "_address",
          "type": "address"
        },
        {
          "internalType": "address",
          "name": "cid",
          "type": "address"
        }
      ],
      "name": "productRecievedAtDistributor",
      "outputs": [],
      "stateMutability": "nonpayable",
      "type": "function"
    },
    {
      "inputs": [
        {
          "internalType": "address",
          "name": "_address",
          "type": "address"
        }
      ],
      "name": "productRecievedAtWholesaler",
      "outputs": [],
      "stateMutability": "nonpayable",
      "type": "function"
    },
    {
      "inputs": [
        {
          "internalType": "address",
          "name": "",
          "type": "address"
        }
      ],
      "name": "sale",
      "outputs": [
        {
          "internalType": "enum Customer.salestatus",
          "name": "",
          "type": "uint8"
        }
      ],
      "stateMutability": "view",
      "type": "function",
      "constant": true
    },
    {
      "inputs": [
        {
          "internalType": "address",
          "name": "_address",
          "type": "address"
        }
      ],
      "name": "salesInfo",
      "outputs": [
        {
          "internalType": "uint256",
          "name": "Status",
          "type": "uint256"
        }
      ],
      "stateMutability": "view",
      "type": "function",
      "constant": true
    },
    {
      "inputs": [
        {
          "internalType": "address",
          "name": "_address",
          "type": "address"
        },
        {
          "internalType": "address",
          "name": "transporter",
          "type": "address"
        },
        {
          "internalType": "address",
          "name": "receiver",
          "type": "address"
        }
      ],
      "name": "transferProductDtoC",
      "outputs": [],
      "stateMutability": "nonpayable",
      "type": "function"
    },
    {
      "inputs": [
        {
          "internalType": "address",
          "name": "_address",
          "type": "address"
        },
        {
          "internalType": "address",
          "name": "transporter",
          "type": "address"
        },
        {
          "internalType": "address",
          "name": "receiver",
          "type": "address"
        }
      ],
      "name": "transferProductWtoD",
      "outputs": [],
      "stateMutability": "nonpayable",
      "type": "function"
    },
    {
      "inputs": [
        {
          "internalType": "uint256",
          "name": "",
          "type": "uint256"
        }
      ],
      "name": "transporters",
      "outputs": [
        {
          "internalType": "address",
          "name": "",
          "type": "address"
        }
      ],
      "stateMutability": "view",
      "type": "function",
      "constant": true
    },
    {
      "inputs": [
        {
          "internalType": "address",
          "name": "_address",
          "type": "address"
        },
        {
          "internalType": "uint256",
          "name": "Status",
          "type": "uint256"
        }
      ],
      "name": "updateSaleStatus",
      "outputs": [],
      "stateMutability": "nonpayable",
      "type": "function"
    },
    {
      "inputs": [
        {
          "internalType": "address",
          "name": "",
          "type": "address"
        }
      ],
      "name": "userInfo",
      "outputs": [
        {
          "internalType": "bytes32",
          "name": "name",
          "type": "bytes32"
        },
        {
          "internalType": "enum roles",
          "name": "role",
          "type": "uint8"
        },
        {
          "internalType": "address",
          "name": "userAddr",
          "type": "address"
        }
      ],
      "stateMutability": "view",
      "type": "function",
      "constant": true
    },
    {
      "inputs": [
        {
          "internalType": "uint256",
          "name": "",
          "type": "uint256"
        }
      ],
      "name": "wholesalers",
      "outputs": [
        {
          "internalType": "address",
          "name": "",
          "type": "address"
        }
      ],
      "stateMutability": "view",
      "type": "function",
      "constant": true
    },
    {
      "inputs": [
        {
          "internalType": "address",
          "name": "buyer",
          "type": "address"
        },
        {
          "internalType": "address",
          "name": "seller",
          "type": "address"
        },
        {
          "internalType": "address",
          "name": "packageAddr",
          "type": "address"
        },
        {
          "internalType": "bytes",
          "name": "signature",
          "type": "bytes"
        }
      ],
      "name": "requestProduct",
      "outputs": [],
      "stateMutability": "nonpayable",
      "type": "function"
    },
    {
      "inputs": [
        {
          "internalType": "address",
          "name": "buyer",
          "type": "address"
        },
        {
          "internalType": "address",
          "name": "seller",
          "type": "address"
        },
        {
          "internalType": "address",
          "name": "packageAddr",
          "type": "address"
        },
        {
          "internalType": "bytes",
          "name": "signature",
          "type": "bytes"
        }
      ],
      "name": "respondToEntity",
      "outputs": [],
      "stateMutability": "nonpayable",
      "type": "function"
    },
    {
      "inputs": [
        {
          "internalType": "address",
          "name": "buyer",
          "type": "address"
        },
        {
          "internalType": "address",
          "name": "seller",
          "type": "address"
        },
        {
          "internalType": "address",
          "name": "packageAddr",
          "type": "address"
        },
        {
          "internalType": "bytes",
          "name": "signature",
          "type": "bytes"
        }
      ],
      "name": "sendPackageToEntity",
      "outputs": [],
      "stateMutability": "nonpayable",
      "type": "function"
    },
    {
      "inputs": [
        {
          "internalType": "address",
          "name": "p",
          "type": "address"
        },
        {
          "internalType": "bytes32",
          "name": "hash",
          "type": "bytes32"
        },
        {
          "internalType": "uint8",
          "name": "v",
          "type": "uint8"
        },
        {
          "internalType": "bytes32",
          "name": "r",
          "type": "bytes32"
        },
        {
          "internalType": "bytes32",
          "name": "s",
          "type": "bytes32"
        }
      ],
      "name": "verify",
      "outputs": [
        {
          "internalType": "bool",
          "name": "",
          "type": "bool"
        }
      ],
      "stateMutability": "pure",
      "type": "function",
      "constant": true
    },
    {
      "inputs": [
        {
          "internalType": "address",
          "name": "_address",
          "type": "address"
        }
      ],
      "name": "wholesalerReceivedProduct",
      "outputs": [],
      "stateMutability": "nonpayable",
      "type": "function"
    },
    {
      "inputs": [],
      "name": "getAllProcessors",
      "outputs": [
        {
          "internalType": "address[]",
          "name": "",
          "type": "address[]"
        }
      ],
      "stateMutability": "view",
      "type": "function",
      "constant": true
    },
    {
      "inputs": [
        {
          "internalType": "address",
          "name": "_address",
          "type": "address"
        },
        {
          "internalType": "address",
          "name": "transporter",
          "type": "address"
        },
        {
          "internalType": "address",
          "name": "receiver",
          "type": "address"
        }
      ],
      "name": "transferProductW_D",
      "outputs": [],
      "stateMutability": "nonpayable",
      "type": "function"
    },
    {
      "inputs": [
        {
          "internalType": "uint256",
          "name": "index",
          "type": "uint256"
        }
      ],
      "name": "getBatchIdByIndexWD",
      "outputs": [
        {
          "internalType": "address",
          "name": "packageID",
          "type": "address"
        }
      ],
      "stateMutability": "view",
      "type": "function",
      "constant": true
    },
    {
      "inputs": [
        {
          "internalType": "address",
          "name": "_address",
          "type": "address"
        }
      ],
      "name": "getSubContractWD",
      "outputs": [
        {
          "internalType": "address",
          "name": "SubContractWD",
          "type": "address"
        }
      ],
      "stateMutability": "view",
      "type": "function",
      "constant": true
    },
    {
      "inputs": [
        {
          "internalType": "address",
          "name": "_address",
          "type": "address"
        },
        {
          "internalType": "address",
          "name": "cid",
          "type": "address"
        }
      ],
      "name": "distributorReceivedProduct",
      "outputs": [],
      "stateMutability": "nonpayable",
      "type": "function"
    },
    {
      "inputs": [
        {
          "internalType": "address",
          "name": "_address",
          "type": "address"
        },
        {
          "internalType": "address",
          "name": "transporter",
          "type": "address"
        },
        {
          "internalType": "address",
          "name": "receiver",
          "type": "address"
        }
      ],
      "name": "distributorTransferProducttoCustomer",
      "outputs": [],
      "stateMutability": "nonpayable",
      "type": "function"
    },
    {
      "inputs": [],
      "name": "getAllWholesalers",
      "outputs": [
        {
          "internalType": "address[]",
          "name": "",
          "type": "address[]"
        }
      ],
      "stateMutability": "view",
      "type": "function",
      "constant": true
    },
    {
      "inputs": [],
      "name": "getBatchesCountDC",
      "outputs": [
        {
          "internalType": "uint256",
          "name": "count",
          "type": "uint256"
        }
      ],
      "stateMutability": "view",
      "type": "function",
      "constant": true
    },
    {
      "inputs": [
        {
          "internalType": "uint256",
          "name": "index",
          "type": "uint256"
        }
      ],
      "name": "getBatchIdByIndexDC",
      "outputs": [
        {
          "internalType": "address",
          "name": "packageID",
          "type": "address"
        }
      ],
      "stateMutability": "view",
      "type": "function",
      "constant": true
    },
    {
      "inputs": [
        {
          "internalType": "address",
          "name": "_address",
          "type": "address"
        }
      ],
      "name": "getSubContractDC",
      "outputs": [
        {
          "internalType": "address",
          "name": "SubContractDP",
          "type": "address"
        }
      ],
      "stateMutability": "view",
      "type": "function",
      "constant": true
    },
    {
      "inputs": [],
      "name": "distributerGetAllProducts",
      "outputs": [
        {
          "internalType": "address[]",
          "name": "",
          "type": "address[]"
        }
      ],
      "stateMutability": "view",
      "type": "function",
      "constant": true
    },
    {
      "inputs": [
        {
          "internalType": "address",
          "name": "_address",
          "type": "address"
        },
        {
          "internalType": "address",
          "name": "cid",
          "type": "address"
        }
      ],
      "name": "customerReceivedProduct",
      "outputs": [],
      "stateMutability": "nonpayable",
      "type": "function"
    },
    {
      "inputs": [
        {
          "internalType": "address",
          "name": "_address",
          "type": "address"
        },
        {
          "internalType": "uint256",
          "name": "Status",
          "type": "uint256"
        }
      ],
      "name": "updateStatus",
      "outputs": [],
      "stateMutability": "nonpayable",
      "type": "function"
    },
    {
      "inputs": [],
      "name": "getAllDistributors",
      "outputs": [
        {
          "internalType": "address[]",
          "name": "",
          "type": "address[]"
        }
      ],
      "stateMutability": "view",
      "type": "function",
      "constant": true
    },
    {
      "inputs": [
        {
          "internalType": "address",
          "name": "_address",
          "type": "address"
        }
      ],
      "name": "getSalesInfo",
      "outputs": [
        {
          "internalType": "uint256",
          "name": "Status",
          "type": "uint256"
        }
      ],
      "stateMutability": "view",
      "type": "function",
      "constant": true
    },
    {
      "inputs": [],
      "name": "getBatchesCountC",
      "outputs": [
        {
          "internalType": "uint256",
          "name": "count",
          "type": "uint256"
        }
      ],
      "stateMutability": "view",
      "type": "function",
      "constant": true
    },
    {
      "inputs": [
        {
          "internalType": "uint256",
          "name": "index",
          "type": "uint256"
        }
      ],
      "name": "getBatchIdByIndexC",
      "outputs": [
        {
          "internalType": "address",
          "name": "_address",
          "type": "address"
        }
      ],
      "stateMutability": "view",
      "type": "function",
      "constant": true
    }
  ],
  "bytecode": "0x608060405234801561001057600080fd5b50600f80546001600160a01b031916331790556125e1806100326000396000f3fe60806040523480156200001157600080fd5b5060043610620002c05760003560e01c80639af035a31162000179578063bb8ee1c511620000df578063d06f7b551162000092578063d06f7b5514620006f7578063e0cf92fe146200070e578063eae3c2071462000725578063fc23328c146200073c578063fccd10761462000753578063fe7c58e9146200076a57600080fd5b8063bb8ee1c5146200067a578063c0abda2a1462000691578063c253c1f414620006a8578063cd34765614620006bf578063cd55152e14620006d6578063d067e17214620006e057600080fd5b8063ab2910f41162000138578063ab2910f41462000600578063af3368f21462000617578063b427ee371462000621578063b4a99a4e1462000638578063b6bc3067146200064c578063b8b16ca3146200066357600080fd5b80639af035a314620005855780639c1ba94a146200059c5780639c45eac114620005b3578063a232c13014620005bd578063a4d886b214620005e957600080fd5b806334759016116200022b57806362c1fe3911620001de57806362c1fe3914620004d257806375df268414620005015780637cecb2de14620005365780637f001847146200054d5780638afdd66914620005645780638e24c34b146200057b57600080fd5b806334759016146200040857806344f89a4a1462000437578063506535f3146200046357806350b492ba146200048b57806357bd4c7a14620004a25780636065415914620004bb57600080fd5b8063164bcd5b1162000284578063164bcd5b14620003525780631959a00214620003695780631af7399414620003b7578063290fcfb114620003d057806329c2a87714620003da57806331e0afc214620003f157600080fd5b806230b47614620002c557806303e18be214620002de5780630bf89a89146200030d5780630dedb1c71462000324578063110b3077146200033b575b600080fd5b620002dc620002d6366004620017e8565b62000781565b005b620002f5620002ef3660046200183a565b62000844565b60405162000304919062001869565b60405180910390f35b620002dc6200031e366004620017e8565b6200087d565b620002dc62000335366004620017e8565b6200093e565b620002f56200034c3660046200183a565b620009d8565b620002f5620003633660046200187d565b620009f5565b620003a66200037a36600462001897565b600e602052600090815260409020805460029091015460ff81169061010090046001600160a01b031683565b6040516200030493929190620018d4565b620003c162000a6d565b6040516200030491906200190d565b620003c162000ab8565b620002f5620003eb3660046200187d565b62000b1c565b620002dc620004023660046200183a565b62000b47565b620002f56200041936600462001897565b6001600160a01b039081166000908152600260205260409020541690565b620002f56200044836600462001897565b6002602052600090815260409020546001600160a01b031681565b6200047a620004743660046200195c565b62000c8a565b604051901515815260200162000304565b620002f56200049c3660046200187d565b62000d09565b620004ac62000d1a565b60405190815260200162000304565b620002dc620004cc366004620019b8565b62000d67565b620002f5620004e336600462001897565b6001600160a01b039081166000908152600560205260409020541690565b620005276200051236600462001897565b60076020526000908152604090205460ff1681565b604051620003049190620019f6565b620002f5620005473660046200183a565b62000daa565b620002f56200055e3660046200183a565b62000dc7565b620002f5620005753660046200187d565b62000de4565b620003c162000df5565b620002f5620005963660046200187d565b62000e57565b620002f5620005ad3660046200187d565b62000eb4565b620003c162000f11565b620002f5620005ce36600462001897565b6005602052600090815260409020546001600160a01b031681565b620004ac620005fa36600462001897565b62001004565b620002dc62000611366004620019b8565b62001011565b620003c1620011ab565b620002dc62000632366004620017e8565b6200120d565b600f54620002f5906001600160a01b031681565b620002f56200065d3660046200183a565b620012a8565b620002dc6200067436600462001a5d565b620012c5565b620004ac6200068b36600462001897565b62001313565b620002f5620006a23660046200187d565b62001343565b620002dc620006b936600462001897565b62001354565b620002dc620006d036600462001897565b62001412565b620004ac6200148c565b620002dc620006f1366004620019b8565b620014d9565b620002dc6200070836600462001a5d565b62001599565b620002dc6200071f36600462001a5d565b620015d9565b620002dc620007363660046200183a565b62001619565b620002f56200074d3660046200187d565b620016b0565b620002dc62000764366004620019b8565b620016c1565b620002f56200077b3660046200187d565b620017a5565b6004336000908152600e602052604090206002015460ff166006811115620007ad57620007ad620018be565b148015620008285750826001600160a01b031663abb428a66040518163ffffffff1660e01b8152600401606060405180830381865afa158015620007f5573d6000803e3d6000fd5b505050506040513d601f19601f820116820180604052508101906200081b919062001b39565b516001600160a01b031633145b6200083257600080fd5b6200083f8383836200093e565b505050565b600660205281600052604060002081815481106200086157600080fd5b6000918252602090912001546001600160a01b03169150829050565b6005336000908152600e602052604090206002015460ff166006811115620008a957620008a9620018be565b148015620009275750826001600160a01b031663abb428a66040518163ffffffff1660e01b8152600401606060405180830381865afa158015620008f1573d6000803e3d6000fd5b505050506040513d601f19601f8201168201806040525081019062000917919062001b39565b602001516001600160a01b031633145b6200093157600080fd5b6200083f8383836200120d565b6000833384846040516200095290620017b6565b62000961949392919062001be0565b604051809103906000f0801580156200097e573d6000803e3d6000fd5b5033600090815260016020818152604080842080549384018155845281842090920180546001600160a01b039586166001600160a01b03199182168117909255989094168352600290529020805490951617909355505050565b600460205281600052604060002081815481106200086157600080fd5b60006005336000908152600e602052604090206002015460ff16600681111562000a235762000a23620018be565b1462000a2e57600080fd5b33600090815260046020526040902080548390811062000a525762000a5262001bca565b6000918252602090912001546001600160a01b031692915050565b60606005336000908152600e602052604090206002015460ff16600681111562000a9b5762000a9b620018be565b1462000aa657600080fd5b600062000ab262000f11565b92915050565b6060600b80548060200260200160405190810160405280929190818152602001828054801562000b1257602002820191906000526020600020905b81546001600160a01b0316815260019091019060200180831162000af3575b5050505050905090565b6009818154811062000b2d57600080fd5b6000918252602090912001546001600160a01b0316905081565b6006336000908152600e602052604090206002015460ff16600681111562000b735762000b73620018be565b14801562000bf15750816001600160a01b031663abb428a66040518163ffffffff1660e01b8152600401606060405180830381865afa15801562000bbb573d6000803e3d6000fd5b505050506040513d601f19601f8201168201806040525081019062000be1919062001b39565b604001516001600160a01b031633145b62000c3d5760405162461bcd60e51b815260206004820152601860248201527713db9b1e4810dd5cdd1bdb595c881bdc8818dd5c9c995b9d60421b604482015260640160405180910390fd5b60016001600160a01b03831660009081526007602052604090205460ff16600481111562000c6f5762000c6f620018be565b1462000c7a57600080fd5b62000c86828262001619565b5050565b6040805160008082526020820180845287905260ff86169282019290925260608101849052608081018390526001600160a01b0387169060019060a0016020604051602081039080840390855afa15801562000cea573d6000803e3d6000fd5b505050602060405103516001600160a01b031614905095945050505050565b600c818154811062000b2d57600080fd5b60006006336000908152600e602052604090206002015460ff16600681111562000d485762000d48620018be565b1462000d5357600080fd5b503360009081526006602052604090205490565b6006336000908152600e602052604090206002015460ff16600681111562000d935762000d93620018be565b1462000d9e57600080fd5b62000c868282620016c1565b600060205281600052604060002081815481106200086157600080fd5b600360205281600052604060002081815481106200086157600080fd5b6008818154811062000b2d57600080fd5b6060600c80548060200260200160405190810160405280929190818152602001828054801562000b12576020028201919060005260206000209081546001600160a01b0316815260019091019060200180831162000af3575050505050905090565b60006004336000908152600e602052604090206002015460ff16600681111562000e855762000e85620018be565b1462000e9057600080fd5b33600090815260016020526040902080548390811062000a525762000a5262001bca565b60006006336000908152600e602052604090206002015460ff16600681111562000ee25762000ee2620018be565b1462000eed57600080fd5b33600090815260066020526040902080548390811062000a525762000a5262001bca565b336000908152600360205260408120546060918167ffffffffffffffff81111562000f405762000f4062001a13565b60405190808252806020026020018201604052801562000f6a578160200160208202803683370190505b50905060005b8281101562000ffd5733600090815260036020526040902080548290811062000f9d5762000f9d62001bca565b9060005260206000200160009054906101000a90046001600160a01b031682828151811062000fd05762000fd062001bca565b6001600160a01b03909216602092830291909101909101528062000ff48162001c0b565b91505062000f70565b5092915050565b600062000ab28262001313565b604051639296057b60e01b81526000906001600160a01b03841690639296057b906200104290339060040162001869565b6020604051808303816000875af115801562001062573d6000803e3d6000fd5b505050506040513d601f19601f8201168201806040525081019062001088919062001c33565b9050806002036200083f57336000908152600360209081526040808320805460018101825590845291832090910180546001600160a01b0319166001600160a01b03871690811790915581516355da145360e11b81529151909163abb428a69160048083019260609291908290030181865afa1580156200110d573d6000803e3d6000fd5b505050506040513d601f19601f8201168201806040525081019062001133919062001b39565b516001600160a01b0316146200083f5760405163d7dcbe3b60e01b81526001600160a01b03848116600483015233602483015283169063d7dcbe3b90604401600060405180830381600087803b1580156200118d57600080fd5b505af1158015620011a2573d6000803e3d6000fd5b50505050505050565b6060600a80548060200260200160405190810160405280929190818152602001828054801562000b12576020028201919060005260206000209081546001600160a01b0316815260019091019060200180831162000af3575050505050905090565b6000833384846040516200122190620017c4565b62001230949392919062001be0565b604051809103906000f0801580156200124d573d6000803e3d6000fd5b5033600090815260046020908152604080832080546001810182559084528284200180546001600160a01b039586166001600160a01b0319918216811790925598909416835260059091529020805490951617909355505050565b600160205281600052604060002081815481106200086157600080fd5b42836001600160a01b03167f22561ca0666e99052dd8231a6c5c337204ed5658c357aa6afcd53c207acfac67868585604051620013059392919062001c4d565b60405180910390a350505050565b6001600160a01b03811660009081526007602052604081205460ff16600481111562000ab25762000ab2620018be565b600d818154811062000b2d57600080fd5b604051639296057b60e01b81526000906001600160a01b03831690639296057b906200138590339060040162001869565b6020604051808303816000875af1158015620013a5573d6000803e3d6000fd5b505050506040513d601f19601f82011682018060405250810190620013cb919062001c33565b90508060010362000c8657336000908152602081815260408220805460018101825590835291200180546001600160a01b0384166001600160a01b03199091161790555050565b6004336000908152600e602052604090206002015460ff1660068111156200143e576200143e620018be565b14806200147457506005336000908152600e602052604090206002015460ff166006811115620014725762001472620018be565b145b6200147e57600080fd5b620014898162001354565b50565b60006005336000908152600e602052604090206002015460ff166006811115620014ba57620014ba620018be565b14620014c557600080fd5b503360009081526004602052604090205490565b6005336000908152600e602052604090206002015460ff166006811115620015055762001505620018be565b148015620015835750816001600160a01b031663abb428a66040518163ffffffff1660e01b8152600401606060405180830381865afa1580156200154d573d6000803e3d6000fd5b505050506040513d601f19601f8201168201806040525081019062001573919062001b39565b602001516001600160a01b031633145b6200158d57600080fd5b62000c86828262001011565b42826001600160a01b03167f31f87de04fd141167b8131be7a8ccb2bac63361a15671c96d90c39ddc9ef909d858785604051620013059392919062001c4d565b42846001600160a01b03167f9151271dfe612a18bf915ee1609e6f94f62fd775c704a0ae2ef091519f0c9b39858585604051620013059392919062001c4d565b8060048111156200162e576200162e620018be565b6001600160a01b0383166000908152600760205260409020805460ff19166001836004811115620016635762001663620018be565b0217905550604080516001600160a01b03841681526020810183905233917fccec82c925d72dd2aa8d8b6eaa04ce67d3cbcffbfd3c646bd72b0206339c1d60910160405180910390a25050565b600b818154811062000b2d57600080fd5b604051637bd6ee1f60e11b81526001600160a01b03838116600483015233602483015282169063f7addc3e90604401600060405180830381600087803b1580156200170b57600080fd5b505af115801562001720573d6000803e3d6000fd5b50503360009081526006602090815260408220805460018082018355918452919092200180546001600160a01b0319166001600160a01b0387161790559150620017679050565b6001600160a01b0383166000908152600760205260409020805460ff191660018360048111156200179c576200179c620018be565b02179055505050565b600a818154811062000b2d57600080fd5b6104778062001cba83390190565b61047b806200213183390190565b6001600160a01b03811681146200148957600080fd5b600080600060608486031215620017fe57600080fd5b83356200180b81620017d2565b925060208401356200181d81620017d2565b915060408401356200182f81620017d2565b809150509250925092565b600080604083850312156200184e57600080fd5b82356200185b81620017d2565b946020939093013593505050565b6001600160a01b0391909116815260200190565b6000602082840312156200189057600080fd5b5035919050565b600060208284031215620018aa57600080fd5b8135620018b781620017d2565b9392505050565b634e487b7160e01b600052602160045260246000fd5b8381526060810160078410620018ee57620018ee620018be565b60208201939093526001600160a01b0391909116604090910152919050565b6020808252825182820181905260009190848201906040850190845b81811015620019505783516001600160a01b03168352928401929184019160010162001929565b50909695505050505050565b600080600080600060a086880312156200197557600080fd5b85356200198281620017d2565b945060208601359350604086013560ff81168114620019a057600080fd5b94979396509394606081013594506080013592915050565b60008060408385031215620019cc57600080fd5b8235620019d981620017d2565b91506020830135620019eb81620017d2565b809150509250929050565b602081016005831062001a0d5762001a0d620018be565b91905290565b634e487b7160e01b600052604160045260246000fd5b604051601f8201601f1916810167ffffffffffffffff8111828210171562001a555762001a5562001a13565b604052919050565b6000806000806080858703121562001a7457600080fd5b843562001a8181620017d2565b935060208581013562001a9481620017d2565b9350604086013562001aa681620017d2565b9250606086013567ffffffffffffffff8082111562001ac457600080fd5b818801915088601f83011262001ad957600080fd5b81358181111562001aee5762001aee62001a13565b62001b02601f8201601f1916850162001a29565b9150808252898482850101111562001b1957600080fd5b808484018584013760008482840101525080935050505092959194509250565b60006060828403121562001b4c57600080fd5b82601f83011262001b5c57600080fd5b6040516060810181811067ffffffffffffffff8211171562001b825762001b8262001a13565b60405280606084018581111562001b9857600080fd5b845b8181101562001bbf57805162001bb081620017d2565b83526020928301920162001b9a565b509195945050505050565b634e487b7160e01b600052603260045260246000fd5b6001600160a01b03948516815292841660208401529083166040830152909116606082015260800190565b60006001820162001c2c57634e487b7160e01b600052601160045260246000fd5b5060010190565b60006020828403121562001c4657600080fd5b5051919050565b600060018060a01b038086168352602081861681850152606060408501528451915081606085015260005b8281101562001c965785810182015185820160800152810162001c78565b50506000608082850101526080601f19601f83011684010191505094935050505056fe608060405234801561001057600080fd5b5060405161047738038061047783398101604081905261002f916100b6565b600080546001600160a01b039485166001600160a01b0319918216811790925560018054968616968216969096179095556002805486169091179055600380549284169290941691909117909255600480546001600160a81b0319169290911691909117905561010a565b80516001600160a01b03811681146100b157600080fd5b919050565b600080600080608085870312156100cc57600080fd5b6100d58561009a565b93506100e36020860161009a565b92506100f16040860161009a565b91506100ff6060860161009a565b905092959194509250565b61035e806101196000396000f3fe608060405234801561001057600080fd5b506004361061004c5760003560e01c8063443c28d814610051578063bfcf7f2f14610066578063d2f3fcc714610096578063d7dcbe3b146100b0575b600080fd5b61006461005f3660046102bd565b6100c3565b005b6100646100743660046102f0565b600380546001600160a01b0319166001600160a01b0392909216919091179055565b61009e6101bd565b60405190815260200160405180910390f35b6100646100be3660046102bd565b6101e3565b6003546001600160a01b0382811691161461013d5760405162461bcd60e51b815260206004820152602f60248201527f4f6e6c79204173736f63696174656420736869707065722063616e2063616c6c60448201526e103a3434b990333ab731ba34b7b71760891b60648201526084015b60405180910390fd5b60048054600160a01b60ff60a01b19821617825560025460405163f5c0e38360e01b81526001600160a01b03928316938101939093528116602483015283169063f5c0e383906044015b600060405180830381600087803b1580156101a157600080fd5b505af11580156101b5573d6000803e3d6000fd5b505050505050565b600454600090600160a01b900460ff1660028111156101de576101de610312565b905090565b6004546001600160a01b038281169116146102595760405162461bcd60e51b815260206004820152603060248201527f4f6e6c79204173736f6369617465642072656365697665722063616e2063616c60448201526f36103a3434b990333ab731ba34b7b71760811b6064820152608401610134565b600480546002919060ff60a01b1916600160a01b8302179055506040516393a668b760e01b81526001600160a01b0382811660048301528316906393a668b790602401610187565b80356001600160a01b03811681146102b857600080fd5b919050565b600080604083850312156102d057600080fd5b6102d9836102a1565b91506102e7602084016102a1565b90509250929050565b60006020828403121561030257600080fd5b61030b826102a1565b9392505050565b634e487b7160e01b600052602160045260246000fdfea264697066735822122042aa683b946de474e7e5aad48962e37ee7a955f0fcf0ec89d0ad6a01e677b8a664736f6c63430008130033608060405234801561001057600080fd5b5060405161047b38038061047b83398101604081905261002f916100b6565b600080546001600160a01b039485166001600160a01b0319918216811790925560018054968616968216969096179095556002805486169091179055600380549284169290941691909117909255600480546001600160a81b0319169290911691909117905561010a565b80516001600160a01b03811681146100b157600080fd5b919050565b600080600080608085870312156100cc57600080fd5b6100d58561009a565b93506100e36020860161009a565b92506100f16040860161009a565b91506100ff6060860161009a565b905092959194509250565b610362806101196000396000f3fe608060405234801561001057600080fd5b506004361061004c5760003560e01c806353157b1a14610051578063bfcf7f2f14610066578063c0114d0614610096578063f7addc3e146100b0575b600080fd5b61006461005f3660046102c1565b6100c3565b005b6100646100743660046102f4565b600380546001600160a01b0319166001600160a01b0392909216919091179055565b61009e6101c1565b60405190815260200160405180910390f35b6100646100be3660046102c1565b6101e7565b6003546001600160a01b038281169116146101415760405162461bcd60e51b815260206004820152603360248201527f4f6e6c79204173736f636961746564207472616e73706f727465722063616e2060448201527231b0b636103a3434b990333ab731ba34b7b71760691b60648201526084015b60405180910390fd5b60048054600160a01b60ff60a01b1982161782556002546040516305e3aeb160e31b81526001600160a01b039283169381019390935281166024830152831690632f1d7588906044015b600060405180830381600087803b1580156101a557600080fd5b505af11580156101b9573d6000803e3d6000fd5b505050505050565b600454600090600160a01b900460ff1660028111156101e2576101e2610316565b905090565b6004546001600160a01b0382811691161461025d5760405162461bcd60e51b815260206004820152603060248201527f4f6e6c79204173736f6369617465642072656365697665722063616e2063616c60448201526f36103a3434b990333ab731ba34b7b71760811b6064820152608401610138565b600480546002919060ff60a01b1916600160a01b83021790555060405163c8f5f18960e01b81526001600160a01b03828116600483015283169063c8f5f1899060240161018b565b80356001600160a01b03811681146102bc57600080fd5b919050565b600080604083850312156102d457600080fd5b6102dd836102a5565b91506102eb602084016102a5565b90509250929050565b60006020828403121561030657600080fd5b61030f826102a5565b9392505050565b634e487b7160e01b600052602160045260246000fdfea2646970667358221220db644f05e452144e55e556d34a96f27e92761046350126073a9ddd9b653b535f64736f6c63430008130033a26469706673582212204062fe7f67fca6e584e9c6ab45e0b85bfcbcc5980f4b6dad8e12e604e87903a064736f6c63430008130033",
  "immutableReferences": {},
  "source": "// SPDX-License-Identifier: MIT\r\npragma solidity ^0.8.0;\r\n\r\npragma experimental ABIEncoderV2;\r\n\r\n\r\nimport \"./Crop.sol\";\r\nimport \"./Farmer.sol\";\r\nimport \"./Transporter.sol\";\r\nimport \"./Product.sol\";\r\nimport \"./Processor.sol\";\r\nimport \"./ProductW_D.sol\";\r\nimport \"./Wholesaler.sol\";\r\nimport \"./ProductD_C.sol\";\r\nimport \"./Distributor.sol\";\r\nimport \"./Customer.sol\";\r\nimport \"./SupplyChain.sol\";\r\nimport \"./UserData.sol\";\r\n\r\n//// New supply chain : farmer -> transporter -> processor -> transporter -> whole-saler -> transporter -> distributor -> transporter -> customer/hospital/pharmacy\r\n\r\ncontract SupplyChain2 is Wholesaler, Distributor, Customer, UserData {\r\n    address public Owner;\r\n\r\n\r\n    //create a variable for crops that are for sale\r\n\r\n    constructor() {\r\n        Owner = msg.sender;\r\n    }\r\n\r\n    modifier onlyOwner() {\r\n        require(Owner == msg.sender);\r\n        _;\r\n    }\r\n\r\n//     modifier checkUser(address addr) {\r\n//         require(addr == msg.sender);\r\n//         _;\r\n//     }\r\n\r\n//     enum roles {noRolenoRole, farmer, transporter, processor, wholesaler, distributor, customer}\r\n\r\n//     //////////////// Events ////////////////////\r\n\r\n    //event UserRegister(address indexed _address, bytes32 name);\r\n    event buyEvent(address buyer, address indexed seller, address packageAddr, bytes signature, uint indexed timestamp);\r\n    event respondEvent(address indexed buyer, address seller, address packageAddr, bytes signature, uint indexed timestamp);\r\n    event sendEvent(address seller, address buyer, address indexed packageAddr, bytes signature, uint indexed timestamp);\r\n    event receivedEvent(address indexed buyer, address seller, address packageAddr, bytes signature, uint indexed timestamp);\r\n\r\n//////////////// Event functions (All entities) ////////////////////\r\n\r\n    \r\n    function requestProduct(address buyer, address seller, address packageAddr, bytes memory signature) public {\r\n        emit buyEvent(buyer, seller, packageAddr, signature, block.timestamp);\r\n    }\r\n    \r\n    function respondToEntity(address buyer, address seller, address packageAddr, bytes memory signature) public {\r\n        emit respondEvent(buyer, seller, packageAddr, signature, block.timestamp);\r\n    }\r\n    \r\n    function sendPackageToEntity(address buyer, address seller, address packageAddr, bytes memory signature) public {\r\n        emit sendEvent(seller, buyer, packageAddr, signature, block.timestamp);\r\n    }\r\n\r\n    //verify Package\r\n    function verify(address p, bytes32 hash, uint8 v, bytes32 r, bytes32 s) public pure returns(bool) {\r\n        return ecrecover(hash, v, r, s) == p;\r\n    } \r\n    /////////////// Users (Only Owner Executable) //////////////////////\r\n\r\n    // struct userData {\r\n    //     bytes32 name;\r\n    //     string[] userLoc;\r\n    //     roles role;\r\n    //     address userAddr;\r\n    // }\r\n\r\n    // mapping(address => userData) public userInfo;\r\n\r\n    // function registerUser(bytes32 name,string[] memory loc,uint256 role,address _userAddr) external onlyOwner {\r\n    //     userInfo[_userAddr].name = name;\r\n    //     userInfo[_userAddr].userLoc = loc;\r\n    //     userInfo[_userAddr].role = roles(role);\r\n    //     userInfo[_userAddr].userAddr = _userAddr;\r\n\r\n    //     emit UserRegister(_userAddr, name);\r\n    // }\r\n\r\n    // function changeUserRole(uint256 _role, address _addr) external onlyOwner returns (string memory){\r\n    //     userInfo[_addr].role = roles(_role);\r\n    //     return \"Role Updated!\";\r\n    // }\r\n\r\n    // function getUserInfo(address _address) external view onlyOwner returns (userData memory) {\r\n    //     return userInfo[_address];\r\n    // }\r\n\r\n    \r\n\r\n\r\n    \r\n    ///////////////  Wholesaler  ///////////////\r\n\r\n    function wholesalerReceivedProduct(address _address) external {\r\n        require(userInfo[msg.sender].role == roles.wholesaler || userInfo[msg.sender].role == roles.distributor);\r\n        productRecievedAtWholesaler(_address);\r\n    }\r\n\r\n    function getAllProcessors() public view returns (address[] memory){\r\n        return processors;\r\n    }\r\n\r\n    function transferProductW_D(address _address, address transporter, address receiver) external {\r\n        require(userInfo[msg.sender].role == roles.wholesaler && msg.sender == Product(_address).getWDC()[0]);\r\n        transferProductWtoD(_address, transporter, receiver);\r\n    }\r\n\r\n    function getBatchIdByIndexWD(uint256 index) external view returns (address packageID) {\r\n        require(userInfo[msg.sender].role == roles.wholesaler);\r\n        return ProductWtoD[msg.sender][index];\r\n    }\r\n\r\n    function getSubContractWD(address _address) external view returns (address SubContractWD) {\r\n        return ProductWtoDTxContract[_address];\r\n    }\r\n    \r\n    ///////////////  Distributor  ///////////////\r\n\r\n    function distributorReceivedProduct(address _address, address cid) external {\r\n        require(userInfo[msg.sender].role == roles.distributor && msg.sender == Product(_address).getWDC()[1]);\r\n        productRecievedAtDistributor(_address, cid);\r\n    }\r\n\r\n    function distributorTransferProducttoCustomer(address _address, address transporter, address receiver) external {\r\n        require(userInfo[msg.sender].role == roles.distributor && msg.sender == Product(_address).getWDC()[1]);\r\n        transferProductDtoC(_address, transporter, receiver);\r\n    }\r\n\r\n    function getAllWholesalers() public view returns (address[] memory){\r\n        return wholesalers;\r\n    }\r\n\r\n    function getBatchesCountDC() external view returns (uint256 count) {\r\n        require(userInfo[msg.sender].role == roles.distributor);\r\n        return ProductDtoC[msg.sender].length;\r\n    }\r\n\r\n    function getBatchIdByIndexDC(uint256 index) external view returns (address packageID) {\r\n        require(userInfo[msg.sender].role == roles.distributor);\r\n        return ProductDtoC[msg.sender][index];\r\n    }\r\n\r\n    function getSubContractDC(address _address) external view returns (address SubContractDP) {\r\n        return ProductDtoCTxContract[_address];\r\n    }\r\n\r\n    function distributerGetAllProducts() public view returns(address[] memory) {\r\n        require(userInfo[msg.sender].role == roles.distributor);\r\n        address[] memory products = getAllProductAtDistributor();\r\n        return products;\r\n    }\r\n\r\n    ///////////////  Customer  ///////////////\r\n\r\n    function customerReceivedProduct(address _address, address cid) external {\r\n        require(userInfo[msg.sender].role == roles.customer);\r\n        productRecievedAtCustomer(_address, cid);\r\n    }\r\n\r\n    function updateStatus(address _address, uint256 Status) external {\r\n        require(userInfo[msg.sender].role == roles.customer && msg.sender == Product(_address).getWDC()[2], \"Only Customer or current\");\r\n        require(sale[_address] == salestatus(1));\r\n        updateSaleStatus(_address, Status);\r\n    }\r\n\r\n    function getAllDistributors() public view returns (address[] memory){\r\n        return distributors;\r\n    }\r\n\r\n    function getSalesInfo(address _address) external view returns (uint256 Status) {\r\n        return salesInfo(_address);\r\n    }\r\n\r\n    function getBatchesCountC() external view returns (uint256 count) {\r\n        require(userInfo[msg.sender].role == roles.customer);\r\n        return ProductBatchAtCustomer[msg.sender].length;\r\n    }\r\n\r\n    function getBatchIdByIndexC(uint256 index) external view returns (address _address) {\r\n        require(userInfo[msg.sender].role == roles.customer);\r\n        return ProductBatchAtCustomer[msg.sender][index];\r\n    }\r\n}",
  "sourcePath": "D:\\Projects\\FarmTrust1\\contracts\\SupplyChain2.sol",
  "compiler": {
    "name": "solc",
    "version": "0.8.19+commit.7dd6d404.Emscripten.clang"
  },
  "schemaVersion": "3.4.13",
  "updatedAt": "2023-05-07T07:47:46.448Z",
  "networkType": "ethereum",
  "devdoc": {
    "kind": "dev",
    "methods": {},
    "version": 1
  },
  "userdoc": {
    "kind": "user",
    "methods": {},
    "version": 1
  }
}