{
  "contractName": "SupplyChain2",
  "abi": [
    {
      "inputs": [],
      "stateMutability": "nonpayable",
      "type": "constructor"
    },
    {
      "anonymous": false,
      "inputs": [
        {
          "indexed": false,
          "internalType": "address",
          "name": "_address",
          "type": "address"
        },
        {
          "indexed": true,
          "internalType": "address",
          "name": "Customer",
          "type": "address"
        },
        {
          "indexed": false,
          "internalType": "uint256",
          "name": "status",
          "type": "uint256"
        }
      ],
      "name": "ProductStatus",
      "type": "event"
    },
    {
      "anonymous": false,
      "inputs": [
        {
          "indexed": false,
          "internalType": "address",
          "name": "buyer",
          "type": "address"
        },
        {
          "indexed": true,
          "internalType": "address",
          "name": "seller",
          "type": "address"
        },
        {
          "indexed": false,
          "internalType": "address",
          "name": "packageAddr",
          "type": "address"
        },
        {
          "indexed": false,
          "internalType": "bytes",
          "name": "signature",
          "type": "bytes"
        },
        {
          "indexed": true,
          "internalType": "uint256",
          "name": "timestamp",
          "type": "uint256"
        }
      ],
      "name": "buyEvent",
      "type": "event"
    },
    {
      "anonymous": false,
      "inputs": [
        {
          "indexed": true,
          "internalType": "address",
          "name": "buyer",
          "type": "address"
        },
        {
          "indexed": false,
          "internalType": "address",
          "name": "seller",
          "type": "address"
        },
        {
          "indexed": false,
          "internalType": "address",
          "name": "packageAddr",
          "type": "address"
        },
        {
          "indexed": false,
          "internalType": "bytes",
          "name": "signature",
          "type": "bytes"
        },
        {
          "indexed": true,
          "internalType": "uint256",
          "name": "timestamp",
          "type": "uint256"
        }
      ],
      "name": "receivedEvent",
      "type": "event"
    },
    {
      "anonymous": false,
      "inputs": [
        {
          "indexed": true,
          "internalType": "address",
          "name": "buyer",
          "type": "address"
        },
        {
          "indexed": false,
          "internalType": "address",
          "name": "seller",
          "type": "address"
        },
        {
          "indexed": false,
          "internalType": "address",
          "name": "packageAddr",
          "type": "address"
        },
        {
          "indexed": false,
          "internalType": "bytes",
          "name": "signature",
          "type": "bytes"
        },
        {
          "indexed": true,
          "internalType": "uint256",
          "name": "timestamp",
          "type": "uint256"
        }
      ],
      "name": "respondEvent",
      "type": "event"
    },
    {
      "anonymous": false,
      "inputs": [
        {
          "indexed": false,
          "internalType": "address",
          "name": "seller",
          "type": "address"
        },
        {
          "indexed": false,
          "internalType": "address",
          "name": "buyer",
          "type": "address"
        },
        {
          "indexed": true,
          "internalType": "address",
          "name": "packageAddr",
          "type": "address"
        },
        {
          "indexed": false,
          "internalType": "bytes",
          "name": "signature",
          "type": "bytes"
        },
        {
          "indexed": true,
          "internalType": "uint256",
          "name": "timestamp",
          "type": "uint256"
        }
      ],
      "name": "sendEvent",
      "type": "event"
    },
    {
      "inputs": [],
      "name": "Owner",
      "outputs": [
        {
          "internalType": "address",
          "name": "",
          "type": "address"
        }
      ],
      "stateMutability": "view",
      "type": "function",
      "constant": true
    },
    {
      "inputs": [
        {
          "internalType": "address",
          "name": "",
          "type": "address"
        },
        {
          "internalType": "uint256",
          "name": "",
          "type": "uint256"
        }
      ],
      "name": "ProductBatchAtCustomer",
      "outputs": [
        {
          "internalType": "address",
          "name": "",
          "type": "address"
        }
      ],
      "stateMutability": "view",
      "type": "function",
      "constant": true
    },
    {
      "inputs": [
        {
          "internalType": "address",
          "name": "",
          "type": "address"
        },
        {
          "internalType": "uint256",
          "name": "",
          "type": "uint256"
        }
      ],
      "name": "ProductDtoC",
      "outputs": [
        {
          "internalType": "address",
          "name": "",
          "type": "address"
        }
      ],
      "stateMutability": "view",
      "type": "function",
      "constant": true
    },
    {
      "inputs": [
        {
          "internalType": "address",
          "name": "",
          "type": "address"
        }
      ],
      "name": "ProductDtoCTxContract",
      "outputs": [
        {
          "internalType": "address",
          "name": "",
          "type": "address"
        }
      ],
      "stateMutability": "view",
      "type": "function",
      "constant": true
    },
    {
      "inputs": [
        {
          "internalType": "address",
          "name": "",
          "type": "address"
        },
        {
          "internalType": "uint256",
          "name": "",
          "type": "uint256"
        }
      ],
      "name": "ProductWtoD",
      "outputs": [
        {
          "internalType": "address",
          "name": "",
          "type": "address"
        }
      ],
      "stateMutability": "view",
      "type": "function",
      "constant": true
    },
    {
      "inputs": [
        {
          "internalType": "address",
          "name": "",
          "type": "address"
        }
      ],
      "name": "ProductWtoDTxContract",
      "outputs": [
        {
          "internalType": "address",
          "name": "",
          "type": "address"
        }
      ],
      "stateMutability": "view",
      "type": "function",
      "constant": true
    },
    {
      "inputs": [
        {
          "internalType": "address",
          "name": "",
          "type": "address"
        },
        {
          "internalType": "uint256",
          "name": "",
          "type": "uint256"
        }
      ],
      "name": "ProductsAtDistributor",
      "outputs": [
        {
          "internalType": "address",
          "name": "",
          "type": "address"
        }
      ],
      "stateMutability": "view",
      "type": "function",
      "constant": true
    },
    {
      "inputs": [
        {
          "internalType": "address",
          "name": "",
          "type": "address"
        },
        {
          "internalType": "uint256",
          "name": "",
          "type": "uint256"
        }
      ],
      "name": "ProductsAtWholesaler",
      "outputs": [
        {
          "internalType": "address",
          "name": "",
          "type": "address"
        }
      ],
      "stateMutability": "view",
      "type": "function",
      "constant": true
    },
    {
      "inputs": [
        {
          "internalType": "address",
          "name": "_address",
          "type": "address"
        },
        {
          "internalType": "address",
          "name": "cid",
          "type": "address"
        }
      ],
      "name": "productRecievedAtCustomer",
      "outputs": [],
      "stateMutability": "nonpayable",
      "type": "function"
    },
    {
      "inputs": [
        {
          "internalType": "address",
          "name": "_address",
          "type": "address"
        },
        {
          "internalType": "address",
          "name": "cid",
          "type": "address"
        }
      ],
      "name": "productRecievedAtDistributor",
      "outputs": [],
      "stateMutability": "nonpayable",
      "type": "function"
    },
    {
      "inputs": [
        {
          "internalType": "address",
          "name": "_address",
          "type": "address"
        }
      ],
      "name": "productRecievedAtWholesaler",
      "outputs": [],
      "stateMutability": "nonpayable",
      "type": "function"
    },
    {
      "inputs": [
        {
          "internalType": "address",
          "name": "",
          "type": "address"
        }
      ],
      "name": "sale",
      "outputs": [
        {
          "internalType": "enum Customer.salestatus",
          "name": "",
          "type": "uint8"
        }
      ],
      "stateMutability": "view",
      "type": "function",
      "constant": true
    },
    {
      "inputs": [
        {
          "internalType": "address",
          "name": "_address",
          "type": "address"
        }
      ],
      "name": "salesInfo",
      "outputs": [
        {
          "internalType": "uint256",
          "name": "Status",
          "type": "uint256"
        }
      ],
      "stateMutability": "view",
      "type": "function",
      "constant": true
    },
    {
      "inputs": [
        {
          "internalType": "address",
          "name": "_address",
          "type": "address"
        },
        {
          "internalType": "address",
          "name": "transporter",
          "type": "address"
        },
        {
          "internalType": "address",
          "name": "receiver",
          "type": "address"
        }
      ],
      "name": "transferProductDtoC",
      "outputs": [],
      "stateMutability": "nonpayable",
      "type": "function"
    },
    {
      "inputs": [
        {
          "internalType": "address",
          "name": "_address",
          "type": "address"
        },
        {
          "internalType": "address",
          "name": "transporter",
          "type": "address"
        },
        {
          "internalType": "address",
          "name": "receiver",
          "type": "address"
        }
      ],
      "name": "transferProductWtoD",
      "outputs": [],
      "stateMutability": "nonpayable",
      "type": "function"
    },
    {
      "inputs": [
        {
          "internalType": "address",
          "name": "_address",
          "type": "address"
        },
        {
          "internalType": "uint256",
          "name": "Status",
          "type": "uint256"
        }
      ],
      "name": "updateSaleStatus",
      "outputs": [],
      "stateMutability": "nonpayable",
      "type": "function"
    },
    {
      "inputs": [
        {
          "internalType": "address",
          "name": "",
          "type": "address"
        }
      ],
      "name": "userInfo",
      "outputs": [
        {
          "internalType": "bytes32",
          "name": "name",
          "type": "bytes32"
        },
        {
          "internalType": "enum roles",
          "name": "role",
          "type": "uint8"
        },
        {
          "internalType": "address",
          "name": "userAddr",
          "type": "address"
        }
      ],
      "stateMutability": "view",
      "type": "function",
      "constant": true
    },
    {
      "inputs": [
        {
          "internalType": "address",
          "name": "buyer",
          "type": "address"
        },
        {
          "internalType": "address",
          "name": "seller",
          "type": "address"
        },
        {
          "internalType": "address",
          "name": "packageAddr",
          "type": "address"
        },
        {
          "internalType": "bytes",
          "name": "signature",
          "type": "bytes"
        }
      ],
      "name": "requestProduct",
      "outputs": [],
      "stateMutability": "nonpayable",
      "type": "function"
    },
    {
      "inputs": [
        {
          "internalType": "address",
          "name": "buyer",
          "type": "address"
        },
        {
          "internalType": "address",
          "name": "seller",
          "type": "address"
        },
        {
          "internalType": "address",
          "name": "packageAddr",
          "type": "address"
        },
        {
          "internalType": "bytes",
          "name": "signature",
          "type": "bytes"
        }
      ],
      "name": "respondToEntity",
      "outputs": [],
      "stateMutability": "nonpayable",
      "type": "function"
    },
    {
      "inputs": [
        {
          "internalType": "address",
          "name": "buyer",
          "type": "address"
        },
        {
          "internalType": "address",
          "name": "seller",
          "type": "address"
        },
        {
          "internalType": "address",
          "name": "packageAddr",
          "type": "address"
        },
        {
          "internalType": "bytes",
          "name": "signature",
          "type": "bytes"
        }
      ],
      "name": "sendPackageToEntity",
      "outputs": [],
      "stateMutability": "nonpayable",
      "type": "function"
    },
    {
      "inputs": [
        {
          "internalType": "address",
          "name": "_address",
          "type": "address"
        }
      ],
      "name": "wholesalerReceivedProduct",
      "outputs": [],
      "stateMutability": "nonpayable",
      "type": "function"
    },
    {
      "inputs": [
        {
          "internalType": "address",
          "name": "_address",
          "type": "address"
        },
        {
          "internalType": "address",
          "name": "transporter",
          "type": "address"
        },
        {
          "internalType": "address",
          "name": "receiver",
          "type": "address"
        }
      ],
      "name": "transferProductW_D",
      "outputs": [],
      "stateMutability": "nonpayable",
      "type": "function"
    },
    {
      "inputs": [
        {
          "internalType": "uint256",
          "name": "index",
          "type": "uint256"
        }
      ],
      "name": "getBatchIdByIndexWD",
      "outputs": [
        {
          "internalType": "address",
          "name": "packageID",
          "type": "address"
        }
      ],
      "stateMutability": "view",
      "type": "function",
      "constant": true
    },
    {
      "inputs": [
        {
          "internalType": "address",
          "name": "_address",
          "type": "address"
        }
      ],
      "name": "getSubContractWD",
      "outputs": [
        {
          "internalType": "address",
          "name": "SubContractWD",
          "type": "address"
        }
      ],
      "stateMutability": "view",
      "type": "function",
      "constant": true
    },
    {
      "inputs": [
        {
          "internalType": "address",
          "name": "_address",
          "type": "address"
        },
        {
          "internalType": "address",
          "name": "cid",
          "type": "address"
        }
      ],
      "name": "distributorReceivedProduct",
      "outputs": [],
      "stateMutability": "nonpayable",
      "type": "function"
    },
    {
      "inputs": [
        {
          "internalType": "address",
          "name": "_address",
          "type": "address"
        },
        {
          "internalType": "address",
          "name": "transporter",
          "type": "address"
        },
        {
          "internalType": "address",
          "name": "receiver",
          "type": "address"
        }
      ],
      "name": "distributorTransferProducttoCustomer",
      "outputs": [],
      "stateMutability": "nonpayable",
      "type": "function"
    },
    {
      "inputs": [],
      "name": "getBatchesCountDC",
      "outputs": [
        {
          "internalType": "uint256",
          "name": "count",
          "type": "uint256"
        }
      ],
      "stateMutability": "view",
      "type": "function",
      "constant": true
    },
    {
      "inputs": [
        {
          "internalType": "uint256",
          "name": "index",
          "type": "uint256"
        }
      ],
      "name": "getBatchIdByIndexDC",
      "outputs": [
        {
          "internalType": "address",
          "name": "packageID",
          "type": "address"
        }
      ],
      "stateMutability": "view",
      "type": "function",
      "constant": true
    },
    {
      "inputs": [
        {
          "internalType": "address",
          "name": "_address",
          "type": "address"
        }
      ],
      "name": "getSubContractDC",
      "outputs": [
        {
          "internalType": "address",
          "name": "SubContractDP",
          "type": "address"
        }
      ],
      "stateMutability": "view",
      "type": "function",
      "constant": true
    },
    {
      "inputs": [
        {
          "internalType": "address",
          "name": "_address",
          "type": "address"
        },
        {
          "internalType": "address",
          "name": "cid",
          "type": "address"
        }
      ],
      "name": "customerReceivedProduct",
      "outputs": [],
      "stateMutability": "nonpayable",
      "type": "function"
    },
    {
      "inputs": [
        {
          "internalType": "address",
          "name": "_address",
          "type": "address"
        },
        {
          "internalType": "uint256",
          "name": "Status",
          "type": "uint256"
        }
      ],
      "name": "updateStatus",
      "outputs": [],
      "stateMutability": "nonpayable",
      "type": "function"
    },
    {
      "inputs": [
        {
          "internalType": "address",
          "name": "_address",
          "type": "address"
        }
      ],
      "name": "getSalesInfo",
      "outputs": [
        {
          "internalType": "uint256",
          "name": "Status",
          "type": "uint256"
        }
      ],
      "stateMutability": "view",
      "type": "function",
      "constant": true
    },
    {
      "inputs": [],
      "name": "getBatchesCountC",
      "outputs": [
        {
          "internalType": "uint256",
          "name": "count",
          "type": "uint256"
        }
      ],
      "stateMutability": "view",
      "type": "function",
      "constant": true
    },
    {
      "inputs": [
        {
          "internalType": "uint256",
          "name": "index",
          "type": "uint256"
        }
      ],
      "name": "getBatchIdByIndexC",
      "outputs": [
        {
          "internalType": "address",
          "name": "_address",
          "type": "address"
        }
      ],
      "stateMutability": "view",
      "type": "function",
      "constant": true
    }
  ],
  "bytecode": "0x608060405234801561001057600080fd5b50600980546001600160a01b03191633179055611f2e806100326000396000f3fe60806040523480156200001157600080fd5b5060043610620001ec5760003560e01c80639c1ba94a116200010f578063bb8ee1c511620000aa578063bb8ee1c514620004f8578063c253c1f4146200050f578063cd3476561462000526578063cd55152e146200053d578063d067e1721462000547578063d06f7b55146200055e578063e0cf92fe1462000575578063eae3c207146200058c578063fccd107614620005a357600080fd5b80639c1ba94a146200042e578063a232c1301462000445578063a4d886b21462000471578063ab2910f41462000488578063b427ee37146200049f578063b4a99a4e14620004b6578063b6bc306714620004ca578063b8b16ca314620004e157600080fd5b806334759016116200018c5780633475901614620002fa57806344f89a4a146200032957806357bd4c7a146200035557806360654159146200036e57806362c1fe39146200038557806375df268414620003b45780637cecb2de14620003e95780637f00184714620004005780639af035a3146200041757600080fd5b806230b47614620001f157806303e18be2146200020a5780630bf89a8914620002395780630dedb1c71462000250578063110b30771462000267578063164bcd5b146200027e5780631959a002146200029557806331e0afc214620002e3575b600080fd5b6200020862000202366004620012c2565b620005ba565b005b620002216200021b36600462001314565b6200067d565b60405162000230919062001343565b60405180910390f35b620002086200024a366004620012c2565b620006b6565b6200020862000261366004620012c2565b62000777565b620002216200027836600462001314565b62000811565b620002216200028f36600462001357565b6200082e565b620002d2620002a636600462001371565b6008602052600090815260409020805460029091015460ff81169061010090046001600160a01b031683565b6040516200023093929190620013ae565b62000208620002f436600462001314565b620008a6565b620002216200030b36600462001371565b6001600160a01b039081166000908152600260205260409020541690565b620002216200033a36600462001371565b6002602052600090815260409020546001600160a01b031681565b6200035f620009e9565b60405190815260200162000230565b620002086200037f366004620013e7565b62000a36565b620002216200039636600462001371565b6001600160a01b039081166000908152600560205260409020541690565b620003da620003c536600462001371565b60076020526000908152604090205460ff1681565b60405162000230919062001425565b62000221620003fa36600462001314565b62000a79565b620002216200041136600462001314565b62000a96565b620002216200042836600462001357565b62000ab3565b620002216200043f36600462001357565b62000b10565b620002216200045636600462001371565b6005602052600090815260409020546001600160a01b031681565b6200035f6200048236600462001371565b62000b6d565b6200020862000499366004620013e7565b62000b80565b62000208620004b0366004620012c2565b62000d1a565b60095462000221906001600160a01b031681565b62000221620004db36600462001314565b62000db5565b62000208620004f23660046200148c565b62000dd2565b6200035f6200050936600462001371565b62000e20565b620002086200052036600462001371565b62000e50565b620002086200053736600462001371565b62000f0e565b6200035f62000f88565b6200020862000558366004620013e7565b62000fd5565b620002086200056f3660046200148c565b62001095565b62000208620005863660046200148c565b620010d5565b620002086200059d36600462001314565b62001115565b62000208620005b4366004620013e7565b620011ac565b60043360009081526008602052604090206002015460ff166006811115620005e657620005e662001398565b148015620006615750826001600160a01b031663abb428a66040518163ffffffff1660e01b8152600401606060405180830381865afa1580156200062e573d6000803e3d6000fd5b505050506040513d601f19601f8201168201806040525081019062000654919062001568565b516001600160a01b031633145b6200066b57600080fd5b6200067883838362000777565b505050565b600660205281600052604060002081815481106200069a57600080fd5b6000918252602090912001546001600160a01b03169150829050565b60053360009081526008602052604090206002015460ff166006811115620006e257620006e262001398565b148015620007605750826001600160a01b031663abb428a66040518163ffffffff1660e01b8152600401606060405180830381865afa1580156200072a573d6000803e3d6000fd5b505050506040513d601f19601f8201168201806040525081019062000750919062001568565b602001516001600160a01b031633145b6200076a57600080fd5b6200067883838362000d1a565b6000833384846040516200078b9062001290565b6200079a94939291906200160f565b604051809103906000f080158015620007b7573d6000803e3d6000fd5b5033600090815260016020818152604080842080549384018155845281842090920180546001600160a01b039586166001600160a01b03199182168117909255989094168352600290529020805490951617909355505050565b600460205281600052604060002081815481106200069a57600080fd5b600060053360009081526008602052604090206002015460ff1660068111156200085c576200085c62001398565b146200086757600080fd5b3360009081526004602052604090208054839081106200088b576200088b620015f9565b6000918252602090912001546001600160a01b031692915050565b60063360009081526008602052604090206002015460ff166006811115620008d257620008d262001398565b148015620009505750816001600160a01b031663abb428a66040518163ffffffff1660e01b8152600401606060405180830381865afa1580156200091a573d6000803e3d6000fd5b505050506040513d601f19601f8201168201806040525081019062000940919062001568565b604001516001600160a01b031633145b6200099c5760405162461bcd60e51b815260206004820152601860248201527713db9b1e4810dd5cdd1bdb595c881bdc8818dd5c9c995b9d60421b604482015260640160405180910390fd5b60016001600160a01b03831660009081526007602052604090205460ff166004811115620009ce57620009ce62001398565b14620009d957600080fd5b620009e5828262001115565b5050565b600060063360009081526008602052604090206002015460ff16600681111562000a175762000a1762001398565b1462000a2257600080fd5b503360009081526006602052604090205490565b60063360009081526008602052604090206002015460ff16600681111562000a625762000a6262001398565b1462000a6d57600080fd5b620009e58282620011ac565b600060205281600052604060002081815481106200069a57600080fd5b600360205281600052604060002081815481106200069a57600080fd5b600060043360009081526008602052604090206002015460ff16600681111562000ae15762000ae162001398565b1462000aec57600080fd5b3360009081526001602052604090208054839081106200088b576200088b620015f9565b600060063360009081526008602052604090206002015460ff16600681111562000b3e5762000b3e62001398565b1462000b4957600080fd5b3360009081526006602052604090208054839081106200088b576200088b620015f9565b600062000b7a8262000e20565b92915050565b604051639296057b60e01b81526000906001600160a01b03841690639296057b9062000bb190339060040162001343565b6020604051808303816000875af115801562000bd1573d6000803e3d6000fd5b505050506040513d601f19601f8201168201806040525081019062000bf791906200163a565b9050806002036200067857336000908152600360209081526040808320805460018101825590845291832090910180546001600160a01b0319166001600160a01b03871690811790915581516355da145360e11b81529151909163abb428a69160048083019260609291908290030181865afa15801562000c7c573d6000803e3d6000fd5b505050506040513d601f19601f8201168201806040525081019062000ca2919062001568565b516001600160a01b031614620006785760405163d7dcbe3b60e01b81526001600160a01b03848116600483015233602483015283169063d7dcbe3b90604401600060405180830381600087803b15801562000cfc57600080fd5b505af115801562000d11573d6000803e3d6000fd5b50505050505050565b60008333848460405162000d2e906200129e565b62000d3d94939291906200160f565b604051809103906000f08015801562000d5a573d6000803e3d6000fd5b5033600090815260046020908152604080832080546001810182559084528284200180546001600160a01b039586166001600160a01b0319918216811790925598909416835260059091529020805490951617909355505050565b600160205281600052604060002081815481106200069a57600080fd5b42836001600160a01b03167f22561ca0666e99052dd8231a6c5c337204ed5658c357aa6afcd53c207acfac6786858560405162000e129392919062001654565b60405180910390a350505050565b6001600160a01b03811660009081526007602052604081205460ff16600481111562000b7a5762000b7a62001398565b604051639296057b60e01b81526000906001600160a01b03831690639296057b9062000e8190339060040162001343565b6020604051808303816000875af115801562000ea1573d6000803e3d6000fd5b505050506040513d601f19601f8201168201806040525081019062000ec791906200163a565b905080600103620009e557336000908152602081815260408220805460018101825590835291200180546001600160a01b0384166001600160a01b03199091161790555050565b60043360009081526008602052604090206002015460ff16600681111562000f3a5762000f3a62001398565b148062000f70575060053360009081526008602052604090206002015460ff16600681111562000f6e5762000f6e62001398565b145b62000f7a57600080fd5b62000f858162000e50565b50565b600060053360009081526008602052604090206002015460ff16600681111562000fb65762000fb662001398565b1462000fc157600080fd5b503360009081526004602052604090205490565b60053360009081526008602052604090206002015460ff16600681111562001001576200100162001398565b1480156200107f5750816001600160a01b031663abb428a66040518163ffffffff1660e01b8152600401606060405180830381865afa15801562001049573d6000803e3d6000fd5b505050506040513d601f19601f820116820180604052508101906200106f919062001568565b602001516001600160a01b031633145b6200108957600080fd5b620009e5828262000b80565b42826001600160a01b03167f31f87de04fd141167b8131be7a8ccb2bac63361a15671c96d90c39ddc9ef909d85878560405162000e129392919062001654565b42846001600160a01b03167f9151271dfe612a18bf915ee1609e6f94f62fd775c704a0ae2ef091519f0c9b3985858560405162000e129392919062001654565b8060048111156200112a576200112a62001398565b6001600160a01b0383166000908152600760205260409020805460ff191660018360048111156200115f576200115f62001398565b0217905550604080516001600160a01b03841681526020810183905233917fccec82c925d72dd2aa8d8b6eaa04ce67d3cbcffbfd3c646bd72b0206339c1d60910160405180910390a25050565b604051637bd6ee1f60e11b81526001600160a01b03838116600483015233602483015282169063f7addc3e90604401600060405180830381600087803b158015620011f657600080fd5b505af11580156200120b573d6000803e3d6000fd5b50503360009081526006602090815260408220805460018082018355918452919092200180546001600160a01b0319166001600160a01b0387161790559150620012529050565b6001600160a01b0383166000908152600760205260409020805460ff1916600183600481111562001287576200128762001398565b02179055505050565b61041a80620016c183390190565b61041e8062001adb83390190565b6001600160a01b038116811462000f8557600080fd5b600080600060608486031215620012d857600080fd5b8335620012e581620012ac565b92506020840135620012f781620012ac565b915060408401356200130981620012ac565b809150509250925092565b600080604083850312156200132857600080fd5b82356200133581620012ac565b946020939093013593505050565b6001600160a01b0391909116815260200190565b6000602082840312156200136a57600080fd5b5035919050565b6000602082840312156200138457600080fd5b81356200139181620012ac565b9392505050565b634e487b7160e01b600052602160045260246000fd5b8381526060810160078410620013c857620013c862001398565b60208201939093526001600160a01b0391909116604090910152919050565b60008060408385031215620013fb57600080fd5b82356200140881620012ac565b915060208301356200141a81620012ac565b809150509250929050565b60208101600583106200143c576200143c62001398565b91905290565b634e487b7160e01b600052604160045260246000fd5b604051601f8201601f1916810167ffffffffffffffff8111828210171562001484576200148462001442565b604052919050565b60008060008060808587031215620014a357600080fd5b8435620014b081620012ac565b9350602085810135620014c381620012ac565b93506040860135620014d581620012ac565b9250606086013567ffffffffffffffff80821115620014f357600080fd5b818801915088601f8301126200150857600080fd5b8135818111156200151d576200151d62001442565b62001531601f8201601f1916850162001458565b915080825289848285010111156200154857600080fd5b808484018584013760008482840101525080935050505092959194509250565b6000606082840312156200157b57600080fd5b82601f8301126200158b57600080fd5b6040516060810181811067ffffffffffffffff82111715620015b157620015b162001442565b604052806060840185811115620015c757600080fd5b845b81811015620015ee578051620015df81620012ac565b835260209283019201620015c9565b509195945050505050565b634e487b7160e01b600052603260045260246000fd5b6001600160a01b03948516815292841660208401529083166040830152909116606082015260800190565b6000602082840312156200164d57600080fd5b5051919050565b600060018060a01b038086168352602081861681850152606060408501528451915081606085015260005b828110156200169d578581018201518582016080015281016200167f565b50506000608082850101526080601f19601f83011684010191505094935050505056fe608060405234801561001057600080fd5b5060405161041a38038061041a83398101604081905261002f916100b6565b600080546001600160a01b039485166001600160a01b0319918216811790925560018054968616968216969096179095556002805486169091179055600380549284169290941691909117909255600480546001600160a81b0319169290911691909117905561010a565b80516001600160a01b03811681146100b157600080fd5b919050565b600080600080608085870312156100cc57600080fd5b6100d58561009a565b93506100e36020860161009a565b92506100f16040860161009a565b91506100ff6060860161009a565b905092959194509250565b610301806101196000396000f3fe608060405234801561001057600080fd5b50600436106100415760003560e01c8063443c28d814610046578063d2f3fcc71461005b578063d7dcbe3b14610075575b600080fd5b610059610054366004610282565b610088565b005b610063610182565b60405190815260200160405180910390f35b610059610083366004610282565b6101a8565b6003546001600160a01b038281169116146101025760405162461bcd60e51b815260206004820152602f60248201527f4f6e6c79204173736f63696174656420736869707065722063616e2063616c6c60448201526e103a3434b990333ab731ba34b7b71760891b60648201526084015b60405180910390fd5b60048054600160a01b60ff60a01b19821617825560025460405163f5c0e38360e01b81526001600160a01b03928316938101939093528116602483015283169063f5c0e383906044015b600060405180830381600087803b15801561016657600080fd5b505af115801561017a573d6000803e3d6000fd5b505050505050565b600454600090600160a01b900460ff1660028111156101a3576101a36102b5565b905090565b6004546001600160a01b0382811691161461021e5760405162461bcd60e51b815260206004820152603060248201527f4f6e6c79204173736f6369617465642072656365697665722063616e2063616c60448201526f36103a3434b990333ab731ba34b7b71760811b60648201526084016100f9565b600480546002919060ff60a01b1916600160a01b8302179055506040516393a668b760e01b81526001600160a01b0382811660048301528316906393a668b79060240161014c565b80356001600160a01b038116811461027d57600080fd5b919050565b6000806040838503121561029557600080fd5b61029e83610266565b91506102ac60208401610266565b90509250929050565b634e487b7160e01b600052602160045260246000fdfea2646970667358221220dded0d20a6efe599cca298e00c387756010f4d7d09ea7038177eb2dc298163ed64736f6c63430008130033608060405234801561001057600080fd5b5060405161041e38038061041e83398101604081905261002f916100b6565b600080546001600160a01b039485166001600160a01b0319918216811790925560018054968616968216969096179095556002805486169091179055600380549284169290941691909117909255600480546001600160a81b0319169290911691909117905561010a565b80516001600160a01b03811681146100b157600080fd5b919050565b600080600080608085870312156100cc57600080fd5b6100d58561009a565b93506100e36020860161009a565b92506100f16040860161009a565b91506100ff6060860161009a565b905092959194509250565b610305806101196000396000f3fe608060405234801561001057600080fd5b50600436106100415760003560e01c806353157b1a14610046578063c0114d061461005b578063f7addc3e14610075575b600080fd5b610059610054366004610286565b610088565b005b610063610186565b60405190815260200160405180910390f35b610059610083366004610286565b6101ac565b6003546001600160a01b038281169116146101065760405162461bcd60e51b815260206004820152603360248201527f4f6e6c79204173736f636961746564207472616e73706f727465722063616e2060448201527231b0b636103a3434b990333ab731ba34b7b71760691b60648201526084015b60405180910390fd5b60048054600160a01b60ff60a01b1982161782556002546040516305e3aeb160e31b81526001600160a01b039283169381019390935281166024830152831690632f1d7588906044015b600060405180830381600087803b15801561016a57600080fd5b505af115801561017e573d6000803e3d6000fd5b505050505050565b600454600090600160a01b900460ff1660028111156101a7576101a76102b9565b905090565b6004546001600160a01b038281169116146102225760405162461bcd60e51b815260206004820152603060248201527f4f6e6c79204173736f6369617465642072656365697665722063616e2063616c60448201526f36103a3434b990333ab731ba34b7b71760811b60648201526084016100fd565b600480546002919060ff60a01b1916600160a01b83021790555060405163c8f5f18960e01b81526001600160a01b03828116600483015283169063c8f5f18990602401610150565b80356001600160a01b038116811461028157600080fd5b919050565b6000806040838503121561029957600080fd5b6102a28361026a565b91506102b06020840161026a565b90509250929050565b634e487b7160e01b600052602160045260246000fdfea26469706673582212201996b20429dc0a21983315a91769f5dd295e9d971449ed14f9ad118d8acf9c2764736f6c63430008130033a2646970667358221220d1ed88bcdfc57dae32464286a6a9b92c054d3fa53836422cbbfd6a547ebb6b8864736f6c63430008130033",
  "immutableReferences": {},
  "source": "// SPDX-License-Identifier: MIT\r\npragma solidity ^0.8.0;\r\n\r\npragma experimental ABIEncoderV2;\r\n\r\n\r\nimport \"./Crop.sol\";\r\nimport \"./Farmer.sol\";\r\nimport \"./Transporter.sol\";\r\nimport \"./Product.sol\";\r\nimport \"./Processor.sol\";\r\nimport \"./ProductW_D.sol\";\r\nimport \"./Wholesaler.sol\";\r\nimport \"./ProductD_C.sol\";\r\nimport \"./Distributor.sol\";\r\nimport \"./Customer.sol\";\r\nimport \"./SupplyChain.sol\";\r\nimport \"./UserData.sol\";\r\n\r\n//// New supply chain : farmer -> transporter -> processor -> transporter -> whole-saler -> transporter -> distributor -> transporter -> customer/hospital/pharmacy\r\n\r\ncontract SupplyChain2 is Wholesaler, Distributor, Customer, UserData {\r\n    address public Owner;\r\n\r\n\r\n    //create a variable for crops that are for sale\r\n\r\n    constructor() {\r\n        Owner = msg.sender;\r\n    }\r\n\r\n    modifier onlyOwner() {\r\n        require(Owner == msg.sender);\r\n        _;\r\n    }\r\n\r\n//     modifier checkUser(address addr) {\r\n//         require(addr == msg.sender);\r\n//         _;\r\n//     }\r\n\r\n//     enum roles {noRolenoRole, farmer, transporter, processor, wholesaler, distributor, customer}\r\n\r\n//     //////////////// Events ////////////////////\r\n\r\n    //event UserRegister(address indexed _address, bytes32 name);\r\n    event buyEvent(address buyer, address indexed seller, address packageAddr, bytes signature, uint indexed timestamp);\r\n    event respondEvent(address indexed buyer, address seller, address packageAddr, bytes signature, uint indexed timestamp);\r\n    event sendEvent(address seller, address buyer, address indexed packageAddr, bytes signature, uint indexed timestamp);\r\n    event receivedEvent(address indexed buyer, address seller, address packageAddr, bytes signature, uint indexed timestamp);\r\n\r\n//////////////// Event functions (All entities) ////////////////////\r\n\r\n    \r\n    function requestProduct(address buyer, address seller, address packageAddr, bytes memory signature) public {\r\n        emit buyEvent(buyer, seller, packageAddr, signature, block.timestamp);\r\n    }\r\n    \r\n    function respondToEntity(address buyer, address seller, address packageAddr, bytes memory signature) public {\r\n        emit respondEvent(buyer, seller, packageAddr, signature, block.timestamp);\r\n    }\r\n    \r\n    function sendPackageToEntity(address buyer, address seller, address packageAddr, bytes memory signature) public {\r\n        emit sendEvent(seller, buyer, packageAddr, signature, block.timestamp);\r\n    }\r\n\r\n    /////////////// Users (Only Owner Executable) //////////////////////\r\n\r\n    // struct userData {\r\n    //     bytes32 name;\r\n    //     string[] userLoc;\r\n    //     roles role;\r\n    //     address userAddr;\r\n    // }\r\n\r\n    // mapping(address => userData) public userInfo;\r\n\r\n    // function registerUser(bytes32 name,string[] memory loc,uint256 role,address _userAddr) external onlyOwner {\r\n    //     userInfo[_userAddr].name = name;\r\n    //     userInfo[_userAddr].userLoc = loc;\r\n    //     userInfo[_userAddr].role = roles(role);\r\n    //     userInfo[_userAddr].userAddr = _userAddr;\r\n\r\n    //     emit UserRegister(_userAddr, name);\r\n    // }\r\n\r\n    // function changeUserRole(uint256 _role, address _addr) external onlyOwner returns (string memory){\r\n    //     userInfo[_addr].role = roles(_role);\r\n    //     return \"Role Updated!\";\r\n    // }\r\n\r\n    // function getUserInfo(address _address) external view onlyOwner returns (userData memory) {\r\n    //     return userInfo[_address];\r\n    // }\r\n\r\n    \r\n\r\n\r\n    \r\n    ///////////////  Wholesaler  ///////////////\r\n\r\n    function wholesalerReceivedProduct(address _address) external {\r\n        require(userInfo[msg.sender].role == roles.wholesaler || userInfo[msg.sender].role == roles.distributor);\r\n        productRecievedAtWholesaler(_address);\r\n    }\r\n\r\n    function transferProductW_D(address _address, address transporter, address receiver) external {\r\n        require(userInfo[msg.sender].role == roles.wholesaler && msg.sender == Product(_address).getWDC()[0]);\r\n        transferProductWtoD(_address, transporter, receiver);\r\n    }\r\n\r\n    function getBatchIdByIndexWD(uint256 index) external view returns (address packageID) {\r\n        require(userInfo[msg.sender].role == roles.wholesaler);\r\n        return ProductWtoD[msg.sender][index];\r\n    }\r\n\r\n    function getSubContractWD(address _address) external view returns (address SubContractWD) {\r\n        return ProductWtoDTxContract[_address];\r\n    }\r\n    \r\n    ///////////////  Distributor  ///////////////\r\n\r\n    function distributorReceivedProduct(address _address, address cid) external {\r\n        require(userInfo[msg.sender].role == roles.distributor && msg.sender == Product(_address).getWDC()[1]);\r\n        productRecievedAtDistributor(_address, cid);\r\n    }\r\n\r\n    function distributorTransferProducttoCustomer(address _address, address transporter, address receiver) external {\r\n        require(userInfo[msg.sender].role == roles.distributor && msg.sender == Product(_address).getWDC()[1]);\r\n        transferProductDtoC(_address, transporter, receiver);\r\n    }\r\n\r\n    function getBatchesCountDC() external view returns (uint256 count) {\r\n        require(userInfo[msg.sender].role == roles.distributor);\r\n        return ProductDtoC[msg.sender].length;\r\n    }\r\n\r\n    function getBatchIdByIndexDC(uint256 index) external view returns (address packageID) {\r\n        require(userInfo[msg.sender].role == roles.distributor);\r\n        return ProductDtoC[msg.sender][index];\r\n    }\r\n\r\n    function getSubContractDC(address _address) external view returns (address SubContractDP) {\r\n        return ProductDtoCTxContract[_address];\r\n    }\r\n\r\n    ///////////////  Customer  ///////////////\r\n\r\n    function customerReceivedProduct(address _address, address cid) external {\r\n        require(userInfo[msg.sender].role == roles.customer);\r\n        productRecievedAtCustomer(_address, cid);\r\n    }\r\n\r\n    function updateStatus(address _address, uint256 Status) external {\r\n        require(userInfo[msg.sender].role == roles.customer && msg.sender == Product(_address).getWDC()[2], \"Only Customer or current\");\r\n        require(sale[_address] == salestatus(1));\r\n        updateSaleStatus(_address, Status);\r\n    }\r\n\r\n    function getSalesInfo(address _address) external view returns (uint256 Status) {\r\n        return salesInfo(_address);\r\n    }\r\n\r\n    function getBatchesCountC() external view returns (uint256 count) {\r\n        require(userInfo[msg.sender].role == roles.customer);\r\n        return ProductBatchAtCustomer[msg.sender].length;\r\n    }\r\n\r\n    function getBatchIdByIndexC(uint256 index) external view returns (address _address) {\r\n        require(userInfo[msg.sender].role == roles.customer);\r\n        return ProductBatchAtCustomer[msg.sender][index];\r\n    }\r\n    \r\n}",
  "sourcePath": "D:\\Projects\\Farmtrust1\\contracts\\SupplyChain2.sol",
  "compiler": {
    "name": "solc",
    "version": "0.8.19+commit.7dd6d404.Emscripten.clang"
  },
  "schemaVersion": "3.4.13",
  "updatedAt": "2023-04-26T15:55:16.362Z",
  "networkType": "ethereum",
  "devdoc": {
    "kind": "dev",
    "methods": {},
    "version": 1
  },
  "userdoc": {
    "kind": "user",
    "methods": {},
    "version": 1
  }
}