{
  "contractName": "SupplyChain2",
  "abi": [
    {
      "inputs": [],
      "stateMutability": "nonpayable",
      "type": "constructor"
    },
    {
      "anonymous": false,
      "inputs": [
        {
          "indexed": false,
          "internalType": "address",
          "name": "_address",
          "type": "address"
        },
        {
          "indexed": true,
          "internalType": "address",
          "name": "Customer",
          "type": "address"
        },
        {
          "indexed": false,
          "internalType": "uint256",
          "name": "status",
          "type": "uint256"
        }
      ],
      "name": "ProductStatus",
      "type": "event"
    },
    {
      "anonymous": false,
      "inputs": [
        {
          "indexed": false,
          "internalType": "address",
          "name": "buyer",
          "type": "address"
        },
        {
          "indexed": true,
          "internalType": "address",
          "name": "seller",
          "type": "address"
        },
        {
          "indexed": false,
          "internalType": "address",
          "name": "packageAddr",
          "type": "address"
        },
        {
          "indexed": false,
          "internalType": "bytes",
          "name": "signature",
          "type": "bytes"
        },
        {
          "indexed": true,
          "internalType": "uint256",
          "name": "timestamp",
          "type": "uint256"
        }
      ],
      "name": "buyEvent",
      "type": "event"
    },
    {
      "anonymous": false,
      "inputs": [
        {
          "indexed": true,
          "internalType": "address",
          "name": "buyer",
          "type": "address"
        },
        {
          "indexed": false,
          "internalType": "address",
          "name": "seller",
          "type": "address"
        },
        {
          "indexed": false,
          "internalType": "address",
          "name": "packageAddr",
          "type": "address"
        },
        {
          "indexed": false,
          "internalType": "bytes",
          "name": "signature",
          "type": "bytes"
        },
        {
          "indexed": true,
          "internalType": "uint256",
          "name": "timestamp",
          "type": "uint256"
        }
      ],
      "name": "receivedEvent",
      "type": "event"
    },
    {
      "anonymous": false,
      "inputs": [
        {
          "indexed": true,
          "internalType": "address",
          "name": "buyer",
          "type": "address"
        },
        {
          "indexed": false,
          "internalType": "address",
          "name": "seller",
          "type": "address"
        },
        {
          "indexed": false,
          "internalType": "address",
          "name": "packageAddr",
          "type": "address"
        },
        {
          "indexed": false,
          "internalType": "bytes",
          "name": "signature",
          "type": "bytes"
        },
        {
          "indexed": true,
          "internalType": "uint256",
          "name": "timestamp",
          "type": "uint256"
        }
      ],
      "name": "respondEvent",
      "type": "event"
    },
    {
      "anonymous": false,
      "inputs": [
        {
          "indexed": false,
          "internalType": "address",
          "name": "seller",
          "type": "address"
        },
        {
          "indexed": false,
          "internalType": "address",
          "name": "buyer",
          "type": "address"
        },
        {
          "indexed": true,
          "internalType": "address",
          "name": "packageAddr",
          "type": "address"
        },
        {
          "indexed": false,
          "internalType": "bytes",
          "name": "signature",
          "type": "bytes"
        },
        {
          "indexed": true,
          "internalType": "uint256",
          "name": "timestamp",
          "type": "uint256"
        }
      ],
      "name": "sendEvent",
      "type": "event"
    },
    {
      "inputs": [],
      "name": "Owner",
      "outputs": [
        {
          "internalType": "address",
          "name": "",
          "type": "address"
        }
      ],
      "stateMutability": "view",
      "type": "function",
      "constant": true
    },
    {
      "inputs": [
        {
          "internalType": "address",
          "name": "",
          "type": "address"
        },
        {
          "internalType": "uint256",
          "name": "",
          "type": "uint256"
        }
      ],
      "name": "ProductBatchAtCustomer",
      "outputs": [
        {
          "internalType": "address",
          "name": "",
          "type": "address"
        }
      ],
      "stateMutability": "view",
      "type": "function",
      "constant": true
    },
    {
      "inputs": [
        {
          "internalType": "address",
          "name": "",
          "type": "address"
        },
        {
          "internalType": "uint256",
          "name": "",
          "type": "uint256"
        }
      ],
      "name": "ProductDtoC",
      "outputs": [
        {
          "internalType": "address",
          "name": "",
          "type": "address"
        }
      ],
      "stateMutability": "view",
      "type": "function",
      "constant": true
    },
    {
      "inputs": [
        {
          "internalType": "address",
          "name": "",
          "type": "address"
        }
      ],
      "name": "ProductDtoCTxContract",
      "outputs": [
        {
          "internalType": "address",
          "name": "",
          "type": "address"
        }
      ],
      "stateMutability": "view",
      "type": "function",
      "constant": true
    },
    {
      "inputs": [
        {
          "internalType": "address",
          "name": "",
          "type": "address"
        },
        {
          "internalType": "uint256",
          "name": "",
          "type": "uint256"
        }
      ],
      "name": "ProductWtoD",
      "outputs": [
        {
          "internalType": "address",
          "name": "",
          "type": "address"
        }
      ],
      "stateMutability": "view",
      "type": "function",
      "constant": true
    },
    {
      "inputs": [
        {
          "internalType": "address",
          "name": "",
          "type": "address"
        }
      ],
      "name": "ProductWtoDTxContract",
      "outputs": [
        {
          "internalType": "address",
          "name": "",
          "type": "address"
        }
      ],
      "stateMutability": "view",
      "type": "function",
      "constant": true
    },
    {
      "inputs": [
        {
          "internalType": "address",
          "name": "",
          "type": "address"
        },
        {
          "internalType": "uint256",
          "name": "",
          "type": "uint256"
        }
      ],
      "name": "ProductsAtDistributor",
      "outputs": [
        {
          "internalType": "address",
          "name": "",
          "type": "address"
        }
      ],
      "stateMutability": "view",
      "type": "function",
      "constant": true
    },
    {
      "inputs": [
        {
          "internalType": "address",
          "name": "",
          "type": "address"
        },
        {
          "internalType": "uint256",
          "name": "",
          "type": "uint256"
        }
      ],
      "name": "ProductsAtWholesaler",
      "outputs": [
        {
          "internalType": "address",
          "name": "",
          "type": "address"
        }
      ],
      "stateMutability": "view",
      "type": "function",
      "constant": true
    },
    {
      "inputs": [
        {
          "internalType": "uint256",
          "name": "",
          "type": "uint256"
        }
      ],
      "name": "customers",
      "outputs": [
        {
          "internalType": "address",
          "name": "",
          "type": "address"
        }
      ],
      "stateMutability": "view",
      "type": "function",
      "constant": true
    },
    {
      "inputs": [
        {
          "internalType": "uint256",
          "name": "",
          "type": "uint256"
        }
      ],
      "name": "distributors",
      "outputs": [
        {
          "internalType": "address",
          "name": "",
          "type": "address"
        }
      ],
      "stateMutability": "view",
      "type": "function",
      "constant": true
    },
    {
      "inputs": [
        {
          "internalType": "uint256",
          "name": "",
          "type": "uint256"
        }
      ],
      "name": "farmers",
      "outputs": [
        {
          "internalType": "address",
          "name": "",
          "type": "address"
        }
      ],
      "stateMutability": "view",
      "type": "function",
      "constant": true
    },
    {
      "inputs": [
        {
          "internalType": "address",
          "name": "_distributorAddress",
          "type": "address"
        }
      ],
      "name": "getAllProductAtDistributor",
      "outputs": [
        {
          "internalType": "address[]",
          "name": "",
          "type": "address[]"
        }
      ],
      "stateMutability": "view",
      "type": "function",
      "constant": true
    },
    {
      "inputs": [],
      "name": "getAllProductsAtCustomer",
      "outputs": [
        {
          "internalType": "address[]",
          "name": "",
          "type": "address[]"
        }
      ],
      "stateMutability": "view",
      "type": "function",
      "constant": true
    },
    {
      "inputs": [],
      "name": "getAllProductsAtWholesaler",
      "outputs": [
        {
          "internalType": "address[]",
          "name": "",
          "type": "address[]"
        }
      ],
      "stateMutability": "view",
      "type": "function",
      "constant": true
    },
    {
      "inputs": [
        {
          "internalType": "address",
          "name": "_addr",
          "type": "address"
        }
      ],
      "name": "getUser",
      "outputs": [
        {
          "components": [
            {
              "internalType": "bytes32",
              "name": "name",
              "type": "bytes32"
            },
            {
              "internalType": "string[]",
              "name": "userLoc",
              "type": "string[]"
            },
            {
              "internalType": "enum roles",
              "name": "role",
              "type": "uint8"
            },
            {
              "internalType": "address",
              "name": "userAddr",
              "type": "address"
            }
          ],
          "internalType": "struct UserData.userData",
          "name": "",
          "type": "tuple"
        }
      ],
      "stateMutability": "view",
      "type": "function",
      "constant": true
    },
    {
      "inputs": [],
      "name": "getallCustomers",
      "outputs": [
        {
          "internalType": "address[]",
          "name": "",
          "type": "address[]"
        }
      ],
      "stateMutability": "view",
      "type": "function",
      "constant": true
    },
    {
      "inputs": [],
      "name": "getallDistributors",
      "outputs": [
        {
          "internalType": "address[]",
          "name": "",
          "type": "address[]"
        }
      ],
      "stateMutability": "view",
      "type": "function",
      "constant": true
    },
    {
      "inputs": [],
      "name": "getallFarmers",
      "outputs": [
        {
          "internalType": "address[]",
          "name": "",
          "type": "address[]"
        }
      ],
      "stateMutability": "view",
      "type": "function",
      "constant": true
    },
    {
      "inputs": [],
      "name": "getallProcessors",
      "outputs": [
        {
          "internalType": "address[]",
          "name": "",
          "type": "address[]"
        }
      ],
      "stateMutability": "view",
      "type": "function",
      "constant": true
    },
    {
      "inputs": [],
      "name": "getallTransporters",
      "outputs": [
        {
          "internalType": "address[]",
          "name": "",
          "type": "address[]"
        }
      ],
      "stateMutability": "view",
      "type": "function",
      "constant": true
    },
    {
      "inputs": [],
      "name": "getallWholesalers",
      "outputs": [
        {
          "internalType": "address[]",
          "name": "",
          "type": "address[]"
        }
      ],
      "stateMutability": "view",
      "type": "function",
      "constant": true
    },
    {
      "inputs": [
        {
          "internalType": "uint256",
          "name": "",
          "type": "uint256"
        }
      ],
      "name": "processors",
      "outputs": [
        {
          "internalType": "address",
          "name": "",
          "type": "address"
        }
      ],
      "stateMutability": "view",
      "type": "function",
      "constant": true
    },
    {
      "inputs": [
        {
          "internalType": "address",
          "name": "_address",
          "type": "address"
        },
        {
          "internalType": "address",
          "name": "cid",
          "type": "address"
        }
      ],
      "name": "productRecievedAtCustomer",
      "outputs": [],
      "stateMutability": "nonpayable",
      "type": "function"
    },
    {
      "inputs": [
        {
          "internalType": "address",
          "name": "_address",
          "type": "address"
        },
        {
          "internalType": "address",
          "name": "cid",
          "type": "address"
        },
        {
          "internalType": "address",
          "name": "_distributorAddress",
          "type": "address"
        }
      ],
      "name": "productRecievedAtDistributor",
      "outputs": [],
      "stateMutability": "nonpayable",
      "type": "function"
    },
    {
      "inputs": [
        {
          "internalType": "address",
          "name": "_address",
          "type": "address"
        },
        {
          "internalType": "address",
          "name": "_wholesalerAddress",
          "type": "address"
        }
      ],
      "name": "productRecievedAtWholesaler",
      "outputs": [],
      "stateMutability": "nonpayable",
      "type": "function"
    },
    {
      "inputs": [
        {
          "internalType": "address",
          "name": "",
          "type": "address"
        }
      ],
      "name": "sale",
      "outputs": [
        {
          "internalType": "enum Customer.salestatus",
          "name": "",
          "type": "uint8"
        }
      ],
      "stateMutability": "view",
      "type": "function",
      "constant": true
    },
    {
      "inputs": [
        {
          "internalType": "address",
          "name": "_address",
          "type": "address"
        }
      ],
      "name": "salesInfo",
      "outputs": [
        {
          "internalType": "uint256",
          "name": "Status",
          "type": "uint256"
        }
      ],
      "stateMutability": "view",
      "type": "function",
      "constant": true
    },
    {
      "inputs": [
        {
          "internalType": "address",
          "name": "_address",
          "type": "address"
        },
        {
          "internalType": "address",
          "name": "transporter",
          "type": "address"
        },
        {
          "internalType": "address",
          "name": "receiver",
          "type": "address"
        },
        {
          "internalType": "address",
          "name": "_distributorAddress",
          "type": "address"
        }
      ],
      "name": "transferProductDtoC",
      "outputs": [],
      "stateMutability": "nonpayable",
      "type": "function"
    },
    {
      "inputs": [
        {
          "internalType": "address",
          "name": "_address",
          "type": "address"
        },
        {
          "internalType": "address",
          "name": "transporter",
          "type": "address"
        },
        {
          "internalType": "address",
          "name": "receiver",
          "type": "address"
        }
      ],
      "name": "transferProductWtoD",
      "outputs": [],
      "stateMutability": "nonpayable",
      "type": "function"
    },
    {
      "inputs": [
        {
          "internalType": "uint256",
          "name": "",
          "type": "uint256"
        }
      ],
      "name": "transporters",
      "outputs": [
        {
          "internalType": "address",
          "name": "",
          "type": "address"
        }
      ],
      "stateMutability": "view",
      "type": "function",
      "constant": true
    },
    {
      "inputs": [
        {
          "internalType": "address",
          "name": "_address",
          "type": "address"
        },
        {
          "internalType": "uint256",
          "name": "Status",
          "type": "uint256"
        }
      ],
      "name": "updateSaleStatus",
      "outputs": [],
      "stateMutability": "nonpayable",
      "type": "function"
    },
    {
      "inputs": [
        {
          "internalType": "address",
          "name": "",
          "type": "address"
        }
      ],
      "name": "userInfo",
      "outputs": [
        {
          "internalType": "bytes32",
          "name": "name",
          "type": "bytes32"
        },
        {
          "internalType": "enum roles",
          "name": "role",
          "type": "uint8"
        },
        {
          "internalType": "address",
          "name": "userAddr",
          "type": "address"
        }
      ],
      "stateMutability": "view",
      "type": "function",
      "constant": true
    },
    {
      "inputs": [
        {
          "internalType": "uint256",
          "name": "",
          "type": "uint256"
        }
      ],
      "name": "wholesalers",
      "outputs": [
        {
          "internalType": "address",
          "name": "",
          "type": "address"
        }
      ],
      "stateMutability": "view",
      "type": "function",
      "constant": true
    },
    {
      "inputs": [
        {
          "internalType": "address",
          "name": "buyer",
          "type": "address"
        },
        {
          "internalType": "address",
          "name": "seller",
          "type": "address"
        },
        {
          "internalType": "address",
          "name": "packageAddr",
          "type": "address"
        },
        {
          "internalType": "bytes",
          "name": "signature",
          "type": "bytes"
        }
      ],
      "name": "requestProduct",
      "outputs": [],
      "stateMutability": "nonpayable",
      "type": "function"
    },
    {
      "inputs": [
        {
          "internalType": "address",
          "name": "buyer",
          "type": "address"
        },
        {
          "internalType": "address",
          "name": "seller",
          "type": "address"
        },
        {
          "internalType": "address",
          "name": "packageAddr",
          "type": "address"
        },
        {
          "internalType": "bytes",
          "name": "signature",
          "type": "bytes"
        }
      ],
      "name": "respondToEntity",
      "outputs": [],
      "stateMutability": "nonpayable",
      "type": "function"
    },
    {
      "inputs": [
        {
          "internalType": "address",
          "name": "buyer",
          "type": "address"
        },
        {
          "internalType": "address",
          "name": "seller",
          "type": "address"
        },
        {
          "internalType": "address",
          "name": "packageAddr",
          "type": "address"
        },
        {
          "internalType": "bytes",
          "name": "signature",
          "type": "bytes"
        }
      ],
      "name": "sendPackageToEntity",
      "outputs": [],
      "stateMutability": "nonpayable",
      "type": "function"
    },
    {
      "inputs": [
        {
          "internalType": "address",
          "name": "p",
          "type": "address"
        },
        {
          "internalType": "bytes32",
          "name": "hash",
          "type": "bytes32"
        },
        {
          "internalType": "uint8",
          "name": "v",
          "type": "uint8"
        },
        {
          "internalType": "bytes32",
          "name": "r",
          "type": "bytes32"
        },
        {
          "internalType": "bytes32",
          "name": "s",
          "type": "bytes32"
        }
      ],
      "name": "verify",
      "outputs": [
        {
          "internalType": "bool",
          "name": "",
          "type": "bool"
        }
      ],
      "stateMutability": "pure",
      "type": "function",
      "constant": true
    },
    {
      "inputs": [
        {
          "internalType": "address",
          "name": "_address",
          "type": "address"
        },
        {
          "internalType": "address",
          "name": "_addr",
          "type": "address"
        }
      ],
      "name": "wholesalerReceivedProduct",
      "outputs": [],
      "stateMutability": "nonpayable",
      "type": "function"
    },
    {
      "inputs": [
        {
          "internalType": "address",
          "name": "_addr",
          "type": "address"
        }
      ],
      "name": "getAllProcessors",
      "outputs": [
        {
          "internalType": "address[]",
          "name": "",
          "type": "address[]"
        }
      ],
      "stateMutability": "view",
      "type": "function",
      "constant": true
    },
    {
      "inputs": [
        {
          "internalType": "address",
          "name": "_address",
          "type": "address"
        },
        {
          "internalType": "address",
          "name": "transporter",
          "type": "address"
        },
        {
          "internalType": "address",
          "name": "receiver",
          "type": "address"
        },
        {
          "internalType": "address",
          "name": "_addr",
          "type": "address"
        }
      ],
      "name": "transferProductW_D",
      "outputs": [],
      "stateMutability": "nonpayable",
      "type": "function"
    },
    {
      "inputs": [
        {
          "internalType": "uint256",
          "name": "index",
          "type": "uint256"
        },
        {
          "internalType": "address",
          "name": "_addr",
          "type": "address"
        }
      ],
      "name": "getBatchIdByIndexWD",
      "outputs": [
        {
          "internalType": "address",
          "name": "packageID",
          "type": "address"
        }
      ],
      "stateMutability": "view",
      "type": "function",
      "constant": true
    },
    {
      "inputs": [
        {
          "internalType": "address",
          "name": "_address",
          "type": "address"
        }
      ],
      "name": "getSubContractWD",
      "outputs": [
        {
          "internalType": "address",
          "name": "SubContractWD",
          "type": "address"
        }
      ],
      "stateMutability": "view",
      "type": "function",
      "constant": true
    },
    {
      "inputs": [
        {
          "internalType": "address",
          "name": "_addr",
          "type": "address"
        }
      ],
      "name": "wholesalerGetAllProducts",
      "outputs": [
        {
          "internalType": "address[]",
          "name": "",
          "type": "address[]"
        }
      ],
      "stateMutability": "view",
      "type": "function",
      "constant": true
    },
    {
      "inputs": [
        {
          "internalType": "address",
          "name": "_address",
          "type": "address"
        },
        {
          "internalType": "address",
          "name": "cid",
          "type": "address"
        },
        {
          "internalType": "address",
          "name": "_addr",
          "type": "address"
        }
      ],
      "name": "distributorReceivedProduct",
      "outputs": [],
      "stateMutability": "nonpayable",
      "type": "function"
    },
    {
      "inputs": [
        {
          "internalType": "address",
          "name": "_address",
          "type": "address"
        },
        {
          "internalType": "address",
          "name": "transporter",
          "type": "address"
        },
        {
          "internalType": "address",
          "name": "receiver",
          "type": "address"
        },
        {
          "internalType": "address",
          "name": "_addr",
          "type": "address"
        }
      ],
      "name": "distributorTransferProducttoCustomer",
      "outputs": [],
      "stateMutability": "nonpayable",
      "type": "function"
    },
    {
      "inputs": [
        {
          "internalType": "address",
          "name": "_addr",
          "type": "address"
        }
      ],
      "name": "getAllWholesalers",
      "outputs": [
        {
          "internalType": "address[]",
          "name": "",
          "type": "address[]"
        }
      ],
      "stateMutability": "view",
      "type": "function",
      "constant": true
    },
    {
      "inputs": [
        {
          "internalType": "address",
          "name": "_addr",
          "type": "address"
        }
      ],
      "name": "getBatchesCountDC",
      "outputs": [
        {
          "internalType": "uint256",
          "name": "count",
          "type": "uint256"
        }
      ],
      "stateMutability": "view",
      "type": "function",
      "constant": true
    },
    {
      "inputs": [
        {
          "internalType": "uint256",
          "name": "index",
          "type": "uint256"
        },
        {
          "internalType": "address",
          "name": "_addr",
          "type": "address"
        }
      ],
      "name": "getBatchIdByIndexDC",
      "outputs": [
        {
          "internalType": "address",
          "name": "packageID",
          "type": "address"
        }
      ],
      "stateMutability": "view",
      "type": "function",
      "constant": true
    },
    {
      "inputs": [
        {
          "internalType": "address",
          "name": "_address",
          "type": "address"
        }
      ],
      "name": "getSubContractDC",
      "outputs": [
        {
          "internalType": "address",
          "name": "SubContractDP",
          "type": "address"
        }
      ],
      "stateMutability": "view",
      "type": "function",
      "constant": true
    },
    {
      "inputs": [
        {
          "internalType": "address",
          "name": "_addr",
          "type": "address"
        }
      ],
      "name": "distributerGetAllProducts",
      "outputs": [
        {
          "internalType": "address[]",
          "name": "",
          "type": "address[]"
        }
      ],
      "stateMutability": "view",
      "type": "function",
      "constant": true
    },
    {
      "inputs": [
        {
          "internalType": "address",
          "name": "_address",
          "type": "address"
        },
        {
          "internalType": "address",
          "name": "cid",
          "type": "address"
        },
        {
          "internalType": "address",
          "name": "_addr",
          "type": "address"
        }
      ],
      "name": "customerReceivedProduct",
      "outputs": [],
      "stateMutability": "nonpayable",
      "type": "function"
    },
    {
      "inputs": [
        {
          "internalType": "address",
          "name": "_address",
          "type": "address"
        },
        {
          "internalType": "uint256",
          "name": "Status",
          "type": "uint256"
        },
        {
          "internalType": "address",
          "name": "_addr",
          "type": "address"
        }
      ],
      "name": "updateStatus",
      "outputs": [],
      "stateMutability": "nonpayable",
      "type": "function"
    },
    {
      "inputs": [
        {
          "internalType": "address",
          "name": "_addr",
          "type": "address"
        }
      ],
      "name": "getAllDistributors",
      "outputs": [
        {
          "internalType": "address[]",
          "name": "",
          "type": "address[]"
        }
      ],
      "stateMutability": "view",
      "type": "function",
      "constant": true
    },
    {
      "inputs": [
        {
          "internalType": "address",
          "name": "_address",
          "type": "address"
        }
      ],
      "name": "getSalesInfo",
      "outputs": [
        {
          "internalType": "uint256",
          "name": "Status",
          "type": "uint256"
        }
      ],
      "stateMutability": "view",
      "type": "function",
      "constant": true
    },
    {
      "inputs": [
        {
          "internalType": "address",
          "name": "_addr",
          "type": "address"
        }
      ],
      "name": "getBatchesCountC",
      "outputs": [
        {
          "internalType": "uint256",
          "name": "count",
          "type": "uint256"
        }
      ],
      "stateMutability": "view",
      "type": "function",
      "constant": true
    },
    {
      "inputs": [
        {
          "internalType": "address",
          "name": "_addr",
          "type": "address"
        }
      ],
      "name": "getBatchIdC",
      "outputs": [
        {
          "internalType": "address[]",
          "name": "",
          "type": "address[]"
        }
      ],
      "stateMutability": "view",
      "type": "function",
      "constant": true
    },
    {
      "inputs": [
        {
          "internalType": "address",
          "name": "_addr",
          "type": "address"
        }
      ],
      "name": "customerGetAllProducts",
      "outputs": [
        {
          "internalType": "address[]",
          "name": "",
          "type": "address[]"
        }
      ],
      "stateMutability": "view",
      "type": "function",
      "constant": true
    }
  ],
  "bytecode": "0x608060405234801561001057600080fd5b50600f80546001600160a01b031916331790556137fe806100326000396000f3fe60806040523480156200001157600080fd5b5060043610620003455760003560e01c8063898d634411620001c1578063bb8ee1c51162000103578063eae3c20711620000aa578063eae3c2071462000867578063eba1b7ce146200087e578063ebc255c71462000888578063ebfffe9f146200089f578063fc23328c14620008a9578063fccd107614620008c0578063fe7c58e914620008d7578063feeb4ed014620008ee57600080fd5b8063bb8ee1c514620007c6578063c0abda2a14620007dd578063d06f7b5514620007f4578063d6c57c70146200080b578063d9c91ae41462000822578063e0cf92fe1462000839578063e84ba297146200085057600080fd5b8063a4d886b21162000168578063a4d886b21462000728578063aa8b0853146200073f578063af7a2c851462000756578063b4a99a4e146200076d578063b6bc30671462000781578063b8b16ca31462000798578063ba7fa75014620007af57600080fd5b8063898d6344146200068c5780638afdd66914620006a357806390ff8ca014620006ba5780639add4d1a14620006c45780639b0704c014620006ce5780639d4e832514620006e5578063a232c13014620006fc57600080fd5b8063506535f3116200028b5780636694cfa111620002325780636694cfa114620005d857806367ebd8b014620005e25780636f77926b14620005f957806375df2684146200061f5780637cecb2de14620006545780637f001847146200066b578063835b417f146200068257600080fd5b8063506535f3146200050e57806350b492ba14620005365780635219925c146200054d57806356b149a214620005645780635a981b7f146200057b5780635f04bc46146200059257806362c1fe3914620005a957600080fd5b806325fd6eea11620002f057806325fd6eea146200044d57806329c2a877146200046457806334759016146200047b5780633f6bc0aa14620004aa5780634376d1ef14620004c157806344f89a4a14620004d85780634db6eabe146200050457600080fd5b806303c6c711146200034a57806303e18be2146200036c5780630dedb1c71462000392578063107c124e14620003ab578063110b307714620003d15780631959a00214620003e8578063234e376d1462000436575b600080fd5b6200035462000905565b6040516200036391906200259c565b60405180910390f35b620003836200037d36600462002604565b62000969565b60405162000363919062002633565b620003a9620003a336600462002647565b620009a2565b005b620003c2620003bc36600462002699565b62000a3c565b60405190815260200162000363565b62000383620003e236600462002604565b62000af4565b62000425620003f936600462002699565b600e602052600090815260409020805460029091015460ff81169061010090046001600160a01b031683565b6040516200036393929190620026e6565b620003546200044736600462002699565b62000b11565b620003546200045e36600462002699565b62000bc7565b620003836200047536600462002715565b62000c75565b620003836200048c36600462002699565b6001600160a01b039081166000908152600260205260409020541690565b62000383620004bb3660046200272f565b62000ca0565b62000354620004d236600462002699565b62000d82565b62000383620004e936600462002699565b6002602052600090815260409020546001600160a01b031681565b6200035462000df6565b620005256200051f36600462002762565b62000e58565b604051901515815260200162000363565b620003836200054736600462002715565b62000ed7565b620003a96200055e366004620027be565b62000ee8565b620003a962000575366004620027be565b6200101b565b620003a96200058c36600462002823565b62001143565b62000383620005a33660046200272f565b620012f2565b62000383620005ba36600462002699565b6001600160a01b039081166000908152600560205260409020541690565b62000354620013b7565b62000354620005f336600462002699565b62001419565b620006106200060a36600462002699565b6200145c565b604051620003639190620028b3565b620006456200063036600462002699565b60076020526000908152604090205460ff1681565b60405162000363919062002956565b620003836200066536600462002604565b620015ea565b620003836200067c36600462002604565b62001607565b6200035462001624565b620003a96200069d36600462002973565b62001686565b62000383620006b436600462002715565b6200175c565b620003546200176d565b62000354620017cf565b620003a9620006df366004620027be565b620018c1565b620003a9620006f636600462002647565b62001960565b620003836200070d36600462002699565b6005602052600090815260409020546001600160a01b031681565b620003c26200073936600462002699565b62001a88565b620003a96200075036600462002647565b62001a9b565b620003546200076736600462002699565b62001b48565b600f5462000383906001600160a01b031681565b620003836200079236600462002604565b62001c58565b620003a9620007a936600462002a44565b62001c75565b62000354620007c036600462002699565b62001cc3565b620003c2620007d736600462002699565b62001d72565b62000383620007ee36600462002715565b62001da2565b620003a96200080536600462002a44565b62001db3565b620003a96200081c36600462002973565b62001df3565b620003c26200083336600462002699565b62001eb5565b620003a96200084a36600462002a44565b62001f6d565b620003546200086136600462002699565b62001fad565b620003a96200087836600462002604565b620020b2565b6200035462002149565b620003a96200089936600462002647565b620021ab565b620003546200234c565b62000383620008ba36600462002715565b62002437565b620003a9620008d136600462002973565b62002448565b62000383620008e836600462002715565b6200252c565b62000354620008ff36600462002699565b6200253d565b606060098054806020026020016040519081016040528092919081815260200182805480156200095f57602002820191906000526020600020905b81546001600160a01b0316815260019091019060200180831162000940575b5050505050905090565b600660205281600052604060002081815481106200098657600080fd5b6000918252602090912001546001600160a01b03169150829050565b600083338484604051620009b69062002580565b620009c5949392919062002b09565b604051809103906000f080158015620009e2573d6000803e3d6000fd5b5033600090815260016020818152604080842080549384018155845281842090920180546001600160a01b039586166001600160a01b03199182168117909255989094168352600290529020805490951617909355505050565b600080826001600160a01b0316636f77926b336040518263ffffffff1660e01b815260040162000a6d919062002633565b600060405180830381865afa15801562000a8b573d6000803e3d6000fd5b505050506040513d6000823e601f3d908101601f1916820160405262000ab5919081019062002b7c565b905060058160400151600681111562000ad25762000ad2620026b9565b1462000add57600080fd5b505033600090815260046020526040902054919050565b600460205281600052604060002081815481106200098657600080fd5b60606000826001600160a01b0316636f77926b336040518263ffffffff1660e01b815260040162000b43919062002633565b600060405180830381865afa15801562000b61573d6000803e3d6000fd5b505050506040513d6000823e601f3d908101601f1916820160405262000b8b919081019062002b7c565b905060048160400151600681111562000ba85762000ba8620026b9565b1462000bb357600080fd5b600062000bbf620017cf565b949350505050565b60606000826001600160a01b0316636f77926b336040518263ffffffff1660e01b815260040162000bf9919062002633565b600060405180830381865afa15801562000c17573d6000803e3d6000fd5b505050506040513d6000823e601f3d908101601f1916820160405262000c41919081019062002b7c565b905060068160400151600681111562000c5e5762000c5e620026b9565b1462000c6957600080fd5b600062000bbf6200234c565b6009818154811062000c8657600080fd5b6000918252602090912001546001600160a01b0316905081565b600080826001600160a01b0316636f77926b336040518263ffffffff1660e01b815260040162000cd1919062002633565b600060405180830381865afa15801562000cef573d6000803e3d6000fd5b505050506040513d6000823e601f3d908101601f1916820160405262000d19919081019062002b7c565b905060048160400151600681111562000d365762000d36620026b9565b1462000d4157600080fd5b33600090815260016020526040902080548590811062000d655762000d6562002cd7565b6000918252602090912001546001600160a01b0316949350505050565b60606000826001600160a01b0316634db6eabe6040518163ffffffff1660e01b8152600401600060405180830381865afa15801562000dc5573d6000803e3d6000fd5b505050506040513d6000823e601f3d908101601f1916820160405262000def919081019062002ced565b9392505050565b6060600c8054806020026020016040519081016040528092919081815260200182805480156200095f576020028201919060005260206000209081546001600160a01b0316815260019091019060200180831162000940575050505050905090565b6040805160008082526020820180845287905260ff86169282019290925260608101849052608081018390526001600160a01b0387169060019060a0016020604051602081039080840390855afa15801562000eb8573d6000803e3d6000fd5b505050602060405103516001600160a01b031614905095945050505050565b600c818154811062000c8657600080fd5b604051636f77926b60e01b81526000906001600160a01b03831690636f77926b9062000f1990339060040162002633565b600060405180830381865afa15801562000f37573d6000803e3d6000fd5b505050506040513d6000823e601f3d908101601f1916820160405262000f61919081019062002b7c565b905060058160400151600681111562000f7e5762000f7e620026b9565b14801562000ffc5750846001600160a01b031663abb428a66040518163ffffffff1660e01b8152600401606060405180830381865afa15801562000fc6573d6000803e3d6000fd5b505050506040513d601f19601f8201168201806040525081019062000fec919062002d91565b602001516001600160a01b031633145b6200100657600080fd5b6200101485858533620018c1565b5050505050565b604051636f77926b60e01b81526000906001600160a01b03831690636f77926b906200104c90339060040162002633565b600060405180830381865afa1580156200106a573d6000803e3d6000fd5b505050506040513d6000823e601f3d908101601f1916820160405262001094919081019062002b7c565b9050600481604001516006811115620010b157620010b1620026b9565b1480156200112c5750846001600160a01b031663abb428a66040518163ffffffff1660e01b8152600401606060405180830381865afa158015620010f9573d6000803e3d6000fd5b505050506040513d601f19601f820116820180604052508101906200111f919062002d91565b516001600160a01b031633145b6200113657600080fd5b62001014858585620009a2565b604051636f77926b60e01b81526000906001600160a01b03831690636f77926b906200117490339060040162002633565b600060405180830381865afa15801562001192573d6000803e3d6000fd5b505050506040513d6000823e601f3d908101601f19168201604052620011bc919081019062002b7c565b9050600681604001516006811115620011d957620011d9620026b9565b148015620012575750836001600160a01b031663abb428a66040518163ffffffff1660e01b8152600401606060405180830381865afa15801562001221573d6000803e3d6000fd5b505050506040513d601f19601f8201168201806040525081019062001247919062002d91565b604001516001600160a01b031633145b620012a35760405162461bcd60e51b815260206004820152601860248201527713db9b1e4810dd5cdd1bdb595c881bdc8818dd5c9c995b9d60421b604482015260640160405180910390fd5b60016001600160a01b03851660009081526007602052604090205460ff166004811115620012d557620012d5620026b9565b14620012e057600080fd5b620012ec8484620020b2565b50505050565b600080826001600160a01b0316636f77926b336040518263ffffffff1660e01b815260040162001323919062002633565b600060405180830381865afa15801562001341573d6000803e3d6000fd5b505050506040513d6000823e601f3d908101601f191682016040526200136b919081019062002b7c565b9050600581604001516006811115620013885762001388620026b9565b146200139357600080fd5b33600090815260046020526040902080548590811062000d655762000d6562002cd7565b606060088054806020026020016040519081016040528092919081815260200182805480156200095f576020028201919060005260206000209081546001600160a01b0316815260019091019060200180831162000940575050505050905090565b60606000826001600160a01b03166390ff8ca06040518163ffffffff1660e01b8152600401600060405180830381865afa15801562000dc5573d6000803e3d6000fd5b620014886040805160808101825260008082526060602083015290918201908152600060209091015290565b6001600160a01b0382166000908152600e602090815260408083208151608081018352815481526001820180548451818702810187019095528085529195929486810194939192919084015b828210156200158a578382906000526020600020018054620014f69062002e21565b80601f0160208091040260200160405190810160405280929190818152602001828054620015249062002e21565b8015620015755780601f10620015495761010080835404028352916020019162001575565b820191906000526020600020905b8154815290600101906020018083116200155757829003601f168201915b505050505081526020019060010190620014d4565b50505090825250600282015460209091019060ff166006811115620015b357620015b3620026b9565b6006811115620015c757620015c7620026b9565b81526002919091015461010090046001600160a01b031660209091015292915050565b600060205281600052604060002081815481106200098657600080fd5b600360205281600052604060002081815481106200098657600080fd5b6060600a8054806020026020016040519081016040528092919081815260200182805480156200095f576020028201919060005260206000209081546001600160a01b0316815260019091019060200180831162000940575050505050905090565b604051636f77926b60e01b81526000906001600160a01b03831690636f77926b90620016b790339060040162002633565b600060405180830381865afa158015620016d5573d6000803e3d6000fd5b505050506040513d6000823e601f3d908101601f19168201604052620016ff919081019062002b7c565b90506004816040015160068111156200171c576200171c620026b9565b14806200174157506005816040015160068111156200173f576200173f620026b9565b145b6200174b57600080fd5b62001757833362001df3565b505050565b6008818154811062000c8657600080fd5b6060600b8054806020026020016040519081016040528092919081815260200182805480156200095f576020028201919060005260206000209081546001600160a01b0316815260019091019060200180831162000940575050505050905090565b33600090815260208190526040812054606091816001600160401b03811115620017fd57620017fd620029a6565b60405190808252806020026020018201604052801562001827578160200160208202803683370190505b50905060005b82811015620018ba573360009081526020819052604090208054829081106200185a576200185a62002cd7565b9060005260206000200160009054906101000a90046001600160a01b03168282815181106200188d576200188d62002cd7565b6001600160a01b039092166020928302919091019091015280620018b18162002e5d565b9150506200182d565b5092915050565b600084828585604051620018d5906200258e565b620018e4949392919062002b09565b604051809103906000f08015801562001901573d6000803e3d6000fd5b506001600160a01b03928316600090815260046020908152604080832080546001810182559084528284200180549487166001600160a01b03199586168117909155989095168252600590529290922080549092169094179055505050565b604051636f77926b60e01b81526000906001600160a01b03831690636f77926b906200199190339060040162002633565b600060405180830381865afa158015620019af573d6000803e3d6000fd5b505050506040513d6000823e601f3d908101601f19168201604052620019d9919081019062002b7c565b9050600581604001516006811115620019f657620019f6620026b9565b14801562001a715750836001600160a01b031663abb428a66040518163ffffffff1660e01b8152600401606060405180830381865afa15801562001a3e573d6000803e3d6000fd5b505050506040513d601f19601f8201168201806040525081019062001a64919062002d91565b516001600160a01b031633145b62001a7b57600080fd5b620012ec848433620021ab565b600062001a958262001d72565b92915050565b604051636f77926b60e01b81526000906001600160a01b03831690636f77926b9062001acc90339060040162002633565b600060405180830381865afa15801562001aea573d6000803e3d6000fd5b505050506040513d6000823e601f3d908101601f1916820160405262001b14919081019062002b7c565b905060068160400151600681111562001b315762001b31620026b9565b1462001b3c57600080fd5b620012ec848462002448565b60606000826001600160a01b0316636f77926b336040518263ffffffff1660e01b815260040162001b7a919062002633565b600060405180830381865afa15801562001b98573d6000803e3d6000fd5b505050506040513d6000823e601f3d908101601f1916820160405262001bc2919081019062002b7c565b905060068160400151600681111562001bdf5762001bdf620026b9565b1462001bea57600080fd5b336000908152600660209081526040918290208054835181840281018401909452808452909183018282801562001c4b57602002820191906000526020600020905b81546001600160a01b0316815260019091019060200180831162001c2c575b5050505050915050919050565b600160205281600052604060002081815481106200098657600080fd5b42836001600160a01b03167f22561ca0666e99052dd8231a6c5c337204ed5658c357aa6afcd53c207acfac6786858560405162001cb59392919062002e85565b60405180910390a350505050565b60606000826001600160a01b0316636f77926b336040518263ffffffff1660e01b815260040162001cf5919062002633565b600060405180830381865afa15801562001d13573d6000803e3d6000fd5b505050506040513d6000823e601f3d908101601f1916820160405262001d3d919081019062002b7c565b905060058160400151600681111562001d5a5762001d5a620026b9565b1462001d6557600080fd5b600062000bbf3362001fad565b6001600160a01b03811660009081526007602052604081205460ff16600481111562001a955762001a95620026b9565b600d818154811062000c8657600080fd5b42826001600160a01b03167f31f87de04fd141167b8131be7a8ccb2bac63361a15671c96d90c39ddc9ef909d85878560405162001cb59392919062002e85565b604051639296057b60e01b81526000906001600160a01b03841690639296057b9062001e2490859060040162002633565b6020604051808303816000875af115801562001e44573d6000803e3d6000fd5b505050506040513d601f19601f8201168201806040525081019062001e6a919062002ebc565b9050806001036200175757506001600160a01b039081166000908152602081815260408220805460018101825590835291200180546001600160a01b03191692909116919091179055565b600080826001600160a01b0316636f77926b336040518263ffffffff1660e01b815260040162001ee6919062002633565b600060405180830381865afa15801562001f04573d6000803e3d6000fd5b505050506040513d6000823e601f3d908101601f1916820160405262001f2e919081019062002b7c565b905060068160400151600681111562001f4b5762001f4b620026b9565b1462001f5657600080fd5b505033600090815260066020526040902054919050565b42846001600160a01b03167f9151271dfe612a18bf915ee1609e6f94f62fd775c704a0ae2ef091519f0c9b3985858560405162001cb59392919062002e85565b6001600160a01b038116600090815260036020526040812054606091816001600160401b0381111562001fe45762001fe4620029a6565b6040519080825280602002602001820160405280156200200e578160200160208202803683370190505b50905060005b82811015620020aa576001600160a01b03851660009081526003602052604090208054829081106200204a576200204a62002cd7565b9060005260206000200160009054906101000a90046001600160a01b03168282815181106200207d576200207d62002cd7565b6001600160a01b039092166020928302919091019091015280620020a18162002e5d565b91505062002014565b509392505050565b806004811115620020c757620020c7620026b9565b6001600160a01b0383166000908152600760205260409020805460ff19166001836004811115620020fc57620020fc620026b9565b0217905550604080516001600160a01b03841681526020810183905233917fccec82c925d72dd2aa8d8b6eaa04ce67d3cbcffbfd3c646bd72b0206339c1d60910160405180910390a25050565b6060600d8054806020026020016040519081016040528092919081815260200182805480156200095f576020028201919060005260206000209081546001600160a01b0316815260019091019060200180831162000940575050505050905090565b604051639296057b60e01b81526000906001600160a01b03851690639296057b90620021dc90859060040162002633565b6020604051808303816000875af1158015620021fc573d6000803e3d6000fd5b505050506040513d601f19601f8201168201806040525081019062002222919062002ebc565b905080600203620012ec576001600160a01b038281166000908152600360209081526040808320805460018101825590845291832090910180546001600160a01b031916938816938417905580516355da145360e11b8152905191929163abb428a6916004808201926060929091908290030181865afa158015620022ab573d6000803e3d6000fd5b505050506040513d601f19601f82011682018060405250810190620022d1919062002d91565b516001600160a01b031614620012ec5760405163d7dcbe3b60e01b81526001600160a01b038581166004830152838116602483015284169063d7dcbe3b90604401600060405180830381600087803b1580156200232d57600080fd5b505af115801562002342573d6000803e3d6000fd5b5050505050505050565b33600090815260066020526040812054606091816001600160401b038111156200237a576200237a620029a6565b604051908082528060200260200182016040528015620023a4578160200160208202803683370190505b50905060005b82811015620018ba57336000908152600660205260409020805482908110620023d757620023d762002cd7565b9060005260206000200160009054906101000a90046001600160a01b03168282815181106200240a576200240a62002cd7565b6001600160a01b0390921660209283029190910190910152806200242e8162002e5d565b915050620023aa565b600b818154811062000c8657600080fd5b604051637bd6ee1f60e11b81526001600160a01b03838116600483015233602483015282169063f7addc3e90604401600060405180830381600087803b1580156200249257600080fd5b505af1158015620024a7573d6000803e3d6000fd5b50503360009081526006602090815260408220805460018082018355918452919092200180546001600160a01b0319166001600160a01b0387161790559150620024ee9050565b6001600160a01b0383166000908152600760205260409020805460ff19166001836004811115620025235762002523620026b9565b02179055505050565b600a818154811062000c8657600080fd5b60606000826001600160a01b031663835b417f6040518163ffffffff1660e01b8152600401600060405180830381865afa15801562000dc5573d6000803e3d6000fd5b6104778062002ed783390190565b61047b806200334e83390190565b6020808252825182820181905260009190848201906040850190845b81811015620025df5783516001600160a01b031683529284019291840191600101620025b8565b50909695505050505050565b6001600160a01b03811681146200260157600080fd5b50565b600080604083850312156200261857600080fd5b82356200262581620025eb565b946020939093013593505050565b6001600160a01b0391909116815260200190565b6000806000606084860312156200265d57600080fd5b83356200266a81620025eb565b925060208401356200267c81620025eb565b915060408401356200268e81620025eb565b809150509250925092565b600060208284031215620026ac57600080fd5b813562000def81620025eb565b634e487b7160e01b600052602160045260246000fd5b60078110620026e257620026e2620026b9565b9052565b83815260608101620026fc6020830185620026cf565b6001600160a01b03929092166040919091015292915050565b6000602082840312156200272857600080fd5b5035919050565b600080604083850312156200274357600080fd5b8235915060208301356200275781620025eb565b809150509250929050565b600080600080600060a086880312156200277b57600080fd5b85356200278881620025eb565b945060208601359350604086013560ff81168114620027a657600080fd5b94979396509394606081013594506080013592915050565b60008060008060808587031215620027d557600080fd5b8435620027e281620025eb565b93506020850135620027f481620025eb565b925060408501356200280681620025eb565b915060608501356200281881620025eb565b939692955090935050565b6000806000606084860312156200283957600080fd5b83356200284681620025eb565b92506020840135915060408401356200268e81620025eb565b60005b838110156200287c57818101518382015260200162002862565b50506000910152565b600081518084526200289f8160208601602086016200285f565b601f01601f19169290920160200192915050565b6000602080835260a08301845182850152818501516080604086015281815180845260c08701915060c08160051b8801019350848301925060005b81811015620029205760bf198886030183526200290d85855162002885565b94509285019291850191600101620028ee565b50505050604085015191506200293a6060850183620026cf565b60608501516001600160a01b0381166080860152915062000bbf565b60208101600583106200296d576200296d620026b9565b91905290565b600080604083850312156200298757600080fd5b82356200299481620025eb565b915060208301356200275781620025eb565b634e487b7160e01b600052604160045260246000fd5b604051608081016001600160401b0381118282101715620029e157620029e1620029a6565b60405290565b604051601f8201601f191681016001600160401b038111828210171562002a125762002a12620029a6565b604052919050565b60006001600160401b0382111562002a365762002a36620029a6565b50601f01601f191660200190565b6000806000806080858703121562002a5b57600080fd5b843562002a6881620025eb565b9350602085013562002a7a81620025eb565b9250604085013562002a8c81620025eb565b915060608501356001600160401b0381111562002aa857600080fd5b8501601f8101871362002aba57600080fd5b803562002ad162002acb8262002a1a565b620029e7565b81815288602083850101111562002ae757600080fd5b8160208401602083013760006020838301015280935050505092959194509250565b6001600160a01b03948516815292841660208401529083166040830152909116606082015260800190565b60006001600160401b0382111562002b505762002b50620029a6565b5060051b60200190565b80516007811062002b6a57600080fd5b919050565b805162002b6a81620025eb565b6000602080838503121562002b9057600080fd5b82516001600160401b038082111562002ba857600080fd5b908401906080828703121562002bbd57600080fd5b62002bc7620029bc565b82518152838301518281111562002bdd57600080fd5b8301601f8101881362002bef57600080fd5b805162002c0062002acb8262002b34565b81815260059190911b8201860190868101908a83111562002c2057600080fd5b8784015b8381101562002c9e5780518781111562002c3e5760008081fd5b8501603f81018d1362002c515760008081fd5b89810151604062002c6662002acb8362002a1a565b8281528f8284860101111562002c7c5760008081fd5b62002c8d838e83018487016200285f565b865250505091880191880162002c24565b50848801525062002cb59150506040840162002b5a565b604082015262002cc86060840162002b6f565b60608201529695505050505050565b634e487b7160e01b600052603260045260246000fd5b6000602080838503121562002d0157600080fd5b82516001600160401b0381111562002d1857600080fd5b8301601f8101851362002d2a57600080fd5b805162002d3b62002acb8262002b34565b81815260059190911b8201830190838101908783111562002d5b57600080fd5b928401925b8284101562002d8657835162002d7681620025eb565b8252928401929084019062002d60565b979650505050505050565b60006060828403121562002da457600080fd5b82601f83011262002db457600080fd5b604051606081018181106001600160401b038211171562002dd95762002dd9620029a6565b60405280606084018581111562002def57600080fd5b845b8181101562002e1657805162002e0781620025eb565b83526020928301920162002df1565b509195945050505050565b600181811c9082168062002e3657607f821691505b60208210810362002e5757634e487b7160e01b600052602260045260246000fd5b50919050565b60006001820162002e7e57634e487b7160e01b600052601160045260246000fd5b5060010190565b6001600160a01b0384811682528316602082015260606040820181905260009062002eb39083018462002885565b95945050505050565b60006020828403121562002ecf57600080fd5b505191905056fe608060405234801561001057600080fd5b5060405161047738038061047783398101604081905261002f916100b6565b600080546001600160a01b039485166001600160a01b0319918216811790925560018054968616968216969096179095556002805486169091179055600380549284169290941691909117909255600480546001600160a81b0319169290911691909117905561010a565b80516001600160a01b03811681146100b157600080fd5b919050565b600080600080608085870312156100cc57600080fd5b6100d58561009a565b93506100e36020860161009a565b92506100f16040860161009a565b91506100ff6060860161009a565b905092959194509250565b61035e806101196000396000f3fe608060405234801561001057600080fd5b506004361061004c5760003560e01c8063443c28d814610051578063bfcf7f2f14610066578063d2f3fcc714610096578063d7dcbe3b146100b0575b600080fd5b61006461005f3660046102bd565b6100c3565b005b6100646100743660046102f0565b600380546001600160a01b0319166001600160a01b0392909216919091179055565b61009e6101bd565b60405190815260200160405180910390f35b6100646100be3660046102bd565b6101e3565b6003546001600160a01b0382811691161461013d5760405162461bcd60e51b815260206004820152602f60248201527f4f6e6c79204173736f63696174656420736869707065722063616e2063616c6c60448201526e103a3434b990333ab731ba34b7b71760891b60648201526084015b60405180910390fd5b60048054600160a01b60ff60a01b19821617825560025460405163f5c0e38360e01b81526001600160a01b03928316938101939093528116602483015283169063f5c0e383906044015b600060405180830381600087803b1580156101a157600080fd5b505af11580156101b5573d6000803e3d6000fd5b505050505050565b600454600090600160a01b900460ff1660028111156101de576101de610312565b905090565b6004546001600160a01b038281169116146102595760405162461bcd60e51b815260206004820152603060248201527f4f6e6c79204173736f6369617465642072656365697665722063616e2063616c60448201526f36103a3434b990333ab731ba34b7b71760811b6064820152608401610134565b600480546002919060ff60a01b1916600160a01b8302179055506040516393a668b760e01b81526001600160a01b0382811660048301528316906393a668b790602401610187565b80356001600160a01b03811681146102b857600080fd5b919050565b600080604083850312156102d057600080fd5b6102d9836102a1565b91506102e7602084016102a1565b90509250929050565b60006020828403121561030257600080fd5b61030b826102a1565b9392505050565b634e487b7160e01b600052602160045260246000fdfea264697066735822122097e4bb144e97febcf77c9aaa3b0caed345b08353bb84ce7705d299fc4cb0c07664736f6c63430008130033608060405234801561001057600080fd5b5060405161047b38038061047b83398101604081905261002f916100b6565b600080546001600160a01b039485166001600160a01b0319918216811790925560018054968616968216969096179095556002805486169091179055600380549284169290941691909117909255600480546001600160a81b0319169290911691909117905561010a565b80516001600160a01b03811681146100b157600080fd5b919050565b600080600080608085870312156100cc57600080fd5b6100d58561009a565b93506100e36020860161009a565b92506100f16040860161009a565b91506100ff6060860161009a565b905092959194509250565b610362806101196000396000f3fe608060405234801561001057600080fd5b506004361061004c5760003560e01c806353157b1a14610051578063bfcf7f2f14610066578063c0114d0614610096578063f7addc3e146100b0575b600080fd5b61006461005f3660046102c1565b6100c3565b005b6100646100743660046102f4565b600380546001600160a01b0319166001600160a01b0392909216919091179055565b61009e6101c1565b60405190815260200160405180910390f35b6100646100be3660046102c1565b6101e7565b6003546001600160a01b038281169116146101415760405162461bcd60e51b815260206004820152603360248201527f4f6e6c79204173736f636961746564207472616e73706f727465722063616e2060448201527231b0b636103a3434b990333ab731ba34b7b71760691b60648201526084015b60405180910390fd5b60048054600160a01b60ff60a01b1982161782556002546040516305e3aeb160e31b81526001600160a01b039283169381019390935281166024830152831690632f1d7588906044015b600060405180830381600087803b1580156101a557600080fd5b505af11580156101b9573d6000803e3d6000fd5b505050505050565b600454600090600160a01b900460ff1660028111156101e2576101e2610316565b905090565b6004546001600160a01b0382811691161461025d5760405162461bcd60e51b815260206004820152603060248201527f4f6e6c79204173736f6369617465642072656365697665722063616e2063616c60448201526f36103a3434b990333ab731ba34b7b71760811b6064820152608401610138565b600480546002919060ff60a01b1916600160a01b83021790555060405163c8f5f18960e01b81526001600160a01b03828116600483015283169063c8f5f1899060240161018b565b80356001600160a01b03811681146102bc57600080fd5b919050565b600080604083850312156102d457600080fd5b6102dd836102a5565b91506102eb602084016102a5565b90509250929050565b60006020828403121561030657600080fd5b61030f826102a5565b9392505050565b634e487b7160e01b600052602160045260246000fdfea264697066735822122061e44c0494f3ac91cecb65da2415c048682ef6306712144265d1f3bf2a4f996864736f6c63430008130033a2646970667358221220c06c2a5f3729397d208cc7fa6d453babccace857c45ef591bc15607464fb8e5464736f6c63430008130033",
  "immutableReferences": {},
  "source": "// SPDX-License-Identifier: MIT\r\npragma solidity ^0.8.0;\r\n\r\npragma experimental ABIEncoderV2;\r\n\r\n\r\nimport \"./Crop.sol\";\r\nimport \"./Farmer.sol\";\r\nimport \"./Transporter.sol\";\r\nimport \"./Product.sol\";\r\nimport \"./Processor.sol\";\r\nimport \"./ProductW_D.sol\";\r\nimport \"./Wholesaler.sol\";\r\nimport \"./ProductD_C.sol\";\r\nimport \"./Distributor.sol\";\r\nimport \"./Customer.sol\";\r\nimport \"./SupplyChain.sol\";\r\nimport \"./UserData.sol\";\r\n\r\n//// New supply chain : farmer -> transporter -> processor -> transporter -> whole-saler -> transporter -> distributor -> transporter -> customer/hospital/pharmacy\r\n\r\ncontract SupplyChain2 is Wholesaler, Distributor, Customer, UserData {\r\n    address public Owner;\r\n\r\n\r\n    //create a variable for crops that are for sale\r\n\r\n    constructor() {\r\n        Owner = msg.sender;\r\n    }\r\n\r\n    modifier onlyOwner() {\r\n        require(Owner == msg.sender);\r\n        _;\r\n    }\r\n\r\n//     modifier checkUser(address addr) {\r\n//         require(addr == msg.sender);\r\n//         _;\r\n//     }\r\n\r\n//     enum roles {noRolenoRole, farmer, transporter, processor, wholesaler, distributor, customer}\r\n\r\n//     //////////////// Events ////////////////////\r\n\r\n    //event UserRegister(address indexed _address, bytes32 name);\r\n    event buyEvent(address buyer, address indexed seller, address packageAddr, bytes signature, uint indexed timestamp);\r\n    event respondEvent(address indexed buyer, address seller, address packageAddr, bytes signature, uint indexed timestamp);\r\n    event sendEvent(address seller, address buyer, address indexed packageAddr, bytes signature, uint indexed timestamp);\r\n    event receivedEvent(address indexed buyer, address seller, address packageAddr, bytes signature, uint indexed timestamp);\r\n\r\n//////////////// Event functions (All entities) ////////////////////\r\n\r\n    \r\n    function requestProduct(address buyer, address seller, address packageAddr, bytes memory signature) public {\r\n        emit buyEvent(buyer, seller, packageAddr, signature, block.timestamp);\r\n    }\r\n    \r\n    function respondToEntity(address buyer, address seller, address packageAddr, bytes memory signature) public {\r\n        emit respondEvent(buyer, seller, packageAddr, signature, block.timestamp);\r\n    }\r\n    \r\n    function sendPackageToEntity(address buyer, address seller, address packageAddr, bytes memory signature) public {\r\n        emit sendEvent(seller, buyer, packageAddr, signature, block.timestamp);\r\n    }\r\n\r\n    //verify Package\r\n    function verify(address p, bytes32 hash, uint8 v, bytes32 r, bytes32 s) public pure returns(bool) {\r\n        return ecrecover(hash, v, r, s) == p;\r\n    } \r\n    /////////////// Users (Only Owner Executable) //////////////////////\r\n\r\n    // struct userData {\r\n    //     bytes32 name;\r\n    //     string[] userLoc;\r\n    //     roles role;\r\n    //     address userAddr;\r\n    // }\r\n\r\n    // mapping(address => userData) public userInfo;\r\n\r\n    // function registerUser(bytes32 name,string[] memory loc,uint256 role,address _userAddr) external onlyOwner {\r\n    //     userInfo[_userAddr].name = name;\r\n    //     userInfo[_userAddr].userLoc = loc;\r\n    //     userInfo[_userAddr].role = roles(role);\r\n    //     userInfo[_userAddr].userAddr = _userAddr;\r\n\r\n    //     emit UserRegister(_userAddr, name);\r\n    // }\r\n\r\n    // function changeUserRole(uint256 _role, address _addr) external onlyOwner returns (string memory){\r\n    //     userInfo[_addr].role = roles(_role);\r\n    //     return \"Role Updated!\";\r\n    // }\r\n\r\n    // function getUserInfo(address _address) external view onlyOwner returns (userData memory) {\r\n    //     return userInfo[_address];\r\n    // }\r\n    \r\n    ///////////////  Wholesaler  ///////////////\r\n\r\n    function wholesalerReceivedProduct(address _address, address _addr) external {\r\n        userData memory user = SupplyChain(_addr).getUser(msg.sender);\r\n        require(user.role == roles.wholesaler || user.role == roles.distributor);\r\n        productRecievedAtWholesaler(_address, msg.sender);\r\n    }\r\n\r\n    function getAllProcessors(address _addr) public view returns (address[] memory){\r\n        address[] memory processors = SupplyChain(_addr).getallProcessors();\r\n        return processors;\r\n    }\r\n\r\n    function transferProductW_D(address _address, address transporter, address receiver, address _addr) external {\r\n        userData memory user = SupplyChain(_addr).getUser(msg.sender);\r\n        require(user.role == roles.wholesaler && msg.sender == Product(_address).getWDC()[0]);\r\n        transferProductWtoD(_address, transporter, receiver);\r\n    }\r\n\r\n    function getBatchIdByIndexWD(uint256 index, address _addr) external view returns (address packageID) {\r\n        userData memory user = SupplyChain(_addr).getUser(msg.sender);\r\n        require(user.role == roles.wholesaler);\r\n        return ProductWtoD[msg.sender][index];\r\n    }\r\n\r\n    function getSubContractWD(address _address) external view returns (address SubContractWD) {\r\n        return ProductWtoDTxContract[_address];\r\n    }\r\n\r\n    function wholesalerGetAllProducts(address _addr) public view returns(address[] memory) {\r\n        userData memory user = SupplyChain(_addr).getUser(msg.sender);\r\n        require(user.role == roles.wholesaler);\r\n        address[] memory products = getAllProductsAtWholesaler();\r\n        return products;\r\n    }\r\n    \r\n    ///////////////  Distributor  ///////////////\r\n\r\n    function distributorReceivedProduct(address _address, address cid, address _addr) external {\r\n        userData memory user = SupplyChain(_addr).getUser(msg.sender);\r\n        require(user.role == roles.distributor && msg.sender == Product(_address).getWDC()[0]);\r\n        productRecievedAtDistributor(_address, cid, msg.sender);\r\n    }\r\n\r\n    function distributorTransferProducttoCustomer(address _address, address transporter, address receiver, address _addr) external {\r\n        userData memory user = SupplyChain(_addr).getUser(msg.sender);\r\n        require(user.role == roles.distributor && msg.sender == Product(_address).getWDC()[1]);\r\n        transferProductDtoC(_address, transporter, receiver, msg.sender);\r\n    }\r\n\r\n    function getAllWholesalers(address _addr) public view returns (address[] memory){\r\n        address[] memory wholesalers = SupplyChain(_addr).getallWholesalers();\r\n        return wholesalers;\r\n    }\r\n\r\n    function getBatchesCountDC(address _addr) external view returns (uint256 count) {\r\n        userData memory user = SupplyChain(_addr).getUser(msg.sender);\r\n        require(user.role == roles.distributor);\r\n        return ProductDtoC[msg.sender].length;\r\n    }\r\n\r\n    function getBatchIdByIndexDC(uint256 index, address _addr) external view returns (address packageID) {\r\n        userData memory user = SupplyChain(_addr).getUser(msg.sender);\r\n        require(user.role == roles.distributor);\r\n        return ProductDtoC[msg.sender][index];\r\n    }\r\n\r\n    function getSubContractDC(address _address) external view returns (address SubContractDP) {\r\n        return ProductDtoCTxContract[_address];\r\n    }\r\n\r\n    function distributerGetAllProducts(address _addr) public view returns(address[] memory) {\r\n        userData memory user = SupplyChain(_addr).getUser(msg.sender);\r\n        require(user.role == roles.distributor);\r\n        address[] memory products = getAllProductAtDistributor(msg.sender);\r\n        return products;\r\n    }\r\n\r\n    ///////////////  Customer  ///////////////\r\n\r\n    function customerReceivedProduct(address _address, address cid, address _addr) external {\r\n        userData memory user = SupplyChain(_addr).getUser(msg.sender);\r\n        require(user.role == roles.customer);\r\n        productRecievedAtCustomer(_address, cid);\r\n    }\r\n\r\n    function updateStatus(address _address, uint256 Status, address _addr) external {\r\n        userData memory user = SupplyChain(_addr).getUser(msg.sender);\r\n        require(user.role == roles.customer && msg.sender == Product(_address).getWDC()[2], \"Only Customer or current\");\r\n        require(sale[_address] == salestatus(1));\r\n        updateSaleStatus(_address, Status);\r\n    }\r\n\r\n    function getAllDistributors(address _addr) public view returns (address[] memory){\r\n        address[] memory distributors = SupplyChain(_addr).getallDistributors();\r\n        return distributors;\r\n    }\r\n\r\n    function getSalesInfo(address _address) external view returns (uint256 Status) {\r\n        return salesInfo(_address);\r\n    }\r\n\r\n    function getBatchesCountC(address _addr) external view returns (uint256 count) {\r\n        userData memory user = SupplyChain(_addr).getUser(msg.sender);\r\n        require(user.role == roles.customer );\r\n        return ProductBatchAtCustomer[msg.sender].length;\r\n    }\r\n\r\n    function getBatchIdC(address _addr) external view returns (address[] memory) {\r\n        userData memory user = SupplyChain(_addr).getUser(msg.sender);\r\n        require(user.role == roles.customer );\r\n        return ProductBatchAtCustomer[msg.sender];\r\n    }\r\n\r\n    function customerGetAllProducts(address _addr) public view returns(address[] memory) {\r\n        userData memory user = SupplyChain(_addr).getUser(msg.sender);\r\n        require(user.role == roles.customer);\r\n        address[] memory products = getAllProductsAtCustomer();\r\n        return products;\r\n    }\r\n    \r\n}",
  "sourcePath": "D:\\Projects\\FarmTrust1\\contracts\\SupplyChain2.sol",
  "compiler": {
    "name": "solc",
    "version": "0.8.19+commit.7dd6d404.Emscripten.clang"
  },
  "schemaVersion": "3.4.13",
  "updatedAt": "2023-05-25T03:05:06.191Z",
  "networkType": "ethereum",
  "devdoc": {
    "kind": "dev",
    "methods": {},
    "version": 1
  },
  "userdoc": {
    "kind": "user",
    "methods": {},
    "version": 1
  }
}