{
  "contractName": "SupplyChain",
  "abi": [
    {
      "inputs": [],
      "stateMutability": "nonpayable",
      "type": "constructor"
    },
    {
      "anonymous": false,
      "inputs": [
        {
          "indexed": true,
          "internalType": "address",
          "name": "_address",
          "type": "address"
        },
        {
          "indexed": false,
          "internalType": "bytes32",
          "name": "name",
          "type": "bytes32"
        }
      ],
      "name": "UserRegister",
      "type": "event"
    },
    {
      "anonymous": false,
      "inputs": [
        {
          "indexed": false,
          "internalType": "address",
          "name": "buyer",
          "type": "address"
        },
        {
          "indexed": true,
          "internalType": "address",
          "name": "seller",
          "type": "address"
        },
        {
          "indexed": false,
          "internalType": "address",
          "name": "packageAddr",
          "type": "address"
        },
        {
          "indexed": false,
          "internalType": "bytes",
          "name": "signature",
          "type": "bytes"
        },
        {
          "indexed": true,
          "internalType": "uint256",
          "name": "timestamp",
          "type": "uint256"
        }
      ],
      "name": "buyEvent",
      "type": "event"
    },
    {
      "anonymous": false,
      "inputs": [
        {
          "indexed": true,
          "internalType": "address",
          "name": "buyer",
          "type": "address"
        },
        {
          "indexed": false,
          "internalType": "address",
          "name": "seller",
          "type": "address"
        },
        {
          "indexed": false,
          "internalType": "address",
          "name": "packageAddr",
          "type": "address"
        },
        {
          "indexed": false,
          "internalType": "bytes",
          "name": "signature",
          "type": "bytes"
        },
        {
          "indexed": true,
          "internalType": "uint256",
          "name": "timestamp",
          "type": "uint256"
        }
      ],
      "name": "receivedEvent",
      "type": "event"
    },
    {
      "anonymous": false,
      "inputs": [
        {
          "indexed": true,
          "internalType": "address",
          "name": "buyer",
          "type": "address"
        },
        {
          "indexed": false,
          "internalType": "address",
          "name": "seller",
          "type": "address"
        },
        {
          "indexed": false,
          "internalType": "address",
          "name": "packageAddr",
          "type": "address"
        },
        {
          "indexed": false,
          "internalType": "bytes",
          "name": "signature",
          "type": "bytes"
        },
        {
          "indexed": true,
          "internalType": "uint256",
          "name": "timestamp",
          "type": "uint256"
        }
      ],
      "name": "respondEvent",
      "type": "event"
    },
    {
      "anonymous": false,
      "inputs": [
        {
          "indexed": false,
          "internalType": "address",
          "name": "seller",
          "type": "address"
        },
        {
          "indexed": false,
          "internalType": "address",
          "name": "buyer",
          "type": "address"
        },
        {
          "indexed": true,
          "internalType": "address",
          "name": "packageAddr",
          "type": "address"
        },
        {
          "indexed": false,
          "internalType": "bytes",
          "name": "signature",
          "type": "bytes"
        },
        {
          "indexed": true,
          "internalType": "uint256",
          "name": "timestamp",
          "type": "uint256"
        }
      ],
      "name": "sendEvent",
      "type": "event"
    },
    {
      "inputs": [],
      "name": "Owner",
      "outputs": [
        {
          "internalType": "address",
          "name": "",
          "type": "address"
        }
      ],
      "stateMutability": "view",
      "type": "function",
      "constant": true
    },
    {
      "inputs": [
        {
          "internalType": "bytes32",
          "name": "_description",
          "type": "bytes32"
        },
        {
          "internalType": "uint256",
          "name": "_quantity",
          "type": "uint256"
        },
        {
          "internalType": "address",
          "name": "_transporterAddr",
          "type": "address"
        },
        {
          "internalType": "address",
          "name": "_processorAddr",
          "type": "address"
        }
      ],
      "name": "createCropPackage",
      "outputs": [],
      "stateMutability": "nonpayable",
      "type": "function"
    },
    {
      "inputs": [
        {
          "internalType": "uint256",
          "name": "",
          "type": "uint256"
        }
      ],
      "name": "customers",
      "outputs": [
        {
          "internalType": "address",
          "name": "",
          "type": "address"
        }
      ],
      "stateMutability": "view",
      "type": "function",
      "constant": true
    },
    {
      "inputs": [
        {
          "internalType": "uint256",
          "name": "",
          "type": "uint256"
        }
      ],
      "name": "distributors",
      "outputs": [
        {
          "internalType": "address",
          "name": "",
          "type": "address"
        }
      ],
      "stateMutability": "view",
      "type": "function",
      "constant": true
    },
    {
      "inputs": [
        {
          "internalType": "address",
          "name": "",
          "type": "address"
        },
        {
          "internalType": "uint256",
          "name": "",
          "type": "uint256"
        }
      ],
      "name": "farmerCrops",
      "outputs": [
        {
          "internalType": "address",
          "name": "",
          "type": "address"
        }
      ],
      "stateMutability": "view",
      "type": "function",
      "constant": true
    },
    {
      "inputs": [
        {
          "internalType": "uint256",
          "name": "",
          "type": "uint256"
        }
      ],
      "name": "farmers",
      "outputs": [
        {
          "internalType": "address",
          "name": "",
          "type": "address"
        }
      ],
      "stateMutability": "view",
      "type": "function",
      "constant": true
    },
    {
      "inputs": [],
      "name": "getAllCreatedProducts",
      "outputs": [
        {
          "internalType": "address[]",
          "name": "",
          "type": "address[]"
        }
      ],
      "stateMutability": "view",
      "type": "function",
      "constant": true
    },
    {
      "inputs": [],
      "name": "getAllCrops",
      "outputs": [
        {
          "internalType": "address[]",
          "name": "",
          "type": "address[]"
        }
      ],
      "stateMutability": "view",
      "type": "function",
      "constant": true
    },
    {
      "inputs": [],
      "name": "getAllPackages",
      "outputs": [
        {
          "internalType": "address[]",
          "name": "",
          "type": "address[]"
        }
      ],
      "stateMutability": "view",
      "type": "function",
      "constant": true
    },
    {
      "inputs": [],
      "name": "getNoOfPackagesOfFarmer",
      "outputs": [
        {
          "internalType": "uint256",
          "name": "",
          "type": "uint256"
        }
      ],
      "stateMutability": "view",
      "type": "function",
      "constant": true
    },
    {
      "inputs": [
        {
          "internalType": "address",
          "name": "_addr",
          "type": "address"
        }
      ],
      "name": "getUser",
      "outputs": [
        {
          "components": [
            {
              "internalType": "bytes32",
              "name": "name",
              "type": "bytes32"
            },
            {
              "internalType": "string[]",
              "name": "userLoc",
              "type": "string[]"
            },
            {
              "internalType": "enum roles",
              "name": "role",
              "type": "uint8"
            },
            {
              "internalType": "address",
              "name": "userAddr",
              "type": "address"
            }
          ],
          "internalType": "struct UserData.userData",
          "name": "",
          "type": "tuple"
        }
      ],
      "stateMutability": "view",
      "type": "function",
      "constant": true
    },
    {
      "inputs": [],
      "name": "getallCustomers",
      "outputs": [
        {
          "internalType": "address[]",
          "name": "",
          "type": "address[]"
        }
      ],
      "stateMutability": "view",
      "type": "function",
      "constant": true
    },
    {
      "inputs": [],
      "name": "getallDistributors",
      "outputs": [
        {
          "internalType": "address[]",
          "name": "",
          "type": "address[]"
        }
      ],
      "stateMutability": "view",
      "type": "function",
      "constant": true
    },
    {
      "inputs": [],
      "name": "getallFarmers",
      "outputs": [
        {
          "internalType": "address[]",
          "name": "",
          "type": "address[]"
        }
      ],
      "stateMutability": "view",
      "type": "function",
      "constant": true
    },
    {
      "inputs": [],
      "name": "getallProcessors",
      "outputs": [
        {
          "internalType": "address[]",
          "name": "",
          "type": "address[]"
        }
      ],
      "stateMutability": "view",
      "type": "function",
      "constant": true
    },
    {
      "inputs": [],
      "name": "getallTransporters",
      "outputs": [
        {
          "internalType": "address[]",
          "name": "",
          "type": "address[]"
        }
      ],
      "stateMutability": "view",
      "type": "function",
      "constant": true
    },
    {
      "inputs": [],
      "name": "getallWholesalers",
      "outputs": [
        {
          "internalType": "address[]",
          "name": "",
          "type": "address[]"
        }
      ],
      "stateMutability": "view",
      "type": "function",
      "constant": true
    },
    {
      "inputs": [
        {
          "internalType": "address",
          "name": "_addr",
          "type": "address"
        },
        {
          "internalType": "uint256",
          "name": "transportertype",
          "type": "uint256"
        },
        {
          "internalType": "address",
          "name": "cid",
          "type": "address"
        }
      ],
      "name": "handlePackage",
      "outputs": [],
      "stateMutability": "nonpayable",
      "type": "function"
    },
    {
      "inputs": [
        {
          "internalType": "address",
          "name": "_processorAddr",
          "type": "address"
        },
        {
          "internalType": "bytes32",
          "name": "_description",
          "type": "bytes32"
        },
        {
          "internalType": "address[]",
          "name": "_cropsAddr",
          "type": "address[]"
        },
        {
          "internalType": "uint256",
          "name": "_quantity",
          "type": "uint256"
        },
        {
          "internalType": "address[]",
          "name": "_transporterAddr",
          "type": "address[]"
        },
        {
          "internalType": "address",
          "name": "_wholesalerAddr",
          "type": "address"
        },
        {
          "internalType": "address",
          "name": "_distributorAddr",
          "type": "address"
        }
      ],
      "name": "processorCreatesProduct",
      "outputs": [],
      "stateMutability": "nonpayable",
      "type": "function"
    },
    {
      "inputs": [
        {
          "internalType": "address",
          "name": "",
          "type": "address"
        },
        {
          "internalType": "uint256",
          "name": "",
          "type": "uint256"
        }
      ],
      "name": "processorCrops",
      "outputs": [
        {
          "internalType": "address",
          "name": "",
          "type": "address"
        }
      ],
      "stateMutability": "view",
      "type": "function",
      "constant": true
    },
    {
      "inputs": [
        {
          "internalType": "address",
          "name": "",
          "type": "address"
        },
        {
          "internalType": "uint256",
          "name": "",
          "type": "uint256"
        }
      ],
      "name": "processorProducts",
      "outputs": [
        {
          "internalType": "address",
          "name": "",
          "type": "address"
        }
      ],
      "stateMutability": "view",
      "type": "function",
      "constant": true
    },
    {
      "inputs": [
        {
          "internalType": "address",
          "name": "_addr",
          "type": "address"
        },
        {
          "internalType": "address",
          "name": "_processorAddress",
          "type": "address"
        }
      ],
      "name": "processorReceivedPackage",
      "outputs": [],
      "stateMutability": "nonpayable",
      "type": "function"
    },
    {
      "inputs": [
        {
          "internalType": "uint256",
          "name": "",
          "type": "uint256"
        }
      ],
      "name": "processors",
      "outputs": [
        {
          "internalType": "address",
          "name": "",
          "type": "address"
        }
      ],
      "stateMutability": "view",
      "type": "function",
      "constant": true
    },
    {
      "inputs": [
        {
          "internalType": "uint256",
          "name": "",
          "type": "uint256"
        }
      ],
      "name": "transporters",
      "outputs": [
        {
          "internalType": "address",
          "name": "",
          "type": "address"
        }
      ],
      "stateMutability": "view",
      "type": "function",
      "constant": true
    },
    {
      "inputs": [
        {
          "internalType": "address",
          "name": "",
          "type": "address"
        }
      ],
      "name": "userInfo",
      "outputs": [
        {
          "internalType": "bytes32",
          "name": "name",
          "type": "bytes32"
        },
        {
          "internalType": "enum roles",
          "name": "role",
          "type": "uint8"
        },
        {
          "internalType": "address",
          "name": "userAddr",
          "type": "address"
        }
      ],
      "stateMutability": "view",
      "type": "function",
      "constant": true
    },
    {
      "inputs": [
        {
          "internalType": "uint256",
          "name": "",
          "type": "uint256"
        }
      ],
      "name": "wholesalers",
      "outputs": [
        {
          "internalType": "address",
          "name": "",
          "type": "address"
        }
      ],
      "stateMutability": "view",
      "type": "function",
      "constant": true
    },
    {
      "inputs": [
        {
          "internalType": "address",
          "name": "buyer",
          "type": "address"
        },
        {
          "internalType": "address",
          "name": "seller",
          "type": "address"
        },
        {
          "internalType": "address",
          "name": "packageAddr",
          "type": "address"
        },
        {
          "internalType": "bytes",
          "name": "signature",
          "type": "bytes"
        }
      ],
      "name": "requestProduct",
      "outputs": [],
      "stateMutability": "nonpayable",
      "type": "function"
    },
    {
      "inputs": [
        {
          "internalType": "address",
          "name": "buyer",
          "type": "address"
        },
        {
          "internalType": "address",
          "name": "seller",
          "type": "address"
        },
        {
          "internalType": "address",
          "name": "packageAddr",
          "type": "address"
        },
        {
          "internalType": "bytes",
          "name": "signature",
          "type": "bytes"
        }
      ],
      "name": "respondToEntity",
      "outputs": [],
      "stateMutability": "nonpayable",
      "type": "function"
    },
    {
      "inputs": [
        {
          "internalType": "address",
          "name": "buyer",
          "type": "address"
        },
        {
          "internalType": "address",
          "name": "seller",
          "type": "address"
        },
        {
          "internalType": "address",
          "name": "packageAddr",
          "type": "address"
        },
        {
          "internalType": "bytes",
          "name": "signature",
          "type": "bytes"
        }
      ],
      "name": "sendPackageToEntity",
      "outputs": [],
      "stateMutability": "nonpayable",
      "type": "function"
    },
    {
      "inputs": [
        {
          "internalType": "address",
          "name": "p",
          "type": "address"
        },
        {
          "internalType": "bytes32",
          "name": "hash",
          "type": "bytes32"
        },
        {
          "internalType": "uint8",
          "name": "v",
          "type": "uint8"
        },
        {
          "internalType": "bytes32",
          "name": "r",
          "type": "bytes32"
        },
        {
          "internalType": "bytes32",
          "name": "s",
          "type": "bytes32"
        }
      ],
      "name": "verify",
      "outputs": [
        {
          "internalType": "bool",
          "name": "",
          "type": "bool"
        }
      ],
      "stateMutability": "pure",
      "type": "function",
      "constant": true
    },
    {
      "inputs": [
        {
          "internalType": "bytes32",
          "name": "name",
          "type": "bytes32"
        },
        {
          "internalType": "string[]",
          "name": "loc",
          "type": "string[]"
        },
        {
          "internalType": "uint256",
          "name": "role",
          "type": "uint256"
        },
        {
          "internalType": "address",
          "name": "_userAddr",
          "type": "address"
        }
      ],
      "name": "registerUser",
      "outputs": [],
      "stateMutability": "nonpayable",
      "type": "function"
    },
    {
      "inputs": [
        {
          "internalType": "uint256",
          "name": "_role",
          "type": "uint256"
        },
        {
          "internalType": "address",
          "name": "_addr",
          "type": "address"
        }
      ],
      "name": "changeUserRole",
      "outputs": [
        {
          "internalType": "string",
          "name": "",
          "type": "string"
        }
      ],
      "stateMutability": "nonpayable",
      "type": "function"
    },
    {
      "inputs": [
        {
          "internalType": "address",
          "name": "_address",
          "type": "address"
        }
      ],
      "name": "getUserInfo",
      "outputs": [
        {
          "components": [
            {
              "internalType": "bytes32",
              "name": "name",
              "type": "bytes32"
            },
            {
              "internalType": "string[]",
              "name": "userLoc",
              "type": "string[]"
            },
            {
              "internalType": "enum roles",
              "name": "role",
              "type": "uint8"
            },
            {
              "internalType": "address",
              "name": "userAddr",
              "type": "address"
            }
          ],
          "internalType": "struct UserData.userData",
          "name": "",
          "type": "tuple"
        }
      ],
      "stateMutability": "view",
      "type": "function",
      "constant": true
    },
    {
      "inputs": [
        {
          "internalType": "bytes32",
          "name": "_description",
          "type": "bytes32"
        },
        {
          "internalType": "uint256",
          "name": "_quantity",
          "type": "uint256"
        },
        {
          "internalType": "address",
          "name": "_transporterAddr",
          "type": "address"
        },
        {
          "internalType": "address",
          "name": "_processorAddr",
          "type": "address"
        }
      ],
      "name": "farmerCreatesCropPackage",
      "outputs": [],
      "stateMutability": "nonpayable",
      "type": "function"
    },
    {
      "inputs": [],
      "name": "farmerGetPackageCount",
      "outputs": [
        {
          "internalType": "uint256",
          "name": "",
          "type": "uint256"
        }
      ],
      "stateMutability": "view",
      "type": "function",
      "constant": true
    },
    {
      "inputs": [],
      "name": "farmerGetCropPackageAddresses",
      "outputs": [
        {
          "internalType": "address[]",
          "name": "",
          "type": "address[]"
        }
      ],
      "stateMutability": "view",
      "type": "function",
      "constant": true
    },
    {
      "inputs": [
        {
          "internalType": "address",
          "name": "_address",
          "type": "address"
        },
        {
          "internalType": "uint256",
          "name": "transporterType",
          "type": "uint256"
        },
        {
          "internalType": "address",
          "name": "cid",
          "type": "address"
        }
      ],
      "name": "transporterHandlePackage",
      "outputs": [],
      "stateMutability": "nonpayable",
      "type": "function"
    },
    {
      "inputs": [
        {
          "internalType": "address",
          "name": "_addr",
          "type": "address"
        }
      ],
      "name": "processorReceivedCrops",
      "outputs": [],
      "stateMutability": "nonpayable",
      "type": "function"
    },
    {
      "inputs": [
        {
          "internalType": "bytes32",
          "name": "_description",
          "type": "bytes32"
        },
        {
          "internalType": "address[]",
          "name": "_cropAddr",
          "type": "address[]"
        },
        {
          "internalType": "uint256",
          "name": "_quantity",
          "type": "uint256"
        },
        {
          "internalType": "address[]",
          "name": "_transporterAddr",
          "type": "address[]"
        },
        {
          "internalType": "address",
          "name": "_wholesalerAddr",
          "type": "address"
        },
        {
          "internalType": "address",
          "name": "_distributorAddr",
          "type": "address"
        }
      ],
      "name": "processorCreatesNewProduct",
      "outputs": [
        {
          "internalType": "string",
          "name": "",
          "type": "string"
        }
      ],
      "stateMutability": "nonpayable",
      "type": "function"
    },
    {
      "inputs": [],
      "name": "processorGetAllCrops",
      "outputs": [
        {
          "internalType": "address[]",
          "name": "",
          "type": "address[]"
        }
      ],
      "stateMutability": "view",
      "type": "function",
      "constant": true
    },
    {
      "inputs": [],
      "name": "getAllFarmers",
      "outputs": [
        {
          "internalType": "address[]",
          "name": "",
          "type": "address[]"
        }
      ],
      "stateMutability": "view",
      "type": "function",
      "constant": true
    },
    {
      "inputs": [],
      "name": "processorGetAllCreatedProducts",
      "outputs": [
        {
          "internalType": "address[]",
          "name": "",
          "type": "address[]"
        }
      ],
      "stateMutability": "view",
      "type": "function",
      "constant": true
    }
  ],
  "bytecode": "0x608060405234801561001057600080fd5b50600a80546001600160a01b031916331790556154b7806100326000396000f3fe60806040523480156200001157600080fd5b5060043610620002905760003560e01c806373156f751162000161578063c0abda2a11620000d3578063ea4680681162000092578063ea46806814620005c8578063eba1b7ce14620005d2578063ee0342cc14620005dc578063f9a386b114620005e6578063fc23328c14620005fd578063fe7c58e9146200061457600080fd5b8063c0abda2a1462000562578063c81c0dfd1462000579578063d06f7b551462000590578063db5d7f0e14620005a7578063e0cf92fe14620005b157600080fd5b8063aeb35f201162000120578063aeb35f2014620004f2578063b4a99a4e1462000509578063b8b16ca3146200051d578063bbec729f1462000534578063be7ef9c0146200054b57600080fd5b806373156f751462000497578063835b417f14620004a15780638afdd66914620004ab57806390ff8ca014620004c25780639100978614620004cc57600080fd5b8063493295b6116200020757806352caf8bf11620001c657806352caf8bf1462000422578063536954e414620004395780636386c1c714620004435780636694cfa114620004395780636f41507c14620004695780636f77926b146200048057600080fd5b8063493295b614620003ab57806349e3fc4614620003c25780634db6eabe14620003d9578063506535f314620003e357806350b492ba146200040b57600080fd5b80631a717f6511620002545780631a717f6514620003505780631d48dc90146200035a5780631e1ee84314620003645780631f90ddaf146200037d57806329c2a877146200039457600080fd5b8062af37ff146200029557806303c6c71114620002b95780630a421f0f14620002d257806312b7963614620002dc5780631959a0021462000302575b600080fd5b336000908152602081905260409020545b6040519081526020015b60405180910390f35b620002c36200062b565b604051620002b0919062001c56565b620002c36200068f565b620002f3620002ed36600462001c8a565b62000781565b604051620002b0919062001cb7565b6200033f6200031336600462001ccb565b6009602052600090815260409020805460029091015460ff81169061010090046001600160a01b031683565b604051620002b09392919062001d22565b620002a6620007ba565b620002c362000807565b6200037b6200037536600462001e3c565b620008f2565b005b6200037b6200038e36600462001f4e565b6200097f565b620002f3620003a536600462002047565b62000dc9565b620002f3620003bc36600462001c8a565b62000df4565b6200037b620003d336600462002061565b62000e11565b620002c362000f48565b620003fa620003f4366004620020a1565b62000faa565b6040519015158152602001620002b0565b620002f36200041c36600462002047565b62001029565b6200037b6200043336600462002061565b6200103a565b620002c362001085565b6200045a6200045436600462001ccb565b620010e7565b604051620002b091906200214f565b6200037b6200047a366004620021f4565b6200128f565b6200045a6200049136600462001ccb565b620013cc565b620002c3620014fa565b620002c362001545565b620002f3620004bc36600462002047565b620015a7565b620002c3620015b8565b620004e3620004dd36600462002235565b6200161a565b604051620002b0919062002264565b6200037b6200050336600462001ccb565b620016b2565b600a54620002f3906001600160a01b031681565b6200037b6200052e36600462002279565b620016f8565b620004e36200054536600462002306565b62001746565b6200037b6200055c366004620021f4565b620017c2565b620002f36200057336600462002047565b62001814565b620002f36200058a36600462001c8a565b62001825565b6200037b620005a136600462002279565b62001842565b620002c362001882565b6200037b620005c236600462002279565b620018c7565b620002c362001907565b620002c3620019f2565b620002c362001a54565b6200037b620005f7366004620023a7565b62001a62565b620002f36200060e36600462002047565b62001b04565b620002f36200062536600462002047565b62001b15565b606060048054806020026020016040519081016040528092919081815260200182805480156200068557602002820191906000526020600020905b81546001600160a01b0316815260019091019060200180831162000666575b5050505050905090565b33600090815260208190526040812054606091816001600160401b03811115620006bd57620006bd62001d51565b604051908082528060200260200182016040528015620006e7578160200160208202803683370190505b50905060005b828110156200077a573360009081526020819052604090208054829081106200071a576200071a620023d6565b9060005260206000200160009054906101000a90046001600160a01b03168282815181106200074d576200074d620023d6565b6001600160a01b0390921660209283029190910190910152806200077181620023ec565b915050620006ed565b5092915050565b600060205281600052604060002081815481106200079e57600080fd5b6000918252602090912001546001600160a01b03169150829050565b600060013360009081526009602052604090206002015460ff166006811115620007e857620007e862001ce9565b14620007f357600080fd5b503360009081526020819052604090205490565b33600090815260016020526040812054606091816001600160401b0381111562000835576200083562001d51565b6040519080825280602002602001820160405280156200085f578160200160208202803683370190505b50905060005b828110156200077a57336000908152600160205260409020805482908110620008925762000892620023d6565b9060005260206000200160009054906101000a90046001600160a01b0316828281518110620008c557620008c5620023d6565b6001600160a01b039092166020928302919091019091015280620008e981620023ec565b91505062000865565b600087878787878787604051620009099062001b26565b6200091b979695949392919062002414565b604051809103906000f08015801562000938573d6000803e3d6000fd5b506001600160a01b0398891660009081526002602090815260408220805460018101825590835291200180546001600160a01b031916919099161790975550505050505050565b600a546001600160a01b031633146200099757600080fd5b6001600160a01b03811660009081526009602090815260409091208581558451620009cb9260019092019186019062001b34565b50816006811115620009e157620009e162001ce9565b6001600160a01b0382166000908152600960205260409020600201805460ff1916600183600681111562000a195762000a1962001ce9565b02179055506001600160a01b03811660008181526009602052604090206002018054610100909202610100600160a81b03198316811790915560019160ff918216911617600681111562000a715762000a7162001ce9565b0362000ac857600380546001810182556000919091527fc2575a0e9e593c00f959f8c92f12db2869c3395a3b0502d05e2516446f71f85b0180546001600160a01b0319166001600160a01b03831617905562000d7f565b60026001600160a01b03821660009081526009602052604090206002015460ff16600681111562000afd5762000afd62001ce9565b0362000b5457600480546001810182556000919091527f8a35acfbc15ff81a39ae7d344fd709f28e8600b4aa8c65c6b64bfe7fe36bd19b0180546001600160a01b0319166001600160a01b03831617905562000d7f565b60036001600160a01b03821660009081526009602052604090206002015460ff16600681111562000b895762000b8962001ce9565b0362000be057600580546001810182556000919091527f036b6384b5eca791c62761152d0c79bb0604c104a5fb6f4eb0703f3154bb3db00180546001600160a01b0319166001600160a01b03831617905562000d7f565b60046001600160a01b03821660009081526009602052604090206002015460ff16600681111562000c155762000c1562001ce9565b0362000c6c57600680546001810182556000919091527ff652222313e28459528d920b65115c16c04f3efc82aaedc97be59f3f377c0d3f0180546001600160a01b0319166001600160a01b03831617905562000d7f565b60056001600160a01b03821660009081526009602052604090206002015460ff16600681111562000ca15762000ca162001ce9565b0362000cf857600780546001810182556000919091527fa66cc928b5edb82af9bd49922954155ab7b0942694bea4ce44661d9a8736c6880180546001600160a01b0319166001600160a01b03831617905562000d7f565b60066001600160a01b03821660009081526009602052604090206002015460ff16600681111562000d2d5762000d2d62001ce9565b0362000d7f57600880546001810182556000919091527ff3f7a9fe364faab93b216da50a3214154f22a0a2b415b23a84c8169e8b636ee30180546001600160a01b0319166001600160a01b0383161790555b806001600160a01b03167f33a7170f028b1e4f5ba321064a00ed820856a920c7f9c6636fbcf385427b1b0f8560405162000dbb91815260200190565b60405180910390a250505050565b6004818154811062000dda57600080fd5b6000918252602090912001546001600160a01b0316905081565b600160205281600052604060002081815481106200079e57600080fd5b60405133606081901b6bffffffffffffffffffffffff1916602083015242603483015260009160029060540160408051601f198184030181529082905262000e599162002475565b602060405180830381855afa15801562000e77573d6000803e3d6000fd5b5050506040513d601f19601f8201168201806040525081019062000e9c919062002493565b60601c8686868660405162000eb19062001b91565b6001600160a01b0396871681529486166020860152604085019390935260608401919091528316608083015290911660a082015260c001604051809103906000f08015801562000f05573d6000803e3d6000fd5b50336000908152602081815260408220805460018101825590835291200180546001600160a01b0319166001600160a01b03929092169190911790555050505050565b6060600780548060200260200160405190810160405280929190818152602001828054801562000685576020028201919060005260206000209081546001600160a01b0316815260019091019060200180831162000666575050505050905090565b6040805160008082526020820180845287905260ff86169282019290925260608101849052608081018390526001600160a01b0387169060019060a0016020604051602081039080840390855afa1580156200100a573d6000803e3d6000fd5b505050602060405103516001600160a01b031614905095945050505050565b6007818154811062000dda57600080fd5b60013360009081526009602052604090206002015460ff16600681111562001066576200106662001ce9565b146200107157600080fd5b6200107f8484848462000e11565b50505050565b6060600380548060200260200160405190810160405280929190818152602001828054801562000685576020028201919060005260206000209081546001600160a01b0316815260019091019060200180831162000666575050505050905090565b620011136040805160808101825260008082526060602083015290918201908152600060209091015290565b600a546001600160a01b031633146200112b57600080fd5b6001600160a01b03821660009081526009602090815260408083208151608081018352815481526001820180548451818702810187019095528085529195929486810194939192919084015b828210156200122d5783829060005260206000200180546200119990620024ad565b80601f0160208091040260200160405190810160405280929190818152602001828054620011c790620024ad565b8015620012185780601f10620011ec5761010080835404028352916020019162001218565b820191906000526020600020905b815481529060010190602001808311620011fa57829003601f168201915b50505050508152602001906001019062001177565b50505090825250600282015460209091019060ff16600681111562001256576200125662001ce9565b60068111156200126a576200126a62001ce9565b81526002919091015461010090046001600160a01b031660209091015290505b919050565b81600103620012ff5760405163638e9a3d60e01b81526001600160a01b0384169063638e9a3d90620012c690339060040162001cb7565b600060405180830381600087803b158015620012e157600080fd5b505af1158015620012f6573d6000803e3d6000fd5b50505050505050565b816002036200133657604051630c8b99eb60e11b81526001600160a01b0384169063191733d690620012c690339060040162001cb7565b816003036200137457604051630887851b60e31b81526001600160a01b03848116600483015233602483015282169063443c28d890604401620012c6565b81600403620013c75760405163298abd8d60e11b81526001600160a01b0384811660048301523360248301528216906353157b1a90604401600060405180830381600087803b158015620012e157600080fd5b505050565b620013f86040805160808101825260008082526060602083015290918201908152600060209091015290565b6001600160a01b03821660009081526009602090815260408083208151608081018352815481526001820180548451818702810187019095528085529195929486810194939192919084015b828210156200122d5783829060005260206000200180546200146690620024ad565b80601f01602080910402602001604051908101604052809291908181526020018280546200149490620024ad565b8015620014e55780601f10620014b957610100808354040283529160200191620014e5565b820191906000526020600020905b815481529060010190602001808311620014c757829003601f168201915b50505050508152602001906001019062001444565b606060033360009081526009602052604090206002015460ff16600681111562001528576200152862001ce9565b146200153357600080fd5b60006200153f62000807565b92915050565b6060600580548060200260200160405190810160405280929190818152602001828054801562000685576020028201919060005260206000209081546001600160a01b0316815260019091019060200180831162000666575050505050905090565b6003818154811062000dda57600080fd5b6060600680548060200260200160405190810160405280929190818152602001828054801562000685576020028201919060005260206000209081546001600160a01b0316815260019091019060200180831162000666575050505050905090565b600a546060906001600160a01b031633146200163557600080fd5b8260068111156200164a576200164a62001ce9565b6001600160a01b0383166000908152600960205260409020600201805460ff1916600183600681111562001682576200168262001ce9565b02179055505060408051808201909152600d81526c526f6c6520557064617465642160981b602082015292915050565b60033360009081526009602052604090206002015460ff166006811115620016de57620016de62001ce9565b14620016e957600080fd5b620016f5813362001a62565b50565b42836001600160a01b03167f22561ca0666e99052dd8231a6c5c337204ed5658c357aa6afcd53c207acfac678685856040516200173893929190620024e9565b60405180910390a350505050565b606060033360009081526009602052604090206002015460ff16600681111562001774576200177462001ce9565b146200177f57600080fd5b6200179033888888888888620008f2565b5060408051808201909152601081526f50726f6475637420637265617465642160801b60208201529695505050505050565b60023360009081526009602052604090206002015460ff166006811115620017ee57620017ee62001ce9565b14620017f957600080fd5b600082116200180757600080fd5b620013c78383836200128f565b6008818154811062000dda57600080fd5b600260205281600052604060002081815481106200079e57600080fd5b42826001600160a01b03167f31f87de04fd141167b8131be7a8ccb2bac63361a15671c96d90c39ddc9ef909d8587856040516200173893929190620024e9565b606060033360009081526009602052604090206002015460ff166006811115620018b057620018b062001ce9565b14620018bb57600080fd5b60006200153f62001907565b42846001600160a01b03167f9151271dfe612a18bf915ee1609e6f94f62fd775c704a0ae2ef091519f0c9b398585856040516200173893929190620024e9565b33600090815260026020526040812054606091816001600160401b0381111562001935576200193562001d51565b6040519080825280602002602001820160405280156200195f578160200160208202803683370190505b50905060005b828110156200077a57336000908152600260205260409020805482908110620019925762001992620023d6565b9060005260206000200160009054906101000a90046001600160a01b0316828281518110620019c557620019c5620023d6565b6001600160a01b039092166020928302919091019091015280620019e981620023ec565b91505062001965565b6060600880548060200260200160405190810160405280929190818152602001828054801562000685576020028201919060005260206000209081546001600160a01b0316815260019091019060200180831162000666575050505050905090565b606060006200153f6200068f565b604051630a57332d60e31b81526001600160a01b038316906352b999689062001a9090849060040162001cb7565b600060405180830381600087803b15801562001aab57600080fd5b505af115801562001ac0573d6000803e3d6000fd5b505050506001600160a01b03908116600090815260016020818152604083208054928301815583529091200180546001600160a01b03191692909116919091179055565b6006818154811062000dda57600080fd5b6005818154811062000dda57600080fd5b611aec806200263f83390190565b82805482825590600052602060002090810192821562001b7f579160200282015b8281111562001b7f578251829062001b6e908262002572565b509160200191906001019062001b55565b5062001b8d92915062001b9f565b5090565b611357806200412b83390190565b8082111562001b8d57600062001bb6828262001bc0565b5060010162001b9f565b50805462001bce90620024ad565b6000825580601f1062001bdf575050565b601f016020900490600052602060002090810190620016f591905b8082111562001b8d576000815560010162001bfa565b600081518084526020808501945080840160005b8381101562001c4b5781516001600160a01b03168752958201959082019060010162001c24565b509495945050505050565b60208152600062001c6b602083018462001c10565b9392505050565b80356001600160a01b03811681146200128a57600080fd5b6000806040838503121562001c9e57600080fd5b62001ca98362001c72565b946020939093013593505050565b6001600160a01b0391909116815260200190565b60006020828403121562001cde57600080fd5b62001c6b8262001c72565b634e487b7160e01b600052602160045260246000fd5b6007811062001d1e57634e487b7160e01b600052602160045260246000fd5b9052565b8381526060810162001d38602083018562001cff565b6001600160a01b03929092166040919091015292915050565b634e487b7160e01b600052604160045260246000fd5b604051601f8201601f191681016001600160401b038111828210171562001d925762001d9262001d51565b604052919050565b60006001600160401b0382111562001db65762001db662001d51565b5060051b60200190565b600082601f83011262001dd257600080fd5b8135602062001deb62001de58362001d9a565b62001d67565b82815260059290921b8401810191818101908684111562001e0b57600080fd5b8286015b8481101562001e315762001e238162001c72565b835291830191830162001e0f565b509695505050505050565b600080600080600080600060e0888a03121562001e5857600080fd5b62001e638862001c72565b96506020880135955060408801356001600160401b038082111562001e8757600080fd5b62001e958b838c0162001dc0565b965060608a0135955060808a013591508082111562001eb357600080fd5b5062001ec28a828b0162001dc0565b93505062001ed360a0890162001c72565b915062001ee360c0890162001c72565b905092959891949750929550565b60006001600160401b0383111562001f0d5762001f0d62001d51565b62001f22601f8401601f191660200162001d67565b905082815283838301111562001f3757600080fd5b828260208301376000602084830101529392505050565b6000806000806080858703121562001f6557600080fd5b843593506020808601356001600160401b038082111562001f8557600080fd5b818801915088601f83011262001f9a57600080fd5b813562001fab62001de58262001d9a565b81815260059190911b8301840190848101908b83111562001fcb57600080fd5b8585015b838110156200201e5780358581111562001fe95760008081fd5b8601603f81018e1362001ffc5760008081fd5b6200200f8e898301356040840162001ef1565b84525091860191860162001fcf565b509750505050604087013593506200203c9150506060860162001c72565b905092959194509250565b6000602082840312156200205a57600080fd5b5035919050565b600080600080608085870312156200207857600080fd5b8435935060208501359250620020916040860162001c72565b91506200203c6060860162001c72565b600080600080600060a08688031215620020ba57600080fd5b620020c58662001c72565b945060208601359350604086013560ff81168114620020e357600080fd5b94979396509394606081013594506080013592915050565b60005b8381101562002118578181015183820152602001620020fe565b50506000910152565b600081518084526200213b816020860160208601620020fb565b601f01601f19169290920160200192915050565b6000602080835260a08301845182850152818501516080604086015281815180845260c08701915060c08160051b8801019350848301925060005b81811015620021bc5760bf19888603018352620021a985855162002121565b945092850192918501916001016200218a565b5050505060408501519150620021d6606085018362001cff565b60608501516001600160a01b03811660808601529150949350505050565b6000806000606084860312156200220a57600080fd5b620022158462001c72565b9250602084013591506200222c6040850162001c72565b90509250925092565b600080604083850312156200224957600080fd5b823591506200225b6020840162001c72565b90509250929050565b60208152600062001c6b602083018462002121565b600080600080608085870312156200229057600080fd5b6200229b8562001c72565b9350620022ab6020860162001c72565b9250620022bb6040860162001c72565b915060608501356001600160401b03811115620022d757600080fd5b8501601f81018713620022e957600080fd5b620022fa8782356020840162001ef1565b91505092959194509250565b60008060008060008060c087890312156200232057600080fd5b8635955060208701356001600160401b03808211156200233f57600080fd5b6200234d8a838b0162001dc0565b96506040890135955060608901359150808211156200236b57600080fd5b506200237a89828a0162001dc0565b9350506200238b6080880162001c72565b91506200239b60a0880162001c72565b90509295509295509295565b60008060408385031215620023bb57600080fd5b620023c68362001c72565b91506200225b6020840162001c72565b634e487b7160e01b600052603260045260246000fd5b6000600182016200240d57634e487b7160e01b600052601160045260246000fd5b5060010190565b600060018060a01b03808a16835288602084015260e060408401526200243e60e084018962001c10565b876060850152838103608085015262002458818862001c10565b95821660a0850152509290921660c0909101525095945050505050565b6000825162002489818460208701620020fb565b9190910192915050565b600060208284031215620024a657600080fd5b5051919050565b600181811c90821680620024c257607f821691505b602082108103620024e357634e487b7160e01b600052602260045260246000fd5b50919050565b6001600160a01b03848116825283166020820152606060408201819052600090620025179083018462002121565b95945050505050565b601f821115620013c757600081815260208120601f850160051c81016020861015620025495750805b601f850160051c820191505b818110156200256a5782815560010162002555565b505050505050565b81516001600160401b038111156200258e576200258e62001d51565b620025a6816200259f8454620024ad565b8462002520565b602080601f831160018114620025de5760008415620025c55750858301515b600019600386901b1c1916600185901b1785556200256a565b600085815260208120601f198616915b828110156200260f57888601518255948401946001909101908401620025ee565b50858210156200262e5787850151600019600388901b60f8161c191681555b5050505050600190811b0190555056fe60806040523480156200001157600080fd5b5060405162001aec38038062001aec8339810160408190526200003491620002aa565b600080546001600160a01b0389166001600160a01b0319918216811790925560048054909116909117905560018690558451620000799060029060208801906200013b565b5060088490558251620000949060039060208601906200013b565b50600580546001600160a01b038085166001600160a01b03199283161790925560068054928416929091169190911790556040516000908890620000d890620001a5565b6001600160a01b039091168152602001604051809103906000f08015801562000105573d6000803e3d6000fd5b50600980546001600160a01b0390921661010002610100600160a81b031990921691909117905550620003609650505050505050565b82805482825590600052602060002090810192821562000193579160200282015b828111156200019357825182546001600160a01b0319166001600160a01b039091161782556020909201916001909101906200015c565b50620001a1929150620001b3565b5090565b610cb28062000e3a83390190565b5b80821115620001a15760008155600101620001b4565b80516001600160a01b0381168114620001e257600080fd5b919050565b634e487b7160e01b600052604160045260246000fd5b600082601f8301126200020f57600080fd5b815160206001600160401b03808311156200022e576200022e620001e7565b8260051b604051601f19603f83011681018181108482111715620002565762000256620001e7565b6040529384528581018301938381019250878511156200027557600080fd5b83870191505b848210156200029f576200028f82620001ca565b835291830191908301906200027b565b979650505050505050565b600080600080600080600060e0888a031215620002c657600080fd5b620002d188620001ca565b602089015160408a015191985096506001600160401b0380821115620002f657600080fd5b620003048b838c01620001fd565b965060608a0151955060808a01519150808211156200032257600080fd5b50620003318a828b01620001fd565b9350506200034260a08901620001ca565b91506200035260c08901620001ca565b905092959891949750929550565b610aca80620003706000396000f3fe608060405234801561001057600080fd5b50600436106100b45760003560e01c8063abb428a611610071578063abb428a6146101aa578063c8f5f189146101bf578063d2f3fcc7146101d2578063e138d4ce146101da578063f5c0e3831461020a578063fc72a3851461021d57600080fd5b8063191733d6146100b95780632f1d7588146100ce5780639296057b146100e157806393a668b71461010757806396991e791461011a578063aab3a9d61461014a575b600080fd5b6100cc6100c73660046108b7565b61023a565b005b6100cc6100dc3660046108d9565b61039e565b6100f46100ef3660046108b7565b61040e565b6040519081526020015b60405180910390f35b6100cc6101153660046108b7565b6105a5565b6100cc6101283660046108b7565b600680546001600160a01b0319166001600160a01b0392909216919091179055565b6100cc6101583660046108b7565b600380546001810182556000919091527fc2575a0e9e593c00f959f8c92f12db2869c3395a3b0502d05e2516446f71f85b0180546001600160a01b0319166001600160a01b0392909216919091179055565b6101b26105f9565b6040516100fe919061090c565b6100cc6101cd3660046108b7565b610634565b6100f4610698565b6100cc6101e83660046108b7565b600580546001600160a01b0319166001600160a01b0392909216919091179055565b6100cc6102183660046108d9565b6106b7565b610225610741565b6040516100fe9998979695949392919061098a565b6003805461024a906001906109fe565b8154811061025a5761025a610a25565b6000918252602090912001546001600160a01b038281169116146102d55760405162461bcd60e51b815260206004820152602760248201527f4f6e6c79205472616e73706f727465722063616e2063616c6c207468697320666044820152663ab731ba34b7b760c91b60648201526084015b60405180910390fd5b600060095460ff1660068111156102ee576102ee610a3b565b1461033b5760405162461bcd60e51b815260206004820152601d60248201527f5061636b616765206d7573742062652061742070726f636573736f722e00000060448201526064016102cc565b600980546001919060ff19168280021790555060055460408051600180825260208201526001600160a01b039283169284169130917f7e89c4b1a4e2b51aae84eb1f90e8a34cb792ece5ac5cb63db4830c891220b28d910160405180910390a450565b6006546001600160a01b038281169116146103cb5760405162461bcd60e51b81526004016102cc90610a51565b600780546001600160a01b0319166001600160a01b03841617905560055b6009805460ff1916600183600681111561040557610405610a3b565b02179055505050565b6005546000906001600160a01b038381169116148061043a57506006546001600160a01b038381169116145b6104a45760405162461bcd60e51b815260206004820152603560248201527f4f6e6c792057686f6c6573616c6572206f72204469737472696275746f72206360448201527430b71031b0b636103a3434b990333ab731ba34b7b760591b60648201526084016102cc565b60095460019060ff1660068111156104be576104be610a3b565b10156105085760405162461bcd60e51b8152602060048201526019602482015278141c9bd91d58dd081b9bdd081c1a58dad959081d5c081e595d603a1b60448201526064016102cc565b6009805460ff1916600390811790915560055481546001600160a01b039091169190610536906001906109fe565b8154811061054657610546610a25565b6000918252602091829020015460408051600281526003938101939093526001600160a01b039091169130917f7e89c4b1a4e2b51aae84eb1f90e8a34cb792ece5ac5cb63db4830c891220b28d910160405180910390a4506001919050565b6006546001600160a01b038281169116146105d25760405162461bcd60e51b81526004016102cc90610a51565b60045b6009805460ff191660018360068111156105f1576105f1610a3b565b021790555050565b61060161087d565b50604080516060810182526005546001600160a01b03908116825260065481166020830152600754169181019190915290565b6007546001600160a01b038281169116146106915760405162461bcd60e51b815260206004820181905260248201527f5468697320437573746f6d6572206973206e6f74204173736f6369617465642e60448201526064016102cc565b60066105d5565b60095460009060ff1660068111156106b2576106b2610a3b565b905090565b6005546001600160a01b0382811691161461071f5760405162461bcd60e51b815260206004820152602260248201527f746869732057686f6c6573616c6572206973206e6f74204173736f6369617465604482015261321760f11b60648201526084016102cc565b600680546001600160a01b0319166001600160a01b03841617905560026103e9565b6004546001546008546006805460095460009586956060958795879587958695869586956001600160a01b03928316959194600294919360039391169160ff169081111561079157610791610a3b565b6009546005548654604080516020808402820181019092528281526101009094046001600160a01b03908116949316929189918301828280156107fd57602002820191906000526020600020905b81546001600160a01b031681526001909101906020018083116107df575b505050505096508480548060200260200160405190810160405280929190818152602001828054801561085957602002820191906000526020600020905b81546001600160a01b0316815260019091019060200180831161083b575b50505050509450985098509850985098509850985098509850909192939495969798565b60405180606001604052806003906020820280368337509192915050565b80356001600160a01b03811681146108b257600080fd5b919050565b6000602082840312156108c957600080fd5b6108d28261089b565b9392505050565b600080604083850312156108ec57600080fd5b6108f58361089b565b91506109036020840161089b565b90509250929050565b60608101818360005b600381101561093d5781516001600160a01b0316835260209283019290910190600101610915565b50505092915050565b600081518084526020808501945080840160005b8381101561097f5781516001600160a01b03168752958201959082019060010161095a565b509495945050505050565b6001600160a01b038a81168252602082018a9052610120604083018190526000916109b78483018c610946565b915089606085015283820360808501526109d1828a610946565b97811660a085015260c0840196909652505091831660e08301529091166101009091015295945050505050565b81810381811115610a1f57634e487b7160e01b600052601160045260246000fd5b92915050565b634e487b7160e01b600052603260045260246000fd5b634e487b7160e01b600052602160045260246000fd5b60208082526023908201527f54686973204469737472696275746f72206973206e6f74204173736f6369617460408201526232b21760e91b60608201526080019056fea2646970667358221220cc292a1b612117e8e240b9e6cb78b66605acf16748b5562cd50edfc0c9ae2a0264736f6c634300081300336080604052600060025534801561001557600080fd5b50604051610cb2380380610cb283398101604081905261003491610059565b600080546001600160a01b0319166001600160a01b0392909216919091179055610089565b60006020828403121561006b57600080fd5b81516001600160a01b038116811461008257600080fd5b9392505050565b610c1a806100986000396000f3fe608060405234801561001057600080fd5b506004361061004c5760003560e01c806327506f53146100515780633626a3681461006f57806378ce1365146100845780639ace38c21461009b575b600080fd5b6100596100c1565b6040516100669190610730565b60405180910390f35b61008261007d3660046108ba565b610310565b005b61008d60025481565b604051908152602001610066565b6100ae6100a9366004610951565b610590565b604051610066979695949392919061096a565b60025460609060008167ffffffffffffffff8111156100e2576100e2610817565b60405190808252806020026020018201604052801561014857816020015b6040805160e0810182526000808252602080830182905292820181905260608083018290526080830181905260a083015260c082015282526000199092019101816101005790505b50905060005b8281101561030957600081815260016020818152604092839020835160e08101855281548152928101546001600160a01b0390811692840192909252600281015490911692820192909252600382015460608201526004820180549192916080840191906101bb906109ca565b80601f01602080910402602001604051908101604052809291908181526020018280546101e7906109ca565b80156102345780601f1061020957610100808354040283529160200191610234565b820191906000526020600020905b81548152906001019060200180831161021757829003601f168201915b5050505050815260200160058201805461024d906109ca565b80601f0160208091040260200160405190810160405280929190818152602001828054610279906109ca565b80156102c65780601f1061029b576101008083540402835291602001916102c6565b820191906000526020600020905b8154815290600101906020018083116102a957829003601f168201915b505050505081526020016006820154815250508282815181106102eb576102eb610a04565b6020026020010181905250808061030190610a30565b91505061014e565b5092915050565b60025442906000036103ea576040805160e0810182528881526001600160a01b038089166020808401918252898316848601908152606085018a8152608086018a815260a087018a905260c087018990526002805460009081526001958690529890982087518155945193850180549487166001600160a01b03199586161790559151968401805497909516969092169590951790925590516003820155915190919060048201906103c29082610a98565b5060a082015160058201906103d79082610a98565b5060c0820151816006015590505061052b565b836001600060016002546103fe9190610b58565b815260200190815260200160002060000154146104615760405162461bcd60e51b815260206004820152601b60248201527f5472616e73616374696f6e206572726f72206f63637572726564210000000000604482015260640160405180910390fd5b6040805160e0810182528881526001600160a01b038089166020808401918252898316848601908152606085018a8152608086018a815260a087018a905260c087018990526002805460009081526001958690529890982087518155945193850180549487166001600160a01b03199586161790559151968401805497909516969092169590951790925590516003820155915190919060048201906105079082610a98565b5060a0820151600582019061051c9082610a98565b5060c082015181600601559050505b60016002600082825461053e9190610b71565b90915550506040517f30d01d358fb0899fe4d50947b2e9301c952d9eed09b14c7ecdcbeed4434557c49061057f90899089908990899087908a908a90610b84565b60405180910390a150505050505050565b6001602081905260009182526040909120805491810154600282015460038301546004840180546001600160a01b0394851695949093169391926105d3906109ca565b80601f01602080910402602001604051908101604052809291908181526020018280546105ff906109ca565b801561064c5780601f106106215761010080835404028352916020019161064c565b820191906000526020600020905b81548152906001019060200180831161062f57829003601f168201915b505050505090806005018054610661906109ca565b80601f016020809104026020016040519081016040528092919081815260200182805461068d906109ca565b80156106da5780601f106106af576101008083540402835291602001916106da565b820191906000526020600020905b8154815290600101906020018083116106bd57829003601f168201915b5050505050908060060154905087565b6000815180845260005b81811015610710576020818501810151868301820152016106f4565b506000602082860101526020601f19601f83011685010191505092915050565b60006020808301818452808551808352604092508286019150828160051b87010184880160005b838110156107ed57888303603f19018552815180518452878101516001600160a01b03908116898601528782015116878501526060808201519085015260808082015160e082870181905291906107b0838801826106ea565b9250505060a080830151868303828801526107cb83826106ea565b60c0948501519790940196909652505094870194925090860190600101610757565b509098975050505050505050565b80356001600160a01b038116811461081257600080fd5b919050565b634e487b7160e01b600052604160045260246000fd5b600082601f83011261083e57600080fd5b813567ffffffffffffffff8082111561085957610859610817565b604051601f8301601f19908116603f0116810190828211818310171561088157610881610817565b8160405283815286602085880101111561089a57600080fd5b836020870160208301376000602085830101528094505050505092915050565b60008060008060008060c087890312156108d357600080fd5b863595506108e3602088016107fb565b94506108f1604088016107fb565b935060608701359250608087013567ffffffffffffffff8082111561091557600080fd5b6109218a838b0161082d565b935060a089013591508082111561093757600080fd5b5061094489828a0161082d565b9150509295509295509295565b60006020828403121561096357600080fd5b5035919050565b8781526001600160a01b038781166020830152861660408201526060810185905260e0608082018190526000906109a3908301866106ea565b82810360a08401526109b581866106ea565b9150508260c083015298975050505050505050565b600181811c908216806109de57607f821691505b6020821081036109fe57634e487b7160e01b600052602260045260246000fd5b50919050565b634e487b7160e01b600052603260045260246000fd5b634e487b7160e01b600052601160045260246000fd5b600060018201610a4257610a42610a1a565b5060010190565b601f821115610a9357600081815260208120601f850160051c81016020861015610a705750805b601f850160051c820191505b81811015610a8f57828155600101610a7c565b5050505b505050565b815167ffffffffffffffff811115610ab257610ab2610817565b610ac681610ac084546109ca565b84610a49565b602080601f831160018114610afb5760008415610ae35750858301515b600019600386901b1c1916600185901b178555610a8f565b600085815260208120601f198616915b82811015610b2a57888601518255948401946001909101908401610b0b565b5085821015610b485787850151600019600388901b60f8161c191681555b5050505050600190811b01905550565b81810381811115610b6b57610b6b610a1a565b92915050565b80820180821115610b6b57610b6b610a1a565b8781526001600160a01b03878116602083015286166040820152606081018590526080810184905260e060a08201819052600090610bc4908301856106ea565b82810360c0840152610bd681856106ea565b9a995050505050505050505056fea2646970667358221220ad3e83d8579e9c39663418c580c249f59eddf57ba0bd58657d72b382bd72fdca64736f6c63430008130033608060405234801561001057600080fd5b5060405161135738038061135783398101604081905261002f91610123565b600080546001600160a01b03199081166001600160a01b0389811691821784556001805484168a8316179055600288905560038790556004805484168783161790556005805490931690851617909155600680546001600160a81b031916909117905560405182906100a0906100fa565b6001600160a01b039091168152602001604051809103906000f0801580156100cc573d6000803e3d6000fd5b50600880546001600160a01b0319166001600160a01b03929092169190911790555061018995505050505050565b610cb2806106a583390190565b80516001600160a01b038116811461011e57600080fd5b919050565b60008060008060008060c0878903121561013c57600080fd5b61014587610107565b955061015360208801610107565b9450604087015193506060870151925061016f60808801610107565b915061017d60a08801610107565b90509295509295509295565b61050d806101986000396000f3fe608060405234801561001057600080fd5b50600436106100625760003560e01c806324ce4bc81461006757806352b99968146100ba578063638e9a3d146100cf57806368188a28146100e2578063bfcf7f2f146100f8578063e83fc4ac14610128575b600080fd5b6001546002546003546006546004546005546008546040516100b1976001600160a01b03908116979695818116958216948216939190911691600160a01b90910460ff1690610437565b60405180910390f35b6100cd6100c83660046104a7565b610158565b005b6100cd6100dd3660046104a7565b6102b0565b6100ea6103fb565b6040519081526020016100b1565b6100cd6101063660046104a7565b600480546001600160a01b0319166001600160a01b0392909216919091179055565b6100cd6101363660046104a7565b600580546001600160a01b0319166001600160a01b0392909216919091179055565b6005546001600160a01b038281169116146101d95760405162461bcd60e51b815260206004820152603660248201527f4f6e6c792070726f636573736f72206f6620746865207061636b6167652063616044820152756e20726563656965766520746865207061636b61676560501b60648201526084015b60405180910390fd5b6001600654600160a01b900460ff1660028111156101f9576101f9610421565b146102425760405162461bcd60e51b8152602060048201526019602482015278141c9bd91d58dd081b9bdd081c1a58dad959081d5c081e595d603a1b60448201526064016101d0565b6006805460ff60a01b1916600160a11b1790556005546004546001805460408051928352600260208401526001600160a01b039485169493841693909116917f7e89c4b1a4e2b51aae84eb1f90e8a34cb792ece5ac5cb63db4830c891220b28d91015b60405180910390a450565b6004546001600160a01b038281169116146103265760405162461bcd60e51b815260206004820152603060248201527f4f6e6c79207472616e73706f72746572206f6620746865207061636b6167652060448201526f63616e207069636b207061636b61676560801b60648201526084016101d0565b6000600654600160a01b900460ff16600281111561034657610346610421565b146103935760405162461bcd60e51b815260206004820152601c60248201527f5061636b616765206d75737420626520617420537570706c6965722e0000000060448201526064016101d0565b6006805460ff60a01b1916600160a01b179055600554600454600180546040805183815260208101939093526001600160a01b039485169493841693909116917f7e89c4b1a4e2b51aae84eb1f90e8a34cb792ece5ac5cb63db4830c891220b28d91016102a5565b600654600090600160a01b900460ff16600281111561041c5761041c610421565b905090565b634e487b7160e01b600052602160045260246000fd5b6001600160a01b03898116825260208201899052604082018890528681166060830152858116608083015284811660a0830152831660c082015261010081016003831061049457634e487b7160e01b600052602160045260246000fd5b8260e08301529998505050505050505050565b6000602082840312156104b957600080fd5b81356001600160a01b03811681146104d057600080fd5b939250505056fea2646970667358221220611693453a4af7708f7c3b2300bfd281ddc00c25b3d733f29cd442a2a85ac0ce64736f6c634300081300336080604052600060025534801561001557600080fd5b50604051610cb2380380610cb283398101604081905261003491610059565b600080546001600160a01b0319166001600160a01b0392909216919091179055610089565b60006020828403121561006b57600080fd5b81516001600160a01b038116811461008257600080fd5b9392505050565b610c1a806100986000396000f3fe608060405234801561001057600080fd5b506004361061004c5760003560e01c806327506f53146100515780633626a3681461006f57806378ce1365146100845780639ace38c21461009b575b600080fd5b6100596100c1565b6040516100669190610730565b60405180910390f35b61008261007d3660046108ba565b610310565b005b61008d60025481565b604051908152602001610066565b6100ae6100a9366004610951565b610590565b604051610066979695949392919061096a565b60025460609060008167ffffffffffffffff8111156100e2576100e2610817565b60405190808252806020026020018201604052801561014857816020015b6040805160e0810182526000808252602080830182905292820181905260608083018290526080830181905260a083015260c082015282526000199092019101816101005790505b50905060005b8281101561030957600081815260016020818152604092839020835160e08101855281548152928101546001600160a01b0390811692840192909252600281015490911692820192909252600382015460608201526004820180549192916080840191906101bb906109ca565b80601f01602080910402602001604051908101604052809291908181526020018280546101e7906109ca565b80156102345780601f1061020957610100808354040283529160200191610234565b820191906000526020600020905b81548152906001019060200180831161021757829003601f168201915b5050505050815260200160058201805461024d906109ca565b80601f0160208091040260200160405190810160405280929190818152602001828054610279906109ca565b80156102c65780601f1061029b576101008083540402835291602001916102c6565b820191906000526020600020905b8154815290600101906020018083116102a957829003601f168201915b505050505081526020016006820154815250508282815181106102eb576102eb610a04565b6020026020010181905250808061030190610a30565b91505061014e565b5092915050565b60025442906000036103ea576040805160e0810182528881526001600160a01b038089166020808401918252898316848601908152606085018a8152608086018a815260a087018a905260c087018990526002805460009081526001958690529890982087518155945193850180549487166001600160a01b03199586161790559151968401805497909516969092169590951790925590516003820155915190919060048201906103c29082610a98565b5060a082015160058201906103d79082610a98565b5060c0820151816006015590505061052b565b836001600060016002546103fe9190610b58565b815260200190815260200160002060000154146104615760405162461bcd60e51b815260206004820152601b60248201527f5472616e73616374696f6e206572726f72206f63637572726564210000000000604482015260640160405180910390fd5b6040805160e0810182528881526001600160a01b038089166020808401918252898316848601908152606085018a8152608086018a815260a087018a905260c087018990526002805460009081526001958690529890982087518155945193850180549487166001600160a01b03199586161790559151968401805497909516969092169590951790925590516003820155915190919060048201906105079082610a98565b5060a0820151600582019061051c9082610a98565b5060c082015181600601559050505b60016002600082825461053e9190610b71565b90915550506040517f30d01d358fb0899fe4d50947b2e9301c952d9eed09b14c7ecdcbeed4434557c49061057f90899089908990899087908a908a90610b84565b60405180910390a150505050505050565b6001602081905260009182526040909120805491810154600282015460038301546004840180546001600160a01b0394851695949093169391926105d3906109ca565b80601f01602080910402602001604051908101604052809291908181526020018280546105ff906109ca565b801561064c5780601f106106215761010080835404028352916020019161064c565b820191906000526020600020905b81548152906001019060200180831161062f57829003601f168201915b505050505090806005018054610661906109ca565b80601f016020809104026020016040519081016040528092919081815260200182805461068d906109ca565b80156106da5780601f106106af576101008083540402835291602001916106da565b820191906000526020600020905b8154815290600101906020018083116106bd57829003601f168201915b5050505050908060060154905087565b6000815180845260005b81811015610710576020818501810151868301820152016106f4565b506000602082860101526020601f19601f83011685010191505092915050565b60006020808301818452808551808352604092508286019150828160051b87010184880160005b838110156107ed57888303603f19018552815180518452878101516001600160a01b03908116898601528782015116878501526060808201519085015260808082015160e082870181905291906107b0838801826106ea565b9250505060a080830151868303828801526107cb83826106ea565b60c0948501519790940196909652505094870194925090860190600101610757565b509098975050505050505050565b80356001600160a01b038116811461081257600080fd5b919050565b634e487b7160e01b600052604160045260246000fd5b600082601f83011261083e57600080fd5b813567ffffffffffffffff8082111561085957610859610817565b604051601f8301601f19908116603f0116810190828211818310171561088157610881610817565b8160405283815286602085880101111561089a57600080fd5b836020870160208301376000602085830101528094505050505092915050565b60008060008060008060c087890312156108d357600080fd5b863595506108e3602088016107fb565b94506108f1604088016107fb565b935060608701359250608087013567ffffffffffffffff8082111561091557600080fd5b6109218a838b0161082d565b935060a089013591508082111561093757600080fd5b5061094489828a0161082d565b9150509295509295509295565b60006020828403121561096357600080fd5b5035919050565b8781526001600160a01b038781166020830152861660408201526060810185905260e0608082018190526000906109a3908301866106ea565b82810360a08401526109b581866106ea565b9150508260c083015298975050505050505050565b600181811c908216806109de57607f821691505b6020821081036109fe57634e487b7160e01b600052602260045260246000fd5b50919050565b634e487b7160e01b600052603260045260246000fd5b634e487b7160e01b600052601160045260246000fd5b600060018201610a4257610a42610a1a565b5060010190565b601f821115610a9357600081815260208120601f850160051c81016020861015610a705750805b601f850160051c820191505b81811015610a8f57828155600101610a7c565b5050505b505050565b815167ffffffffffffffff811115610ab257610ab2610817565b610ac681610ac084546109ca565b84610a49565b602080601f831160018114610afb5760008415610ae35750858301515b600019600386901b1c1916600185901b178555610a8f565b600085815260208120601f198616915b82811015610b2a57888601518255948401946001909101908401610b0b565b5085821015610b485787850151600019600388901b60f8161c191681555b5050505050600190811b01905550565b81810381811115610b6b57610b6b610a1a565b92915050565b80820180821115610b6b57610b6b610a1a565b8781526001600160a01b03878116602083015286166040820152606081018590526080810184905260e060a08201819052600090610bc4908301856106ea565b82810360c0840152610bd681856106ea565b9a995050505050505050505056fea2646970667358221220ad3e83d8579e9c39663418c580c249f59eddf57ba0bd58657d72b382bd72fdca64736f6c63430008130033a2646970667358221220c12ae95466c5f8d9c79667a6ba419e13be027158653c707a2389eb2bc342459564736f6c63430008130033",
  "immutableReferences": {},
  "source": "// SPDX-License-Identifier: MIT\r\npragma solidity ^0.8.0;\r\n\r\npragma experimental ABIEncoderV2;\r\n\r\n\r\nimport \"./Crop.sol\";\r\nimport \"./Farmer.sol\";\r\nimport \"./Transporter.sol\";\r\nimport \"./Product.sol\";\r\nimport \"./Processor.sol\";\r\nimport \"./ProductW_D.sol\";\r\nimport \"./Wholesaler.sol\";\r\nimport \"./ProductD_C.sol\";\r\nimport \"./Distributor.sol\";\r\nimport \"./Customer.sol\";\r\nimport \"./UserData.sol\";\r\n\r\n\r\n//// New supply chain : farmer -> transporter -> processor -> transporter -> whole-saler -> transporter -> distributor -> transporter -> customer/hospital/pharmacy\r\n\r\ncontract SupplyChain is Farmer, Transporter, Processor, UserData {\r\n    address public Owner;\r\n\r\n\r\n    //create a variable for crops that are for sale\r\n\r\n    constructor() {\r\n        Owner = msg.sender;\r\n    }\r\n\r\n    modifier onlyOwner() {\r\n        require(Owner == msg.sender);\r\n        _;\r\n    }\r\n\r\n    modifier checkUser(address addr) {\r\n        require(addr == msg.sender);\r\n        _;\r\n    }\r\n\r\n    //enum roles {noRole, farmer, transporter, processor, wholesaler, distributor, customer}\r\n\r\n    //////////////// Events ////////////////////\r\n\r\n    event UserRegister(address indexed _address, bytes32 name);\r\n    event buyEvent(address buyer, address indexed seller, address packageAddr, bytes signature, uint indexed timestamp);\r\n    event respondEvent(address indexed buyer, address seller, address packageAddr, bytes signature, uint indexed timestamp);\r\n    event sendEvent(address seller, address buyer, address indexed packageAddr, bytes signature, uint indexed timestamp);\r\n    event receivedEvent(address indexed buyer, address seller, address packageAddr, bytes signature, uint indexed timestamp);\r\n\r\n//////////////// Event functions (All entities) ////////////////////\r\n\r\n    \r\n    function requestProduct(address buyer, address seller, address packageAddr, bytes memory signature) public {\r\n        emit buyEvent(buyer, seller, packageAddr, signature, block.timestamp);\r\n    }\r\n    \r\n    function respondToEntity(address buyer, address seller, address packageAddr, bytes memory signature) public {\r\n        emit respondEvent(buyer, seller, packageAddr, signature, block.timestamp);\r\n    }\r\n    \r\n    function sendPackageToEntity(address buyer, address seller, address packageAddr, bytes memory signature) public {\r\n        emit sendEvent(seller, buyer, packageAddr, signature, block.timestamp);\r\n    }\r\n\r\n    //verify package\r\n    function verify(address p, bytes32 hash, uint8 v, bytes32 r, bytes32 s) public pure returns(bool) {\r\n        return ecrecover(hash, v, r, s) == p;\r\n    } \r\n    /////////////// Users (Only Owner Executable) //////////////////////\r\n\r\n    \r\n    function registerUser(bytes32 name,string[] memory loc,uint256 role,address _userAddr) external onlyOwner {\r\n        userInfo[_userAddr].name = name;\r\n        userInfo[_userAddr].userLoc = loc;\r\n        userInfo[_userAddr].role = roles(role);\r\n        userInfo[_userAddr].userAddr = _userAddr;\r\n\r\n        if(userInfo[_userAddr].role == roles.farmer){\r\n            farmers.push(_userAddr);\r\n        }else if(userInfo[_userAddr].role == roles.transporter){\r\n            transporters.push(_userAddr);\r\n        }else if(userInfo[_userAddr].role == roles.processor){\r\n            processors.push(_userAddr);\r\n        }else if(userInfo[_userAddr].role == roles.wholesaler){\r\n            wholesalers.push(_userAddr);\r\n        }else if(userInfo[_userAddr].role == roles.distributor){\r\n            distributors.push(_userAddr);\r\n        }else if(userInfo[_userAddr].role == roles.customer){\r\n            customers.push(_userAddr);\r\n        }\r\n\r\n        emit UserRegister(_userAddr, name);\r\n    }\r\n\r\n    function changeUserRole(uint256 _role, address _addr) external onlyOwner returns (string memory){\r\n        userInfo[_addr].role = roles(_role);\r\n        return \"Role Updated!\";\r\n    }\r\n\r\n    function getUserInfo(address _address) external view onlyOwner returns (userData memory) {\r\n        return userInfo[_address];\r\n    }\r\n\r\n    \r\n\r\n\r\n    /////////////// Farmer //////////////////////\r\n\r\n    //add a variable into this function called boolean sale\r\n    function farmerCreatesCropPackage(bytes32 _description, uint256 _quantity, address _transporterAddr,address _processorAddr) external {\r\n        require(userInfo[msg.sender].role == roles.farmer);\r\n        createCropPackage(_description,_quantity,_transporterAddr,_processorAddr);\r\n    }\r\n\r\n    function farmerGetPackageCount() external view returns (uint256) {\r\n        require(userInfo[msg.sender].role == roles.farmer);\r\n        return getNoOfPackagesOfFarmer();\r\n    }\r\n\r\n    function farmerGetCropPackageAddresses() external view returns (address[] memory) {\r\n        address[] memory ret = getAllPackages();\r\n        return ret;\r\n    }\r\n\r\n    ///////////////  Transporter ///////////////\r\n\r\n    function transporterHandlePackage(address _address,uint256 transporterType,address cid) external {\r\n        require(userInfo[msg.sender].role == roles.transporter);\r\n        require(transporterType > 0);\r\n        handlePackage(_address, transporterType, cid);\r\n    }\r\n\r\n    ///////////////  Processor ///////////////\r\n    function processorReceivedCrops(address _addr) external {\r\n        require(userInfo[msg.sender].role == roles.processor);\r\n        processorReceivedPackage(_addr, msg.sender);\r\n    }\r\n\r\n    function processorCreatesNewProduct(bytes32 _description,address[] memory _cropAddr,uint256 _quantity,address[] memory _transporterAddr, address _wholesalerAddr, address _distributorAddr) external returns (string memory) {\r\n        require(userInfo[msg.sender].role == roles.processor);\r\n        processorCreatesProduct(msg.sender,_description,_cropAddr,_quantity,_transporterAddr, _wholesalerAddr,_distributorAddr);\r\n        return \"Product created!\";\r\n    }\r\n\r\n    function processorGetAllCrops() public view returns (address[] memory) {\r\n        require(userInfo[msg.sender].role == roles.processor);\r\n        address[] memory crops = getAllCrops();\r\n        return crops;\r\n    }\r\n\r\n    function getAllFarmers() public view returns (address[] memory){\r\n        return farmers;\r\n    }\r\n\r\n    function processorGetAllCreatedProducts() public view returns (address[] memory) {\r\n        require(userInfo[msg.sender].role == roles.processor);\r\n        address[] memory createdProducts = getAllCreatedProducts();\r\n        return createdProducts;\r\n    }\r\n\r\n    //function getSaleCrops() external view returns ()\r\n\r\n\r\n}",
  "sourcePath": "D:\\Projects\\FarmTrust1\\contracts\\SupplyChain.sol",
  "compiler": {
    "name": "solc",
    "version": "0.8.19+commit.7dd6d404.Emscripten.clang"
  },
  "schemaVersion": "3.4.13",
  "updatedAt": "2023-05-25T03:05:06.172Z",
  "networkType": "ethereum",
  "devdoc": {
    "kind": "dev",
    "methods": {},
    "version": 1
  },
  "userdoc": {
    "kind": "user",
    "methods": {},
    "version": 1
  }
}