{
  "contractName": "UserData",
  "abi": [
    {
      "inputs": [
        {
          "internalType": "address",
          "name": "",
          "type": "address"
        }
      ],
      "name": "userInfo",
      "outputs": [
        {
          "internalType": "bytes32",
          "name": "name",
          "type": "bytes32"
        },
        {
          "internalType": "enum roles",
          "name": "role",
          "type": "uint8"
        },
        {
          "internalType": "address",
          "name": "userAddr",
          "type": "address"
        }
      ],
      "stateMutability": "view",
      "type": "function"
    }
  ],
  "bytecode": "0x608060405234801561001057600080fd5b50610121806100206000396000f3fe6080604052348015600f57600080fd5b506004361060285760003560e01c80631959a00214602d575b600080fd5b60646038366004607a565b6000602081905290815260409020805460029091015460ff81169061010090046001600160a01b031683565b60405160719392919060a8565b60405180910390f35b600060208284031215608b57600080fd5b81356001600160a01b038116811460a157600080fd5b9392505050565b838152606081016007841060cc57634e487b7160e01b600052602160045260246000fd5b60208201939093526001600160a01b039190911660409091015291905056fea264697066735822122045c540af3dcf87bacc3bbdfec930d21a1a264d735b9b210dc5914f92d8c08e9f64736f6c63430008130033",
  "immutableReferences": {},
  "source": "// SPDX-License-Identifier: MIT\r\npragma solidity ^0.8.0;\r\n\r\nenum roles {noRole, farmer, transporter, processor, wholesaler, distributor, customer}\r\n\r\ncontract UserData {\r\n\r\n    struct userData {\r\n            bytes32 name;\r\n            string[] userLoc;\r\n            roles role;\r\n            address userAddr;\r\n    }\r\n\r\n    mapping(address => userData) public userInfo;\r\n}",
  "sourcePath": "D:\\Projects\\Farmtrust1\\contracts\\UserData.sol",
  "compiler": {
    "name": "solc",
    "version": "0.8.19+commit.7dd6d404.Emscripten.clang"
  },
  "schemaVersion": "3.4.13",
  "updatedAt": "2023-04-26T15:55:05.521Z",
  "devdoc": {
    "kind": "dev",
    "methods": {},
    "version": 1
  },
  "userdoc": {
    "kind": "user",
    "methods": {},
    "version": 1
  }
}