{
  "contractName": "UserData",
  "abi": [
    {
      "inputs": [
        {
          "internalType": "uint256",
          "name": "",
          "type": "uint256"
        }
      ],
      "name": "customers",
      "outputs": [
        {
          "internalType": "address",
          "name": "",
          "type": "address"
        }
      ],
      "stateMutability": "view",
      "type": "function"
    },
    {
      "inputs": [
        {
          "internalType": "uint256",
          "name": "",
          "type": "uint256"
        }
      ],
      "name": "distributors",
      "outputs": [
        {
          "internalType": "address",
          "name": "",
          "type": "address"
        }
      ],
      "stateMutability": "view",
      "type": "function"
    },
    {
      "inputs": [
        {
          "internalType": "uint256",
          "name": "",
          "type": "uint256"
        }
      ],
      "name": "farmers",
      "outputs": [
        {
          "internalType": "address",
          "name": "",
          "type": "address"
        }
      ],
      "stateMutability": "view",
      "type": "function"
    },
    {
      "inputs": [
        {
          "internalType": "uint256",
          "name": "",
          "type": "uint256"
        }
      ],
      "name": "processors",
      "outputs": [
        {
          "internalType": "address",
          "name": "",
          "type": "address"
        }
      ],
      "stateMutability": "view",
      "type": "function"
    },
    {
      "inputs": [
        {
          "internalType": "uint256",
          "name": "",
          "type": "uint256"
        }
      ],
      "name": "transporters",
      "outputs": [
        {
          "internalType": "address",
          "name": "",
          "type": "address"
        }
      ],
      "stateMutability": "view",
      "type": "function"
    },
    {
      "inputs": [
        {
          "internalType": "address",
          "name": "",
          "type": "address"
        }
      ],
      "name": "userInfo",
      "outputs": [
        {
          "internalType": "bytes32",
          "name": "name",
          "type": "bytes32"
        },
        {
          "internalType": "enum roles",
          "name": "role",
          "type": "uint8"
        },
        {
          "internalType": "address",
          "name": "userAddr",
          "type": "address"
        }
      ],
      "stateMutability": "view",
      "type": "function"
    },
    {
      "inputs": [
        {
          "internalType": "uint256",
          "name": "",
          "type": "uint256"
        }
      ],
      "name": "wholesalers",
      "outputs": [
        {
          "internalType": "address",
          "name": "",
          "type": "address"
        }
      ],
      "stateMutability": "view",
      "type": "function"
    },
    {
      "inputs": [
        {
          "internalType": "address",
          "name": "_addr",
          "type": "address"
        }
      ],
      "name": "getUser",
      "outputs": [
        {
          "components": [
            {
              "internalType": "bytes32",
              "name": "name",
              "type": "bytes32"
            },
            {
              "internalType": "string[]",
              "name": "userLoc",
              "type": "string[]"
            },
            {
              "internalType": "enum roles",
              "name": "role",
              "type": "uint8"
            },
            {
              "internalType": "address",
              "name": "userAddr",
              "type": "address"
            }
          ],
          "internalType": "struct UserData.userData",
          "name": "",
          "type": "tuple"
        }
      ],
      "stateMutability": "view",
      "type": "function"
    },
    {
      "inputs": [],
      "name": "getallFarmers",
      "outputs": [
        {
          "internalType": "address[]",
          "name": "",
          "type": "address[]"
        }
      ],
      "stateMutability": "view",
      "type": "function"
    },
    {
      "inputs": [],
      "name": "getallTransporters",
      "outputs": [
        {
          "internalType": "address[]",
          "name": "",
          "type": "address[]"
        }
      ],
      "stateMutability": "view",
      "type": "function"
    },
    {
      "inputs": [],
      "name": "getallProcessors",
      "outputs": [
        {
          "internalType": "address[]",
          "name": "",
          "type": "address[]"
        }
      ],
      "stateMutability": "view",
      "type": "function"
    },
    {
      "inputs": [],
      "name": "getallWholesalers",
      "outputs": [
        {
          "internalType": "address[]",
          "name": "",
          "type": "address[]"
        }
      ],
      "stateMutability": "view",
      "type": "function"
    },
    {
      "inputs": [],
      "name": "getallDistributors",
      "outputs": [
        {
          "internalType": "address[]",
          "name": "",
          "type": "address[]"
        }
      ],
      "stateMutability": "view",
      "type": "function"
    },
    {
      "inputs": [],
      "name": "getallCustomers",
      "outputs": [
        {
          "internalType": "address[]",
          "name": "",
          "type": "address[]"
        }
      ],
      "stateMutability": "view",
      "type": "function"
    }
  ],
  "bytecode": "0x608060405234801561001057600080fd5b5061087b806100206000396000f3fe608060405234801561001057600080fd5b50600436106100ca5760003560e01c8063835b417f1161007c578063835b417f146101a45780638afdd669146101ac57806390ff8ca0146101bf578063c0abda2a146101c7578063eba1b7ce146101da578063fc23328c146101e2578063fe7c58e9146101f557600080fd5b806303c6c711146100cf5780631959a002146100ed57806329c2a877146101365780634db6eabe1461016157806350b492ba146101695780636694cfa11461017c5780636f77926b14610184575b600080fd5b6100d7610208565b6040516100e49190610641565b60405180910390f35b6101276100fb36600461068e565b6006602052600090815260409020805460029091015460ff81169061010090046001600160a01b031683565b6040516100e4939291906106f6565b610149610144366004610723565b61026a565b6040516001600160a01b0390911681526020016100e4565b6100d7610294565b610149610177366004610723565b6102f4565b6100d7610304565b61019761019236600461068e565b610364565b6040516100e4919061073c565b6100d76104e1565b6101496101ba366004610723565b610541565b6100d7610551565b6101496101d5366004610723565b6105b1565b6100d76105c1565b6101496101f0366004610723565b610621565b610149610203366004610723565b610631565b6060600180548060200260200160405190810160405280929190818152602001828054801561026057602002820191906000526020600020905b81546001600160a01b03168152600190910190602001808311610242575b5050505050905090565b6001818154811061027a57600080fd5b6000918252602090912001546001600160a01b0316905081565b60606004805480602002602001604051908101604052809291908181526020018280548015610260576020028201919060005260206000209081546001600160a01b03168152600190910190602001808311610242575050505050905090565b6004818154811061027a57600080fd5b60606000805480602002602001604051908101604052809291908181526020018280548015610260576020028201919060005260206000209081546001600160a01b03168152600190910190602001808311610242575050505050905090565b61038f6040805160808101825260008082526060602083015290918201908152600060209091015290565b6001600160a01b03821660009081526006602090815260408083208151608081018352815481526001820180548451818702810187019095528085529195929486810194939192919084015b828210156104875783829060005260206000200180546103fa9061080b565b80601f01602080910402602001604051908101604052809291908181526020018280546104269061080b565b80156104735780601f1061044857610100808354040283529160200191610473565b820191906000526020600020905b81548152906001019060200180831161045657829003601f168201915b5050505050815260200190600101906103db565b50505090825250600282015460209091019060ff1660068111156104ad576104ad6106be565b60068111156104be576104be6106be565b81526002919091015461010090046001600160a01b031660209091015292915050565b60606002805480602002602001604051908101604052809291908181526020018280548015610260576020028201919060005260206000209081546001600160a01b03168152600190910190602001808311610242575050505050905090565b6000818154811061027a57600080fd5b60606003805480602002602001604051908101604052809291908181526020018280548015610260576020028201919060005260206000209081546001600160a01b03168152600190910190602001808311610242575050505050905090565b6005818154811061027a57600080fd5b60606005805480602002602001604051908101604052809291908181526020018280548015610260576020028201919060005260206000209081546001600160a01b03168152600190910190602001808311610242575050505050905090565b6003818154811061027a57600080fd5b6002818154811061027a57600080fd5b6020808252825182820181905260009190848201906040850190845b818110156106825783516001600160a01b03168352928401929184019160010161065d565b50909695505050505050565b6000602082840312156106a057600080fd5b81356001600160a01b03811681146106b757600080fd5b9392505050565b634e487b7160e01b600052602160045260246000fd5b600781106106f257634e487b7160e01b600052602160045260246000fd5b9052565b8381526060810161070a60208301856106d4565b6001600160a01b03929092166040919091015292915050565b60006020828403121561073557600080fd5b5035919050565b6000602080835260a08301845182850152818501516080604086015281815180845260c08701915060c08160051b880101935084830192506000805b828110156107d45788860360bf1901845284518051808852835b818110156107ad578281018a01518982018b01528901610792565b508781018901849052601f01601f1916909601870195509386019392860192600101610778565b5050505050604085015191506107ed60608501836106d4565b60608501516001600160a01b03811660808601529150949350505050565b600181811c9082168061081f57607f821691505b60208210810361083f57634e487b7160e01b600052602260045260246000fd5b5091905056fea26469706673582212205925e032d155021465bc6eece8f73e3e7a9cdbd779c4fb243a2d232cbde25a2c64736f6c63430008130033",
  "immutableReferences": {},
  "source": "// SPDX-License-Identifier: MIT\r\npragma solidity ^0.8.0;\r\n\r\nenum roles {noRole, farmer, transporter, processor, wholesaler, distributor, customer}\r\n\r\ncontract UserData {\r\n\r\n    address[] public farmers;\r\n    address[] public transporters;\r\n    address[] public processors;\r\n    address[] public wholesalers;\r\n    address[] public distributors;\r\n    address[] public customers;\r\n\r\n    struct userData {\r\n            bytes32 name;\r\n            string[] userLoc;\r\n            roles role;\r\n            address userAddr;\r\n    }\r\n\r\n    mapping(address => userData) public userInfo;\r\n\r\n    function getUser(address _addr) public view returns (userData memory) {\r\n        return userInfo[_addr];\r\n    }\r\n\r\n    function getallFarmers() public view returns (address[] memory) {\r\n        return farmers;\r\n    }\r\n\r\n    function getallTransporters() public view returns (address[] memory) {\r\n        return transporters;\r\n    }\r\n\r\n    function getallProcessors() public view returns (address[] memory) {\r\n        return processors;\r\n    }\r\n\r\n    function getallWholesalers() public view returns (address[] memory) {\r\n        return wholesalers;\r\n    }\r\n\r\n    function getallDistributors() public view returns (address[] memory) {\r\n        return distributors;\r\n    }\r\n\r\n    function getallCustomers() public view returns (address[] memory) {\r\n        return customers;\r\n    }\r\n}",
  "sourcePath": "D:\\Projects\\FarmTrust1\\contracts\\UserData.sol",
  "compiler": {
    "name": "solc",
    "version": "0.8.19+commit.7dd6d404.Emscripten.clang"
  },
  "schemaVersion": "3.4.13",
  "updatedAt": "2023-05-25T03:04:58.818Z",
  "devdoc": {
    "kind": "dev",
    "methods": {},
    "version": 1
  },
  "userdoc": {
    "kind": "user",
    "methods": {},
    "version": 1
  }
}