{
  "contractName": "UserData",
  "abi": [
    {
      "inputs": [
        {
          "internalType": "uint256",
          "name": "",
          "type": "uint256"
        }
      ],
      "name": "customers",
      "outputs": [
        {
          "internalType": "address",
          "name": "",
          "type": "address"
        }
      ],
      "stateMutability": "view",
      "type": "function"
    },
    {
      "inputs": [
        {
          "internalType": "uint256",
          "name": "",
          "type": "uint256"
        }
      ],
      "name": "distributors",
      "outputs": [
        {
          "internalType": "address",
          "name": "",
          "type": "address"
        }
      ],
      "stateMutability": "view",
      "type": "function"
    },
    {
      "inputs": [
        {
          "internalType": "uint256",
          "name": "",
          "type": "uint256"
        }
      ],
      "name": "farmers",
      "outputs": [
        {
          "internalType": "address",
          "name": "",
          "type": "address"
        }
      ],
      "stateMutability": "view",
      "type": "function"
    },
    {
      "inputs": [
        {
          "internalType": "uint256",
          "name": "",
          "type": "uint256"
        }
      ],
      "name": "processors",
      "outputs": [
        {
          "internalType": "address",
          "name": "",
          "type": "address"
        }
      ],
      "stateMutability": "view",
      "type": "function"
    },
    {
      "inputs": [
        {
          "internalType": "uint256",
          "name": "",
          "type": "uint256"
        }
      ],
      "name": "transporters",
      "outputs": [
        {
          "internalType": "address",
          "name": "",
          "type": "address"
        }
      ],
      "stateMutability": "view",
      "type": "function"
    },
    {
      "inputs": [
        {
          "internalType": "address",
          "name": "",
          "type": "address"
        }
      ],
      "name": "userInfo",
      "outputs": [
        {
          "internalType": "bytes32",
          "name": "name",
          "type": "bytes32"
        },
        {
          "internalType": "enum roles",
          "name": "role",
          "type": "uint8"
        },
        {
          "internalType": "address",
          "name": "userAddr",
          "type": "address"
        }
      ],
      "stateMutability": "view",
      "type": "function"
    },
    {
      "inputs": [
        {
          "internalType": "uint256",
          "name": "",
          "type": "uint256"
        }
      ],
      "name": "wholesalers",
      "outputs": [
        {
          "internalType": "address",
          "name": "",
          "type": "address"
        }
      ],
      "stateMutability": "view",
      "type": "function"
    }
  ],
  "bytecode": "0x608060405234801561001057600080fd5b5061028b806100206000396000f3fe608060405234801561001057600080fd5b506004361061006d5760003560e01c80631959a0021461007257806329c2a877146100c457806350b492ba146100ef5780638afdd66914610102578063c0abda2a14610115578063fc23328c14610128578063fe7c58e91461013b575b600080fd5b6100ac6100803660046101c8565b6006602052600090815260409020805460029091015460ff81169061010090046001600160a01b031683565b6040516100bb939291906101f8565b60405180910390f35b6100d76100d236600461023c565b61014e565b6040516001600160a01b0390911681526020016100bb565b6100d76100fd36600461023c565b610178565b6100d761011036600461023c565b610188565b6100d761012336600461023c565b610198565b6100d761013636600461023c565b6101a8565b6100d761014936600461023c565b6101b8565b6001818154811061015e57600080fd5b6000918252602090912001546001600160a01b0316905081565b6004818154811061015e57600080fd5b6000818154811061015e57600080fd5b6005818154811061015e57600080fd5b6003818154811061015e57600080fd5b6002818154811061015e57600080fd5b6000602082840312156101da57600080fd5b81356001600160a01b03811681146101f157600080fd5b9392505050565b838152606081016007841061021d57634e487b7160e01b600052602160045260246000fd5b60208201939093526001600160a01b0391909116604090910152919050565b60006020828403121561024e57600080fd5b503591905056fea264697066735822122079c856210a7363f9aeeb54c63d003634c522469f239acd3c7870ad8ae516805b64736f6c63430008130033",
  "immutableReferences": {},
  "source": "// SPDX-License-Identifier: MIT\r\npragma solidity ^0.8.0;\r\n\r\nenum roles {noRole, farmer, transporter, processor, wholesaler, distributor, customer}\r\n\r\ncontract UserData {\r\n\r\n    address[] public farmers;\r\n    address[] public transporters;\r\n    address[] public processors;\r\n    address[] public wholesalers;\r\n    address[] public distributors;\r\n    address[] public customers;\r\n\r\n    struct userData {\r\n            bytes32 name;\r\n            string[] userLoc;\r\n            roles role;\r\n            address userAddr;\r\n    }\r\n\r\n    mapping(address => userData) public userInfo;\r\n}",
  "sourcePath": "D:\\Projects\\FarmTrust1\\contracts\\UserData.sol",
  "compiler": {
    "name": "solc",
    "version": "0.8.19+commit.7dd6d404.Emscripten.clang"
  },
  "schemaVersion": "3.4.13",
  "updatedAt": "2023-05-07T07:47:36.251Z",
  "devdoc": {
    "kind": "dev",
    "methods": {},
    "version": 1
  },
  "userdoc": {
    "kind": "user",
    "methods": {},
    "version": 1
  }
}